{"core/Learning.sol":{"Learning":{"abi":[{"inputs":[{"internalType":"address","name":"_agentRegistryAddress","type":"address"}],"stateMutability":"nonpayable","type":"constructor"},{"anonymous":false,"inputs":[{"indexed":true,"internalType":"address","name":"agent1","type":"address"},{"indexed":true,"internalType":"address","name":"agent2","type":"address"},{"indexed":true,"internalType":"bytes32","name":"collaborationId","type":"bytes32"},{"indexed":false,"internalType":"string","name":"eventType","type":"string"},{"indexed":false,"internalType":"uint256","name":"timestamp","type":"uint256"}],"name":"CollaborationEvent","type":"event"},{"anonymous":false,"inputs":[{"indexed":true,"internalType":"uint256","name":"eventId","type":"uint256"},{"indexed":true,"internalType":"address","name":"agentAddress","type":"address"},{"indexed":false,"internalType":"string","name":"eventType","type":"string"},{"indexed":false,"internalType":"uint256","name":"timestamp","type":"uint256"}],"name":"LearningEventRecorded","type":"event"},{"anonymous":false,"inputs":[{"indexed":true,"internalType":"address","name":"agentAddress","type":"address"},{"indexed":false,"internalType":"string","name":"milestoneType","type":"string"},{"indexed":false,"internalType":"uint256","name":"value","type":"uint256"},{"indexed":false,"internalType":"uint256","name":"timestamp","type":"uint256"}],"name":"LearningMilestone","type":"event"},{"anonymous":false,"inputs":[{"indexed":true,"internalType":"address","name":"agentAddress","type":"address"},{"indexed":true,"internalType":"string","name":"skillTag","type":"string"},{"indexed":false,"internalType":"uint256","name":"oldScore","type":"uint256"},{"indexed":false,"internalType":"uint256","name":"newScore","type":"uint256"},{"indexed":false,"internalType":"uint256","name":"timestamp","type":"uint256"}],"name":"SkillImprovement","type":"event"},{"anonymous":false,"inputs":[{"indexed":true,"internalType":"address","name":"agentAddress","type":"address"},{"indexed":true,"internalType":"bytes32","name":"taskId","type":"bytes32"},{"indexed":false,"internalType":"uint256","name":"qualityScore","type":"uint256"},{"indexed":false,"internalType":"uint256","name":"timeSpent","type":"uint256"},{"indexed":false,"internalType":"uint256","name":"timestamp","type":"uint256"}],"name":"TaskCompletion","type":"event"},{"inputs":[{"internalType":"uint256","name":"","type":"uint256"}],"name":"eventIds","outputs":[{"internalType":"uint256","name":"","type":"uint256"}],"stateMutability":"view","type":"function"},{"inputs":[{"internalType":"uint256","name":"","type":"uint256"}],"name":"events","outputs":[{"internalType":"address","name":"agentAddress","type":"address"},{"internalType":"string","name":"eventType","type":"string"},{"internalType":"string","name":"data","type":"string"},{"internalType":"uint256","name":"timestamp","type":"uint256"}],"stateMutability":"view","type":"function"},{"inputs":[{"internalType":"address","name":"agentAddress","type":"address"}],"name":"getAgentEvents","outputs":[{"internalType":"uint256[]","name":"","type":"uint256[]"}],"stateMutability":"view","type":"function"},{"inputs":[],"name":"getAllEvents","outputs":[{"internalType":"uint256[]","name":"","type":"uint256[]"}],"stateMutability":"view","type":"function"},{"inputs":[{"internalType":"uint256","name":"eventId","type":"uint256"}],"name":"getEventDetails","outputs":[{"components":[{"internalType":"address","name":"agentAddress","type":"address"},{"internalType":"string","name":"eventType","type":"string"},{"internalType":"string","name":"data","type":"string"},{"internalType":"uint256","name":"timestamp","type":"uint256"}],"internalType":"struct Learning.LearningEvent","name":"","type":"tuple"}],"stateMutability":"view","type":"function"},{"inputs":[{"internalType":"string","name":"eventType","type":"string"}],"name":"getEventsByType","outputs":[{"internalType":"uint256[]","name":"","type":"uint256[]"}],"stateMutability":"view","type":"function"},{"inputs":[],"name":"getTotalEventCount","outputs":[{"internalType":"uint256","name":"","type":"uint256"}],"stateMutability":"view","type":"function"},{"inputs":[{"internalType":"address","name":"agent1","type":"address"},{"internalType":"address","name":"agent2","type":"address"},{"internalType":"bytes32","name":"collaborationId","type":"bytes32"},{"internalType":"string","name":"eventType","type":"string"}],"name":"recordCollaboration","outputs":[],"stateMutability":"nonpayable","type":"function"},{"inputs":[{"internalType":"address","name":"agentAddress","type":"address"},{"internalType":"string","name":"eventType","type":"string"},{"internalType":"string","name":"data","type":"string"}],"name":"recordEvent","outputs":[{"internalType":"uint256","name":"","type":"uint256"}],"stateMutability":"nonpayable","type":"function"},{"inputs":[{"internalType":"address","name":"agentAddress","type":"address"},{"internalType":"string","name":"milestoneType","type":"string"},{"internalType":"uint256","name":"value","type":"uint256"}],"name":"recordLearningMilestone","outputs":[],"stateMutability":"nonpayable","type":"function"},{"inputs":[{"internalType":"address","name":"agentAddress","type":"address"},{"internalType":"string","name":"skillTag","type":"string"},{"internalType":"uint256","name":"oldScore","type":"uint256"},{"internalType":"uint256","name":"newScore","type":"uint256"}],"name":"recordSkillImprovement","outputs":[],"stateMutability":"nonpayable","type":"function"},{"inputs":[{"internalType":"address","name":"agentAddress","type":"address"},{"internalType":"bytes32","name":"taskId","type":"bytes32"},{"internalType":"uint256","name":"qualityScore","type":"uint256"},{"internalType":"uint256","name":"timeSpent","type":"uint256"}],"name":"recordTaskCompletion","outputs":[],"stateMutability":"nonpayable","type":"function"}],"evm":{"bytecode":{"linkReferences":{},"object":"608060405234801561001057600080fd5b50604051611b88380380611b8883398101604081905261002f91610059565b600380546001600160a01b0319166001600160a01b03929092169190911790556001600255610089565b60006020828403121561006b57600080fd5b81516001600160a01b038116811461008257600080fd5b9392505050565b611af0806100986000396000f3fe608060405234801561001057600080fd5b50600436106100b45760003560e01c8063bcf52ef811610071578063bcf52ef814610152578063c27a500d14610165578063d6ff0ab41461016d578063ec38d5a014610180578063f2a5194d146101a0578063ffbf39c1146101b357600080fd5b806309ce3849146100b95780630b791430146100ce5780630ed0f06b146100fa578063649ad6321461010c578063870639f81461012c578063998f6ac01461013f575b600080fd5b6100cc6100c7366004611145565b6101c6565b005b6100e16100dc36600461117e565b6102ed565b6040516100f194939291906111e7565b60405180910390f35b6001545b6040519081526020016100f1565b61011f61011a36600461122f565b610430565b6040516100f1919061124a565b61011f61013a366004611331565b6105af565b6100fe61014d36600461117e565b610738565b6100cc610160366004611366565b610759565b61011f6107f9565b6100cc61017b3660046113bd565b610851565b61019361018e36600461117e565b610909565b6040516100f19190611425565b6100fe6101ae366004611487565b610a9c565b6100cc6101c13660046114fb565b610b87565b60648211156102285760405162461bcd60e51b815260206004820152602360248201527f5175616c6974792073636f7265206d757374206265206265747765656e20302d60448201526203130360ec1b60648201526084015b60405180910390fd5b600061023384610cfe565b61023c84610e35565b61024584610e35565b60405160200161025793929190611559565b60408051601f19818403018152828201909152600f82526e3a30b9b5afb1b7b6b83632ba34b7b760891b6020830152915061029490869083610a9c565b506040805184815260208101849052429181019190915284906001600160a01b038716907fb13a3274a663afdb60e66f8ea7b016c80fc0bae53534bfd255b32cdccbb9f5b4906060015b60405180910390a35050505050565b600060208190529081526040902080546001820180546001600160a01b039092169291610319906115fa565b80601f0160208091040260200160405190810160405280929190818152602001828054610345906115fa565b80156103925780601f1061036757610100808354040283529160200191610392565b820191906000526020600020905b81548152906001019060200180831161037557829003601f168201915b5050505050908060020180546103a7906115fa565b80601f01602080910402602001604051908101604052809291908181526020018280546103d3906115fa565b80156104205780601f106103f557610100808354040283529160200191610420565b820191906000526020600020905b81548152906001019060200180831161040357829003601f168201915b5050505050908060030154905084565b60606000805b6001548110156104aa57836001600160a01b03166000806001848154811061046057610460611634565b600091825260208083209091015483528201929092526040019020546001600160a01b031603610498578161049481611660565b9250505b806104a281611660565b915050610436565b5060008167ffffffffffffffff8111156104c6576104c661128e565b6040519080825280602002602001820160405280156104ef578160200160208202803683370190505b5090506000805b6001548110156105a557856001600160a01b03166000806001848154811061052057610520611634565b600091825260208083209091015483528201929092526040019020546001600160a01b031603610593576001818154811061055d5761055d611634565b906000526020600020015483838151811061057a5761057a611634565b60209081029190910101528161058f81611660565b9250505b8061059d81611660565b9150506104f6565b5090949350505050565b60606000805b600154811015610633578380519060200120600080600184815481106105dd576105dd611634565b906000526020600020015481526020019081526020016000206001016040516106069190611679565b604051809103902003610621578161061d81611660565b9250505b8061062b81611660565b9150506105b5565b5060008167ffffffffffffffff81111561064f5761064f61128e565b604051908082528060200260200182016040528015610678578160200160208202803683370190505b5090506000805b6001548110156105a5578580519060200120600080600184815481106106a7576106a7611634565b906000526020600020015481526020019081526020016000206001016040516106d09190611679565b60405180910390200361072657600181815481106106f0576106f0611634565b906000526020600020015483838151811061070d5761070d611634565b60209081029190910101528161072281611660565b9250505b8061073081611660565b91505061067f565b6001818154811061074857600080fd5b600091825260209091200154905081565b60008261076583610e35565b6040516020016107769291906116ef565b60408051601f1981840301815282820190915260098252686d696c6573746f6e6560b81b602083015291506107ad90859083610a9c565b50836001600160a01b03167fcff697fb21a631d739ba514768567da89581a3278707fb990bbb169e71f269868484426040516107eb93929190611761565b60405180910390a250505050565b6060600180548060200260200160405190810160405280929190818152602001828054801561084757602002820191906000526020600020905b815481526020019060010190808311610833575b5050505050905090565b600061085c83610cfe565b61086585610f3e565b8360405160200161087893929190611786565b60408051601f19818403018152828201909152600d82526c31b7b63630b137b930ba34b7b760991b602083015291506108b390869083610a9c565b5082846001600160a01b0316866001600160a01b03167ffbf0c0ec7f109cd21de232cfc50c2fd7f9656fa7a50f95541ab5593e4783b1ca85426040516108fa92919061182f565b60405180910390a45050505050565b61093d604051806080016040528060006001600160a01b031681526020016060815260200160608152602001600081525090565b6000828152602081815260409182902082516080810190935280546001600160a01b031683526001810180549192840191610977906115fa565b80601f01602080910402602001604051908101604052809291908181526020018280546109a3906115fa565b80156109f05780601f106109c5576101008083540402835291602001916109f0565b820191906000526020600020905b8154815290600101906020018083116109d357829003601f168201915b50505050508152602001600282018054610a09906115fa565b80601f0160208091040260200160405190810160405280929190818152602001828054610a35906115fa565b8015610a825780601f10610a5757610100808354040283529160200191610a82565b820191906000526020600020905b815481529060010190602001808311610a6557829003601f168201915b505050505081526020016003820154815250509050919050565b6002805460009182919082610ab083611660565b90915550600081815260208190526040902080546001600160a01b0319166001600160a01b03881617815590915060018101610aec86826118a0565b5060028101610afb85826118a0565b5042600382018190556001805480820182556000919091527fb10e2d527612073b26eecdfd717e6a320cf44b4afac2b0732d9fcbe2b7fa0cf6018390556040516001600160a01b0388169184917f216116d948fbe5e509c4dce846d98610c1ab3ba2be56176d2e19306b28f6f37091610b76918a919061182f565b60405180910390a350949350505050565b818111610be65760405162461bcd60e51b815260206004820152602760248201527f4e65772073636f7265206d75737420626520686967686572207468616e206f6c604482015266642073636f726560c81b606482015260840161021f565b6064811115610c375760405162461bcd60e51b815260206004820152601b60248201527f53636f7265206d757374206265206265747765656e20302d3130300000000000604482015260640161021f565b600083610c4384610e35565b610c4c84610e35565b604051602001610c5e93929190611960565b60408051601f1981840301815282820190915260118252701cdada5b1b17da5b5c1c9bdd995b595b9d607a1b60208301529150610c9d90869083610a9c565b5083604051610cac91906119fe565b60408051918290038220858352602083018590524291830191909152906001600160a01b038716907fb680df77c4ca7af1058cce109b4f75ed8ab998cff33dab8c2557b2843068689d906060016102de565b606060005b60208160ff16108015610d375750828160ff1660208110610d2657610d26611634565b1a60f81b6001600160f81b03191615155b15610d4e5780610d4681611a1a565b915050610d03565b60008160ff1667ffffffffffffffff811115610d6c57610d6c61128e565b6040519080825280601f01601f191660200182016040528015610d96576020820181803683370190505b509050600091505b60208260ff16108015610dd25750838260ff1660208110610dc157610dc1611634565b1a60f81b6001600160f81b03191615155b15610e2e57838260ff1660208110610dec57610dec611634565b1a60f81b818360ff1681518110610e0557610e05611634565b60200101906001600160f81b031916908160001a90535081610e2681611a1a565b925050610d9e565b9392505050565b606081600003610e5c5750506040805180820190915260018152600360fc1b602082015290565b8160005b8115610e865780610e7081611660565b9150610e7f9050600a83611a4f565b9150610e60565b60008167ffffffffffffffff811115610ea157610ea161128e565b6040519080825280601f01601f191660200182016040528015610ecb576020820181803683370190505b5090505b8415610f3657610ee0600183611a63565b9150610eed600a86611a7c565b610ef8906030611a90565b60f81b818381518110610f0d57610f0d611634565b60200101906001600160f81b031916908160001a905350610f2f600a86611a4f565b9450610ecf565b949350505050565b604080518082018252601081526f181899199a1a9b1b9c1cb0b131b232b360811b60208201528151602a80825260608281019094526001600160a01b0385169291600091602082018180368337019050509050600360fc1b81600081518110610fa957610fa9611634565b60200101906001600160f81b031916908160001a905350600f60fb1b81600181518110610fd857610fd8611634565b60200101906001600160f81b031916908160001a90535060005b6014811015611120578260048561100a84600c611a90565b6020811061101a5761101a611634565b1a60f81b6001600160f81b031916901c60f81c60ff168151811061104057611040611634565b01602001516001600160f81b0319168261105b836002611aa3565b611066906002611a90565b8151811061107657611076611634565b60200101906001600160f81b031916908160001a905350828461109a83600c611a90565b602081106110aa576110aa611634565b825191901a600f169081106110c1576110c1611634565b01602001516001600160f81b031916826110dc836002611aa3565b6110e7906003611a90565b815181106110f7576110f7611634565b60200101906001600160f81b031916908160001a9053508061111881611660565b915050610ff2565b50949350505050565b80356001600160a01b038116811461114057600080fd5b919050565b6000806000806080858703121561115b57600080fd5b61116485611129565b966020860135965060408601359560600135945092505050565b60006020828403121561119057600080fd5b5035919050565b60005b838110156111b257818101518382015260200161119a565b50506000910152565b600081518084526111d3816020860160208601611197565b601f01601f19169290920160200192915050565b6001600160a01b038516815260806020820181905260009061120b908301866111bb565b828103604084015261121d81866111bb565b91505082606083015295945050505050565b60006020828403121561124157600080fd5b610e2e82611129565b6020808252825182820181905260009190848201906040850190845b8181101561128257835183529284019291840191600101611266565b50909695505050505050565b634e487b7160e01b600052604160045260246000fd5b600082601f8301126112b557600080fd5b813567ffffffffffffffff808211156112d0576112d061128e565b604051601f8301601f19908116603f011681019082821181831017156112f8576112f861128e565b8160405283815286602085880101111561131157600080fd5b836020870160208301376000602085830101528094505050505092915050565b60006020828403121561134357600080fd5b813567ffffffffffffffff81111561135a57600080fd5b610f36848285016112a4565b60008060006060848603121561137b57600080fd5b61138484611129565b9250602084013567ffffffffffffffff8111156113a057600080fd5b6113ac868287016112a4565b925050604084013590509250925092565b600080600080608085870312156113d357600080fd5b6113dc85611129565b93506113ea60208601611129565b925060408501359150606085013567ffffffffffffffff81111561140d57600080fd5b611419878288016112a4565b91505092959194509250565b602080825282516001600160a01b0316828201528201516080604083015260009061145360a08401826111bb565b90506040840151601f1984830301606085015261147082826111bb565b915050606084015160808401528091505092915050565b60008060006060848603121561149c57600080fd5b6114a584611129565b9250602084013567ffffffffffffffff808211156114c257600080fd5b6114ce878388016112a4565b935060408601359150808211156114e457600080fd5b506114f1868287016112a4565b9150509250925092565b6000806000806080858703121561151157600080fd5b61151a85611129565b9350602085013567ffffffffffffffff81111561153657600080fd5b611542878288016112a4565b949794965050505060408301359260600135919050565b6a3d913a30b9b5a4b2111d1160a91b8152835160009061158081600b850160208901611197565b7011161138bab0b634ba3ca9b1b7b932911d60791b600b9184019182015284516115b181601c840160208901611197565b6c16113a34b6b2a9b832b73a111d60991b601c929091019182015283516115df816029840160208801611197565b607d60f81b60299290910191820152602a0195945050505050565b600181811c9082168061160e57607f821691505b60208210810361162e57634e487b7160e01b600052602260045260246000fd5b50919050565b634e487b7160e01b600052603260045260246000fd5b634e487b7160e01b600052601160045260246000fd5b6000600182016116725761167261164a565b5060010190565b6000808354611687816115fa565b6001828116801561169f57600181146116b4576116e3565b60ff19841687528215158302870194506116e3565b8760005260208060002060005b858110156116da5781548a8201529084019082016116c1565b50505082870194505b50929695505050505050565b713d9136b4b632b9ba37b732aa3cb832911d1160711b8152825160009061171d816012850160208801611197565b691116113b30b63ab2911d60b11b601291840191820152835161174781601c840160208801611197565b607d60f81b601c9290910191820152601d01949350505050565b60608152600061177460608301866111bb565b60208301949094525060400152919050565b733d9131b7b63630b137b930ba34b7b724b2111d1160611b815283516000906117b6816014850160208901611197565b6c1116113830b93a3732b9111d1160991b60149184019182015284516117e3816021840160208901611197565b6e11161132bb32b73a2a3cb832911d1160891b602192909101918201528351611813816030840160208801611197565b61227d60f01b6030929091019182015260320195945050505050565b60408152600061184260408301856111bb565b90508260208301529392505050565b601f82111561189b57600081815260208120601f850160051c810160208610156118785750805b601f850160051c820191505b8181101561189757828155600101611884565b5050505b505050565b815167ffffffffffffffff8111156118ba576118ba61128e565b6118ce816118c884546115fa565b84611851565b602080601f83116001811461190357600084156118eb5750858301515b600019600386901b1c1916600185901b178555611897565b600085815260208120601f198616915b8281101561193257888601518255948401946001909101908401611913565b50858210156119505787850151600019600388901b60f8161c191681555b5050505050600190811b01905550565b6c3d9139b5b4b6362a30b3911d1160991b8152835160009061198981600d850160208901611197565b6c11161137b63229b1b7b932911d60991b600d9184019182015284516119b681601a840160208901611197565b6b16113732bba9b1b7b932911d60a11b601a929091019182015283516119e3816026840160208801611197565b607d60f81b6026929091019182015260270195945050505050565b60008251611a10818460208701611197565b9190910192915050565b600060ff821660ff8103611a3057611a3061164a565b60010192915050565b634e487b7160e01b600052601260045260246000fd5b600082611a5e57611a5e611a39565b500490565b81810381811115611a7657611a7661164a565b92915050565b600082611a8b57611a8b611a39565b500690565b80820180821115611a7657611a7661164a565b8082028115828204841417611a7657611a7661164a56fea2646970667358221220a194f1ddbd3d0657a427c39a1a5614134d9796fc514e20eb194cbd61d9c68a2364736f6c63430008140033","opcodes":"PUSH1 0x80 PUSH1 0x40 MSTORE CALLVALUE DUP1 ISZERO PUSH2 0x10 JUMPI PUSH1 0x0 DUP1 REVERT JUMPDEST POP PUSH1 0x40 MLOAD PUSH2 0x1B88 CODESIZE SUB DUP1 PUSH2 0x1B88 DUP4 CODECOPY DUP2 ADD PUSH1 0x40 DUP2 SWAP1 MSTORE PUSH2 0x2F SWAP2 PUSH2 0x59 JUMP JUMPDEST PUSH1 0x3 DUP1 SLOAD PUSH1 0x1 PUSH1 0x1 PUSH1 0xA0 SHL SUB NOT AND PUSH1 0x1 PUSH1 0x1 PUSH1 0xA0 SHL SUB SWAP3 SWAP1 SWAP3 AND SWAP2 SWAP1 SWAP2 OR SWAP1 SSTORE PUSH1 0x1 PUSH1 0x2 SSTORE PUSH2 0x89 JUMP JUMPDEST PUSH1 0x0 PUSH1 0x20 DUP3 DUP5 SUB SLT ISZERO PUSH2 0x6B JUMPI PUSH1 0x0 DUP1 REVERT JUMPDEST DUP2 MLOAD PUSH1 0x1 PUSH1 0x1 PUSH1 0xA0 SHL SUB DUP2 AND DUP2 EQ PUSH2 0x82 JUMPI PUSH1 0x0 DUP1 REVERT JUMPDEST SWAP4 SWAP3 POP POP POP JUMP JUMPDEST PUSH2 0x1AF0 DUP1 PUSH2 0x98 PUSH1 0x0 CODECOPY PUSH1 0x0 RETURN INVALID PUSH1 0x80 PUSH1 0x40 MSTORE CALLVALUE DUP1 ISZERO PUSH2 0x10 JUMPI PUSH1 0x0 DUP1 REVERT JUMPDEST POP PUSH1 0x4 CALLDATASIZE LT PUSH2 0xB4 JUMPI PUSH1 0x0 CALLDATALOAD PUSH1 0xE0 SHR DUP1 PUSH4 0xBCF52EF8 GT PUSH2 0x71 JUMPI DUP1 PUSH4 0xBCF52EF8 EQ PUSH2 0x152 JUMPI DUP1 PUSH4 0xC27A500D EQ PUSH2 0x165 JUMPI DUP1 PUSH4 0xD6FF0AB4 EQ PUSH2 0x16D JUMPI DUP1 PUSH4 0xEC38D5A0 EQ PUSH2 0x180 JUMPI DUP1 PUSH4 0xF2A5194D EQ PUSH2 0x1A0 JUMPI DUP1 PUSH4 0xFFBF39C1 EQ PUSH2 0x1B3 JUMPI PUSH1 0x0 DUP1 REVERT JUMPDEST DUP1 PUSH4 0x9CE3849 EQ PUSH2 0xB9 JUMPI DUP1 PUSH4 0xB791430 EQ PUSH2 0xCE JUMPI DUP1 PUSH4 0xED0F06B EQ PUSH2 0xFA JUMPI DUP1 PUSH4 0x649AD632 EQ PUSH2 0x10C JUMPI DUP1 PUSH4 0x870639F8 EQ PUSH2 0x12C JUMPI DUP1 PUSH4 0x998F6AC0 EQ PUSH2 0x13F JUMPI JUMPDEST PUSH1 0x0 DUP1 REVERT JUMPDEST PUSH2 0xCC PUSH2 0xC7 CALLDATASIZE PUSH1 0x4 PUSH2 0x1145 JUMP JUMPDEST PUSH2 0x1C6 JUMP JUMPDEST STOP JUMPDEST PUSH2 0xE1 PUSH2 0xDC CALLDATASIZE PUSH1 0x4 PUSH2 0x117E JUMP JUMPDEST PUSH2 0x2ED JUMP JUMPDEST PUSH1 0x40 MLOAD PUSH2 0xF1 SWAP5 SWAP4 SWAP3 SWAP2 SWAP1 PUSH2 0x11E7 JUMP JUMPDEST PUSH1 0x40 MLOAD DUP1 SWAP2 SUB SWAP1 RETURN JUMPDEST PUSH1 0x1 SLOAD JUMPDEST PUSH1 0x40 MLOAD SWAP1 DUP2 MSTORE PUSH1 0x20 ADD PUSH2 0xF1 JUMP JUMPDEST PUSH2 0x11F PUSH2 0x11A CALLDATASIZE PUSH1 0x4 PUSH2 0x122F JUMP JUMPDEST PUSH2 0x430 JUMP JUMPDEST PUSH1 0x40 MLOAD PUSH2 0xF1 SWAP2 SWAP1 PUSH2 0x124A JUMP JUMPDEST PUSH2 0x11F PUSH2 0x13A CALLDATASIZE PUSH1 0x4 PUSH2 0x1331 JUMP JUMPDEST PUSH2 0x5AF JUMP JUMPDEST PUSH2 0xFE PUSH2 0x14D CALLDATASIZE PUSH1 0x4 PUSH2 0x117E JUMP JUMPDEST PUSH2 0x738 JUMP JUMPDEST PUSH2 0xCC PUSH2 0x160 CALLDATASIZE PUSH1 0x4 PUSH2 0x1366 JUMP JUMPDEST PUSH2 0x759 JUMP JUMPDEST PUSH2 0x11F PUSH2 0x7F9 JUMP JUMPDEST PUSH2 0xCC PUSH2 0x17B CALLDATASIZE PUSH1 0x4 PUSH2 0x13BD JUMP JUMPDEST PUSH2 0x851 JUMP JUMPDEST PUSH2 0x193 PUSH2 0x18E CALLDATASIZE PUSH1 0x4 PUSH2 0x117E JUMP JUMPDEST PUSH2 0x909 JUMP JUMPDEST PUSH1 0x40 MLOAD PUSH2 0xF1 SWAP2 SWAP1 PUSH2 0x1425 JUMP JUMPDEST PUSH2 0xFE PUSH2 0x1AE CALLDATASIZE PUSH1 0x4 PUSH2 0x1487 JUMP JUMPDEST PUSH2 0xA9C JUMP JUMPDEST PUSH2 0xCC PUSH2 0x1C1 CALLDATASIZE PUSH1 0x4 PUSH2 0x14FB JUMP JUMPDEST PUSH2 0xB87 JUMP JUMPDEST PUSH1 0x64 DUP3 GT ISZERO PUSH2 0x228 JUMPI PUSH1 0x40 MLOAD PUSH3 0x461BCD PUSH1 0xE5 SHL DUP2 MSTORE PUSH1 0x20 PUSH1 0x4 DUP3 ADD MSTORE PUSH1 0x23 PUSH1 0x24 DUP3 ADD MSTORE PUSH32 0x5175616C6974792073636F7265206D757374206265206265747765656E20302D PUSH1 0x44 DUP3 ADD MSTORE PUSH3 0x31303 PUSH1 0xEC SHL PUSH1 0x64 DUP3 ADD MSTORE PUSH1 0x84 ADD JUMPDEST PUSH1 0x40 MLOAD DUP1 SWAP2 SUB SWAP1 REVERT JUMPDEST PUSH1 0x0 PUSH2 0x233 DUP5 PUSH2 0xCFE JUMP JUMPDEST PUSH2 0x23C DUP5 PUSH2 0xE35 JUMP JUMPDEST PUSH2 0x245 DUP5 PUSH2 0xE35 JUMP JUMPDEST PUSH1 0x40 MLOAD PUSH1 0x20 ADD PUSH2 0x257 SWAP4 SWAP3 SWAP2 SWAP1 PUSH2 0x1559 JUMP JUMPDEST PUSH1 0x40 DUP1 MLOAD PUSH1 0x1F NOT DUP2 DUP5 SUB ADD DUP2 MSTORE DUP3 DUP3 ADD SWAP1 SWAP2 MSTORE PUSH1 0xF DUP3 MSTORE PUSH15 0x3A30B9B5AFB1B7B6B83632BA34B7B7 PUSH1 0x89 SHL PUSH1 0x20 DUP4 ADD MSTORE SWAP2 POP PUSH2 0x294 SWAP1 DUP7 SWAP1 DUP4 PUSH2 0xA9C JUMP JUMPDEST POP PUSH1 0x40 DUP1 MLOAD DUP5 DUP2 MSTORE PUSH1 0x20 DUP2 ADD DUP5 SWAP1 MSTORE TIMESTAMP SWAP2 DUP2 ADD SWAP2 SWAP1 SWAP2 MSTORE DUP5 SWAP1 PUSH1 0x1 PUSH1 0x1 PUSH1 0xA0 SHL SUB DUP8 AND SWAP1 PUSH32 0xB13A3274A663AFDB60E66F8EA7B016C80FC0BAE53534BFD255B32CDCCBB9F5B4 SWAP1 PUSH1 0x60 ADD JUMPDEST PUSH1 0x40 MLOAD DUP1 SWAP2 SUB SWAP1 LOG3 POP POP POP POP POP JUMP JUMPDEST PUSH1 0x0 PUSH1 0x20 DUP2 SWAP1 MSTORE SWAP1 DUP2 MSTORE PUSH1 0x40 SWAP1 KECCAK256 DUP1 SLOAD PUSH1 0x1 DUP3 ADD DUP1 SLOAD PUSH1 0x1 PUSH1 0x1 PUSH1 0xA0 SHL SUB SWAP1 SWAP3 AND SWAP3 SWAP2 PUSH2 0x319 SWAP1 PUSH2 0x15FA JUMP JUMPDEST DUP1 PUSH1 0x1F ADD PUSH1 0x20 DUP1 SWAP2 DIV MUL PUSH1 0x20 ADD PUSH1 0x40 MLOAD SWAP1 DUP2 ADD PUSH1 0x40 MSTORE DUP1 SWAP3 SWAP2 SWAP1 DUP2 DUP2 MSTORE PUSH1 0x20 ADD DUP3 DUP1 SLOAD PUSH2 0x345 SWAP1 PUSH2 0x15FA JUMP JUMPDEST DUP1 ISZERO PUSH2 0x392 JUMPI DUP1 PUSH1 0x1F LT PUSH2 0x367 JUMPI PUSH2 0x100 DUP1 DUP4 SLOAD DIV MUL DUP4 MSTORE SWAP2 PUSH1 0x20 ADD SWAP2 PUSH2 0x392 JUMP JUMPDEST DUP3 ADD SWAP2 SWAP1 PUSH1 0x0 MSTORE PUSH1 0x20 PUSH1 0x0 KECCAK256 SWAP1 JUMPDEST DUP2 SLOAD DUP2 MSTORE SWAP1 PUSH1 0x1 ADD SWAP1 PUSH1 0x20 ADD DUP1 DUP4 GT PUSH2 0x375 JUMPI DUP3 SWAP1 SUB PUSH1 0x1F AND DUP3 ADD SWAP2 JUMPDEST POP POP POP POP POP SWAP1 DUP1 PUSH1 0x2 ADD DUP1 SLOAD PUSH2 0x3A7 SWAP1 PUSH2 0x15FA JUMP JUMPDEST DUP1 PUSH1 0x1F ADD PUSH1 0x20 DUP1 SWAP2 DIV MUL PUSH1 0x20 ADD PUSH1 0x40 MLOAD SWAP1 DUP2 ADD PUSH1 0x40 MSTORE DUP1 SWAP3 SWAP2 SWAP1 DUP2 DUP2 MSTORE PUSH1 0x20 ADD DUP3 DUP1 SLOAD PUSH2 0x3D3 SWAP1 PUSH2 0x15FA JUMP JUMPDEST DUP1 ISZERO PUSH2 0x420 JUMPI DUP1 PUSH1 0x1F LT PUSH2 0x3F5 JUMPI PUSH2 0x100 DUP1 DUP4 SLOAD DIV MUL DUP4 MSTORE SWAP2 PUSH1 0x20 ADD SWAP2 PUSH2 0x420 JUMP JUMPDEST DUP3 ADD SWAP2 SWAP1 PUSH1 0x0 MSTORE PUSH1 0x20 PUSH1 0x0 KECCAK256 SWAP1 JUMPDEST DUP2 SLOAD DUP2 MSTORE SWAP1 PUSH1 0x1 ADD SWAP1 PUSH1 0x20 ADD DUP1 DUP4 GT PUSH2 0x403 JUMPI DUP3 SWAP1 SUB PUSH1 0x1F AND DUP3 ADD SWAP2 JUMPDEST POP POP POP POP POP SWAP1 DUP1 PUSH1 0x3 ADD SLOAD SWAP1 POP DUP5 JUMP JUMPDEST PUSH1 0x60 PUSH1 0x0 DUP1 JUMPDEST PUSH1 0x1 SLOAD DUP2 LT ISZERO PUSH2 0x4AA JUMPI DUP4 PUSH1 0x1 PUSH1 0x1 PUSH1 0xA0 SHL SUB AND PUSH1 0x0 DUP1 PUSH1 0x1 DUP5 DUP2 SLOAD DUP2 LT PUSH2 0x460 JUMPI PUSH2 0x460 PUSH2 0x1634 JUMP JUMPDEST PUSH1 0x0 SWAP2 DUP3 MSTORE PUSH1 0x20 DUP1 DUP4 KECCAK256 SWAP1 SWAP2 ADD SLOAD DUP4 MSTORE DUP3 ADD SWAP3 SWAP1 SWAP3 MSTORE PUSH1 0x40 ADD SWAP1 KECCAK256 SLOAD PUSH1 0x1 PUSH1 0x1 PUSH1 0xA0 SHL SUB AND SUB PUSH2 0x498 JUMPI DUP2 PUSH2 0x494 DUP2 PUSH2 0x1660 JUMP JUMPDEST SWAP3 POP POP JUMPDEST DUP1 PUSH2 0x4A2 DUP2 PUSH2 0x1660 JUMP JUMPDEST SWAP2 POP POP PUSH2 0x436 JUMP JUMPDEST POP PUSH1 0x0 DUP2 PUSH8 0xFFFFFFFFFFFFFFFF DUP2 GT ISZERO PUSH2 0x4C6 JUMPI PUSH2 0x4C6 PUSH2 0x128E JUMP JUMPDEST PUSH1 0x40 MLOAD SWAP1 DUP1 DUP3 MSTORE DUP1 PUSH1 0x20 MUL PUSH1 0x20 ADD DUP3 ADD PUSH1 0x40 MSTORE DUP1 ISZERO PUSH2 0x4EF JUMPI DUP2 PUSH1 0x20 ADD PUSH1 0x20 DUP3 MUL DUP1 CALLDATASIZE DUP4 CALLDATACOPY ADD SWAP1 POP JUMPDEST POP SWAP1 POP PUSH1 0x0 DUP1 JUMPDEST PUSH1 0x1 SLOAD DUP2 LT ISZERO PUSH2 0x5A5 JUMPI DUP6 PUSH1 0x1 PUSH1 0x1 PUSH1 0xA0 SHL SUB AND PUSH1 0x0 DUP1 PUSH1 0x1 DUP5 DUP2 SLOAD DUP2 LT PUSH2 0x520 JUMPI PUSH2 0x520 PUSH2 0x1634 JUMP JUMPDEST PUSH1 0x0 SWAP2 DUP3 MSTORE PUSH1 0x20 DUP1 DUP4 KECCAK256 SWAP1 SWAP2 ADD SLOAD DUP4 MSTORE DUP3 ADD SWAP3 SWAP1 SWAP3 MSTORE PUSH1 0x40 ADD SWAP1 KECCAK256 SLOAD PUSH1 0x1 PUSH1 0x1 PUSH1 0xA0 SHL SUB AND SUB PUSH2 0x593 JUMPI PUSH1 0x1 DUP2 DUP2 SLOAD DUP2 LT PUSH2 0x55D JUMPI PUSH2 0x55D PUSH2 0x1634 JUMP JUMPDEST SWAP1 PUSH1 0x0 MSTORE PUSH1 0x20 PUSH1 0x0 KECCAK256 ADD SLOAD DUP4 DUP4 DUP2 MLOAD DUP2 LT PUSH2 0x57A JUMPI PUSH2 0x57A PUSH2 0x1634 JUMP JUMPDEST PUSH1 0x20 SWAP1 DUP2 MUL SWAP2 SWAP1 SWAP2 ADD ADD MSTORE DUP2 PUSH2 0x58F DUP2 PUSH2 0x1660 JUMP JUMPDEST SWAP3 POP POP JUMPDEST DUP1 PUSH2 0x59D DUP2 PUSH2 0x1660 JUMP JUMPDEST SWAP2 POP POP PUSH2 0x4F6 JUMP JUMPDEST POP SWAP1 SWAP5 SWAP4 POP POP POP POP JUMP JUMPDEST PUSH1 0x60 PUSH1 0x0 DUP1 JUMPDEST PUSH1 0x1 SLOAD DUP2 LT ISZERO PUSH2 0x633 JUMPI DUP4 DUP1 MLOAD SWAP1 PUSH1 0x20 ADD KECCAK256 PUSH1 0x0 DUP1 PUSH1 0x1 DUP5 DUP2 SLOAD DUP2 LT PUSH2 0x5DD JUMPI PUSH2 0x5DD PUSH2 0x1634 JUMP JUMPDEST SWAP1 PUSH1 0x0 MSTORE PUSH1 0x20 PUSH1 0x0 KECCAK256 ADD SLOAD DUP2 MSTORE PUSH1 0x20 ADD SWAP1 DUP2 MSTORE PUSH1 0x20 ADD PUSH1 0x0 KECCAK256 PUSH1 0x1 ADD PUSH1 0x40 MLOAD PUSH2 0x606 SWAP2 SWAP1 PUSH2 0x1679 JUMP JUMPDEST PUSH1 0x40 MLOAD DUP1 SWAP2 SUB SWAP1 KECCAK256 SUB PUSH2 0x621 JUMPI DUP2 PUSH2 0x61D DUP2 PUSH2 0x1660 JUMP JUMPDEST SWAP3 POP POP JUMPDEST DUP1 PUSH2 0x62B DUP2 PUSH2 0x1660 JUMP JUMPDEST SWAP2 POP POP PUSH2 0x5B5 JUMP JUMPDEST POP PUSH1 0x0 DUP2 PUSH8 0xFFFFFFFFFFFFFFFF DUP2 GT ISZERO PUSH2 0x64F JUMPI PUSH2 0x64F PUSH2 0x128E JUMP JUMPDEST PUSH1 0x40 MLOAD SWAP1 DUP1 DUP3 MSTORE DUP1 PUSH1 0x20 MUL PUSH1 0x20 ADD DUP3 ADD PUSH1 0x40 MSTORE DUP1 ISZERO PUSH2 0x678 JUMPI DUP2 PUSH1 0x20 ADD PUSH1 0x20 DUP3 MUL DUP1 CALLDATASIZE DUP4 CALLDATACOPY ADD SWAP1 POP JUMPDEST POP SWAP1 POP PUSH1 0x0 DUP1 JUMPDEST PUSH1 0x1 SLOAD DUP2 LT ISZERO PUSH2 0x5A5 JUMPI DUP6 DUP1 MLOAD SWAP1 PUSH1 0x20 ADD KECCAK256 PUSH1 0x0 DUP1 PUSH1 0x1 DUP5 DUP2 SLOAD DUP2 LT PUSH2 0x6A7 JUMPI PUSH2 0x6A7 PUSH2 0x1634 JUMP JUMPDEST SWAP1 PUSH1 0x0 MSTORE PUSH1 0x20 PUSH1 0x0 KECCAK256 ADD SLOAD DUP2 MSTORE PUSH1 0x20 ADD SWAP1 DUP2 MSTORE PUSH1 0x20 ADD PUSH1 0x0 KECCAK256 PUSH1 0x1 ADD PUSH1 0x40 MLOAD PUSH2 0x6D0 SWAP2 SWAP1 PUSH2 0x1679 JUMP JUMPDEST PUSH1 0x40 MLOAD DUP1 SWAP2 SUB SWAP1 KECCAK256 SUB PUSH2 0x726 JUMPI PUSH1 0x1 DUP2 DUP2 SLOAD DUP2 LT PUSH2 0x6F0 JUMPI PUSH2 0x6F0 PUSH2 0x1634 JUMP JUMPDEST SWAP1 PUSH1 0x0 MSTORE PUSH1 0x20 PUSH1 0x0 KECCAK256 ADD SLOAD DUP4 DUP4 DUP2 MLOAD DUP2 LT PUSH2 0x70D JUMPI PUSH2 0x70D PUSH2 0x1634 JUMP JUMPDEST PUSH1 0x20 SWAP1 DUP2 MUL SWAP2 SWAP1 SWAP2 ADD ADD MSTORE DUP2 PUSH2 0x722 DUP2 PUSH2 0x1660 JUMP JUMPDEST SWAP3 POP POP JUMPDEST DUP1 PUSH2 0x730 DUP2 PUSH2 0x1660 JUMP JUMPDEST SWAP2 POP POP PUSH2 0x67F JUMP JUMPDEST PUSH1 0x1 DUP2 DUP2 SLOAD DUP2 LT PUSH2 0x748 JUMPI PUSH1 0x0 DUP1 REVERT JUMPDEST PUSH1 0x0 SWAP2 DUP3 MSTORE PUSH1 0x20 SWAP1 SWAP2 KECCAK256 ADD SLOAD SWAP1 POP DUP2 JUMP JUMPDEST PUSH1 0x0 DUP3 PUSH2 0x765 DUP4 PUSH2 0xE35 JUMP JUMPDEST PUSH1 0x40 MLOAD PUSH1 0x20 ADD PUSH2 0x776 SWAP3 SWAP2 SWAP1 PUSH2 0x16EF JUMP JUMPDEST PUSH1 0x40 DUP1 MLOAD PUSH1 0x1F NOT DUP2 DUP5 SUB ADD DUP2 MSTORE DUP3 DUP3 ADD SWAP1 SWAP2 MSTORE PUSH1 0x9 DUP3 MSTORE PUSH9 0x6D696C6573746F6E65 PUSH1 0xB8 SHL PUSH1 0x20 DUP4 ADD MSTORE SWAP2 POP PUSH2 0x7AD SWAP1 DUP6 SWAP1 DUP4 PUSH2 0xA9C JUMP JUMPDEST POP DUP4 PUSH1 0x1 PUSH1 0x1 PUSH1 0xA0 SHL SUB AND PUSH32 0xCFF697FB21A631D739BA514768567DA89581A3278707FB990BBB169E71F26986 DUP5 DUP5 TIMESTAMP PUSH1 0x40 MLOAD PUSH2 0x7EB SWAP4 SWAP3 SWAP2 SWAP1 PUSH2 0x1761 JUMP JUMPDEST PUSH1 0x40 MLOAD DUP1 SWAP2 SUB SWAP1 LOG2 POP POP POP POP JUMP JUMPDEST PUSH1 0x60 PUSH1 0x1 DUP1 SLOAD DUP1 PUSH1 0x20 MUL PUSH1 0x20 ADD PUSH1 0x40 MLOAD SWAP1 DUP2 ADD PUSH1 0x40 MSTORE DUP1 SWAP3 SWAP2 SWAP1 DUP2 DUP2 MSTORE PUSH1 0x20 ADD DUP3 DUP1 SLOAD DUP1 ISZERO PUSH2 0x847 JUMPI PUSH1 0x20 MUL DUP3 ADD SWAP2 SWAP1 PUSH1 0x0 MSTORE PUSH1 0x20 PUSH1 0x0 KECCAK256 SWAP1 JUMPDEST DUP2 SLOAD DUP2 MSTORE PUSH1 0x20 ADD SWAP1 PUSH1 0x1 ADD SWAP1 DUP1 DUP4 GT PUSH2 0x833 JUMPI JUMPDEST POP POP POP POP POP SWAP1 POP SWAP1 JUMP JUMPDEST PUSH1 0x0 PUSH2 0x85C DUP4 PUSH2 0xCFE JUMP JUMPDEST PUSH2 0x865 DUP6 PUSH2 0xF3E JUMP JUMPDEST DUP4 PUSH1 0x40 MLOAD PUSH1 0x20 ADD PUSH2 0x878 SWAP4 SWAP3 SWAP2 SWAP1 PUSH2 0x1786 JUMP JUMPDEST PUSH1 0x40 DUP1 MLOAD PUSH1 0x1F NOT DUP2 DUP5 SUB ADD DUP2 MSTORE DUP3 DUP3 ADD SWAP1 SWAP2 MSTORE PUSH1 0xD DUP3 MSTORE PUSH13 0x31B7B63630B137B930BA34B7B7 PUSH1 0x99 SHL PUSH1 0x20 DUP4 ADD MSTORE SWAP2 POP PUSH2 0x8B3 SWAP1 DUP7 SWAP1 DUP4 PUSH2 0xA9C JUMP JUMPDEST POP DUP3 DUP5 PUSH1 0x1 PUSH1 0x1 PUSH1 0xA0 SHL SUB AND DUP7 PUSH1 0x1 PUSH1 0x1 PUSH1 0xA0 SHL SUB AND PUSH32 0xFBF0C0EC7F109CD21DE232CFC50C2FD7F9656FA7A50F95541AB5593E4783B1CA DUP6 TIMESTAMP PUSH1 0x40 MLOAD PUSH2 0x8FA SWAP3 SWAP2 SWAP1 PUSH2 0x182F JUMP JUMPDEST PUSH1 0x40 MLOAD DUP1 SWAP2 SUB SWAP1 LOG4 POP POP POP POP POP JUMP JUMPDEST PUSH2 0x93D PUSH1 0x40 MLOAD DUP1 PUSH1 0x80 ADD PUSH1 0x40 MSTORE DUP1 PUSH1 0x0 PUSH1 0x1 PUSH1 0x1 PUSH1 0xA0 SHL SUB AND DUP2 MSTORE PUSH1 0x20 ADD PUSH1 0x60 DUP2 MSTORE PUSH1 0x20 ADD PUSH1 0x60 DUP2 MSTORE PUSH1 0x20 ADD PUSH1 0x0 DUP2 MSTORE POP SWAP1 JUMP JUMPDEST PUSH1 0x0 DUP3 DUP2 MSTORE PUSH1 0x20 DUP2 DUP2 MSTORE PUSH1 0x40 SWAP2 DUP3 SWAP1 KECCAK256 DUP3 MLOAD PUSH1 0x80 DUP2 ADD SWAP1 SWAP4 MSTORE DUP1 SLOAD PUSH1 0x1 PUSH1 0x1 PUSH1 0xA0 SHL SUB AND DUP4 MSTORE PUSH1 0x1 DUP2 ADD DUP1 SLOAD SWAP2 SWAP3 DUP5 ADD SWAP2 PUSH2 0x977 SWAP1 PUSH2 0x15FA JUMP JUMPDEST DUP1 PUSH1 0x1F ADD PUSH1 0x20 DUP1 SWAP2 DIV MUL PUSH1 0x20 ADD PUSH1 0x40 MLOAD SWAP1 DUP2 ADD PUSH1 0x40 MSTORE DUP1 SWAP3 SWAP2 SWAP1 DUP2 DUP2 MSTORE PUSH1 0x20 ADD DUP3 DUP1 SLOAD PUSH2 0x9A3 SWAP1 PUSH2 0x15FA JUMP JUMPDEST DUP1 ISZERO PUSH2 0x9F0 JUMPI DUP1 PUSH1 0x1F LT PUSH2 0x9C5 JUMPI PUSH2 0x100 DUP1 DUP4 SLOAD DIV MUL DUP4 MSTORE SWAP2 PUSH1 0x20 ADD SWAP2 PUSH2 0x9F0 JUMP JUMPDEST DUP3 ADD SWAP2 SWAP1 PUSH1 0x0 MSTORE PUSH1 0x20 PUSH1 0x0 KECCAK256 SWAP1 JUMPDEST DUP2 SLOAD DUP2 MSTORE SWAP1 PUSH1 0x1 ADD SWAP1 PUSH1 0x20 ADD DUP1 DUP4 GT PUSH2 0x9D3 JUMPI DUP3 SWAP1 SUB PUSH1 0x1F AND DUP3 ADD SWAP2 JUMPDEST POP POP POP POP POP DUP2 MSTORE PUSH1 0x20 ADD PUSH1 0x2 DUP3 ADD DUP1 SLOAD PUSH2 0xA09 SWAP1 PUSH2 0x15FA JUMP JUMPDEST DUP1 PUSH1 0x1F ADD PUSH1 0x20 DUP1 SWAP2 DIV MUL PUSH1 0x20 ADD PUSH1 0x40 MLOAD SWAP1 DUP2 ADD PUSH1 0x40 MSTORE DUP1 SWAP3 SWAP2 SWAP1 DUP2 DUP2 MSTORE PUSH1 0x20 ADD DUP3 DUP1 SLOAD PUSH2 0xA35 SWAP1 PUSH2 0x15FA JUMP JUMPDEST DUP1 ISZERO PUSH2 0xA82 JUMPI DUP1 PUSH1 0x1F LT PUSH2 0xA57 JUMPI PUSH2 0x100 DUP1 DUP4 SLOAD DIV MUL DUP4 MSTORE SWAP2 PUSH1 0x20 ADD SWAP2 PUSH2 0xA82 JUMP JUMPDEST DUP3 ADD SWAP2 SWAP1 PUSH1 0x0 MSTORE PUSH1 0x20 PUSH1 0x0 KECCAK256 SWAP1 JUMPDEST DUP2 SLOAD DUP2 MSTORE SWAP1 PUSH1 0x1 ADD SWAP1 PUSH1 0x20 ADD DUP1 DUP4 GT PUSH2 0xA65 JUMPI DUP3 SWAP1 SUB PUSH1 0x1F AND DUP3 ADD SWAP2 JUMPDEST POP POP POP POP POP DUP2 MSTORE PUSH1 0x20 ADD PUSH1 0x3 DUP3 ADD SLOAD DUP2 MSTORE POP POP SWAP1 POP SWAP2 SWAP1 POP JUMP JUMPDEST PUSH1 0x2 DUP1 SLOAD PUSH1 0x0 SWAP2 DUP3 SWAP2 SWAP1 DUP3 PUSH2 0xAB0 DUP4 PUSH2 0x1660 JUMP JUMPDEST SWAP1 SWAP2 SSTORE POP PUSH1 0x0 DUP2 DUP2 MSTORE PUSH1 0x20 DUP2 SWAP1 MSTORE PUSH1 0x40 SWAP1 KECCAK256 DUP1 SLOAD PUSH1 0x1 PUSH1 0x1 PUSH1 0xA0 SHL SUB NOT AND PUSH1 0x1 PUSH1 0x1 PUSH1 0xA0 SHL SUB DUP9 AND OR DUP2 SSTORE SWAP1 SWAP2 POP PUSH1 0x1 DUP2 ADD PUSH2 0xAEC DUP7 DUP3 PUSH2 0x18A0 JUMP JUMPDEST POP PUSH1 0x2 DUP2 ADD PUSH2 0xAFB DUP6 DUP3 PUSH2 0x18A0 JUMP JUMPDEST POP TIMESTAMP PUSH1 0x3 DUP3 ADD DUP2 SWAP1 SSTORE PUSH1 0x1 DUP1 SLOAD DUP1 DUP3 ADD DUP3 SSTORE PUSH1 0x0 SWAP2 SWAP1 SWAP2 MSTORE PUSH32 0xB10E2D527612073B26EECDFD717E6A320CF44B4AFAC2B0732D9FCBE2B7FA0CF6 ADD DUP4 SWAP1 SSTORE PUSH1 0x40 MLOAD PUSH1 0x1 PUSH1 0x1 PUSH1 0xA0 SHL SUB DUP9 AND SWAP2 DUP5 SWAP2 PUSH32 0x216116D948FBE5E509C4DCE846D98610C1AB3BA2BE56176D2E19306B28F6F370 SWAP2 PUSH2 0xB76 SWAP2 DUP11 SWAP2 SWAP1 PUSH2 0x182F JUMP JUMPDEST PUSH1 0x40 MLOAD DUP1 SWAP2 SUB SWAP1 LOG3 POP SWAP5 SWAP4 POP POP POP POP JUMP JUMPDEST DUP2 DUP2 GT PUSH2 0xBE6 JUMPI PUSH1 0x40 MLOAD PUSH3 0x461BCD PUSH1 0xE5 SHL DUP2 MSTORE PUSH1 0x20 PUSH1 0x4 DUP3 ADD MSTORE PUSH1 0x27 PUSH1 0x24 DUP3 ADD MSTORE PUSH32 0x4E65772073636F7265206D75737420626520686967686572207468616E206F6C PUSH1 0x44 DUP3 ADD MSTORE PUSH7 0x642073636F7265 PUSH1 0xC8 SHL PUSH1 0x64 DUP3 ADD MSTORE PUSH1 0x84 ADD PUSH2 0x21F JUMP JUMPDEST PUSH1 0x64 DUP2 GT ISZERO PUSH2 0xC37 JUMPI PUSH1 0x40 MLOAD PUSH3 0x461BCD PUSH1 0xE5 SHL DUP2 MSTORE PUSH1 0x20 PUSH1 0x4 DUP3 ADD MSTORE PUSH1 0x1B PUSH1 0x24 DUP3 ADD MSTORE PUSH32 0x53636F7265206D757374206265206265747765656E20302D3130300000000000 PUSH1 0x44 DUP3 ADD MSTORE PUSH1 0x64 ADD PUSH2 0x21F JUMP JUMPDEST PUSH1 0x0 DUP4 PUSH2 0xC43 DUP5 PUSH2 0xE35 JUMP JUMPDEST PUSH2 0xC4C DUP5 PUSH2 0xE35 JUMP JUMPDEST PUSH1 0x40 MLOAD PUSH1 0x20 ADD PUSH2 0xC5E SWAP4 SWAP3 SWAP2 SWAP1 PUSH2 0x1960 JUMP JUMPDEST PUSH1 0x40 DUP1 MLOAD PUSH1 0x1F NOT DUP2 DUP5 SUB ADD DUP2 MSTORE DUP3 DUP3 ADD SWAP1 SWAP2 MSTORE PUSH1 0x11 DUP3 MSTORE PUSH17 0x1CDADA5B1B17DA5B5C1C9BDD995B595B9D PUSH1 0x7A SHL PUSH1 0x20 DUP4 ADD MSTORE SWAP2 POP PUSH2 0xC9D SWAP1 DUP7 SWAP1 DUP4 PUSH2 0xA9C JUMP JUMPDEST POP DUP4 PUSH1 0x40 MLOAD PUSH2 0xCAC SWAP2 SWAP1 PUSH2 0x19FE JUMP JUMPDEST PUSH1 0x40 DUP1 MLOAD SWAP2 DUP3 SWAP1 SUB DUP3 KECCAK256 DUP6 DUP4 MSTORE PUSH1 0x20 DUP4 ADD DUP6 SWAP1 MSTORE TIMESTAMP SWAP2 DUP4 ADD SWAP2 SWAP1 SWAP2 MSTORE SWAP1 PUSH1 0x1 PUSH1 0x1 PUSH1 0xA0 SHL SUB DUP8 AND SWAP1 PUSH32 0xB680DF77C4CA7AF1058CCE109B4F75ED8AB998CFF33DAB8C2557B2843068689D SWAP1 PUSH1 0x60 ADD PUSH2 0x2DE JUMP JUMPDEST PUSH1 0x60 PUSH1 0x0 JUMPDEST PUSH1 0x20 DUP2 PUSH1 0xFF AND LT DUP1 ISZERO PUSH2 0xD37 JUMPI POP DUP3 DUP2 PUSH1 0xFF AND PUSH1 0x20 DUP2 LT PUSH2 0xD26 JUMPI PUSH2 0xD26 PUSH2 0x1634 JUMP JUMPDEST BYTE PUSH1 0xF8 SHL PUSH1 0x1 PUSH1 0x1 PUSH1 0xF8 SHL SUB NOT AND ISZERO ISZERO JUMPDEST ISZERO PUSH2 0xD4E JUMPI DUP1 PUSH2 0xD46 DUP2 PUSH2 0x1A1A JUMP JUMPDEST SWAP2 POP POP PUSH2 0xD03 JUMP JUMPDEST PUSH1 0x0 DUP2 PUSH1 0xFF AND PUSH8 0xFFFFFFFFFFFFFFFF DUP2 GT ISZERO PUSH2 0xD6C JUMPI PUSH2 0xD6C PUSH2 0x128E JUMP JUMPDEST PUSH1 0x40 MLOAD SWAP1 DUP1 DUP3 MSTORE DUP1 PUSH1 0x1F ADD PUSH1 0x1F NOT AND PUSH1 0x20 ADD DUP3 ADD PUSH1 0x40 MSTORE DUP1 ISZERO PUSH2 0xD96 JUMPI PUSH1 0x20 DUP3 ADD DUP2 DUP1 CALLDATASIZE DUP4 CALLDATACOPY ADD SWAP1 POP JUMPDEST POP SWAP1 POP PUSH1 0x0 SWAP2 POP JUMPDEST PUSH1 0x20 DUP3 PUSH1 0xFF AND LT DUP1 ISZERO PUSH2 0xDD2 JUMPI POP DUP4 DUP3 PUSH1 0xFF AND PUSH1 0x20 DUP2 LT PUSH2 0xDC1 JUMPI PUSH2 0xDC1 PUSH2 0x1634 JUMP JUMPDEST BYTE PUSH1 0xF8 SHL PUSH1 0x1 PUSH1 0x1 PUSH1 0xF8 SHL SUB NOT AND ISZERO ISZERO JUMPDEST ISZERO PUSH2 0xE2E JUMPI DUP4 DUP3 PUSH1 0xFF AND PUSH1 0x20 DUP2 LT PUSH2 0xDEC JUMPI PUSH2 0xDEC PUSH2 0x1634 JUMP JUMPDEST BYTE PUSH1 0xF8 SHL DUP2 DUP4 PUSH1 0xFF AND DUP2 MLOAD DUP2 LT PUSH2 0xE05 JUMPI PUSH2 0xE05 PUSH2 0x1634 JUMP JUMPDEST PUSH1 0x20 ADD ADD SWAP1 PUSH1 0x1 PUSH1 0x1 PUSH1 0xF8 SHL SUB NOT AND SWAP1 DUP2 PUSH1 0x0 BYTE SWAP1 MSTORE8 POP DUP2 PUSH2 0xE26 DUP2 PUSH2 0x1A1A JUMP JUMPDEST SWAP3 POP POP PUSH2 0xD9E JUMP JUMPDEST SWAP4 SWAP3 POP POP POP JUMP JUMPDEST PUSH1 0x60 DUP2 PUSH1 0x0 SUB PUSH2 0xE5C JUMPI POP POP PUSH1 0x40 DUP1 MLOAD DUP1 DUP3 ADD SWAP1 SWAP2 MSTORE PUSH1 0x1 DUP2 MSTORE PUSH1 0x3 PUSH1 0xFC SHL PUSH1 0x20 DUP3 ADD MSTORE SWAP1 JUMP JUMPDEST DUP2 PUSH1 0x0 JUMPDEST DUP2 ISZERO PUSH2 0xE86 JUMPI DUP1 PUSH2 0xE70 DUP2 PUSH2 0x1660 JUMP JUMPDEST SWAP2 POP PUSH2 0xE7F SWAP1 POP PUSH1 0xA DUP4 PUSH2 0x1A4F JUMP JUMPDEST SWAP2 POP PUSH2 0xE60 JUMP JUMPDEST PUSH1 0x0 DUP2 PUSH8 0xFFFFFFFFFFFFFFFF DUP2 GT ISZERO PUSH2 0xEA1 JUMPI PUSH2 0xEA1 PUSH2 0x128E JUMP JUMPDEST PUSH1 0x40 MLOAD SWAP1 DUP1 DUP3 MSTORE DUP1 PUSH1 0x1F ADD PUSH1 0x1F NOT AND PUSH1 0x20 ADD DUP3 ADD PUSH1 0x40 MSTORE DUP1 ISZERO PUSH2 0xECB JUMPI PUSH1 0x20 DUP3 ADD DUP2 DUP1 CALLDATASIZE DUP4 CALLDATACOPY ADD SWAP1 POP JUMPDEST POP SWAP1 POP JUMPDEST DUP5 ISZERO PUSH2 0xF36 JUMPI PUSH2 0xEE0 PUSH1 0x1 DUP4 PUSH2 0x1A63 JUMP JUMPDEST SWAP2 POP PUSH2 0xEED PUSH1 0xA DUP7 PUSH2 0x1A7C JUMP JUMPDEST PUSH2 0xEF8 SWAP1 PUSH1 0x30 PUSH2 0x1A90 JUMP JUMPDEST PUSH1 0xF8 SHL DUP2 DUP4 DUP2 MLOAD DUP2 LT PUSH2 0xF0D JUMPI PUSH2 0xF0D PUSH2 0x1634 JUMP JUMPDEST PUSH1 0x20 ADD ADD SWAP1 PUSH1 0x1 PUSH1 0x1 PUSH1 0xF8 SHL SUB NOT AND SWAP1 DUP2 PUSH1 0x0 BYTE SWAP1 MSTORE8 POP PUSH2 0xF2F PUSH1 0xA DUP7 PUSH2 0x1A4F JUMP JUMPDEST SWAP5 POP PUSH2 0xECF JUMP JUMPDEST SWAP5 SWAP4 POP POP POP POP JUMP JUMPDEST PUSH1 0x40 DUP1 MLOAD DUP1 DUP3 ADD DUP3 MSTORE PUSH1 0x10 DUP2 MSTORE PUSH16 0x181899199A1A9B1B9C1CB0B131B232B3 PUSH1 0x81 SHL PUSH1 0x20 DUP3 ADD MSTORE DUP2 MLOAD PUSH1 0x2A DUP1 DUP3 MSTORE PUSH1 0x60 DUP3 DUP2 ADD SWAP1 SWAP5 MSTORE PUSH1 0x1 PUSH1 0x1 PUSH1 0xA0 SHL SUB DUP6 AND SWAP3 SWAP2 PUSH1 0x0 SWAP2 PUSH1 0x20 DUP3 ADD DUP2 DUP1 CALLDATASIZE DUP4 CALLDATACOPY ADD SWAP1 POP POP SWAP1 POP PUSH1 0x3 PUSH1 0xFC SHL DUP2 PUSH1 0x0 DUP2 MLOAD DUP2 LT PUSH2 0xFA9 JUMPI PUSH2 0xFA9 PUSH2 0x1634 JUMP JUMPDEST PUSH1 0x20 ADD ADD SWAP1 PUSH1 0x1 PUSH1 0x1 PUSH1 0xF8 SHL SUB NOT AND SWAP1 DUP2 PUSH1 0x0 BYTE SWAP1 MSTORE8 POP PUSH1 0xF PUSH1 0xFB SHL DUP2 PUSH1 0x1 DUP2 MLOAD DUP2 LT PUSH2 0xFD8 JUMPI PUSH2 0xFD8 PUSH2 0x1634 JUMP JUMPDEST PUSH1 0x20 ADD ADD SWAP1 PUSH1 0x1 PUSH1 0x1 PUSH1 0xF8 SHL SUB NOT AND SWAP1 DUP2 PUSH1 0x0 BYTE SWAP1 MSTORE8 POP PUSH1 0x0 JUMPDEST PUSH1 0x14 DUP2 LT ISZERO PUSH2 0x1120 JUMPI DUP3 PUSH1 0x4 DUP6 PUSH2 0x100A DUP5 PUSH1 0xC PUSH2 0x1A90 JUMP JUMPDEST PUSH1 0x20 DUP2 LT PUSH2 0x101A JUMPI PUSH2 0x101A PUSH2 0x1634 JUMP JUMPDEST BYTE PUSH1 0xF8 SHL PUSH1 0x1 PUSH1 0x1 PUSH1 0xF8 SHL SUB NOT AND SWAP1 SHR PUSH1 0xF8 SHR PUSH1 0xFF AND DUP2 MLOAD DUP2 LT PUSH2 0x1040 JUMPI PUSH2 0x1040 PUSH2 0x1634 JUMP JUMPDEST ADD PUSH1 0x20 ADD MLOAD PUSH1 0x1 PUSH1 0x1 PUSH1 0xF8 SHL SUB NOT AND DUP3 PUSH2 0x105B DUP4 PUSH1 0x2 PUSH2 0x1AA3 JUMP JUMPDEST PUSH2 0x1066 SWAP1 PUSH1 0x2 PUSH2 0x1A90 JUMP JUMPDEST DUP2 MLOAD DUP2 LT PUSH2 0x1076 JUMPI PUSH2 0x1076 PUSH2 0x1634 JUMP JUMPDEST PUSH1 0x20 ADD ADD SWAP1 PUSH1 0x1 PUSH1 0x1 PUSH1 0xF8 SHL SUB NOT AND SWAP1 DUP2 PUSH1 0x0 BYTE SWAP1 MSTORE8 POP DUP3 DUP5 PUSH2 0x109A DUP4 PUSH1 0xC PUSH2 0x1A90 JUMP JUMPDEST PUSH1 0x20 DUP2 LT PUSH2 0x10AA JUMPI PUSH2 0x10AA PUSH2 0x1634 JUMP JUMPDEST DUP3 MLOAD SWAP2 SWAP1 BYTE PUSH1 0xF AND SWAP1 DUP2 LT PUSH2 0x10C1 JUMPI PUSH2 0x10C1 PUSH2 0x1634 JUMP JUMPDEST ADD PUSH1 0x20 ADD MLOAD PUSH1 0x1 PUSH1 0x1 PUSH1 0xF8 SHL SUB NOT AND DUP3 PUSH2 0x10DC DUP4 PUSH1 0x2 PUSH2 0x1AA3 JUMP JUMPDEST PUSH2 0x10E7 SWAP1 PUSH1 0x3 PUSH2 0x1A90 JUMP JUMPDEST DUP2 MLOAD DUP2 LT PUSH2 0x10F7 JUMPI PUSH2 0x10F7 PUSH2 0x1634 JUMP JUMPDEST PUSH1 0x20 ADD ADD SWAP1 PUSH1 0x1 PUSH1 0x1 PUSH1 0xF8 SHL SUB NOT AND SWAP1 DUP2 PUSH1 0x0 BYTE SWAP1 MSTORE8 POP DUP1 PUSH2 0x1118 DUP2 PUSH2 0x1660 JUMP JUMPDEST SWAP2 POP POP PUSH2 0xFF2 JUMP JUMPDEST POP SWAP5 SWAP4 POP POP POP POP JUMP JUMPDEST DUP1 CALLDATALOAD PUSH1 0x1 PUSH1 0x1 PUSH1 0xA0 SHL SUB DUP2 AND DUP2 EQ PUSH2 0x1140 JUMPI PUSH1 0x0 DUP1 REVERT JUMPDEST SWAP2 SWAP1 POP JUMP JUMPDEST PUSH1 0x0 DUP1 PUSH1 0x0 DUP1 PUSH1 0x80 DUP6 DUP8 SUB SLT ISZERO PUSH2 0x115B JUMPI PUSH1 0x0 DUP1 REVERT JUMPDEST PUSH2 0x1164 DUP6 PUSH2 0x1129 JUMP JUMPDEST SWAP7 PUSH1 0x20 DUP7 ADD CALLDATALOAD SWAP7 POP PUSH1 0x40 DUP7 ADD CALLDATALOAD SWAP6 PUSH1 0x60 ADD CALLDATALOAD SWAP5 POP SWAP3 POP POP POP JUMP JUMPDEST PUSH1 0x0 PUSH1 0x20 DUP3 DUP5 SUB SLT ISZERO PUSH2 0x1190 JUMPI PUSH1 0x0 DUP1 REVERT JUMPDEST POP CALLDATALOAD SWAP2 SWAP1 POP JUMP JUMPDEST PUSH1 0x0 JUMPDEST DUP4 DUP2 LT ISZERO PUSH2 0x11B2 JUMPI DUP2 DUP2 ADD MLOAD DUP4 DUP3 ADD MSTORE PUSH1 0x20 ADD PUSH2 0x119A JUMP JUMPDEST POP POP PUSH1 0x0 SWAP2 ADD MSTORE JUMP JUMPDEST PUSH1 0x0 DUP2 MLOAD DUP1 DUP5 MSTORE PUSH2 0x11D3 DUP2 PUSH1 0x20 DUP7 ADD PUSH1 0x20 DUP7 ADD PUSH2 0x1197 JUMP JUMPDEST PUSH1 0x1F ADD PUSH1 0x1F NOT AND SWAP3 SWAP1 SWAP3 ADD PUSH1 0x20 ADD SWAP3 SWAP2 POP POP JUMP JUMPDEST PUSH1 0x1 PUSH1 0x1 PUSH1 0xA0 SHL SUB DUP6 AND DUP2 MSTORE PUSH1 0x80 PUSH1 0x20 DUP3 ADD DUP2 SWAP1 MSTORE PUSH1 0x0 SWAP1 PUSH2 0x120B SWAP1 DUP4 ADD DUP7 PUSH2 0x11BB JUMP JUMPDEST DUP3 DUP2 SUB PUSH1 0x40 DUP5 ADD MSTORE PUSH2 0x121D DUP2 DUP7 PUSH2 0x11BB JUMP JUMPDEST SWAP2 POP POP DUP3 PUSH1 0x60 DUP4 ADD MSTORE SWAP6 SWAP5 POP POP POP POP POP JUMP JUMPDEST PUSH1 0x0 PUSH1 0x20 DUP3 DUP5 SUB SLT ISZERO PUSH2 0x1241 JUMPI PUSH1 0x0 DUP1 REVERT JUMPDEST PUSH2 0xE2E DUP3 PUSH2 0x1129 JUMP JUMPDEST PUSH1 0x20 DUP1 DUP3 MSTORE DUP3 MLOAD DUP3 DUP3 ADD DUP2 SWAP1 MSTORE PUSH1 0x0 SWAP2 SWAP1 DUP5 DUP3 ADD SWAP1 PUSH1 0x40 DUP6 ADD SWAP1 DUP5 JUMPDEST DUP2 DUP2 LT ISZERO PUSH2 0x1282 JUMPI DUP4 MLOAD DUP4 MSTORE SWAP3 DUP5 ADD SWAP3 SWAP2 DUP5 ADD SWAP2 PUSH1 0x1 ADD PUSH2 0x1266 JUMP JUMPDEST POP SWAP1 SWAP7 SWAP6 POP POP POP POP POP POP JUMP JUMPDEST PUSH4 0x4E487B71 PUSH1 0xE0 SHL PUSH1 0x0 MSTORE PUSH1 0x41 PUSH1 0x4 MSTORE PUSH1 0x24 PUSH1 0x0 REVERT JUMPDEST PUSH1 0x0 DUP3 PUSH1 0x1F DUP4 ADD SLT PUSH2 0x12B5 JUMPI PUSH1 0x0 DUP1 REVERT JUMPDEST DUP2 CALLDATALOAD PUSH8 0xFFFFFFFFFFFFFFFF DUP1 DUP3 GT ISZERO PUSH2 0x12D0 JUMPI PUSH2 0x12D0 PUSH2 0x128E JUMP JUMPDEST PUSH1 0x40 MLOAD PUSH1 0x1F DUP4 ADD PUSH1 0x1F NOT SWAP1 DUP2 AND PUSH1 0x3F ADD AND DUP2 ADD SWAP1 DUP3 DUP3 GT DUP2 DUP4 LT OR ISZERO PUSH2 0x12F8 JUMPI PUSH2 0x12F8 PUSH2 0x128E JUMP JUMPDEST DUP2 PUSH1 0x40 MSTORE DUP4 DUP2 MSTORE DUP7 PUSH1 0x20 DUP6 DUP9 ADD ADD GT ISZERO PUSH2 0x1311 JUMPI PUSH1 0x0 DUP1 REVERT JUMPDEST DUP4 PUSH1 0x20 DUP8 ADD PUSH1 0x20 DUP4 ADD CALLDATACOPY PUSH1 0x0 PUSH1 0x20 DUP6 DUP4 ADD ADD MSTORE DUP1 SWAP5 POP POP POP POP POP SWAP3 SWAP2 POP POP JUMP JUMPDEST PUSH1 0x0 PUSH1 0x20 DUP3 DUP5 SUB SLT ISZERO PUSH2 0x1343 JUMPI PUSH1 0x0 DUP1 REVERT JUMPDEST DUP2 CALLDATALOAD PUSH8 0xFFFFFFFFFFFFFFFF DUP2 GT ISZERO PUSH2 0x135A JUMPI PUSH1 0x0 DUP1 REVERT JUMPDEST PUSH2 0xF36 DUP5 DUP3 DUP6 ADD PUSH2 0x12A4 JUMP JUMPDEST PUSH1 0x0 DUP1 PUSH1 0x0 PUSH1 0x60 DUP5 DUP7 SUB SLT ISZERO PUSH2 0x137B JUMPI PUSH1 0x0 DUP1 REVERT JUMPDEST PUSH2 0x1384 DUP5 PUSH2 0x1129 JUMP JUMPDEST SWAP3 POP PUSH1 0x20 DUP5 ADD CALLDATALOAD PUSH8 0xFFFFFFFFFFFFFFFF DUP2 GT ISZERO PUSH2 0x13A0 JUMPI PUSH1 0x0 DUP1 REVERT JUMPDEST PUSH2 0x13AC DUP7 DUP3 DUP8 ADD PUSH2 0x12A4 JUMP JUMPDEST SWAP3 POP POP PUSH1 0x40 DUP5 ADD CALLDATALOAD SWAP1 POP SWAP3 POP SWAP3 POP SWAP3 JUMP JUMPDEST PUSH1 0x0 DUP1 PUSH1 0x0 DUP1 PUSH1 0x80 DUP6 DUP8 SUB SLT ISZERO PUSH2 0x13D3 JUMPI PUSH1 0x0 DUP1 REVERT JUMPDEST PUSH2 0x13DC DUP6 PUSH2 0x1129 JUMP JUMPDEST SWAP4 POP PUSH2 0x13EA PUSH1 0x20 DUP7 ADD PUSH2 0x1129 JUMP JUMPDEST SWAP3 POP PUSH1 0x40 DUP6 ADD CALLDATALOAD SWAP2 POP PUSH1 0x60 DUP6 ADD CALLDATALOAD PUSH8 0xFFFFFFFFFFFFFFFF DUP2 GT ISZERO PUSH2 0x140D JUMPI PUSH1 0x0 DUP1 REVERT JUMPDEST PUSH2 0x1419 DUP8 DUP3 DUP9 ADD PUSH2 0x12A4 JUMP JUMPDEST SWAP2 POP POP SWAP3 SWAP6 SWAP2 SWAP5 POP SWAP3 POP JUMP JUMPDEST PUSH1 0x20 DUP1 DUP3 MSTORE DUP3 MLOAD PUSH1 0x1 PUSH1 0x1 PUSH1 0xA0 SHL SUB AND DUP3 DUP3 ADD MSTORE DUP3 ADD MLOAD PUSH1 0x80 PUSH1 0x40 DUP4 ADD MSTORE PUSH1 0x0 SWAP1 PUSH2 0x1453 PUSH1 0xA0 DUP5 ADD DUP3 PUSH2 0x11BB JUMP JUMPDEST SWAP1 POP PUSH1 0x40 DUP5 ADD MLOAD PUSH1 0x1F NOT DUP5 DUP4 SUB ADD PUSH1 0x60 DUP6 ADD MSTORE PUSH2 0x1470 DUP3 DUP3 PUSH2 0x11BB JUMP JUMPDEST SWAP2 POP POP PUSH1 0x60 DUP5 ADD MLOAD PUSH1 0x80 DUP5 ADD MSTORE DUP1 SWAP2 POP POP SWAP3 SWAP2 POP POP JUMP JUMPDEST PUSH1 0x0 DUP1 PUSH1 0x0 PUSH1 0x60 DUP5 DUP7 SUB SLT ISZERO PUSH2 0x149C JUMPI PUSH1 0x0 DUP1 REVERT JUMPDEST PUSH2 0x14A5 DUP5 PUSH2 0x1129 JUMP JUMPDEST SWAP3 POP PUSH1 0x20 DUP5 ADD CALLDATALOAD PUSH8 0xFFFFFFFFFFFFFFFF DUP1 DUP3 GT ISZERO PUSH2 0x14C2 JUMPI PUSH1 0x0 DUP1 REVERT JUMPDEST PUSH2 0x14CE DUP8 DUP4 DUP9 ADD PUSH2 0x12A4 JUMP JUMPDEST SWAP4 POP PUSH1 0x40 DUP7 ADD CALLDATALOAD SWAP2 POP DUP1 DUP3 GT ISZERO PUSH2 0x14E4 JUMPI PUSH1 0x0 DUP1 REVERT JUMPDEST POP PUSH2 0x14F1 DUP7 DUP3 DUP8 ADD PUSH2 0x12A4 JUMP JUMPDEST SWAP2 POP POP SWAP3 POP SWAP3 POP SWAP3 JUMP JUMPDEST PUSH1 0x0 DUP1 PUSH1 0x0 DUP1 PUSH1 0x80 DUP6 DUP8 SUB SLT ISZERO PUSH2 0x1511 JUMPI PUSH1 0x0 DUP1 REVERT JUMPDEST PUSH2 0x151A DUP6 PUSH2 0x1129 JUMP JUMPDEST SWAP4 POP PUSH1 0x20 DUP6 ADD CALLDATALOAD PUSH8 0xFFFFFFFFFFFFFFFF DUP2 GT ISZERO PUSH2 0x1536 JUMPI PUSH1 0x0 DUP1 REVERT JUMPDEST PUSH2 0x1542 DUP8 DUP3 DUP9 ADD PUSH2 0x12A4 JUMP JUMPDEST SWAP5 SWAP8 SWAP5 SWAP7 POP POP POP POP PUSH1 0x40 DUP4 ADD CALLDATALOAD SWAP3 PUSH1 0x60 ADD CALLDATALOAD SWAP2 SWAP1 POP JUMP JUMPDEST PUSH11 0x3D913A30B9B5A4B2111D11 PUSH1 0xA9 SHL DUP2 MSTORE DUP4 MLOAD PUSH1 0x0 SWAP1 PUSH2 0x1580 DUP2 PUSH1 0xB DUP6 ADD PUSH1 0x20 DUP10 ADD PUSH2 0x1197 JUMP JUMPDEST PUSH17 0x11161138BAB0B634BA3CA9B1B7B932911D PUSH1 0x79 SHL PUSH1 0xB SWAP2 DUP5 ADD SWAP2 DUP3 ADD MSTORE DUP5 MLOAD PUSH2 0x15B1 DUP2 PUSH1 0x1C DUP5 ADD PUSH1 0x20 DUP10 ADD PUSH2 0x1197 JUMP JUMPDEST PUSH13 0x16113A34B6B2A9B832B73A111D PUSH1 0x99 SHL PUSH1 0x1C SWAP3 SWAP1 SWAP2 ADD SWAP2 DUP3 ADD MSTORE DUP4 MLOAD PUSH2 0x15DF DUP2 PUSH1 0x29 DUP5 ADD PUSH1 0x20 DUP9 ADD PUSH2 0x1197 JUMP JUMPDEST PUSH1 0x7D PUSH1 0xF8 SHL PUSH1 0x29 SWAP3 SWAP1 SWAP2 ADD SWAP2 DUP3 ADD MSTORE PUSH1 0x2A ADD SWAP6 SWAP5 POP POP POP POP POP JUMP JUMPDEST PUSH1 0x1 DUP2 DUP2 SHR SWAP1 DUP3 AND DUP1 PUSH2 0x160E JUMPI PUSH1 0x7F DUP3 AND SWAP2 POP JUMPDEST PUSH1 0x20 DUP3 LT DUP2 SUB PUSH2 0x162E JUMPI PUSH4 0x4E487B71 PUSH1 0xE0 SHL PUSH1 0x0 MSTORE PUSH1 0x22 PUSH1 0x4 MSTORE PUSH1 0x24 PUSH1 0x0 REVERT JUMPDEST POP SWAP2 SWAP1 POP JUMP JUMPDEST PUSH4 0x4E487B71 PUSH1 0xE0 SHL PUSH1 0x0 MSTORE PUSH1 0x32 PUSH1 0x4 MSTORE PUSH1 0x24 PUSH1 0x0 REVERT JUMPDEST PUSH4 0x4E487B71 PUSH1 0xE0 SHL PUSH1 0x0 MSTORE PUSH1 0x11 PUSH1 0x4 MSTORE PUSH1 0x24 PUSH1 0x0 REVERT JUMPDEST PUSH1 0x0 PUSH1 0x1 DUP3 ADD PUSH2 0x1672 JUMPI PUSH2 0x1672 PUSH2 0x164A JUMP JUMPDEST POP PUSH1 0x1 ADD SWAP1 JUMP JUMPDEST PUSH1 0x0 DUP1 DUP4 SLOAD PUSH2 0x1687 DUP2 PUSH2 0x15FA JUMP JUMPDEST PUSH1 0x1 DUP3 DUP2 AND DUP1 ISZERO PUSH2 0x169F JUMPI PUSH1 0x1 DUP2 EQ PUSH2 0x16B4 JUMPI PUSH2 0x16E3 JUMP JUMPDEST PUSH1 0xFF NOT DUP5 AND DUP8 MSTORE DUP3 ISZERO ISZERO DUP4 MUL DUP8 ADD SWAP5 POP PUSH2 0x16E3 JUMP JUMPDEST DUP8 PUSH1 0x0 MSTORE PUSH1 0x20 DUP1 PUSH1 0x0 KECCAK256 PUSH1 0x0 JUMPDEST DUP6 DUP2 LT ISZERO PUSH2 0x16DA JUMPI DUP2 SLOAD DUP11 DUP3 ADD MSTORE SWAP1 DUP5 ADD SWAP1 DUP3 ADD PUSH2 0x16C1 JUMP JUMPDEST POP POP POP DUP3 DUP8 ADD SWAP5 POP JUMPDEST POP SWAP3 SWAP7 SWAP6 POP POP POP POP POP POP JUMP JUMPDEST PUSH18 0x3D9136B4B632B9BA37B732AA3CB832911D11 PUSH1 0x71 SHL DUP2 MSTORE DUP3 MLOAD PUSH1 0x0 SWAP1 PUSH2 0x171D DUP2 PUSH1 0x12 DUP6 ADD PUSH1 0x20 DUP9 ADD PUSH2 0x1197 JUMP JUMPDEST PUSH10 0x1116113B30B63AB2911D PUSH1 0xB1 SHL PUSH1 0x12 SWAP2 DUP5 ADD SWAP2 DUP3 ADD MSTORE DUP4 MLOAD PUSH2 0x1747 DUP2 PUSH1 0x1C DUP5 ADD PUSH1 0x20 DUP9 ADD PUSH2 0x1197 JUMP JUMPDEST PUSH1 0x7D PUSH1 0xF8 SHL PUSH1 0x1C SWAP3 SWAP1 SWAP2 ADD SWAP2 DUP3 ADD MSTORE PUSH1 0x1D ADD SWAP5 SWAP4 POP POP POP POP JUMP JUMPDEST PUSH1 0x60 DUP2 MSTORE PUSH1 0x0 PUSH2 0x1774 PUSH1 0x60 DUP4 ADD DUP7 PUSH2 0x11BB JUMP JUMPDEST PUSH1 0x20 DUP4 ADD SWAP5 SWAP1 SWAP5 MSTORE POP PUSH1 0x40 ADD MSTORE SWAP2 SWAP1 POP JUMP JUMPDEST PUSH20 0x3D9131B7B63630B137B930BA34B7B724B2111D11 PUSH1 0x61 SHL DUP2 MSTORE DUP4 MLOAD PUSH1 0x0 SWAP1 PUSH2 0x17B6 DUP2 PUSH1 0x14 DUP6 ADD PUSH1 0x20 DUP10 ADD PUSH2 0x1197 JUMP JUMPDEST PUSH13 0x1116113830B93A3732B9111D11 PUSH1 0x99 SHL PUSH1 0x14 SWAP2 DUP5 ADD SWAP2 DUP3 ADD MSTORE DUP5 MLOAD PUSH2 0x17E3 DUP2 PUSH1 0x21 DUP5 ADD PUSH1 0x20 DUP10 ADD PUSH2 0x1197 JUMP JUMPDEST PUSH15 0x11161132BB32B73A2A3CB832911D11 PUSH1 0x89 SHL PUSH1 0x21 SWAP3 SWAP1 SWAP2 ADD SWAP2 DUP3 ADD MSTORE DUP4 MLOAD PUSH2 0x1813 DUP2 PUSH1 0x30 DUP5 ADD PUSH1 0x20 DUP9 ADD PUSH2 0x1197 JUMP JUMPDEST PUSH2 0x227D PUSH1 0xF0 SHL PUSH1 0x30 SWAP3 SWAP1 SWAP2 ADD SWAP2 DUP3 ADD MSTORE PUSH1 0x32 ADD SWAP6 SWAP5 POP POP POP POP POP JUMP JUMPDEST PUSH1 0x40 DUP2 MSTORE PUSH1 0x0 PUSH2 0x1842 PUSH1 0x40 DUP4 ADD DUP6 PUSH2 0x11BB JUMP JUMPDEST SWAP1 POP DUP3 PUSH1 0x20 DUP4 ADD MSTORE SWAP4 SWAP3 POP POP POP JUMP JUMPDEST PUSH1 0x1F DUP3 GT ISZERO PUSH2 0x189B JUMPI PUSH1 0x0 DUP2 DUP2 MSTORE PUSH1 0x20 DUP2 KECCAK256 PUSH1 0x1F DUP6 ADD PUSH1 0x5 SHR DUP2 ADD PUSH1 0x20 DUP7 LT ISZERO PUSH2 0x1878 JUMPI POP DUP1 JUMPDEST PUSH1 0x1F DUP6 ADD PUSH1 0x5 SHR DUP3 ADD SWAP2 POP JUMPDEST DUP2 DUP2 LT ISZERO PUSH2 0x1897 JUMPI DUP3 DUP2 SSTORE PUSH1 0x1 ADD PUSH2 0x1884 JUMP JUMPDEST POP POP POP JUMPDEST POP POP POP JUMP JUMPDEST DUP2 MLOAD PUSH8 0xFFFFFFFFFFFFFFFF DUP2 GT ISZERO PUSH2 0x18BA JUMPI PUSH2 0x18BA PUSH2 0x128E JUMP JUMPDEST PUSH2 0x18CE DUP2 PUSH2 0x18C8 DUP5 SLOAD PUSH2 0x15FA JUMP JUMPDEST DUP5 PUSH2 0x1851 JUMP JUMPDEST PUSH1 0x20 DUP1 PUSH1 0x1F DUP4 GT PUSH1 0x1 DUP2 EQ PUSH2 0x1903 JUMPI PUSH1 0x0 DUP5 ISZERO PUSH2 0x18EB JUMPI POP DUP6 DUP4 ADD MLOAD JUMPDEST PUSH1 0x0 NOT PUSH1 0x3 DUP7 SWAP1 SHL SHR NOT AND PUSH1 0x1 DUP6 SWAP1 SHL OR DUP6 SSTORE PUSH2 0x1897 JUMP JUMPDEST PUSH1 0x0 DUP6 DUP2 MSTORE PUSH1 0x20 DUP2 KECCAK256 PUSH1 0x1F NOT DUP7 AND SWAP2 JUMPDEST DUP3 DUP2 LT ISZERO PUSH2 0x1932 JUMPI DUP9 DUP7 ADD MLOAD DUP3 SSTORE SWAP5 DUP5 ADD SWAP5 PUSH1 0x1 SWAP1 SWAP2 ADD SWAP1 DUP5 ADD PUSH2 0x1913 JUMP JUMPDEST POP DUP6 DUP3 LT ISZERO PUSH2 0x1950 JUMPI DUP8 DUP6 ADD MLOAD PUSH1 0x0 NOT PUSH1 0x3 DUP9 SWAP1 SHL PUSH1 0xF8 AND SHR NOT AND DUP2 SSTORE JUMPDEST POP POP POP POP POP PUSH1 0x1 SWAP1 DUP2 SHL ADD SWAP1 SSTORE POP JUMP JUMPDEST PUSH13 0x3D9139B5B4B6362A30B3911D11 PUSH1 0x99 SHL DUP2 MSTORE DUP4 MLOAD PUSH1 0x0 SWAP1 PUSH2 0x1989 DUP2 PUSH1 0xD DUP6 ADD PUSH1 0x20 DUP10 ADD PUSH2 0x1197 JUMP JUMPDEST PUSH13 0x11161137B63229B1B7B932911D PUSH1 0x99 SHL PUSH1 0xD SWAP2 DUP5 ADD SWAP2 DUP3 ADD MSTORE DUP5 MLOAD PUSH2 0x19B6 DUP2 PUSH1 0x1A DUP5 ADD PUSH1 0x20 DUP10 ADD PUSH2 0x1197 JUMP JUMPDEST PUSH12 0x16113732BBA9B1B7B932911D PUSH1 0xA1 SHL PUSH1 0x1A SWAP3 SWAP1 SWAP2 ADD SWAP2 DUP3 ADD MSTORE DUP4 MLOAD PUSH2 0x19E3 DUP2 PUSH1 0x26 DUP5 ADD PUSH1 0x20 DUP9 ADD PUSH2 0x1197 JUMP JUMPDEST PUSH1 0x7D PUSH1 0xF8 SHL PUSH1 0x26 SWAP3 SWAP1 SWAP2 ADD SWAP2 DUP3 ADD MSTORE PUSH1 0x27 ADD SWAP6 SWAP5 POP POP POP POP POP JUMP JUMPDEST PUSH1 0x0 DUP3 MLOAD PUSH2 0x1A10 DUP2 DUP5 PUSH1 0x20 DUP8 ADD PUSH2 0x1197 JUMP JUMPDEST SWAP2 SWAP1 SWAP2 ADD SWAP3 SWAP2 POP POP JUMP JUMPDEST PUSH1 0x0 PUSH1 0xFF DUP3 AND PUSH1 0xFF DUP2 SUB PUSH2 0x1A30 JUMPI PUSH2 0x1A30 PUSH2 0x164A JUMP JUMPDEST PUSH1 0x1 ADD SWAP3 SWAP2 POP POP JUMP JUMPDEST PUSH4 0x4E487B71 PUSH1 0xE0 SHL PUSH1 0x0 MSTORE PUSH1 0x12 PUSH1 0x4 MSTORE PUSH1 0x24 PUSH1 0x0 REVERT JUMPDEST PUSH1 0x0 DUP3 PUSH2 0x1A5E JUMPI PUSH2 0x1A5E PUSH2 0x1A39 JUMP JUMPDEST POP DIV SWAP1 JUMP JUMPDEST DUP2 DUP2 SUB DUP2 DUP2 GT ISZERO PUSH2 0x1A76 JUMPI PUSH2 0x1A76 PUSH2 0x164A JUMP JUMPDEST SWAP3 SWAP2 POP POP JUMP JUMPDEST PUSH1 0x0 DUP3 PUSH2 0x1A8B JUMPI PUSH2 0x1A8B PUSH2 0x1A39 JUMP JUMPDEST POP MOD SWAP1 JUMP JUMPDEST DUP1 DUP3 ADD DUP1 DUP3 GT ISZERO PUSH2 0x1A76 JUMPI PUSH2 0x1A76 PUSH2 0x164A JUMP JUMPDEST DUP1 DUP3 MUL DUP2 ISZERO DUP3 DUP3 DIV DUP5 EQ OR PUSH2 0x1A76 JUMPI PUSH2 0x1A76 PUSH2 0x164A JUMP INVALID LOG2 PUSH5 0x6970667358 0x22 SLT KECCAK256 LOG1 SWAP5 CALL 0xDD 0xBD RETURNDATASIZE MOD JUMPI LOG4 0x27 0xC3 SWAP11 BYTE JUMP EQ SGT 0x4D SWAP8 SWAP7 0xFC MLOAD 0x4E KECCAK256 0xEB NOT 0x4C 0xBD PUSH2 0xD9C6 DUP11 0x23 PUSH5 0x736F6C6343 STOP ADDMOD EQ STOP CALLER "},"methodIdentifiers":{"eventIds(uint256)":"998f6ac0","events(uint256)":"0b791430","getAgentEvents(address)":"649ad632","getAllEvents()":"c27a500d","getEventDetails(uint256)":"ec38d5a0","getEventsByType(string)":"870639f8","getTotalEventCount()":"0ed0f06b","recordCollaboration(address,address,bytes32,string)":"d6ff0ab4","recordEvent(address,string,string)":"f2a5194d","recordLearningMilestone(address,string,uint256)":"bcf52ef8","recordSkillImprovement(address,string,uint256,uint256)":"ffbf39c1","recordTaskCompletion(address,bytes32,uint256,uint256)":"09ce3849"}}}}}