{"core/AgentRegistry.sol":{"AgentRegistry":{"abi":[{"inputs":[],"stateMutability":"nonpayable","type":"constructor"},{"inputs":[{"internalType":"address","name":"owner","type":"address"}],"name":"OwnableInvalidOwner","type":"error"},{"inputs":[{"internalType":"address","name":"account","type":"address"}],"name":"OwnableUnauthorizedAccount","type":"error"},{"anonymous":false,"inputs":[{"indexed":true,"internalType":"address","name":"agentAddress","type":"address"},{"indexed":false,"internalType":"uint256","name":"timestamp","type":"uint256"}],"name":"AgentActivated","type":"event"},{"anonymous":false,"inputs":[{"indexed":true,"internalType":"address","name":"agentAddress","type":"address"},{"indexed":false,"internalType":"uint256","name":"timestamp","type":"uint256"}],"name":"AgentDeactivated","type":"event"},{"anonymous":false,"inputs":[{"indexed":true,"internalType":"address","name":"agentAddress","type":"address"},{"indexed":false,"internalType":"string","name":"name","type":"string"},{"indexed":false,"internalType":"string","name":"metadataURI","type":"string"},{"indexed":false,"internalType":"uint256","name":"timestamp","type":"uint256"}],"name":"AgentRegistered","type":"event"},{"anonymous":false,"inputs":[{"indexed":true,"internalType":"address","name":"agentAddress","type":"address"},{"indexed":false,"internalType":"string","name":"name","type":"string"},{"indexed":false,"internalType":"string","name":"metadataURI","type":"string"},{"indexed":false,"internalType":"uint256","name":"timestamp","type":"uint256"}],"name":"AgentUpdated","type":"event"},{"anonymous":false,"inputs":[{"indexed":true,"internalType":"address","name":"agentAddress","type":"address"},{"indexed":false,"internalType":"uint256","name":"confidenceFactor","type":"uint256"},{"indexed":false,"internalType":"uint256","name":"riskTolerance","type":"uint256"},{"indexed":false,"internalType":"uint256","name":"timestamp","type":"uint256"}],"name":"BiddingStrategyUpdated","type":"event"},{"anonymous":false,"inputs":[{"indexed":true,"internalType":"address","name":"agentAddress","type":"address"},{"indexed":false,"internalType":"string[]","name":"tags","type":"string[]"},{"indexed":false,"internalType":"uint256[]","name":"weights","type":"uint256[]"}],"name":"CapabilitiesUpdated","type":"event"},{"anonymous":false,"inputs":[{"indexed":true,"internalType":"address","name":"agentAddress","type":"address"},{"indexed":false,"internalType":"string","name":"tag","type":"string"},{"indexed":false,"internalType":"uint256","name":"oldWeight","type":"uint256"},{"indexed":false,"internalType":"uint256","name":"newWeight","type":"uint256"},{"indexed":true,"internalType":"bytes32","name":"taskId","type":"bytes32"},{"indexed":false,"internalType":"uint256","name":"timestamp","type":"uint256"}],"name":"CapabilityEvolutionRecorded","type":"event"},{"anonymous":false,"inputs":[{"indexed":true,"internalType":"address","name":"agentAddress","type":"address"},{"indexed":false,"internalType":"uint256","name":"averageScore","type":"uint256"},{"indexed":false,"internalType":"uint256","name":"dataPoints","type":"uint256"},{"indexed":false,"internalType":"uint256","name":"timestamp","type":"uint256"}],"name":"LearningCurveUpdated","type":"event"},{"anonymous":false,"inputs":[{"indexed":true,"internalType":"address","name":"previousOwner","type":"address"},{"indexed":true,"internalType":"address","name":"newOwner","type":"address"}],"name":"OwnershipTransferred","type":"event"},{"anonymous":false,"inputs":[{"indexed":true,"internalType":"address","name":"agentAddress","type":"address"},{"indexed":true,"internalType":"bytes32","name":"taskId","type":"bytes32"},{"indexed":false,"internalType":"uint256","name":"score","type":"uint256"}],"name":"TaskScoreRecorded","type":"event"},{"inputs":[],"name":"MAX_EVOLUTION_HISTORY","outputs":[{"internalType":"uint256","name":"","type":"uint256"}],"stateMutability":"view","type":"function"},{"inputs":[],"name":"MAX_LEARNING_CURVE_POINTS","outputs":[{"internalType":"uint256","name":"","type":"uint256"}],"stateMutability":"view","type":"function"},{"inputs":[],"name":"MAX_RECENT_TASKS","outputs":[{"internalType":"uint256","name":"","type":"uint256"}],"stateMutability":"view","type":"function"},{"inputs":[{"internalType":"address","name":"agentAddress","type":"address"}],"name":"activateAgent","outputs":[],"stateMutability":"nonpayable","type":"function"},{"inputs":[{"internalType":"uint256","name":"","type":"uint256"}],"name":"agentAddresses","outputs":[{"internalType":"address","name":"","type":"address"}],"stateMutability":"view","type":"function"},{"inputs":[{"internalType":"address","name":"","type":"address"}],"name":"agentBiddingStrategies","outputs":[{"internalType":"uint256","name":"confidenceFactor","type":"uint256"},{"internalType":"uint256","name":"riskTolerance","type":"uint256"},{"internalType":"uint256","name":"lastUpdated","type":"uint256"}],"stateMutability":"view","type":"function"},{"inputs":[{"internalType":"address","name":"","type":"address"}],"name":"agentWorkload","outputs":[{"internalType":"uint256","name":"","type":"uint256"}],"stateMutability":"view","type":"function"},{"inputs":[{"internalType":"address","name":"","type":"address"}],"name":"agents","outputs":[{"internalType":"string","name":"name","type":"string"},{"internalType":"string","name":"metadataURI","type":"string"},{"internalType":"address","name":"owner","type":"address"},{"internalType":"uint256","name":"reputation","type":"uint256"},{"internalType":"bool","name":"active","type":"bool"},{"internalType":"uint256","name":"registeredAt","type":"uint256"},{"internalType":"enum AgentRegistry.AgentType","name":"agentType","type":"uint8"}],"stateMutability":"view","type":"function"},{"inputs":[{"internalType":"address","name":"","type":"address"},{"internalType":"string","name":"","type":"string"}],"name":"capabilityWeights","outputs":[{"internalType":"uint256","name":"","type":"uint256"}],"stateMutability":"view","type":"function"},{"inputs":[{"internalType":"address","name":"agentAddress","type":"address"}],"name":"deactivateAgent","outputs":[],"stateMutability":"nonpayable","type":"function"},{"inputs":[{"internalType":"address","name":"agentAddress","type":"address"}],"name":"decrementWorkload","outputs":[],"stateMutability":"nonpayable","type":"function"},{"inputs":[{"internalType":"address","name":"agentAddress","type":"address"}],"name":"getAgentBiddingStrategy","outputs":[{"internalType":"uint256","name":"confidenceFactor","type":"uint256"},{"internalType":"uint256","name":"riskTolerance","type":"uint256"},{"internalType":"uint256","name":"lastUpdated","type":"uint256"}],"stateMutability":"view","type":"function"},{"inputs":[],"name":"getAgentCount","outputs":[{"internalType":"uint256","name":"","type":"uint256"}],"stateMutability":"view","type":"function"},{"inputs":[{"internalType":"address","name":"agentAddress","type":"address"}],"name":"getAgentLearningState","outputs":[{"components":[{"internalType":"uint256","name":"reputation","type":"uint256"},{"internalType":"string[]","name":"capabilityTags","type":"string[]"},{"internalType":"uint256[]","name":"capabilityWeights","type":"uint256[]"},{"internalType":"uint256","name":"workload","type":"uint256"},{"internalType":"bytes32[]","name":"recentTaskIds","type":"bytes32[]"},{"internalType":"uint256[]","name":"recentScores","type":"uint256[]"}],"internalType":"struct AgentRegistry.AgentLearningState","name":"","type":"tuple"}],"stateMutability":"view","type":"function"},{"inputs":[{"internalType":"address","name":"agentAddress","type":"address"}],"name":"getAgentRecentTasks","outputs":[{"internalType":"bytes32[]","name":"taskIds","type":"bytes32[]"},{"internalType":"uint256[]","name":"scores","type":"uint256[]"}],"stateMutability":"view","type":"function"},{"inputs":[{"internalType":"address","name":"agentAddress","type":"address"}],"name":"getAgentReputation","outputs":[{"internalType":"uint256","name":"","type":"uint256"}],"stateMutability":"view","type":"function"},{"inputs":[],"name":"getAllAgents","outputs":[{"internalType":"address[]","name":"","type":"address[]"}],"stateMutability":"view","type":"function"},{"inputs":[{"internalType":"address","name":"agentAddress","type":"address"}],"name":"getCapabilities","outputs":[{"internalType":"string[]","name":"tags","type":"string[]"},{"internalType":"uint256[]","name":"weights","type":"uint256[]"}],"stateMutability":"view","type":"function"},{"inputs":[{"internalType":"address","name":"agentAddress","type":"address"}],"name":"getCapabilityEvolutionHistory","outputs":[{"components":[{"internalType":"string","name":"tag","type":"string"},{"internalType":"uint256","name":"oldWeight","type":"uint256"},{"internalType":"uint256","name":"newWeight","type":"uint256"},{"internalType":"uint256","name":"timestamp","type":"uint256"},{"internalType":"bytes32","name":"taskId","type":"bytes32"}],"internalType":"struct AgentRegistry.CapabilityEvolution[]","name":"","type":"tuple[]"}],"stateMutability":"view","type":"function"},{"inputs":[{"internalType":"address","name":"agentAddress","type":"address"}],"name":"getLearningCurve","outputs":[{"internalType":"uint256[]","name":"","type":"uint256[]"}],"stateMutability":"view","type":"function"},{"inputs":[{"internalType":"address","name":"agentAddress","type":"address"}],"name":"getReputation","outputs":[{"internalType":"uint256","name":"","type":"uint256"}],"stateMutability":"view","type":"function"},{"inputs":[{"internalType":"address","name":"agentAddress","type":"address"}],"name":"incrementWorkload","outputs":[],"stateMutability":"nonpayable","type":"function"},{"inputs":[{"internalType":"address","name":"agentAddress","type":"address"}],"name":"isActiveAgent","outputs":[{"internalType":"bool","name":"","type":"bool"}],"stateMutability":"view","type":"function"},{"inputs":[],"name":"owner","outputs":[{"internalType":"address","name":"","type":"address"}],"stateMutability":"view","type":"function"},{"inputs":[{"internalType":"address","name":"agentAddress","type":"address"},{"internalType":"string","name":"tag","type":"string"},{"internalType":"uint256","name":"oldWeight","type":"uint256"},{"internalType":"uint256","name":"newWeight","type":"uint256"},{"internalType":"bytes32","name":"taskId","type":"bytes32"}],"name":"recordCapabilityEvolution","outputs":[],"stateMutability":"nonpayable","type":"function"},{"inputs":[{"internalType":"address","name":"agentAddress","type":"address"},{"internalType":"bytes32","name":"taskId","type":"bytes32"},{"internalType":"uint256","name":"score","type":"uint256"}],"name":"recordTaskScore","outputs":[],"stateMutability":"nonpayable","type":"function"},{"inputs":[{"internalType":"string","name":"name","type":"string"},{"internalType":"string","name":"metadataURI","type":"string"},{"internalType":"enum AgentRegistry.AgentType","name":"agentType","type":"uint8"}],"name":"registerAgent","outputs":[],"stateMutability":"nonpayable","type":"function"},{"inputs":[],"name":"renounceOwnership","outputs":[],"stateMutability":"nonpayable","type":"function"},{"inputs":[{"internalType":"address","name":"agentAddress","type":"address"}],"name":"resetWorkload","outputs":[],"stateMutability":"nonpayable","type":"function"},{"inputs":[{"internalType":"address","name":"agentAddress","type":"address"},{"internalType":"string[]","name":"tags","type":"string[]"},{"internalType":"uint256[]","name":"weights","type":"uint256[]"}],"name":"setCapabilities","outputs":[],"stateMutability":"nonpayable","type":"function"},{"inputs":[{"internalType":"address","name":"agentAddress","type":"address"},{"internalType":"uint256","name":"reputation","type":"uint256"}],"name":"setReputation","outputs":[],"stateMutability":"nonpayable","type":"function"},{"inputs":[{"internalType":"address","name":"newOwner","type":"address"}],"name":"transferOwnership","outputs":[],"stateMutability":"nonpayable","type":"function"},{"inputs":[{"internalType":"string","name":"name","type":"string"},{"internalType":"string","name":"metadataURI","type":"string"}],"name":"updateAgent","outputs":[],"stateMutability":"nonpayable","type":"function"},{"inputs":[{"internalType":"address","name":"agentAddress","type":"address"},{"internalType":"uint256","name":"confidenceFactor","type":"uint256"},{"internalType":"uint256","name":"riskTolerance","type":"uint256"}],"name":"updateBiddingStrategy","outputs":[],"stateMutability":"nonpayable","type":"function"}],"evm":{"bytecode":{"linkReferences":{},"object":"60806040523480156200001157600080fd5b5033806200003957604051631e4fbdf760e01b81526000600482015260240160405180910390fd5b62000044816200004b565b506200009b565b600080546001600160a01b038381166001600160a01b0319831681178455604051919092169283917f8be0079c531659141344cd1fd0a4f28419497f9722a3daafe3b4186f6b6457e09190a35050565b61340b80620000ab6000396000f3fe608060405234801561001057600080fd5b50600436106102065760003560e01c8063991ef1711161011a578063b696ae5b116100ad578063ecd5e3581161007c578063ecd5e358146104e0578063f21e7f26146104f3578063f2fde38b14610506578063f63540fb14610519578063fd66091e1461052157600080fd5b8063b696ae5b14610471578063d2badd5414610491578063d4b5cbd0146104c0578063ebeae587146103ec57600080fd5b8063a7676a63116100e9578063a7676a6314610425578063a970c8e014610438578063b0a0a9271461044b578063b120c16a1461045e57600080fd5b8063991ef171146103cb5780639c89a0e2146103ec578063a6631e2f146103ff578063a6f3d0f91461041257600080fd5b8063715018a61161019d578063877dd2e31161016c578063877dd2e3146103555780638da5cb5b146103835780639092cbf4146103a857806391cab63e146103bb578063984b429e146103c357600080fd5b8063715018a6146102dc57806378375af6146102e45780637b24da5514610320578063860e4ac61461034057600080fd5b80633224b395116101d95780633224b3951461026f5780634e81ba8e146102855780636033f5081461029857806365e1e466146102b957600080fd5b80630f85a2571461020b5780632538b1531461023457806327893d8e146102495780632a8843711461025c575b600080fd5b61021e6102193660046126ef565b610547565b60405161022b919061279c565b60405180910390f35b6102476102423660046126ef565b6107ce565b005b6102476102573660046126ef565b610828565b61024761026a366004612937565b610894565b610277606481565b60405190815260200161022b565b6102476102933660046126ef565b6108e8565b6102ab6102a63660046126ef565b610a40565b60405161022b92919061299f565b6102cc6102c73660046126ef565b610bae565b604051901515815260200161022b565b610247610bf9565b6102776102f23660046129f6565b6004602090815260009283526040909220815180830184018051928152908401929093019190912091525481565b61033361032e3660046126ef565b610c0d565b60405161022b9190612a43565b610348610d72565b60405161022b9190612ad8565b6103686103633660046126ef565b610dd4565b6040805193845260208401929092529082015260600161022b565b6000546001600160a01b03165b6040516001600160a01b03909116815260200161022b565b6102476103b6366004612b25565b610e57565b600254610277565b610277603281565b6103de6103d93660046126ef565b61109c565b60405161022b929190612b58565b6102776103fa3660046126ef565b611302565b61024761040d366004612bc5565b611359565b610247610420366004612b25565b611409565b610390610433366004612c1e565b611592565b610247610446366004612c37565b6115bc565b6102476104593660046126ef565b6117dd565b61024761046c366004612cb2565b61192c565b61027761047f3660046126ef565b60066020526000908152604090205481565b61036861049f3660046126ef565b600a6020526000908152604090208054600182015460029092015490919083565b6104d36104ce3660046126ef565b6119dc565b60405161022b9190612cdc565b6102476104ee366004612d78565b611a81565b6102476105013660046126ef565b611f00565b6102476105143660046126ef565b611f85565b610277600a81565b61053461052f3660046126ef565b611fc0565b60405161022b9796959493929190612e73565b6105806040518060c001604052806000815260200160608152602001606081526020016000815260200160608152602001606081525090565b6001600160a01b0382166000908152600160205260409020600501546105c15760405162461bcd60e51b81526004016105b890612ef0565b60405180910390fd5b60405163991ef17160e01b81526001600160a01b03831660048201526000908190309063991ef17190602401600060405180830381865afa15801561060a573d6000803e3d6000fd5b505050506040513d6000823e601f3d908101601f191682016040526106329190810190612f79565b91509150600060076000866001600160a01b03166001600160a01b031681526020019081526020016000208054806020026020016040519081016040528092919081815260200182805480156106a757602002820191906000526020600020905b815481526020019060010190808311610693575b50505050509050600081516001600160401b038111156106c9576106c9612874565b6040519080825280602002602001820160405280156106f2578160200160208202803683370190505b50905060005b8251811015610776576001600160a01b0387166000908152600860205260408120845190919085908490811061073057610730613080565b602002602001015181526020019081526020016000205482828151811061075957610759613080565b60209081029190910101528061076e816130ac565b9150506106f8565b506040805160c0810182526001600160a01b03909716600081815260016020908152838220600301548a52808a0197909752888301959095528452600690945292909120546060850152608084015260a08301525090565b6107d661211b565b6001600160a01b03811660009081526001602052604090206005015461080e5760405162461bcd60e51b81526004016105b890612ef0565b6001600160a01b0316600090815260066020526040812055565b61083061211b565b6001600160a01b0381166000908152600160205260409020600501546108685760405162461bcd60e51b81526004016105b890612ef0565b6001600160a01b038116600090815260066020526040812080549161088c836130ac565b919050555050565b61089c61211b565b6001600160a01b0385166000908152600160205260409020600501546108d45760405162461bcd60e51b81526004016105b890612ef0565b6108e18585858585612148565b5050505050565b6001600160a01b0381166000908152600160205260409020600501546109205760405162461bcd60e51b81526004016105b890612ef0565b336001600160a01b038216148061094157506000546001600160a01b031633145b61097e5760405162461bcd60e51b815260206004820152600e60248201526d139bdd08185d5d1a1bdc9a5e995960921b60448201526064016105b8565b6001600160a01b03811660009081526001602052604090206004015460ff16156109e15760405162461bcd60e51b81526020600482015260146024820152734167656e7420616c72656164792061637469766560601b60448201526064016105b8565b6001600160a01b038116600081815260016020818152604092839020600401805460ff191690921790915590514281527f63eb46668dbc3c8cf26c8a83c05409754547e6dd58b2e9634b4028bd98c999cf91015b60405180910390a250565b6001600160a01b0381166000908152600160205260409020600501546060908190610a7d5760405162461bcd60e51b81526004016105b890612ef0565b6001600160a01b03831660009081526007602090815260409182902080548351818402810184019094528084529091830182828015610adb57602002820191906000526020600020905b815481526020019060010190808311610ac7575b5050505050915081516001600160401b03811115610afb57610afb612874565b604051908082528060200260200182016040528015610b24578160200160208202803683370190505b50905060005b8251811015610ba8576001600160a01b03841660009081526008602052604081208451909190859084908110610b6257610b62613080565b6020026020010151815260200190815260200160002054828281518110610b8b57610b8b613080565b602090810291909101015280610ba0816130ac565b915050610b2a565b50915091565b6001600160a01b03811660009081526001602052604081206005015415801590610bf357506001600160a01b03821660009081526001602052604090206004015460ff165b92915050565b610c0161211b565b610c0b60006123ad565b565b6001600160a01b038116600090815260016020526040902060050154606090610c485760405162461bcd60e51b81526004016105b890612ef0565b6001600160a01b038216600090815260096020908152604080832080548251818502810185019093528083529193909284015b82821015610d6757838290600052602060002090600502016040518060a0016040529081600082018054610cae906130c5565b80601f0160208091040260200160405190810160405280929190818152602001828054610cda906130c5565b8015610d275780601f10610cfc57610100808354040283529160200191610d27565b820191906000526020600020905b815481529060010190602001808311610d0a57829003601f168201915b5050505050815260200160018201548152602001600282015481526020016003820154815260200160048201548152505081526020019060010190610c7b565b505050509050919050565b60606002805480602002602001604051908101604052809291908181526020018280548015610dca57602002820191906000526020600020905b81546001600160a01b03168152600190910190602001808311610dac575b5050505050905090565b6001600160a01b03811660009081526001602052604081206005015481908190610e105760405162461bcd60e51b81526004016105b890612ef0565b5050506001600160a01b03166000908152600a6020908152604091829020825160608101845281548082526001830154938201849052600290920154930183905292909190565b610e5f61211b565b6001600160a01b038316600090815260016020526040902060050154610e975760405162461bcd60e51b81526004016105b890612ef0565b6064811115610ee85760405162461bcd60e51b815260206004820152601b60248201527f53636f7265206d757374206265206265747765656e20302d313030000000000060448201526064016105b8565b6001600160a01b03831660008181526008602090815260408083208684528252808320859055928252600790522054600a1161101e5760005b6001600160a01b038416600090815260076020526040902054610f46906001906130ff565b811015610fdf576001600160a01b0384166000908152600760205260409020610f70826001613112565b81548110610f8057610f80613080565b906000526020600020015460076000866001600160a01b03166001600160a01b031681526020019081526020016000208281548110610fc157610fc1613080565b60009182526020909120015580610fd7816130ac565b915050610f21565b506001600160a01b038316600090815260076020526040902080548061100757611007613125565b600190038181906000526020600020016000905590555b6001600160a01b03831660009081526007602090815260408220805460018101825590835291200182905561105383826123fd565b81836001600160a01b03167f0975e9039ae3e10164cc9ae09649ef940b60019242082baac3d093113788c1848360405161108f91815260200190565b60405180910390a3505050565b606080600060056000856001600160a01b03166001600160a01b03168152602001908152602001600020805480602002602001604051908101604052809291908181526020016000905b82821015611192578382906000526020600020018054611105906130c5565b80601f0160208091040260200160405190810160405280929190818152602001828054611131906130c5565b801561117e5780601f106111535761010080835404028352916020019161117e565b820191906000526020600020905b81548152906001019060200180831161116157829003601f168201915b5050505050815260200190600101906110e6565b50508251929350829150506001600160401b038111156111b4576111b4612874565b6040519080825280602002602001820160405280156111e757816020015b60608152602001906001900390816111d25790505b509350806001600160401b0381111561120257611202612874565b60405190808252806020026020018201604052801561122b578160200160208202803683370190505b50925060005b818110156112fa5782818151811061124b5761124b613080565b602002602001015185828151811061126557611265613080565b602002602001018190525060046000876001600160a01b03166001600160a01b031681526020019081526020016000208582815181106112a7576112a7613080565b60200260200101516040516112bc919061313b565b9081526020016040518091039020548482815181106112dd576112dd613080565b6020908102919091010152806112f2816130ac565b915050611231565b505050915091565b6001600160a01b03811660009081526001602052604081206005015461133a5760405162461bcd60e51b81526004016105b890612ef0565b506001600160a01b031660009081526001602052604090206003015490565b336000908152600160205260409020600501546113885760405162461bcd60e51b81526004016105b890612ef0565b3360009081526001602052604090206113a183826131a6565b50336000908152600160208190526040909120016113bf82826131a6565b50336001600160a01b03167f7220a5218bab02fa8788280b463a09ce9b6dcc4438140bb09f27524c9736d6b98383426040516113fd93929190613265565b60405180910390a25050565b61141161211b565b6001600160a01b0383166000908152600160205260409020600501546114495760405162461bcd60e51b81526004016105b890612ef0565b60648211156114aa5760405162461bcd60e51b815260206004820152602760248201527f436f6e666964656e636520666163746f72206d7573742062652062657477656560448201526606e20302d3130360cc1b60648201526084016105b8565b60648111156115075760405162461bcd60e51b8152602060048201526024808201527f5269736b20746f6c6572616e6365206d757374206265206265747765656e203060448201526302d3130360e41b60648201526084016105b8565b60408051606080820183528482526020808301858152428486018181526001600160a01b038a166000818152600a86528890209651875592516001870155516002909501949094558451878152918201869052938101929092527ff6c4e2517904fe3edfaeb784a3a2ae2993dda8996bb34e74a7c588256c66b2bc91015b60405180910390a2505050565b600281815481106115a257600080fd5b6000918252602090912001546001600160a01b0316905081565b336000908152600160205260409020600501541561161c5760405162461bcd60e51b815260206004820152601860248201527f4167656e7420616c72656164792072656769737465726564000000000000000060448201526064016105b8565b6040518060e00160405280848152602001838152602001336001600160a01b031681526020016032815260200160011515815260200142815260200182600381111561166a5761166a612e5d565b90523360009081526001602052604090208151819061168990826131a6565b506020820151600182019061169e90826131a6565b5060408201516002820180546001600160a01b039092166001600160a01b03199092169190911790556060820151600380830191909155608083015160048301805491151560ff1992831617905560a0840151600584015560c0840151600684018054919390929190911690600190849081111561171e5761171e612e5d565b02179055505060028054600181810183557f405787fa12a823e0f2b7631cc41b3ba8828b3321ca811111fa75cd3aa3bb5ace90910180546001600160a01b03191633908117909155604080516060810182526050815260326020828101918252428385018181526000878152600a9093529185902093518455915195830195909555935194019390935591519192507fda383fa67b156e4a54602cae094dfe780f97854ec2bb821ec1d0836381055c7f91611585918791879190613265565b6001600160a01b0381166000908152600160205260409020600501546118155760405162461bcd60e51b81526004016105b890612ef0565b336001600160a01b038216148061183657506000546001600160a01b031633145b6118735760405162461bcd60e51b815260206004820152600e60248201526d139bdd08185d5d1a1bdc9a5e995960921b60448201526064016105b8565b6001600160a01b03811660009081526001602052604090206004015460ff166118d75760405162461bcd60e51b81526020600482015260166024820152754167656e7420616c726561647920696e61637469766560501b60448201526064016105b8565b6001600160a01b03811660008181526001602052604090819020600401805460ff19169055517f0908d0024a3278cb165ed9b5e370dfd4b2c566122efebb355afb5b56e224915890610a359042815260200190565b61193461211b565b6001600160a01b03821660009081526001602052604090206005015461196c5760405162461bcd60e51b81526004016105b890612ef0565b60648111156119bd5760405162461bcd60e51b815260206004820181905260248201527f52657075746174696f6e206d757374206265206265747765656e20302d31303060448201526064016105b8565b6001600160a01b03909116600090815260016020526040902060030155565b6001600160a01b038116600090815260016020526040902060050154606090611a175760405162461bcd60e51b81526004016105b890612ef0565b6001600160a01b0382166000908152600b602090815260409182902080548351818402810184019094528084529091830182828015611a7557602002820191906000526020600020905b815481526020019060010190808311611a61575b50505050509050919050565b611a8961211b565b6001600160a01b038316600090815260016020526040902060050154611ac15760405162461bcd60e51b81526004016105b890612ef0565b8051825114611b215760405162461bcd60e51b815260206004820152602660248201527f5461677320616e642077656967687473206d75737420686176652073616d65206044820152650d8cadccee8d60d31b60648201526084016105b8565b60005b6001600160a01b038416600090815260056020526040902054811015611c5b576001600160a01b0384166000908152600560205260408120805483908110611b6e57611b6e613080565b906000526020600020018054611b83906130c5565b80601f0160208091040260200160405190810160405280929190818152602001828054611baf906130c5565b8015611bfc5780601f10611bd157610100808354040283529160200191611bfc565b820191906000526020600020905b815481529060010190602001808311611bdf57829003601f168201915b50505050509050600060046000876001600160a01b03166001600160a01b0316815260200190815260200160002082604051611c38919061313b565b908152604051908190036020019020555080611c53816130ac565b915050611b24565b506001600160a01b0383166000908152600560205260408120611c7d91612645565b60005b8251811015611ec4576064828281518110611c9d57611c9d613080565b60200260200101511115611cf35760405162461bcd60e51b815260206004820152601c60248201527f576569676874206d757374206265206265747765656e20302d3130300000000060448201526064016105b8565b6000828281518110611d0757611d07613080565b60200260200101511115611eb2576001600160a01b03841660009081526004602052604081208451859084908110611d4157611d41613080565b6020026020010151604051611d56919061313b565b9081526020016040518091039020549050600081118015611d905750828281518110611d8457611d84613080565b60200260200101518114155b15611dd757611dd785858481518110611dab57611dab613080565b602002602001015183868681518110611dc657611dc6613080565b60200260200101516000801b612148565b828281518110611de957611de9613080565b602002602001015160046000876001600160a01b03166001600160a01b03168152602001908152602001600020858481518110611e2857611e28613080565b6020026020010151604051611e3d919061313b565b90815260200160405180910390208190555060056000866001600160a01b03166001600160a01b03168152602001908152602001600020848381518110611e8657611e86613080565b60209081029190910181015182546001810184556000938452919092200190611eaf90826131a6565b50505b80611ebc816130ac565b915050611c80565b50826001600160a01b03167fa5af54087545ac61744732e3fc6f918b48351a21e188009cd82eb5772c37be618383604051611585929190612b58565b611f0861211b565b6001600160a01b038116600090815260016020526040902060050154611f405760405162461bcd60e51b81526004016105b890612ef0565b6001600160a01b03811660009081526006602052604090205415611f82576001600160a01b038116600090815260066020526040812080549161088c8361329b565b50565b611f8d61211b565b6001600160a01b038116611fb757604051631e4fbdf760e01b8152600060048201526024016105b8565b611f82816123ad565b600160205260009081526040902080548190611fdb906130c5565b80601f0160208091040260200160405190810160405280929190818152602001828054612007906130c5565b80156120545780601f1061202957610100808354040283529160200191612054565b820191906000526020600020905b81548152906001019060200180831161203757829003601f168201915b505050505090806001018054612069906130c5565b80601f0160208091040260200160405190810160405280929190818152602001828054612095906130c5565b80156120e25780601f106120b7576101008083540402835291602001916120e2565b820191906000526020600020905b8154815290600101906020018083116120c557829003601f168201915b505050600284015460038501546004860154600587015460069097015495966001600160a01b039093169591945060ff90811693501687565b6000546001600160a01b03163314610c0b5760405163118cdaa760e01b81523360048201526024016105b8565b6040805160a0810182528581526020808201869052818301859052426060830152608082018490526001600160a01b0388166000908152600990915291909120546032116122f45760005b6001600160a01b0387166000908152600960205260409020546121b8906001906130ff565b81101561228b576001600160a01b03871660009081526009602052604090206121e2826001613112565b815481106121f2576121f2613080565b906000526020600020906005020160096000896001600160a01b03166001600160a01b03168152602001908152602001600020828154811061223657612236613080565b600091825260209091206005909102018061225183826132b2565b5060018281015490820155600280830154908201556003808301549082015560049182015491015580612283816130ac565b915050612193565b506001600160a01b03861660009081526009602052604090208054806122b3576122b3613125565b600082815260208120600019909201916005830201906122d38282612663565b50600060018201819055600282018190556003820181905560049091015590555b6001600160a01b03861660009081526009602090815260408220805460018101825590835291208251839260050290910190819061233290826131a6565b5060208201518160010155604082015181600201556060820151816003015560808201518160040155505081866001600160a01b03167f564fc318f430d4dcc3f2e39f2e3ba74973abe44920decada6d8f36dccc12ca888787874260405161239d9493929190613384565b60405180910390a3505050505050565b600080546001600160a01b038381166001600160a01b0319831681178455604051919092169283917f8be0079c531659141344cd1fd0a4f28419497f9722a3daafe3b4186f6b6457e09190a35050565b6001600160a01b0382166000908152600b602052604090205460641161251d5760005b6001600160a01b0383166000908152600b6020526040902054612445906001906130ff565b8110156124de576001600160a01b0383166000908152600b6020526040902061246f826001613112565b8154811061247f5761247f613080565b9060005260206000200154600b6000856001600160a01b03166001600160a01b0316815260200190815260200160002082815481106124c0576124c0613080565b600091825260209091200155806124d6816130ac565b915050612420565b506001600160a01b0382166000908152600b6020526040902080548061250657612506613125565b600190038181906000526020600020016000905590555b6001600160a01b0382166000908152600b602090815260408220805460018101825590835290822001829055805b6001600160a01b0384166000908152600b60205260409020548110156125bf576001600160a01b0384166000908152600b6020526040902080548290811061259557612595613080565b9060005260206000200154826125ab9190613112565b9150806125b7816130ac565b91505061254b565b506001600160a01b0383166000908152600b60205260408120546125e390836133b3565b6001600160a01b0385166000818152600b6020908152604091829020548251858152918201524281830152905192935090917f229ade9366a177b70e58b25d10f66969d5c7e18ebe6eef4c6b4955b2bd2bf54a9181900360600190a250505050565b5080546000825590600052602060002090810190611f82919061269d565b50805461266f906130c5565b6000825580601f1061267f575050565b601f016020900490600052602060002090810190611f8291906126be565b808211156126ba5760006126b18282612663565b5060010161269d565b5090565b5b808211156126ba57600081556001016126bf565b80356001600160a01b03811681146126ea57600080fd5b919050565b60006020828403121561270157600080fd5b61270a826126d3565b9392505050565b60005b8381101561272c578181015183820152602001612714565b50506000910152565b6000815180845261274d816020860160208601612711565b601f01601f19169290920160200192915050565b600081518084526020808501945080840160005b8381101561279157815187529582019590820190600101612775565b509495945050505050565b60208082528251828201528281015160c06040840152805160e0840181905260009291610100600583901b86018101929184019190860190855b818110156128045760ff198886030183526127f2858551612735565b945092850192918501916001016127d6565b5050505060408501519150601f19808583030160608601526128268284612761565b92506060860151608086015260808601519150808584030160a086015261284d8383612761565b925060a08601519150808584030160c08601525061286b8282612761565b95945050505050565b634e487b7160e01b600052604160045260246000fd5b604051601f8201601f191681016001600160401b03811182821017156128b2576128b2612874565b604052919050565b60006001600160401b038211156128d3576128d3612874565b50601f01601f191660200190565b600082601f8301126128f257600080fd5b8135612905612900826128ba565b61288a565b81815284602083860101111561291a57600080fd5b816020850160208301376000918101602001919091529392505050565b600080600080600060a0868803121561294f57600080fd5b612958866126d3565b945060208601356001600160401b0381111561297357600080fd5b61297f888289016128e1565b959895975050505060408401359360608101359360809091013592509050565b604080825283519082018190526000906020906060840190828701845b828110156129d8578151845292840192908401906001016129bc565b505050838103828501526129ec8186612761565b9695505050505050565b60008060408385031215612a0957600080fd5b612a12836126d3565b915060208301356001600160401b03811115612a2d57600080fd5b612a39858286016128e1565b9150509250929050565b60006020808301818452808551808352604092508286019150828160051b87010184880160005b83811015612aca57603f19898403018552815160a08151818652612a9082870182612735565b838b0151878c0152898401518a88015260608085015190880152608093840151939096019290925250509386019390860190600101612a6a565b509098975050505050505050565b6020808252825182820181905260009190848201906040850190845b81811015612b195783516001600160a01b031683529284019291840191600101612af4565b50909695505050505050565b600080600060608486031215612b3a57600080fd5b612b43846126d3565b95602085013595506040909401359392505050565b6000604082016040835280855180835260608501915060608160051b8601019250602080880160005b83811015612baf57605f19888703018552612b9d868351612735565b95509382019390820190600101612b81565b50508584038187015250505061286b8185612761565b60008060408385031215612bd857600080fd5b82356001600160401b0380821115612bef57600080fd5b612bfb868387016128e1565b93506020850135915080821115612c1157600080fd5b50612a39858286016128e1565b600060208284031215612c3057600080fd5b5035919050565b600080600060608486031215612c4c57600080fd5b83356001600160401b0380821115612c6357600080fd5b612c6f878388016128e1565b94506020860135915080821115612c8557600080fd5b50612c92868287016128e1565b925050604084013560048110612ca757600080fd5b809150509250925092565b60008060408385031215612cc557600080fd5b612cce836126d3565b946020939093013593505050565b60208152600061270a6020830184612761565b60006001600160401b03821115612d0857612d08612874565b5060051b60200190565b600082601f830112612d2357600080fd5b81356020612d3361290083612cef565b82815260059290921b84018101918181019086841115612d5257600080fd5b8286015b84811015612d6d5780358352918301918301612d56565b509695505050505050565b600080600060608486031215612d8d57600080fd5b612d96846126d3565b92506020808501356001600160401b0380821115612db357600080fd5b818701915087601f830112612dc757600080fd5b8135612dd561290082612cef565b81815260059190911b8301840190848101908a831115612df457600080fd5b8585015b83811015612e2c57803585811115612e105760008081fd5b612e1e8d89838a01016128e1565b845250918601918601612df8565b50965050506040870135925080831115612e4557600080fd5b5050612e5386828701612d12565b9150509250925092565b634e487b7160e01b600052602160045260246000fd5b60e081526000612e8660e083018a612735565b8281036020840152612e98818a612735565b6001600160a01b038916604085015260608401889052861515608085015260a0840186905291505060048310612ede57634e487b7160e01b600052602160045260246000fd5b8260c083015298975050505050505050565b6020808252601490820152731059d95b9d081b9bdd081c9959da5cdd195c995960621b604082015260600190565b600082601f830112612f2f57600080fd5b81516020612f3f61290083612cef565b82815260059290921b84018101918181019086841115612f5e57600080fd5b8286015b84811015612d6d5780518352918301918301612f62565b6000806040808486031215612f8d57600080fd5b83516001600160401b0380821115612fa457600080fd5b818601915086601f830112612fb857600080fd5b81516020612fc861290083612cef565b82815260059290921b8401810191818101908a841115612fe757600080fd5b8286015b84811015613058578051868111156130035760008081fd5b8701603f81018d136130155760008081fd5b84810151613025612900826128ba565b8181528e8b83850101111561303a5760008081fd5b613049828883018d8601612711565b85525050918301918301612feb565b509189015191975090945050508083111561307257600080fd5b5050612a3985828601612f1e565b634e487b7160e01b600052603260045260246000fd5b634e487b7160e01b600052601160045260246000fd5b6000600182016130be576130be613096565b5060010190565b600181811c908216806130d957607f821691505b6020821081036130f957634e487b7160e01b600052602260045260246000fd5b50919050565b81810381811115610bf357610bf3613096565b80820180821115610bf357610bf3613096565b634e487b7160e01b600052603160045260246000fd5b6000825161314d818460208701612711565b9190910192915050565b601f8211156131a157600081815260208120601f850160051c8101602086101561317e5750805b601f850160051c820191505b8181101561319d5782815560010161318a565b5050505b505050565b81516001600160401b038111156131bf576131bf612874565b6131d3816131cd84546130c5565b84613157565b602080601f83116001811461320857600084156131f05750858301515b600019600386901b1c1916600185901b17855561319d565b600085815260208120601f198616915b8281101561323757888601518255948401946001909101908401613218565b50858210156132555787850151600019600388901b60f8161c191681555b5050505050600190811b01905550565b6060815260006132786060830186612735565b828103602084015261328a8186612735565b915050826040830152949350505050565b6000816132aa576132aa613096565b506000190190565b8181036132bd575050565b6132c782546130c5565b6001600160401b038111156132de576132de612874565b6132ec816131cd84546130c5565b6000601f82116001811461332057600083156133085750848201545b600019600385901b1c1916600184901b1784556108e1565b600085815260209020601f19841690600086815260209020845b8381101561335a578286015482556001958601959091019060200161333a565b50858310156132555793015460001960f8600387901b161c19169092555050600190811b01905550565b6080815260006133976080830187612735565b6020830195909552506040810192909252606090910152919050565b6000826133d057634e487b7160e01b600052601260045260246000fd5b50049056fea2646970667358221220e07fdf8a1a3ebb75f7c7078d7ba65c085d16ad53550b86282f6e93c96472d46564736f6c63430008140033","opcodes":"PUSH1 0x80 PUSH1 0x40 MSTORE CALLVALUE DUP1 ISZERO PUSH3 0x11 JUMPI PUSH1 0x0 DUP1 REVERT JUMPDEST POP CALLER DUP1 PUSH3 0x39 JUMPI PUSH1 0x40 MLOAD PUSH4 0x1E4FBDF7 PUSH1 0xE0 SHL DUP2 MSTORE PUSH1 0x0 PUSH1 0x4 DUP3 ADD MSTORE PUSH1 0x24 ADD PUSH1 0x40 MLOAD DUP1 SWAP2 SUB SWAP1 REVERT JUMPDEST PUSH3 0x44 DUP2 PUSH3 0x4B JUMP JUMPDEST POP PUSH3 0x9B JUMP JUMPDEST PUSH1 0x0 DUP1 SLOAD PUSH1 0x1 PUSH1 0x1 PUSH1 0xA0 SHL SUB DUP4 DUP2 AND PUSH1 0x1 PUSH1 0x1 PUSH1 0xA0 SHL SUB NOT DUP4 AND DUP2 OR DUP5 SSTORE PUSH1 0x40 MLOAD SWAP2 SWAP1 SWAP3 AND SWAP3 DUP4 SWAP2 PUSH32 0x8BE0079C531659141344CD1FD0A4F28419497F9722A3DAAFE3B4186F6B6457E0 SWAP2 SWAP1 LOG3 POP POP JUMP JUMPDEST PUSH2 0x340B DUP1 PUSH3 0xAB PUSH1 0x0 CODECOPY PUSH1 0x0 RETURN INVALID PUSH1 0x80 PUSH1 0x40 MSTORE CALLVALUE DUP1 ISZERO PUSH2 0x10 JUMPI PUSH1 0x0 DUP1 REVERT JUMPDEST POP PUSH1 0x4 CALLDATASIZE LT PUSH2 0x206 JUMPI PUSH1 0x0 CALLDATALOAD PUSH1 0xE0 SHR DUP1 PUSH4 0x991EF171 GT PUSH2 0x11A JUMPI DUP1 PUSH4 0xB696AE5B GT PUSH2 0xAD JUMPI DUP1 PUSH4 0xECD5E358 GT PUSH2 0x7C JUMPI DUP1 PUSH4 0xECD5E358 EQ PUSH2 0x4E0 JUMPI DUP1 PUSH4 0xF21E7F26 EQ PUSH2 0x4F3 JUMPI DUP1 PUSH4 0xF2FDE38B EQ PUSH2 0x506 JUMPI DUP1 PUSH4 0xF63540FB EQ PUSH2 0x519 JUMPI DUP1 PUSH4 0xFD66091E EQ PUSH2 0x521 JUMPI PUSH1 0x0 DUP1 REVERT JUMPDEST DUP1 PUSH4 0xB696AE5B EQ PUSH2 0x471 JUMPI DUP1 PUSH4 0xD2BADD54 EQ PUSH2 0x491 JUMPI DUP1 PUSH4 0xD4B5CBD0 EQ PUSH2 0x4C0 JUMPI DUP1 PUSH4 0xEBEAE587 EQ PUSH2 0x3EC JUMPI PUSH1 0x0 DUP1 REVERT JUMPDEST DUP1 PUSH4 0xA7676A63 GT PUSH2 0xE9 JUMPI DUP1 PUSH4 0xA7676A63 EQ PUSH2 0x425 JUMPI DUP1 PUSH4 0xA970C8E0 EQ PUSH2 0x438 JUMPI DUP1 PUSH4 0xB0A0A927 EQ PUSH2 0x44B JUMPI DUP1 PUSH4 0xB120C16A EQ PUSH2 0x45E JUMPI PUSH1 0x0 DUP1 REVERT JUMPDEST DUP1 PUSH4 0x991EF171 EQ PUSH2 0x3CB JUMPI DUP1 PUSH4 0x9C89A0E2 EQ PUSH2 0x3EC JUMPI DUP1 PUSH4 0xA6631E2F EQ PUSH2 0x3FF JUMPI DUP1 PUSH4 0xA6F3D0F9 EQ PUSH2 0x412 JUMPI PUSH1 0x0 DUP1 REVERT JUMPDEST DUP1 PUSH4 0x715018A6 GT PUSH2 0x19D JUMPI DUP1 PUSH4 0x877DD2E3 GT PUSH2 0x16C JUMPI DUP1 PUSH4 0x877DD2E3 EQ PUSH2 0x355 JUMPI DUP1 PUSH4 0x8DA5CB5B EQ PUSH2 0x383 JUMPI DUP1 PUSH4 0x9092CBF4 EQ PUSH2 0x3A8 JUMPI DUP1 PUSH4 0x91CAB63E EQ PUSH2 0x3BB JUMPI DUP1 PUSH4 0x984B429E EQ PUSH2 0x3C3 JUMPI PUSH1 0x0 DUP1 REVERT JUMPDEST DUP1 PUSH4 0x715018A6 EQ PUSH2 0x2DC JUMPI DUP1 PUSH4 0x78375AF6 EQ PUSH2 0x2E4 JUMPI DUP1 PUSH4 0x7B24DA55 EQ PUSH2 0x320 JUMPI DUP1 PUSH4 0x860E4AC6 EQ PUSH2 0x340 JUMPI PUSH1 0x0 DUP1 REVERT JUMPDEST DUP1 PUSH4 0x3224B395 GT PUSH2 0x1D9 JUMPI DUP1 PUSH4 0x3224B395 EQ PUSH2 0x26F JUMPI DUP1 PUSH4 0x4E81BA8E EQ PUSH2 0x285 JUMPI DUP1 PUSH4 0x6033F508 EQ PUSH2 0x298 JUMPI DUP1 PUSH4 0x65E1E466 EQ PUSH2 0x2B9 JUMPI PUSH1 0x0 DUP1 REVERT JUMPDEST DUP1 PUSH4 0xF85A257 EQ PUSH2 0x20B JUMPI DUP1 PUSH4 0x2538B153 EQ PUSH2 0x234 JUMPI DUP1 PUSH4 0x27893D8E EQ PUSH2 0x249 JUMPI DUP1 PUSH4 0x2A884371 EQ PUSH2 0x25C JUMPI JUMPDEST PUSH1 0x0 DUP1 REVERT JUMPDEST PUSH2 0x21E PUSH2 0x219 CALLDATASIZE PUSH1 0x4 PUSH2 0x26EF JUMP JUMPDEST PUSH2 0x547 JUMP JUMPDEST PUSH1 0x40 MLOAD PUSH2 0x22B SWAP2 SWAP1 PUSH2 0x279C JUMP JUMPDEST PUSH1 0x40 MLOAD DUP1 SWAP2 SUB SWAP1 RETURN JUMPDEST PUSH2 0x247 PUSH2 0x242 CALLDATASIZE PUSH1 0x4 PUSH2 0x26EF JUMP JUMPDEST PUSH2 0x7CE JUMP JUMPDEST STOP JUMPDEST PUSH2 0x247 PUSH2 0x257 CALLDATASIZE PUSH1 0x4 PUSH2 0x26EF JUMP JUMPDEST PUSH2 0x828 JUMP JUMPDEST PUSH2 0x247 PUSH2 0x26A CALLDATASIZE PUSH1 0x4 PUSH2 0x2937 JUMP JUMPDEST PUSH2 0x894 JUMP JUMPDEST PUSH2 0x277 PUSH1 0x64 DUP2 JUMP JUMPDEST PUSH1 0x40 MLOAD SWAP1 DUP2 MSTORE PUSH1 0x20 ADD PUSH2 0x22B JUMP JUMPDEST PUSH2 0x247 PUSH2 0x293 CALLDATASIZE PUSH1 0x4 PUSH2 0x26EF JUMP JUMPDEST PUSH2 0x8E8 JUMP JUMPDEST PUSH2 0x2AB PUSH2 0x2A6 CALLDATASIZE PUSH1 0x4 PUSH2 0x26EF JUMP JUMPDEST PUSH2 0xA40 JUMP JUMPDEST PUSH1 0x40 MLOAD PUSH2 0x22B SWAP3 SWAP2 SWAP1 PUSH2 0x299F JUMP JUMPDEST PUSH2 0x2CC PUSH2 0x2C7 CALLDATASIZE PUSH1 0x4 PUSH2 0x26EF JUMP JUMPDEST PUSH2 0xBAE JUMP JUMPDEST PUSH1 0x40 MLOAD SWAP1 ISZERO ISZERO DUP2 MSTORE PUSH1 0x20 ADD PUSH2 0x22B JUMP JUMPDEST PUSH2 0x247 PUSH2 0xBF9 JUMP JUMPDEST PUSH2 0x277 PUSH2 0x2F2 CALLDATASIZE PUSH1 0x4 PUSH2 0x29F6 JUMP JUMPDEST PUSH1 0x4 PUSH1 0x20 SWAP1 DUP2 MSTORE PUSH1 0x0 SWAP3 DUP4 MSTORE PUSH1 0x40 SWAP1 SWAP3 KECCAK256 DUP2 MLOAD DUP1 DUP4 ADD DUP5 ADD DUP1 MLOAD SWAP3 DUP2 MSTORE SWAP1 DUP5 ADD SWAP3 SWAP1 SWAP4 ADD SWAP2 SWAP1 SWAP2 KECCAK256 SWAP2 MSTORE SLOAD DUP2 JUMP JUMPDEST PUSH2 0x333 PUSH2 0x32E CALLDATASIZE PUSH1 0x4 PUSH2 0x26EF JUMP JUMPDEST PUSH2 0xC0D JUMP JUMPDEST PUSH1 0x40 MLOAD PUSH2 0x22B SWAP2 SWAP1 PUSH2 0x2A43 JUMP JUMPDEST PUSH2 0x348 PUSH2 0xD72 JUMP JUMPDEST PUSH1 0x40 MLOAD PUSH2 0x22B SWAP2 SWAP1 PUSH2 0x2AD8 JUMP JUMPDEST PUSH2 0x368 PUSH2 0x363 CALLDATASIZE PUSH1 0x4 PUSH2 0x26EF JUMP JUMPDEST PUSH2 0xDD4 JUMP JUMPDEST PUSH1 0x40 DUP1 MLOAD SWAP4 DUP5 MSTORE PUSH1 0x20 DUP5 ADD SWAP3 SWAP1 SWAP3 MSTORE SWAP1 DUP3 ADD MSTORE PUSH1 0x60 ADD PUSH2 0x22B JUMP JUMPDEST PUSH1 0x0 SLOAD PUSH1 0x1 PUSH1 0x1 PUSH1 0xA0 SHL SUB AND JUMPDEST PUSH1 0x40 MLOAD PUSH1 0x1 PUSH1 0x1 PUSH1 0xA0 SHL SUB SWAP1 SWAP2 AND DUP2 MSTORE PUSH1 0x20 ADD PUSH2 0x22B JUMP JUMPDEST PUSH2 0x247 PUSH2 0x3B6 CALLDATASIZE PUSH1 0x4 PUSH2 0x2B25 JUMP JUMPDEST PUSH2 0xE57 JUMP JUMPDEST PUSH1 0x2 SLOAD PUSH2 0x277 JUMP JUMPDEST PUSH2 0x277 PUSH1 0x32 DUP2 JUMP JUMPDEST PUSH2 0x3DE PUSH2 0x3D9 CALLDATASIZE PUSH1 0x4 PUSH2 0x26EF JUMP JUMPDEST PUSH2 0x109C JUMP JUMPDEST PUSH1 0x40 MLOAD PUSH2 0x22B SWAP3 SWAP2 SWAP1 PUSH2 0x2B58 JUMP JUMPDEST PUSH2 0x277 PUSH2 0x3FA CALLDATASIZE PUSH1 0x4 PUSH2 0x26EF JUMP JUMPDEST PUSH2 0x1302 JUMP JUMPDEST PUSH2 0x247 PUSH2 0x40D CALLDATASIZE PUSH1 0x4 PUSH2 0x2BC5 JUMP JUMPDEST PUSH2 0x1359 JUMP JUMPDEST PUSH2 0x247 PUSH2 0x420 CALLDATASIZE PUSH1 0x4 PUSH2 0x2B25 JUMP JUMPDEST PUSH2 0x1409 JUMP JUMPDEST PUSH2 0x390 PUSH2 0x433 CALLDATASIZE PUSH1 0x4 PUSH2 0x2C1E JUMP JUMPDEST PUSH2 0x1592 JUMP JUMPDEST PUSH2 0x247 PUSH2 0x446 CALLDATASIZE PUSH1 0x4 PUSH2 0x2C37 JUMP JUMPDEST PUSH2 0x15BC JUMP JUMPDEST PUSH2 0x247 PUSH2 0x459 CALLDATASIZE PUSH1 0x4 PUSH2 0x26EF JUMP JUMPDEST PUSH2 0x17DD JUMP JUMPDEST PUSH2 0x247 PUSH2 0x46C CALLDATASIZE PUSH1 0x4 PUSH2 0x2CB2 JUMP JUMPDEST PUSH2 0x192C JUMP JUMPDEST PUSH2 0x277 PUSH2 0x47F CALLDATASIZE PUSH1 0x4 PUSH2 0x26EF JUMP JUMPDEST PUSH1 0x6 PUSH1 0x20 MSTORE PUSH1 0x0 SWAP1 DUP2 MSTORE PUSH1 0x40 SWAP1 KECCAK256 SLOAD DUP2 JUMP JUMPDEST PUSH2 0x368 PUSH2 0x49F CALLDATASIZE PUSH1 0x4 PUSH2 0x26EF JUMP JUMPDEST PUSH1 0xA PUSH1 0x20 MSTORE PUSH1 0x0 SWAP1 DUP2 MSTORE PUSH1 0x40 SWAP1 KECCAK256 DUP1 SLOAD PUSH1 0x1 DUP3 ADD SLOAD PUSH1 0x2 SWAP1 SWAP3 ADD SLOAD SWAP1 SWAP2 SWAP1 DUP4 JUMP JUMPDEST PUSH2 0x4D3 PUSH2 0x4CE CALLDATASIZE PUSH1 0x4 PUSH2 0x26EF JUMP JUMPDEST PUSH2 0x19DC JUMP JUMPDEST PUSH1 0x40 MLOAD PUSH2 0x22B SWAP2 SWAP1 PUSH2 0x2CDC JUMP JUMPDEST PUSH2 0x247 PUSH2 0x4EE CALLDATASIZE PUSH1 0x4 PUSH2 0x2D78 JUMP JUMPDEST PUSH2 0x1A81 JUMP JUMPDEST PUSH2 0x247 PUSH2 0x501 CALLDATASIZE PUSH1 0x4 PUSH2 0x26EF JUMP JUMPDEST PUSH2 0x1F00 JUMP JUMPDEST PUSH2 0x247 PUSH2 0x514 CALLDATASIZE PUSH1 0x4 PUSH2 0x26EF JUMP JUMPDEST PUSH2 0x1F85 JUMP JUMPDEST PUSH2 0x277 PUSH1 0xA DUP2 JUMP JUMPDEST PUSH2 0x534 PUSH2 0x52F CALLDATASIZE PUSH1 0x4 PUSH2 0x26EF JUMP JUMPDEST PUSH2 0x1FC0 JUMP JUMPDEST PUSH1 0x40 MLOAD PUSH2 0x22B SWAP8 SWAP7 SWAP6 SWAP5 SWAP4 SWAP3 SWAP2 SWAP1 PUSH2 0x2E73 JUMP JUMPDEST PUSH2 0x580 PUSH1 0x40 MLOAD DUP1 PUSH1 0xC0 ADD PUSH1 0x40 MSTORE DUP1 PUSH1 0x0 DUP2 MSTORE PUSH1 0x20 ADD PUSH1 0x60 DUP2 MSTORE PUSH1 0x20 ADD PUSH1 0x60 DUP2 MSTORE PUSH1 0x20 ADD PUSH1 0x0 DUP2 MSTORE PUSH1 0x20 ADD PUSH1 0x60 DUP2 MSTORE PUSH1 0x20 ADD PUSH1 0x60 DUP2 MSTORE POP SWAP1 JUMP JUMPDEST PUSH1 0x1 PUSH1 0x1 PUSH1 0xA0 SHL SUB DUP3 AND PUSH1 0x0 SWAP1 DUP2 MSTORE PUSH1 0x1 PUSH1 0x20 MSTORE PUSH1 0x40 SWAP1 KECCAK256 PUSH1 0x5 ADD SLOAD PUSH2 0x5C1 JUMPI PUSH1 0x40 MLOAD PUSH3 0x461BCD PUSH1 0xE5 SHL DUP2 MSTORE PUSH1 0x4 ADD PUSH2 0x5B8 SWAP1 PUSH2 0x2EF0 JUMP JUMPDEST PUSH1 0x40 MLOAD DUP1 SWAP2 SUB SWAP1 REVERT JUMPDEST PUSH1 0x40 MLOAD PUSH4 0x991EF171 PUSH1 0xE0 SHL DUP2 MSTORE PUSH1 0x1 PUSH1 0x1 PUSH1 0xA0 SHL SUB DUP4 AND PUSH1 0x4 DUP3 ADD MSTORE PUSH1 0x0 SWAP1 DUP2 SWAP1 ADDRESS SWAP1 PUSH4 0x991EF171 SWAP1 PUSH1 0x24 ADD PUSH1 0x0 PUSH1 0x40 MLOAD DUP1 DUP4 SUB DUP2 DUP7 GAS STATICCALL ISZERO DUP1 ISZERO PUSH2 0x60A JUMPI RETURNDATASIZE PUSH1 0x0 DUP1 RETURNDATACOPY RETURNDATASIZE PUSH1 0x0 REVERT JUMPDEST POP POP POP POP PUSH1 0x40 MLOAD RETURNDATASIZE PUSH1 0x0 DUP3 RETURNDATACOPY PUSH1 0x1F RETURNDATASIZE SWAP1 DUP2 ADD PUSH1 0x1F NOT AND DUP3 ADD PUSH1 0x40 MSTORE PUSH2 0x632 SWAP2 SWAP1 DUP2 ADD SWAP1 PUSH2 0x2F79 JUMP JUMPDEST SWAP2 POP SWAP2 POP PUSH1 0x0 PUSH1 0x7 PUSH1 0x0 DUP7 PUSH1 0x1 PUSH1 0x1 PUSH1 0xA0 SHL SUB AND PUSH1 0x1 PUSH1 0x1 PUSH1 0xA0 SHL SUB AND DUP2 MSTORE PUSH1 0x20 ADD SWAP1 DUP2 MSTORE PUSH1 0x20 ADD PUSH1 0x0 KECCAK256 DUP1 SLOAD DUP1 PUSH1 0x20 MUL PUSH1 0x20 ADD PUSH1 0x40 MLOAD SWAP1 DUP2 ADD PUSH1 0x40 MSTORE DUP1 SWAP3 SWAP2 SWAP1 DUP2 DUP2 MSTORE PUSH1 0x20 ADD DUP3 DUP1 SLOAD DUP1 ISZERO PUSH2 0x6A7 JUMPI PUSH1 0x20 MUL DUP3 ADD SWAP2 SWAP1 PUSH1 0x0 MSTORE PUSH1 0x20 PUSH1 0x0 KECCAK256 SWAP1 JUMPDEST DUP2 SLOAD DUP2 MSTORE PUSH1 0x20 ADD SWAP1 PUSH1 0x1 ADD SWAP1 DUP1 DUP4 GT PUSH2 0x693 JUMPI JUMPDEST POP POP POP POP POP SWAP1 POP PUSH1 0x0 DUP2 MLOAD PUSH1 0x1 PUSH1 0x1 PUSH1 0x40 SHL SUB DUP2 GT ISZERO PUSH2 0x6C9 JUMPI PUSH2 0x6C9 PUSH2 0x2874 JUMP JUMPDEST PUSH1 0x40 MLOAD SWAP1 DUP1 DUP3 MSTORE DUP1 PUSH1 0x20 MUL PUSH1 0x20 ADD DUP3 ADD PUSH1 0x40 MSTORE DUP1 ISZERO PUSH2 0x6F2 JUMPI DUP2 PUSH1 0x20 ADD PUSH1 0x20 DUP3 MUL DUP1 CALLDATASIZE DUP4 CALLDATACOPY ADD SWAP1 POP JUMPDEST POP SWAP1 POP PUSH1 0x0 JUMPDEST DUP3 MLOAD DUP2 LT ISZERO PUSH2 0x776 JUMPI PUSH1 0x1 PUSH1 0x1 PUSH1 0xA0 SHL SUB DUP8 AND PUSH1 0x0 SWAP1 DUP2 MSTORE PUSH1 0x8 PUSH1 0x20 MSTORE PUSH1 0x40 DUP2 KECCAK256 DUP5 MLOAD SWAP1 SWAP2 SWAP1 DUP6 SWAP1 DUP5 SWAP1 DUP2 LT PUSH2 0x730 JUMPI PUSH2 0x730 PUSH2 0x3080 JUMP JUMPDEST PUSH1 0x20 MUL PUSH1 0x20 ADD ADD MLOAD DUP2 MSTORE PUSH1 0x20 ADD SWAP1 DUP2 MSTORE PUSH1 0x20 ADD PUSH1 0x0 KECCAK256 SLOAD DUP3 DUP3 DUP2 MLOAD DUP2 LT PUSH2 0x759 JUMPI PUSH2 0x759 PUSH2 0x3080 JUMP JUMPDEST PUSH1 0x20 SWAP1 DUP2 MUL SWAP2 SWAP1 SWAP2 ADD ADD MSTORE DUP1 PUSH2 0x76E DUP2 PUSH2 0x30AC JUMP JUMPDEST SWAP2 POP POP PUSH2 0x6F8 JUMP JUMPDEST POP PUSH1 0x40 DUP1 MLOAD PUSH1 0xC0 DUP2 ADD DUP3 MSTORE PUSH1 0x1 PUSH1 0x1 PUSH1 0xA0 SHL SUB SWAP1 SWAP8 AND PUSH1 0x0 DUP2 DUP2 MSTORE PUSH1 0x1 PUSH1 0x20 SWAP1 DUP2 MSTORE DUP4 DUP3 KECCAK256 PUSH1 0x3 ADD SLOAD DUP11 MSTORE DUP1 DUP11 ADD SWAP8 SWAP1 SWAP8 MSTORE DUP9 DUP4 ADD SWAP6 SWAP1 SWAP6 MSTORE DUP5 MSTORE PUSH1 0x6 SWAP1 SWAP5 MSTORE SWAP3 SWAP1 SWAP2 KECCAK256 SLOAD PUSH1 0x60 DUP6 ADD MSTORE PUSH1 0x80 DUP5 ADD MSTORE PUSH1 0xA0 DUP4 ADD MSTORE POP SWAP1 JUMP JUMPDEST PUSH2 0x7D6 PUSH2 0x211B JUMP JUMPDEST PUSH1 0x1 PUSH1 0x1 PUSH1 0xA0 SHL SUB DUP2 AND PUSH1 0x0 SWAP1 DUP2 MSTORE PUSH1 0x1 PUSH1 0x20 MSTORE PUSH1 0x40 SWAP1 KECCAK256 PUSH1 0x5 ADD SLOAD PUSH2 0x80E JUMPI PUSH1 0x40 MLOAD PUSH3 0x461BCD PUSH1 0xE5 SHL DUP2 MSTORE PUSH1 0x4 ADD PUSH2 0x5B8 SWAP1 PUSH2 0x2EF0 JUMP JUMPDEST PUSH1 0x1 PUSH1 0x1 PUSH1 0xA0 SHL SUB AND PUSH1 0x0 SWAP1 DUP2 MSTORE PUSH1 0x6 PUSH1 0x20 MSTORE PUSH1 0x40 DUP2 KECCAK256 SSTORE JUMP JUMPDEST PUSH2 0x830 PUSH2 0x211B JUMP JUMPDEST PUSH1 0x1 PUSH1 0x1 PUSH1 0xA0 SHL SUB DUP2 AND PUSH1 0x0 SWAP1 DUP2 MSTORE PUSH1 0x1 PUSH1 0x20 MSTORE PUSH1 0x40 SWAP1 KECCAK256 PUSH1 0x5 ADD SLOAD PUSH2 0x868 JUMPI PUSH1 0x40 MLOAD PUSH3 0x461BCD PUSH1 0xE5 SHL DUP2 MSTORE PUSH1 0x4 ADD PUSH2 0x5B8 SWAP1 PUSH2 0x2EF0 JUMP JUMPDEST PUSH1 0x1 PUSH1 0x1 PUSH1 0xA0 SHL SUB DUP2 AND PUSH1 0x0 SWAP1 DUP2 MSTORE PUSH1 0x6 PUSH1 0x20 MSTORE PUSH1 0x40 DUP2 KECCAK256 DUP1 SLOAD SWAP2 PUSH2 0x88C DUP4 PUSH2 0x30AC JUMP JUMPDEST SWAP2 SWAP1 POP SSTORE POP POP JUMP JUMPDEST PUSH2 0x89C PUSH2 0x211B JUMP JUMPDEST PUSH1 0x1 PUSH1 0x1 PUSH1 0xA0 SHL SUB DUP6 AND PUSH1 0x0 SWAP1 DUP2 MSTORE PUSH1 0x1 PUSH1 0x20 MSTORE PUSH1 0x40 SWAP1 KECCAK256 PUSH1 0x5 ADD SLOAD PUSH2 0x8D4 JUMPI PUSH1 0x40 MLOAD PUSH3 0x461BCD PUSH1 0xE5 SHL DUP2 MSTORE PUSH1 0x4 ADD PUSH2 0x5B8 SWAP1 PUSH2 0x2EF0 JUMP JUMPDEST PUSH2 0x8E1 DUP6 DUP6 DUP6 DUP6 DUP6 PUSH2 0x2148 JUMP JUMPDEST POP POP POP POP POP JUMP JUMPDEST PUSH1 0x1 PUSH1 0x1 PUSH1 0xA0 SHL SUB DUP2 AND PUSH1 0x0 SWAP1 DUP2 MSTORE PUSH1 0x1 PUSH1 0x20 MSTORE PUSH1 0x40 SWAP1 KECCAK256 PUSH1 0x5 ADD SLOAD PUSH2 0x920 JUMPI PUSH1 0x40 MLOAD PUSH3 0x461BCD PUSH1 0xE5 SHL DUP2 MSTORE PUSH1 0x4 ADD PUSH2 0x5B8 SWAP1 PUSH2 0x2EF0 JUMP JUMPDEST CALLER PUSH1 0x1 PUSH1 0x1 PUSH1 0xA0 SHL SUB DUP3 AND EQ DUP1 PUSH2 0x941 JUMPI POP PUSH1 0x0 SLOAD PUSH1 0x1 PUSH1 0x1 PUSH1 0xA0 SHL SUB AND CALLER EQ JUMPDEST PUSH2 0x97E JUMPI PUSH1 0x40 MLOAD PUSH3 0x461BCD PUSH1 0xE5 SHL DUP2 MSTORE PUSH1 0x20 PUSH1 0x4 DUP3 ADD MSTORE PUSH1 0xE PUSH1 0x24 DUP3 ADD MSTORE PUSH14 0x139BDD08185D5D1A1BDC9A5E9959 PUSH1 0x92 SHL PUSH1 0x44 DUP3 ADD MSTORE PUSH1 0x64 ADD PUSH2 0x5B8 JUMP JUMPDEST PUSH1 0x1 PUSH1 0x1 PUSH1 0xA0 SHL SUB DUP2 AND PUSH1 0x0 SWAP1 DUP2 MSTORE PUSH1 0x1 PUSH1 0x20 MSTORE PUSH1 0x40 SWAP1 KECCAK256 PUSH1 0x4 ADD SLOAD PUSH1 0xFF AND ISZERO PUSH2 0x9E1 JUMPI PUSH1 0x40 MLOAD PUSH3 0x461BCD PUSH1 0xE5 SHL DUP2 MSTORE PUSH1 0x20 PUSH1 0x4 DUP3 ADD MSTORE PUSH1 0x14 PUSH1 0x24 DUP3 ADD MSTORE PUSH20 0x4167656E7420616C726561647920616374697665 PUSH1 0x60 SHL PUSH1 0x44 DUP3 ADD MSTORE PUSH1 0x64 ADD PUSH2 0x5B8 JUMP JUMPDEST PUSH1 0x1 PUSH1 0x1 PUSH1 0xA0 SHL SUB DUP2 AND PUSH1 0x0 DUP2 DUP2 MSTORE PUSH1 0x1 PUSH1 0x20 DUP2 DUP2 MSTORE PUSH1 0x40 SWAP3 DUP4 SWAP1 KECCAK256 PUSH1 0x4 ADD DUP1 SLOAD PUSH1 0xFF NOT AND SWAP1 SWAP3 OR SWAP1 SWAP2 SSTORE SWAP1 MLOAD TIMESTAMP DUP2 MSTORE PUSH32 0x63EB46668DBC3C8CF26C8A83C05409754547E6DD58B2E9634B4028BD98C999CF SWAP2 ADD JUMPDEST PUSH1 0x40 MLOAD DUP1 SWAP2 SUB SWAP1 LOG2 POP JUMP JUMPDEST PUSH1 0x1 PUSH1 0x1 PUSH1 0xA0 SHL SUB DUP2 AND PUSH1 0x0 SWAP1 DUP2 MSTORE PUSH1 0x1 PUSH1 0x20 MSTORE PUSH1 0x40 SWAP1 KECCAK256 PUSH1 0x5 ADD SLOAD PUSH1 0x60 SWAP1 DUP2 SWAP1 PUSH2 0xA7D JUMPI PUSH1 0x40 MLOAD PUSH3 0x461BCD PUSH1 0xE5 SHL DUP2 MSTORE PUSH1 0x4 ADD PUSH2 0x5B8 SWAP1 PUSH2 0x2EF0 JUMP JUMPDEST PUSH1 0x1 PUSH1 0x1 PUSH1 0xA0 SHL SUB DUP4 AND PUSH1 0x0 SWAP1 DUP2 MSTORE PUSH1 0x7 PUSH1 0x20 SWAP1 DUP2 MSTORE PUSH1 0x40 SWAP2 DUP3 SWAP1 KECCAK256 DUP1 SLOAD DUP4 MLOAD DUP2 DUP5 MUL DUP2 ADD DUP5 ADD SWAP1 SWAP5 MSTORE DUP1 DUP5 MSTORE SWAP1 SWAP2 DUP4 ADD DUP3 DUP3 DUP1 ISZERO PUSH2 0xADB JUMPI PUSH1 0x20 MUL DUP3 ADD SWAP2 SWAP1 PUSH1 0x0 MSTORE PUSH1 0x20 PUSH1 0x0 KECCAK256 SWAP1 JUMPDEST DUP2 SLOAD DUP2 MSTORE PUSH1 0x20 ADD SWAP1 PUSH1 0x1 ADD SWAP1 DUP1 DUP4 GT PUSH2 0xAC7 JUMPI JUMPDEST POP POP POP POP POP SWAP2 POP DUP2 MLOAD PUSH1 0x1 PUSH1 0x1 PUSH1 0x40 SHL SUB DUP2 GT ISZERO PUSH2 0xAFB JUMPI PUSH2 0xAFB PUSH2 0x2874 JUMP JUMPDEST PUSH1 0x40 MLOAD SWAP1 DUP1 DUP3 MSTORE DUP1 PUSH1 0x20 MUL PUSH1 0x20 ADD DUP3 ADD PUSH1 0x40 MSTORE DUP1 ISZERO PUSH2 0xB24 JUMPI DUP2 PUSH1 0x20 ADD PUSH1 0x20 DUP3 MUL DUP1 CALLDATASIZE DUP4 CALLDATACOPY ADD SWAP1 POP JUMPDEST POP SWAP1 POP PUSH1 0x0 JUMPDEST DUP3 MLOAD DUP2 LT ISZERO PUSH2 0xBA8 JUMPI PUSH1 0x1 PUSH1 0x1 PUSH1 0xA0 SHL SUB DUP5 AND PUSH1 0x0 SWAP1 DUP2 MSTORE PUSH1 0x8 PUSH1 0x20 MSTORE PUSH1 0x40 DUP2 KECCAK256 DUP5 MLOAD SWAP1 SWAP2 SWAP1 DUP6 SWAP1 DUP5 SWAP1 DUP2 LT PUSH2 0xB62 JUMPI PUSH2 0xB62 PUSH2 0x3080 JUMP JUMPDEST PUSH1 0x20 MUL PUSH1 0x20 ADD ADD MLOAD DUP2 MSTORE PUSH1 0x20 ADD SWAP1 DUP2 MSTORE PUSH1 0x20 ADD PUSH1 0x0 KECCAK256 SLOAD DUP3 DUP3 DUP2 MLOAD DUP2 LT PUSH2 0xB8B JUMPI PUSH2 0xB8B PUSH2 0x3080 JUMP JUMPDEST PUSH1 0x20 SWAP1 DUP2 MUL SWAP2 SWAP1 SWAP2 ADD ADD MSTORE DUP1 PUSH2 0xBA0 DUP2 PUSH2 0x30AC JUMP JUMPDEST SWAP2 POP POP PUSH2 0xB2A JUMP JUMPDEST POP SWAP2 POP SWAP2 JUMP JUMPDEST PUSH1 0x1 PUSH1 0x1 PUSH1 0xA0 SHL SUB DUP2 AND PUSH1 0x0 SWAP1 DUP2 MSTORE PUSH1 0x1 PUSH1 0x20 MSTORE PUSH1 0x40 DUP2 KECCAK256 PUSH1 0x5 ADD SLOAD ISZERO DUP1 ISZERO SWAP1 PUSH2 0xBF3 JUMPI POP PUSH1 0x1 PUSH1 0x1 PUSH1 0xA0 SHL SUB DUP3 AND PUSH1 0x0 SWAP1 DUP2 MSTORE PUSH1 0x1 PUSH1 0x20 MSTORE PUSH1 0x40 SWAP1 KECCAK256 PUSH1 0x4 ADD SLOAD PUSH1 0xFF AND JUMPDEST SWAP3 SWAP2 POP POP JUMP JUMPDEST PUSH2 0xC01 PUSH2 0x211B JUMP JUMPDEST PUSH2 0xC0B PUSH1 0x0 PUSH2 0x23AD JUMP JUMPDEST JUMP JUMPDEST PUSH1 0x1 PUSH1 0x1 PUSH1 0xA0 SHL SUB DUP2 AND PUSH1 0x0 SWAP1 DUP2 MSTORE PUSH1 0x1 PUSH1 0x20 MSTORE PUSH1 0x40 SWAP1 KECCAK256 PUSH1 0x5 ADD SLOAD PUSH1 0x60 SWAP1 PUSH2 0xC48 JUMPI PUSH1 0x40 MLOAD PUSH3 0x461BCD PUSH1 0xE5 SHL DUP2 MSTORE PUSH1 0x4 ADD PUSH2 0x5B8 SWAP1 PUSH2 0x2EF0 JUMP JUMPDEST PUSH1 0x1 PUSH1 0x1 PUSH1 0xA0 SHL SUB DUP3 AND PUSH1 0x0 SWAP1 DUP2 MSTORE PUSH1 0x9 PUSH1 0x20 SWAP1 DUP2 MSTORE PUSH1 0x40 DUP1 DUP4 KECCAK256 DUP1 SLOAD DUP3 MLOAD DUP2 DUP6 MUL DUP2 ADD DUP6 ADD SWAP1 SWAP4 MSTORE DUP1 DUP4 MSTORE SWAP2 SWAP4 SWAP1 SWAP3 DUP5 ADD JUMPDEST DUP3 DUP3 LT ISZERO PUSH2 0xD67 JUMPI DUP4 DUP3 SWAP1 PUSH1 0x0 MSTORE PUSH1 0x20 PUSH1 0x0 KECCAK256 SWAP1 PUSH1 0x5 MUL ADD PUSH1 0x40 MLOAD DUP1 PUSH1 0xA0 ADD PUSH1 0x40 MSTORE SWAP1 DUP2 PUSH1 0x0 DUP3 ADD DUP1 SLOAD PUSH2 0xCAE SWAP1 PUSH2 0x30C5 JUMP JUMPDEST DUP1 PUSH1 0x1F ADD PUSH1 0x20 DUP1 SWAP2 DIV MUL PUSH1 0x20 ADD PUSH1 0x40 MLOAD SWAP1 DUP2 ADD PUSH1 0x40 MSTORE DUP1 SWAP3 SWAP2 SWAP1 DUP2 DUP2 MSTORE PUSH1 0x20 ADD DUP3 DUP1 SLOAD PUSH2 0xCDA SWAP1 PUSH2 0x30C5 JUMP JUMPDEST DUP1 ISZERO PUSH2 0xD27 JUMPI DUP1 PUSH1 0x1F LT PUSH2 0xCFC JUMPI PUSH2 0x100 DUP1 DUP4 SLOAD DIV MUL DUP4 MSTORE SWAP2 PUSH1 0x20 ADD SWAP2 PUSH2 0xD27 JUMP JUMPDEST DUP3 ADD SWAP2 SWAP1 PUSH1 0x0 MSTORE PUSH1 0x20 PUSH1 0x0 KECCAK256 SWAP1 JUMPDEST DUP2 SLOAD DUP2 MSTORE SWAP1 PUSH1 0x1 ADD SWAP1 PUSH1 0x20 ADD DUP1 DUP4 GT PUSH2 0xD0A JUMPI DUP3 SWAP1 SUB PUSH1 0x1F AND DUP3 ADD SWAP2 JUMPDEST POP POP POP POP POP DUP2 MSTORE PUSH1 0x20 ADD PUSH1 0x1 DUP3 ADD SLOAD DUP2 MSTORE PUSH1 0x20 ADD PUSH1 0x2 DUP3 ADD SLOAD DUP2 MSTORE PUSH1 0x20 ADD PUSH1 0x3 DUP3 ADD SLOAD DUP2 MSTORE PUSH1 0x20 ADD PUSH1 0x4 DUP3 ADD SLOAD DUP2 MSTORE POP POP DUP2 MSTORE PUSH1 0x20 ADD SWAP1 PUSH1 0x1 ADD SWAP1 PUSH2 0xC7B JUMP JUMPDEST POP POP POP POP SWAP1 POP SWAP2 SWAP1 POP JUMP JUMPDEST PUSH1 0x60 PUSH1 0x2 DUP1 SLOAD DUP1 PUSH1 0x20 MUL PUSH1 0x20 ADD PUSH1 0x40 MLOAD SWAP1 DUP2 ADD PUSH1 0x40 MSTORE DUP1 SWAP3 SWAP2 SWAP1 DUP2 DUP2 MSTORE PUSH1 0x20 ADD DUP3 DUP1 SLOAD DUP1 ISZERO PUSH2 0xDCA JUMPI PUSH1 0x20 MUL DUP3 ADD SWAP2 SWAP1 PUSH1 0x0 MSTORE PUSH1 0x20 PUSH1 0x0 KECCAK256 SWAP1 JUMPDEST DUP2 SLOAD PUSH1 0x1 PUSH1 0x1 PUSH1 0xA0 SHL SUB AND DUP2 MSTORE PUSH1 0x1 SWAP1 SWAP2 ADD SWAP1 PUSH1 0x20 ADD DUP1 DUP4 GT PUSH2 0xDAC JUMPI JUMPDEST POP POP POP POP POP SWAP1 POP SWAP1 JUMP JUMPDEST PUSH1 0x1 PUSH1 0x1 PUSH1 0xA0 SHL SUB DUP2 AND PUSH1 0x0 SWAP1 DUP2 MSTORE PUSH1 0x1 PUSH1 0x20 MSTORE PUSH1 0x40 DUP2 KECCAK256 PUSH1 0x5 ADD SLOAD DUP2 SWAP1 DUP2 SWAP1 PUSH2 0xE10 JUMPI PUSH1 0x40 MLOAD PUSH3 0x461BCD PUSH1 0xE5 SHL DUP2 MSTORE PUSH1 0x4 ADD PUSH2 0x5B8 SWAP1 PUSH2 0x2EF0 JUMP JUMPDEST POP POP POP PUSH1 0x1 PUSH1 0x1 PUSH1 0xA0 SHL SUB AND PUSH1 0x0 SWAP1 DUP2 MSTORE PUSH1 0xA PUSH1 0x20 SWAP1 DUP2 MSTORE PUSH1 0x40 SWAP2 DUP3 SWAP1 KECCAK256 DUP3 MLOAD PUSH1 0x60 DUP2 ADD DUP5 MSTORE DUP2 SLOAD DUP1 DUP3 MSTORE PUSH1 0x1 DUP4 ADD SLOAD SWAP4 DUP3 ADD DUP5 SWAP1 MSTORE PUSH1 0x2 SWAP1 SWAP3 ADD SLOAD SWAP4 ADD DUP4 SWAP1 MSTORE SWAP3 SWAP1 SWAP2 SWAP1 JUMP JUMPDEST PUSH2 0xE5F PUSH2 0x211B JUMP JUMPDEST PUSH1 0x1 PUSH1 0x1 PUSH1 0xA0 SHL SUB DUP4 AND PUSH1 0x0 SWAP1 DUP2 MSTORE PUSH1 0x1 PUSH1 0x20 MSTORE PUSH1 0x40 SWAP1 KECCAK256 PUSH1 0x5 ADD SLOAD PUSH2 0xE97 JUMPI PUSH1 0x40 MLOAD PUSH3 0x461BCD PUSH1 0xE5 SHL DUP2 MSTORE PUSH1 0x4 ADD PUSH2 0x5B8 SWAP1 PUSH2 0x2EF0 JUMP JUMPDEST PUSH1 0x64 DUP2 GT ISZERO PUSH2 0xEE8 JUMPI PUSH1 0x40 MLOAD PUSH3 0x461BCD PUSH1 0xE5 SHL DUP2 MSTORE PUSH1 0x20 PUSH1 0x4 DUP3 ADD MSTORE PUSH1 0x1B PUSH1 0x24 DUP3 ADD MSTORE PUSH32 0x53636F7265206D757374206265206265747765656E20302D3130300000000000 PUSH1 0x44 DUP3 ADD MSTORE PUSH1 0x64 ADD PUSH2 0x5B8 JUMP JUMPDEST PUSH1 0x1 PUSH1 0x1 PUSH1 0xA0 SHL SUB DUP4 AND PUSH1 0x0 DUP2 DUP2 MSTORE PUSH1 0x8 PUSH1 0x20 SWAP1 DUP2 MSTORE PUSH1 0x40 DUP1 DUP4 KECCAK256 DUP7 DUP5 MSTORE DUP3 MSTORE DUP1 DUP4 KECCAK256 DUP6 SWAP1 SSTORE SWAP3 DUP3 MSTORE PUSH1 0x7 SWAP1 MSTORE KECCAK256 SLOAD PUSH1 0xA GT PUSH2 0x101E JUMPI PUSH1 0x0 JUMPDEST PUSH1 0x1 PUSH1 0x1 PUSH1 0xA0 SHL SUB DUP5 AND PUSH1 0x0 SWAP1 DUP2 MSTORE PUSH1 0x7 PUSH1 0x20 MSTORE PUSH1 0x40 SWAP1 KECCAK256 SLOAD PUSH2 0xF46 SWAP1 PUSH1 0x1 SWAP1 PUSH2 0x30FF JUMP JUMPDEST DUP2 LT ISZERO PUSH2 0xFDF JUMPI PUSH1 0x1 PUSH1 0x1 PUSH1 0xA0 SHL SUB DUP5 AND PUSH1 0x0 SWAP1 DUP2 MSTORE PUSH1 0x7 PUSH1 0x20 MSTORE PUSH1 0x40 SWAP1 KECCAK256 PUSH2 0xF70 DUP3 PUSH1 0x1 PUSH2 0x3112 JUMP JUMPDEST DUP2 SLOAD DUP2 LT PUSH2 0xF80 JUMPI PUSH2 0xF80 PUSH2 0x3080 JUMP JUMPDEST SWAP1 PUSH1 0x0 MSTORE PUSH1 0x20 PUSH1 0x0 KECCAK256 ADD SLOAD PUSH1 0x7 PUSH1 0x0 DUP7 PUSH1 0x1 PUSH1 0x1 PUSH1 0xA0 SHL SUB AND PUSH1 0x1 PUSH1 0x1 PUSH1 0xA0 SHL SUB AND DUP2 MSTORE PUSH1 0x20 ADD SWAP1 DUP2 MSTORE PUSH1 0x20 ADD PUSH1 0x0 KECCAK256 DUP3 DUP2 SLOAD DUP2 LT PUSH2 0xFC1 JUMPI PUSH2 0xFC1 PUSH2 0x3080 JUMP JUMPDEST PUSH1 0x0 SWAP2 DUP3 MSTORE PUSH1 0x20 SWAP1 SWAP2 KECCAK256 ADD SSTORE DUP1 PUSH2 0xFD7 DUP2 PUSH2 0x30AC JUMP JUMPDEST SWAP2 POP POP PUSH2 0xF21 JUMP JUMPDEST POP PUSH1 0x1 PUSH1 0x1 PUSH1 0xA0 SHL SUB DUP4 AND PUSH1 0x0 SWAP1 DUP2 MSTORE PUSH1 0x7 PUSH1 0x20 MSTORE PUSH1 0x40 SWAP1 KECCAK256 DUP1 SLOAD DUP1 PUSH2 0x1007 JUMPI PUSH2 0x1007 PUSH2 0x3125 JUMP JUMPDEST PUSH1 0x1 SWAP1 SUB DUP2 DUP2 SWAP1 PUSH1 0x0 MSTORE PUSH1 0x20 PUSH1 0x0 KECCAK256 ADD PUSH1 0x0 SWAP1 SSTORE SWAP1 SSTORE JUMPDEST PUSH1 0x1 PUSH1 0x1 PUSH1 0xA0 SHL SUB DUP4 AND PUSH1 0x0 SWAP1 DUP2 MSTORE PUSH1 0x7 PUSH1 0x20 SWAP1 DUP2 MSTORE PUSH1 0x40 DUP3 KECCAK256 DUP1 SLOAD PUSH1 0x1 DUP2 ADD DUP3 SSTORE SWAP1 DUP4 MSTORE SWAP2 KECCAK256 ADD DUP3 SWAP1 SSTORE PUSH2 0x1053 DUP4 DUP3 PUSH2 0x23FD JUMP JUMPDEST DUP2 DUP4 PUSH1 0x1 PUSH1 0x1 PUSH1 0xA0 SHL SUB AND PUSH32 0x975E9039AE3E10164CC9AE09649EF940B60019242082BAAC3D093113788C184 DUP4 PUSH1 0x40 MLOAD PUSH2 0x108F SWAP2 DUP2 MSTORE PUSH1 0x20 ADD SWAP1 JUMP JUMPDEST PUSH1 0x40 MLOAD DUP1 SWAP2 SUB SWAP1 LOG3 POP POP POP JUMP JUMPDEST PUSH1 0x60 DUP1 PUSH1 0x0 PUSH1 0x5 PUSH1 0x0 DUP6 PUSH1 0x1 PUSH1 0x1 PUSH1 0xA0 SHL SUB AND PUSH1 0x1 PUSH1 0x1 PUSH1 0xA0 SHL SUB AND DUP2 MSTORE PUSH1 0x20 ADD SWAP1 DUP2 MSTORE PUSH1 0x20 ADD PUSH1 0x0 KECCAK256 DUP1 SLOAD DUP1 PUSH1 0x20 MUL PUSH1 0x20 ADD PUSH1 0x40 MLOAD SWAP1 DUP2 ADD PUSH1 0x40 MSTORE DUP1 SWAP3 SWAP2 SWAP1 DUP2 DUP2 MSTORE PUSH1 0x20 ADD PUSH1 0x0 SWAP1 JUMPDEST DUP3 DUP3 LT ISZERO PUSH2 0x1192 JUMPI DUP4 DUP3 SWAP1 PUSH1 0x0 MSTORE PUSH1 0x20 PUSH1 0x0 KECCAK256 ADD DUP1 SLOAD PUSH2 0x1105 SWAP1 PUSH2 0x30C5 JUMP JUMPDEST DUP1 PUSH1 0x1F ADD PUSH1 0x20 DUP1 SWAP2 DIV MUL PUSH1 0x20 ADD PUSH1 0x40 MLOAD SWAP1 DUP2 ADD PUSH1 0x40 MSTORE DUP1 SWAP3 SWAP2 SWAP1 DUP2 DUP2 MSTORE PUSH1 0x20 ADD DUP3 DUP1 SLOAD PUSH2 0x1131 SWAP1 PUSH2 0x30C5 JUMP JUMPDEST DUP1 ISZERO PUSH2 0x117E JUMPI DUP1 PUSH1 0x1F LT PUSH2 0x1153 JUMPI PUSH2 0x100 DUP1 DUP4 SLOAD DIV MUL DUP4 MSTORE SWAP2 PUSH1 0x20 ADD SWAP2 PUSH2 0x117E JUMP JUMPDEST DUP3 ADD SWAP2 SWAP1 PUSH1 0x0 MSTORE PUSH1 0x20 PUSH1 0x0 KECCAK256 SWAP1 JUMPDEST DUP2 SLOAD DUP2 MSTORE SWAP1 PUSH1 0x1 ADD SWAP1 PUSH1 0x20 ADD DUP1 DUP4 GT PUSH2 0x1161 JUMPI DUP3 SWAP1 SUB PUSH1 0x1F AND DUP3 ADD SWAP2 JUMPDEST POP POP POP POP POP DUP2 MSTORE PUSH1 0x20 ADD SWAP1 PUSH1 0x1 ADD SWAP1 PUSH2 0x10E6 JUMP JUMPDEST POP POP DUP3 MLOAD SWAP3 SWAP4 POP DUP3 SWAP2 POP POP PUSH1 0x1 PUSH1 0x1 PUSH1 0x40 SHL SUB DUP2 GT ISZERO PUSH2 0x11B4 JUMPI PUSH2 0x11B4 PUSH2 0x2874 JUMP JUMPDEST PUSH1 0x40 MLOAD SWAP1 DUP1 DUP3 MSTORE DUP1 PUSH1 0x20 MUL PUSH1 0x20 ADD DUP3 ADD PUSH1 0x40 MSTORE DUP1 ISZERO PUSH2 0x11E7 JUMPI DUP2 PUSH1 0x20 ADD JUMPDEST PUSH1 0x60 DUP2 MSTORE PUSH1 0x20 ADD SWAP1 PUSH1 0x1 SWAP1 SUB SWAP1 DUP2 PUSH2 0x11D2 JUMPI SWAP1 POP JUMPDEST POP SWAP4 POP DUP1 PUSH1 0x1 PUSH1 0x1 PUSH1 0x40 SHL SUB DUP2 GT ISZERO PUSH2 0x1202 JUMPI PUSH2 0x1202 PUSH2 0x2874 JUMP JUMPDEST PUSH1 0x40 MLOAD SWAP1 DUP1 DUP3 MSTORE DUP1 PUSH1 0x20 MUL PUSH1 0x20 ADD DUP3 ADD PUSH1 0x40 MSTORE DUP1 ISZERO PUSH2 0x122B JUMPI DUP2 PUSH1 0x20 ADD PUSH1 0x20 DUP3 MUL DUP1 CALLDATASIZE DUP4 CALLDATACOPY ADD SWAP1 POP JUMPDEST POP SWAP3 POP PUSH1 0x0 JUMPDEST DUP2 DUP2 LT ISZERO PUSH2 0x12FA JUMPI DUP3 DUP2 DUP2 MLOAD DUP2 LT PUSH2 0x124B JUMPI PUSH2 0x124B PUSH2 0x3080 JUMP JUMPDEST PUSH1 0x20 MUL PUSH1 0x20 ADD ADD MLOAD DUP6 DUP3 DUP2 MLOAD DUP2 LT PUSH2 0x1265 JUMPI PUSH2 0x1265 PUSH2 0x3080 JUMP JUMPDEST PUSH1 0x20 MUL PUSH1 0x20 ADD ADD DUP2 SWAP1 MSTORE POP PUSH1 0x4 PUSH1 0x0 DUP8 PUSH1 0x1 PUSH1 0x1 PUSH1 0xA0 SHL SUB AND PUSH1 0x1 PUSH1 0x1 PUSH1 0xA0 SHL SUB AND DUP2 MSTORE PUSH1 0x20 ADD SWAP1 DUP2 MSTORE PUSH1 0x20 ADD PUSH1 0x0 KECCAK256 DUP6 DUP3 DUP2 MLOAD DUP2 LT PUSH2 0x12A7 JUMPI PUSH2 0x12A7 PUSH2 0x3080 JUMP JUMPDEST PUSH1 0x20 MUL PUSH1 0x20 ADD ADD MLOAD PUSH1 0x40 MLOAD PUSH2 0x12BC SWAP2 SWAP1 PUSH2 0x313B JUMP JUMPDEST SWAP1 DUP2 MSTORE PUSH1 0x20 ADD PUSH1 0x40 MLOAD DUP1 SWAP2 SUB SWAP1 KECCAK256 SLOAD DUP5 DUP3 DUP2 MLOAD DUP2 LT PUSH2 0x12DD JUMPI PUSH2 0x12DD PUSH2 0x3080 JUMP JUMPDEST PUSH1 0x20 SWAP1 DUP2 MUL SWAP2 SWAP1 SWAP2 ADD ADD MSTORE DUP1 PUSH2 0x12F2 DUP2 PUSH2 0x30AC JUMP JUMPDEST SWAP2 POP POP PUSH2 0x1231 JUMP JUMPDEST POP POP POP SWAP2 POP SWAP2 JUMP JUMPDEST PUSH1 0x1 PUSH1 0x1 PUSH1 0xA0 SHL SUB DUP2 AND PUSH1 0x0 SWAP1 DUP2 MSTORE PUSH1 0x1 PUSH1 0x20 MSTORE PUSH1 0x40 DUP2 KECCAK256 PUSH1 0x5 ADD SLOAD PUSH2 0x133A JUMPI PUSH1 0x40 MLOAD PUSH3 0x461BCD PUSH1 0xE5 SHL DUP2 MSTORE PUSH1 0x4 ADD PUSH2 0x5B8 SWAP1 PUSH2 0x2EF0 JUMP JUMPDEST POP PUSH1 0x1 PUSH1 0x1 PUSH1 0xA0 SHL SUB AND PUSH1 0x0 SWAP1 DUP2 MSTORE PUSH1 0x1 PUSH1 0x20 MSTORE PUSH1 0x40 SWAP1 KECCAK256 PUSH1 0x3 ADD SLOAD SWAP1 JUMP JUMPDEST CALLER PUSH1 0x0 SWAP1 DUP2 MSTORE PUSH1 0x1 PUSH1 0x20 MSTORE PUSH1 0x40 SWAP1 KECCAK256 PUSH1 0x5 ADD SLOAD PUSH2 0x1388 JUMPI PUSH1 0x40 MLOAD PUSH3 0x461BCD PUSH1 0xE5 SHL DUP2 MSTORE PUSH1 0x4 ADD PUSH2 0x5B8 SWAP1 PUSH2 0x2EF0 JUMP JUMPDEST CALLER PUSH1 0x0 SWAP1 DUP2 MSTORE PUSH1 0x1 PUSH1 0x20 MSTORE PUSH1 0x40 SWAP1 KECCAK256 PUSH2 0x13A1 DUP4 DUP3 PUSH2 0x31A6 JUMP JUMPDEST POP CALLER PUSH1 0x0 SWAP1 DUP2 MSTORE PUSH1 0x1 PUSH1 0x20 DUP2 SWAP1 MSTORE PUSH1 0x40 SWAP1 SWAP2 KECCAK256 ADD PUSH2 0x13BF DUP3 DUP3 PUSH2 0x31A6 JUMP JUMPDEST POP CALLER PUSH1 0x1 PUSH1 0x1 PUSH1 0xA0 SHL SUB AND PUSH32 0x7220A5218BAB02FA8788280B463A09CE9B6DCC4438140BB09F27524C9736D6B9 DUP4 DUP4 TIMESTAMP PUSH1 0x40 MLOAD PUSH2 0x13FD SWAP4 SWAP3 SWAP2 SWAP1 PUSH2 0x3265 JUMP JUMPDEST PUSH1 0x40 MLOAD DUP1 SWAP2 SUB SWAP1 LOG2 POP POP JUMP JUMPDEST PUSH2 0x1411 PUSH2 0x211B JUMP JUMPDEST PUSH1 0x1 PUSH1 0x1 PUSH1 0xA0 SHL SUB DUP4 AND PUSH1 0x0 SWAP1 DUP2 MSTORE PUSH1 0x1 PUSH1 0x20 MSTORE PUSH1 0x40 SWAP1 KECCAK256 PUSH1 0x5 ADD SLOAD PUSH2 0x1449 JUMPI PUSH1 0x40 MLOAD PUSH3 0x461BCD PUSH1 0xE5 SHL DUP2 MSTORE PUSH1 0x4 ADD PUSH2 0x5B8 SWAP1 PUSH2 0x2EF0 JUMP JUMPDEST PUSH1 0x64 DUP3 GT ISZERO PUSH2 0x14AA JUMPI PUSH1 0x40 MLOAD PUSH3 0x461BCD PUSH1 0xE5 SHL DUP2 MSTORE PUSH1 0x20 PUSH1 0x4 DUP3 ADD MSTORE PUSH1 0x27 PUSH1 0x24 DUP3 ADD MSTORE PUSH32 0x436F6E666964656E636520666163746F72206D75737420626520626574776565 PUSH1 0x44 DUP3 ADD MSTORE PUSH7 0x6E20302D31303 PUSH1 0xCC SHL PUSH1 0x64 DUP3 ADD MSTORE PUSH1 0x84 ADD PUSH2 0x5B8 JUMP JUMPDEST PUSH1 0x64 DUP2 GT ISZERO PUSH2 0x1507 JUMPI PUSH1 0x40 MLOAD PUSH3 0x461BCD PUSH1 0xE5 SHL DUP2 MSTORE PUSH1 0x20 PUSH1 0x4 DUP3 ADD MSTORE PUSH1 0x24 DUP1 DUP3 ADD MSTORE PUSH32 0x5269736B20746F6C6572616E6365206D757374206265206265747765656E2030 PUSH1 0x44 DUP3 ADD MSTORE PUSH4 0x2D31303 PUSH1 0xE4 SHL PUSH1 0x64 DUP3 ADD MSTORE PUSH1 0x84 ADD PUSH2 0x5B8 JUMP JUMPDEST PUSH1 0x40 DUP1 MLOAD PUSH1 0x60 DUP1 DUP3 ADD DUP4 MSTORE DUP5 DUP3 MSTORE PUSH1 0x20 DUP1 DUP4 ADD DUP6 DUP2 MSTORE TIMESTAMP DUP5 DUP7 ADD DUP2 DUP2 MSTORE PUSH1 0x1 PUSH1 0x1 PUSH1 0xA0 SHL SUB DUP11 AND PUSH1 0x0 DUP2 DUP2 MSTORE PUSH1 0xA DUP7 MSTORE DUP9 SWAP1 KECCAK256 SWAP7 MLOAD DUP8 SSTORE SWAP3 MLOAD PUSH1 0x1 DUP8 ADD SSTORE MLOAD PUSH1 0x2 SWAP1 SWAP6 ADD SWAP5 SWAP1 SWAP5 SSTORE DUP5 MLOAD DUP8 DUP2 MSTORE SWAP2 DUP3 ADD DUP7 SWAP1 MSTORE SWAP4 DUP2 ADD SWAP3 SWAP1 SWAP3 MSTORE PUSH32 0xF6C4E2517904FE3EDFAEB784A3A2AE2993DDA8996BB34E74A7C588256C66B2BC SWAP2 ADD JUMPDEST PUSH1 0x40 MLOAD DUP1 SWAP2 SUB SWAP1 LOG2 POP POP POP JUMP JUMPDEST PUSH1 0x2 DUP2 DUP2 SLOAD DUP2 LT PUSH2 0x15A2 JUMPI PUSH1 0x0 DUP1 REVERT JUMPDEST PUSH1 0x0 SWAP2 DUP3 MSTORE PUSH1 0x20 SWAP1 SWAP2 KECCAK256 ADD SLOAD PUSH1 0x1 PUSH1 0x1 PUSH1 0xA0 SHL SUB AND SWAP1 POP DUP2 JUMP JUMPDEST CALLER PUSH1 0x0 SWAP1 DUP2 MSTORE PUSH1 0x1 PUSH1 0x20 MSTORE PUSH1 0x40 SWAP1 KECCAK256 PUSH1 0x5 ADD SLOAD ISZERO PUSH2 0x161C JUMPI PUSH1 0x40 MLOAD PUSH3 0x461BCD PUSH1 0xE5 SHL DUP2 MSTORE PUSH1 0x20 PUSH1 0x4 DUP3 ADD MSTORE PUSH1 0x18 PUSH1 0x24 DUP3 ADD MSTORE PUSH32 0x4167656E7420616C726561647920726567697374657265640000000000000000 PUSH1 0x44 DUP3 ADD MSTORE PUSH1 0x64 ADD PUSH2 0x5B8 JUMP JUMPDEST PUSH1 0x40 MLOAD DUP1 PUSH1 0xE0 ADD PUSH1 0x40 MSTORE DUP1 DUP5 DUP2 MSTORE PUSH1 0x20 ADD DUP4 DUP2 MSTORE PUSH1 0x20 ADD CALLER PUSH1 0x1 PUSH1 0x1 PUSH1 0xA0 SHL SUB AND DUP2 MSTORE PUSH1 0x20 ADD PUSH1 0x32 DUP2 MSTORE PUSH1 0x20 ADD PUSH1 0x1 ISZERO ISZERO DUP2 MSTORE PUSH1 0x20 ADD TIMESTAMP DUP2 MSTORE PUSH1 0x20 ADD DUP3 PUSH1 0x3 DUP2 GT ISZERO PUSH2 0x166A JUMPI PUSH2 0x166A PUSH2 0x2E5D JUMP JUMPDEST SWAP1 MSTORE CALLER PUSH1 0x0 SWAP1 DUP2 MSTORE PUSH1 0x1 PUSH1 0x20 MSTORE PUSH1 0x40 SWAP1 KECCAK256 DUP2 MLOAD DUP2 SWAP1 PUSH2 0x1689 SWAP1 DUP3 PUSH2 0x31A6 JUMP JUMPDEST POP PUSH1 0x20 DUP3 ADD MLOAD PUSH1 0x1 DUP3 ADD SWAP1 PUSH2 0x169E SWAP1 DUP3 PUSH2 0x31A6 JUMP JUMPDEST POP PUSH1 0x40 DUP3 ADD MLOAD PUSH1 0x2 DUP3 ADD DUP1 SLOAD PUSH1 0x1 PUSH1 0x1 PUSH1 0xA0 SHL SUB SWAP1 SWAP3 AND PUSH1 0x1 PUSH1 0x1 PUSH1 0xA0 SHL SUB NOT SWAP1 SWAP3 AND SWAP2 SWAP1 SWAP2 OR SWAP1 SSTORE PUSH1 0x60 DUP3 ADD MLOAD PUSH1 0x3 DUP1 DUP4 ADD SWAP2 SWAP1 SWAP2 SSTORE PUSH1 0x80 DUP4 ADD MLOAD PUSH1 0x4 DUP4 ADD DUP1 SLOAD SWAP2 ISZERO ISZERO PUSH1 0xFF NOT SWAP3 DUP4 AND OR SWAP1 SSTORE PUSH1 0xA0 DUP5 ADD MLOAD PUSH1 0x5 DUP5 ADD SSTORE PUSH1 0xC0 DUP5 ADD MLOAD PUSH1 0x6 DUP5 ADD DUP1 SLOAD SWAP2 SWAP4 SWAP1 SWAP3 SWAP2 SWAP1 SWAP2 AND SWAP1 PUSH1 0x1 SWAP1 DUP5 SWAP1 DUP2 GT ISZERO PUSH2 0x171E JUMPI PUSH2 0x171E PUSH2 0x2E5D JUMP JUMPDEST MUL OR SWAP1 SSTORE POP POP PUSH1 0x2 DUP1 SLOAD PUSH1 0x1 DUP2 DUP2 ADD DUP4 SSTORE PUSH32 0x405787FA12A823E0F2B7631CC41B3BA8828B3321CA811111FA75CD3AA3BB5ACE SWAP1 SWAP2 ADD DUP1 SLOAD PUSH1 0x1 PUSH1 0x1 PUSH1 0xA0 SHL SUB NOT AND CALLER SWAP1 DUP2 OR SWAP1 SWAP2 SSTORE PUSH1 0x40 DUP1 MLOAD PUSH1 0x60 DUP2 ADD DUP3 MSTORE PUSH1 0x50 DUP2 MSTORE PUSH1 0x32 PUSH1 0x20 DUP3 DUP2 ADD SWAP2 DUP3 MSTORE TIMESTAMP DUP4 DUP6 ADD DUP2 DUP2 MSTORE PUSH1 0x0 DUP8 DUP2 MSTORE PUSH1 0xA SWAP1 SWAP4 MSTORE SWAP2 DUP6 SWAP1 KECCAK256 SWAP4 MLOAD DUP5 SSTORE SWAP2 MLOAD SWAP6 DUP4 ADD SWAP6 SWAP1 SWAP6 SSTORE SWAP4 MLOAD SWAP5 ADD SWAP4 SWAP1 SWAP4 SSTORE SWAP2 MLOAD SWAP2 SWAP3 POP PUSH32 0xDA383FA67B156E4A54602CAE094DFE780F97854EC2BB821EC1D0836381055C7F SWAP2 PUSH2 0x1585 SWAP2 DUP8 SWAP2 DUP8 SWAP2 SWAP1 PUSH2 0x3265 JUMP JUMPDEST PUSH1 0x1 PUSH1 0x1 PUSH1 0xA0 SHL SUB DUP2 AND PUSH1 0x0 SWAP1 DUP2 MSTORE PUSH1 0x1 PUSH1 0x20 MSTORE PUSH1 0x40 SWAP1 KECCAK256 PUSH1 0x5 ADD SLOAD PUSH2 0x1815 JUMPI PUSH1 0x40 MLOAD PUSH3 0x461BCD PUSH1 0xE5 SHL DUP2 MSTORE PUSH1 0x4 ADD PUSH2 0x5B8 SWAP1 PUSH2 0x2EF0 JUMP JUMPDEST CALLER PUSH1 0x1 PUSH1 0x1 PUSH1 0xA0 SHL SUB DUP3 AND EQ DUP1 PUSH2 0x1836 JUMPI POP PUSH1 0x0 SLOAD PUSH1 0x1 PUSH1 0x1 PUSH1 0xA0 SHL SUB AND CALLER EQ JUMPDEST PUSH2 0x1873 JUMPI PUSH1 0x40 MLOAD PUSH3 0x461BCD PUSH1 0xE5 SHL DUP2 MSTORE PUSH1 0x20 PUSH1 0x4 DUP3 ADD MSTORE PUSH1 0xE PUSH1 0x24 DUP3 ADD MSTORE PUSH14 0x139BDD08185D5D1A1BDC9A5E9959 PUSH1 0x92 SHL PUSH1 0x44 DUP3 ADD MSTORE PUSH1 0x64 ADD PUSH2 0x5B8 JUMP JUMPDEST PUSH1 0x1 PUSH1 0x1 PUSH1 0xA0 SHL SUB DUP2 AND PUSH1 0x0 SWAP1 DUP2 MSTORE PUSH1 0x1 PUSH1 0x20 MSTORE PUSH1 0x40 SWAP1 KECCAK256 PUSH1 0x4 ADD SLOAD PUSH1 0xFF AND PUSH2 0x18D7 JUMPI PUSH1 0x40 MLOAD PUSH3 0x461BCD PUSH1 0xE5 SHL DUP2 MSTORE PUSH1 0x20 PUSH1 0x4 DUP3 ADD MSTORE PUSH1 0x16 PUSH1 0x24 DUP3 ADD MSTORE PUSH22 0x4167656E7420616C726561647920696E616374697665 PUSH1 0x50 SHL PUSH1 0x44 DUP3 ADD MSTORE PUSH1 0x64 ADD PUSH2 0x5B8 JUMP JUMPDEST PUSH1 0x1 PUSH1 0x1 PUSH1 0xA0 SHL SUB DUP2 AND PUSH1 0x0 DUP2 DUP2 MSTORE PUSH1 0x1 PUSH1 0x20 MSTORE PUSH1 0x40 SWAP1 DUP2 SWAP1 KECCAK256 PUSH1 0x4 ADD DUP1 SLOAD PUSH1 0xFF NOT AND SWAP1 SSTORE MLOAD PUSH32 0x908D0024A3278CB165ED9B5E370DFD4B2C566122EFEBB355AFB5B56E2249158 SWAP1 PUSH2 0xA35 SWAP1 TIMESTAMP DUP2 MSTORE PUSH1 0x20 ADD SWAP1 JUMP JUMPDEST PUSH2 0x1934 PUSH2 0x211B JUMP JUMPDEST PUSH1 0x1 PUSH1 0x1 PUSH1 0xA0 SHL SUB DUP3 AND PUSH1 0x0 SWAP1 DUP2 MSTORE PUSH1 0x1 PUSH1 0x20 MSTORE PUSH1 0x40 SWAP1 KECCAK256 PUSH1 0x5 ADD SLOAD PUSH2 0x196C JUMPI PUSH1 0x40 MLOAD PUSH3 0x461BCD PUSH1 0xE5 SHL DUP2 MSTORE PUSH1 0x4 ADD PUSH2 0x5B8 SWAP1 PUSH2 0x2EF0 JUMP JUMPDEST PUSH1 0x64 DUP2 GT ISZERO PUSH2 0x19BD JUMPI PUSH1 0x40 MLOAD PUSH3 0x461BCD PUSH1 0xE5 SHL DUP2 MSTORE PUSH1 0x20 PUSH1 0x4 DUP3 ADD DUP2 SWAP1 MSTORE PUSH1 0x24 DUP3 ADD MSTORE PUSH32 0x52657075746174696F6E206D757374206265206265747765656E20302D313030 PUSH1 0x44 DUP3 ADD MSTORE PUSH1 0x64 ADD PUSH2 0x5B8 JUMP JUMPDEST PUSH1 0x1 PUSH1 0x1 PUSH1 0xA0 SHL SUB SWAP1 SWAP2 AND PUSH1 0x0 SWAP1 DUP2 MSTORE PUSH1 0x1 PUSH1 0x20 MSTORE PUSH1 0x40 SWAP1 KECCAK256 PUSH1 0x3 ADD SSTORE JUMP JUMPDEST PUSH1 0x1 PUSH1 0x1 PUSH1 0xA0 SHL SUB DUP2 AND PUSH1 0x0 SWAP1 DUP2 MSTORE PUSH1 0x1 PUSH1 0x20 MSTORE PUSH1 0x40 SWAP1 KECCAK256 PUSH1 0x5 ADD SLOAD PUSH1 0x60 SWAP1 PUSH2 0x1A17 JUMPI PUSH1 0x40 MLOAD PUSH3 0x461BCD PUSH1 0xE5 SHL DUP2 MSTORE PUSH1 0x4 ADD PUSH2 0x5B8 SWAP1 PUSH2 0x2EF0 JUMP JUMPDEST PUSH1 0x1 PUSH1 0x1 PUSH1 0xA0 SHL SUB DUP3 AND PUSH1 0x0 SWAP1 DUP2 MSTORE PUSH1 0xB PUSH1 0x20 SWAP1 DUP2 MSTORE PUSH1 0x40 SWAP2 DUP3 SWAP1 KECCAK256 DUP1 SLOAD DUP4 MLOAD DUP2 DUP5 MUL DUP2 ADD DUP5 ADD SWAP1 SWAP5 MSTORE DUP1 DUP5 MSTORE SWAP1 SWAP2 DUP4 ADD DUP3 DUP3 DUP1 ISZERO PUSH2 0x1A75 JUMPI PUSH1 0x20 MUL DUP3 ADD SWAP2 SWAP1 PUSH1 0x0 MSTORE PUSH1 0x20 PUSH1 0x0 KECCAK256 SWAP1 JUMPDEST DUP2 SLOAD DUP2 MSTORE PUSH1 0x20 ADD SWAP1 PUSH1 0x1 ADD SWAP1 DUP1 DUP4 GT PUSH2 0x1A61 JUMPI JUMPDEST POP POP POP POP POP SWAP1 POP SWAP2 SWAP1 POP JUMP JUMPDEST PUSH2 0x1A89 PUSH2 0x211B JUMP JUMPDEST PUSH1 0x1 PUSH1 0x1 PUSH1 0xA0 SHL SUB DUP4 AND PUSH1 0x0 SWAP1 DUP2 MSTORE PUSH1 0x1 PUSH1 0x20 MSTORE PUSH1 0x40 SWAP1 KECCAK256 PUSH1 0x5 ADD SLOAD PUSH2 0x1AC1 JUMPI PUSH1 0x40 MLOAD PUSH3 0x461BCD PUSH1 0xE5 SHL DUP2 MSTORE PUSH1 0x4 ADD PUSH2 0x5B8 SWAP1 PUSH2 0x2EF0 JUMP JUMPDEST DUP1 MLOAD DUP3 MLOAD EQ PUSH2 0x1B21 JUMPI PUSH1 0x40 MLOAD PUSH3 0x461BCD PUSH1 0xE5 SHL DUP2 MSTORE PUSH1 0x20 PUSH1 0x4 DUP3 ADD MSTORE PUSH1 0x26 PUSH1 0x24 DUP3 ADD MSTORE PUSH32 0x5461677320616E642077656967687473206D75737420686176652073616D6520 PUSH1 0x44 DUP3 ADD MSTORE PUSH6 0xD8CADCCEE8D PUSH1 0xD3 SHL PUSH1 0x64 DUP3 ADD MSTORE PUSH1 0x84 ADD PUSH2 0x5B8 JUMP JUMPDEST PUSH1 0x0 JUMPDEST PUSH1 0x1 PUSH1 0x1 PUSH1 0xA0 SHL SUB DUP5 AND PUSH1 0x0 SWAP1 DUP2 MSTORE PUSH1 0x5 PUSH1 0x20 MSTORE PUSH1 0x40 SWAP1 KECCAK256 SLOAD DUP2 LT ISZERO PUSH2 0x1C5B JUMPI PUSH1 0x1 PUSH1 0x1 PUSH1 0xA0 SHL SUB DUP5 AND PUSH1 0x0 SWAP1 DUP2 MSTORE PUSH1 0x5 PUSH1 0x20 MSTORE PUSH1 0x40 DUP2 KECCAK256 DUP1 SLOAD DUP4 SWAP1 DUP2 LT PUSH2 0x1B6E JUMPI PUSH2 0x1B6E PUSH2 0x3080 JUMP JUMPDEST SWAP1 PUSH1 0x0 MSTORE PUSH1 0x20 PUSH1 0x0 KECCAK256 ADD DUP1 SLOAD PUSH2 0x1B83 SWAP1 PUSH2 0x30C5 JUMP JUMPDEST DUP1 PUSH1 0x1F ADD PUSH1 0x20 DUP1 SWAP2 DIV MUL PUSH1 0x20 ADD PUSH1 0x40 MLOAD SWAP1 DUP2 ADD PUSH1 0x40 MSTORE DUP1 SWAP3 SWAP2 SWAP1 DUP2 DUP2 MSTORE PUSH1 0x20 ADD DUP3 DUP1 SLOAD PUSH2 0x1BAF SWAP1 PUSH2 0x30C5 JUMP JUMPDEST DUP1 ISZERO PUSH2 0x1BFC JUMPI DUP1 PUSH1 0x1F LT PUSH2 0x1BD1 JUMPI PUSH2 0x100 DUP1 DUP4 SLOAD DIV MUL DUP4 MSTORE SWAP2 PUSH1 0x20 ADD SWAP2 PUSH2 0x1BFC JUMP JUMPDEST DUP3 ADD SWAP2 SWAP1 PUSH1 0x0 MSTORE PUSH1 0x20 PUSH1 0x0 KECCAK256 SWAP1 JUMPDEST DUP2 SLOAD DUP2 MSTORE SWAP1 PUSH1 0x1 ADD SWAP1 PUSH1 0x20 ADD DUP1 DUP4 GT PUSH2 0x1BDF JUMPI DUP3 SWAP1 SUB PUSH1 0x1F AND DUP3 ADD SWAP2 JUMPDEST POP POP POP POP POP SWAP1 POP PUSH1 0x0 PUSH1 0x4 PUSH1 0x0 DUP8 PUSH1 0x1 PUSH1 0x1 PUSH1 0xA0 SHL SUB AND PUSH1 0x1 PUSH1 0x1 PUSH1 0xA0 SHL SUB AND DUP2 MSTORE PUSH1 0x20 ADD SWAP1 DUP2 MSTORE PUSH1 0x20 ADD PUSH1 0x0 KECCAK256 DUP3 PUSH1 0x40 MLOAD PUSH2 0x1C38 SWAP2 SWAP1 PUSH2 0x313B JUMP JUMPDEST SWAP1 DUP2 MSTORE PUSH1 0x40 MLOAD SWAP1 DUP2 SWAP1 SUB PUSH1 0x20 ADD SWAP1 KECCAK256 SSTORE POP DUP1 PUSH2 0x1C53 DUP2 PUSH2 0x30AC JUMP JUMPDEST SWAP2 POP POP PUSH2 0x1B24 JUMP JUMPDEST POP PUSH1 0x1 PUSH1 0x1 PUSH1 0xA0 SHL SUB DUP4 AND PUSH1 0x0 SWAP1 DUP2 MSTORE PUSH1 0x5 PUSH1 0x20 MSTORE PUSH1 0x40 DUP2 KECCAK256 PUSH2 0x1C7D SWAP2 PUSH2 0x2645 JUMP JUMPDEST PUSH1 0x0 JUMPDEST DUP3 MLOAD DUP2 LT ISZERO PUSH2 0x1EC4 JUMPI PUSH1 0x64 DUP3 DUP3 DUP2 MLOAD DUP2 LT PUSH2 0x1C9D JUMPI PUSH2 0x1C9D PUSH2 0x3080 JUMP JUMPDEST PUSH1 0x20 MUL PUSH1 0x20 ADD ADD MLOAD GT ISZERO PUSH2 0x1CF3 JUMPI PUSH1 0x40 MLOAD PUSH3 0x461BCD PUSH1 0xE5 SHL DUP2 MSTORE PUSH1 0x20 PUSH1 0x4 DUP3 ADD MSTORE PUSH1 0x1C PUSH1 0x24 DUP3 ADD MSTORE PUSH32 0x576569676874206D757374206265206265747765656E20302D31303000000000 PUSH1 0x44 DUP3 ADD MSTORE PUSH1 0x64 ADD PUSH2 0x5B8 JUMP JUMPDEST PUSH1 0x0 DUP3 DUP3 DUP2 MLOAD DUP2 LT PUSH2 0x1D07 JUMPI PUSH2 0x1D07 PUSH2 0x3080 JUMP JUMPDEST PUSH1 0x20 MUL PUSH1 0x20 ADD ADD MLOAD GT ISZERO PUSH2 0x1EB2 JUMPI PUSH1 0x1 PUSH1 0x1 PUSH1 0xA0 SHL SUB DUP5 AND PUSH1 0x0 SWAP1 DUP2 MSTORE PUSH1 0x4 PUSH1 0x20 MSTORE PUSH1 0x40 DUP2 KECCAK256 DUP5 MLOAD DUP6 SWAP1 DUP5 SWAP1 DUP2 LT PUSH2 0x1D41 JUMPI PUSH2 0x1D41 PUSH2 0x3080 JUMP JUMPDEST PUSH1 0x20 MUL PUSH1 0x20 ADD ADD MLOAD PUSH1 0x40 MLOAD PUSH2 0x1D56 SWAP2 SWAP1 PUSH2 0x313B JUMP JUMPDEST SWAP1 DUP2 MSTORE PUSH1 0x20 ADD PUSH1 0x40 MLOAD DUP1 SWAP2 SUB SWAP1 KECCAK256 SLOAD SWAP1 POP PUSH1 0x0 DUP2 GT DUP1 ISZERO PUSH2 0x1D90 JUMPI POP DUP3 DUP3 DUP2 MLOAD DUP2 LT PUSH2 0x1D84 JUMPI PUSH2 0x1D84 PUSH2 0x3080 JUMP JUMPDEST PUSH1 0x20 MUL PUSH1 0x20 ADD ADD MLOAD DUP2 EQ ISZERO JUMPDEST ISZERO PUSH2 0x1DD7 JUMPI PUSH2 0x1DD7 DUP6 DUP6 DUP5 DUP2 MLOAD DUP2 LT PUSH2 0x1DAB JUMPI PUSH2 0x1DAB PUSH2 0x3080 JUMP JUMPDEST PUSH1 0x20 MUL PUSH1 0x20 ADD ADD MLOAD DUP4 DUP7 DUP7 DUP2 MLOAD DUP2 LT PUSH2 0x1DC6 JUMPI PUSH2 0x1DC6 PUSH2 0x3080 JUMP JUMPDEST PUSH1 0x20 MUL PUSH1 0x20 ADD ADD MLOAD PUSH1 0x0 DUP1 SHL PUSH2 0x2148 JUMP JUMPDEST DUP3 DUP3 DUP2 MLOAD DUP2 LT PUSH2 0x1DE9 JUMPI PUSH2 0x1DE9 PUSH2 0x3080 JUMP JUMPDEST PUSH1 0x20 MUL PUSH1 0x20 ADD ADD MLOAD PUSH1 0x4 PUSH1 0x0 DUP8 PUSH1 0x1 PUSH1 0x1 PUSH1 0xA0 SHL SUB AND PUSH1 0x1 PUSH1 0x1 PUSH1 0xA0 SHL SUB AND DUP2 MSTORE PUSH1 0x20 ADD SWAP1 DUP2 MSTORE PUSH1 0x20 ADD PUSH1 0x0 KECCAK256 DUP6 DUP5 DUP2 MLOAD DUP2 LT PUSH2 0x1E28 JUMPI PUSH2 0x1E28 PUSH2 0x3080 JUMP JUMPDEST PUSH1 0x20 MUL PUSH1 0x20 ADD ADD MLOAD PUSH1 0x40 MLOAD PUSH2 0x1E3D SWAP2 SWAP1 PUSH2 0x313B JUMP JUMPDEST SWAP1 DUP2 MSTORE PUSH1 0x20 ADD PUSH1 0x40 MLOAD DUP1 SWAP2 SUB SWAP1 KECCAK256 DUP2 SWAP1 SSTORE POP PUSH1 0x5 PUSH1 0x0 DUP7 PUSH1 0x1 PUSH1 0x1 PUSH1 0xA0 SHL SUB AND PUSH1 0x1 PUSH1 0x1 PUSH1 0xA0 SHL SUB AND DUP2 MSTORE PUSH1 0x20 ADD SWAP1 DUP2 MSTORE PUSH1 0x20 ADD PUSH1 0x0 KECCAK256 DUP5 DUP4 DUP2 MLOAD DUP2 LT PUSH2 0x1E86 JUMPI PUSH2 0x1E86 PUSH2 0x3080 JUMP JUMPDEST PUSH1 0x20 SWAP1 DUP2 MUL SWAP2 SWAP1 SWAP2 ADD DUP2 ADD MLOAD DUP3 SLOAD PUSH1 0x1 DUP2 ADD DUP5 SSTORE PUSH1 0x0 SWAP4 DUP5 MSTORE SWAP2 SWAP1 SWAP3 KECCAK256 ADD SWAP1 PUSH2 0x1EAF SWAP1 DUP3 PUSH2 0x31A6 JUMP JUMPDEST POP POP JUMPDEST DUP1 PUSH2 0x1EBC DUP2 PUSH2 0x30AC JUMP JUMPDEST SWAP2 POP POP PUSH2 0x1C80 JUMP JUMPDEST POP DUP3 PUSH1 0x1 PUSH1 0x1 PUSH1 0xA0 SHL SUB AND PUSH32 0xA5AF54087545AC61744732E3FC6F918B48351A21E188009CD82EB5772C37BE61 DUP4 DUP4 PUSH1 0x40 MLOAD PUSH2 0x1585 SWAP3 SWAP2 SWAP1 PUSH2 0x2B58 JUMP JUMPDEST PUSH2 0x1F08 PUSH2 0x211B JUMP JUMPDEST PUSH1 0x1 PUSH1 0x1 PUSH1 0xA0 SHL SUB DUP2 AND PUSH1 0x0 SWAP1 DUP2 MSTORE PUSH1 0x1 PUSH1 0x20 MSTORE PUSH1 0x40 SWAP1 KECCAK256 PUSH1 0x5 ADD SLOAD PUSH2 0x1F40 JUMPI PUSH1 0x40 MLOAD PUSH3 0x461BCD PUSH1 0xE5 SHL DUP2 MSTORE PUSH1 0x4 ADD PUSH2 0x5B8 SWAP1 PUSH2 0x2EF0 JUMP JUMPDEST PUSH1 0x1 PUSH1 0x1 PUSH1 0xA0 SHL SUB DUP2 AND PUSH1 0x0 SWAP1 DUP2 MSTORE PUSH1 0x6 PUSH1 0x20 MSTORE PUSH1 0x40 SWAP1 KECCAK256 SLOAD ISZERO PUSH2 0x1F82 JUMPI PUSH1 0x1 PUSH1 0x1 PUSH1 0xA0 SHL SUB DUP2 AND PUSH1 0x0 SWAP1 DUP2 MSTORE PUSH1 0x6 PUSH1 0x20 MSTORE PUSH1 0x40 DUP2 KECCAK256 DUP1 SLOAD SWAP2 PUSH2 0x88C DUP4 PUSH2 0x329B JUMP JUMPDEST POP JUMP JUMPDEST PUSH2 0x1F8D PUSH2 0x211B JUMP JUMPDEST PUSH1 0x1 PUSH1 0x1 PUSH1 0xA0 SHL SUB DUP2 AND PUSH2 0x1FB7 JUMPI PUSH1 0x40 MLOAD PUSH4 0x1E4FBDF7 PUSH1 0xE0 SHL DUP2 MSTORE PUSH1 0x0 PUSH1 0x4 DUP3 ADD MSTORE PUSH1 0x24 ADD PUSH2 0x5B8 JUMP JUMPDEST PUSH2 0x1F82 DUP2 PUSH2 0x23AD JUMP JUMPDEST PUSH1 0x1 PUSH1 0x20 MSTORE PUSH1 0x0 SWAP1 DUP2 MSTORE PUSH1 0x40 SWAP1 KECCAK256 DUP1 SLOAD DUP2 SWAP1 PUSH2 0x1FDB SWAP1 PUSH2 0x30C5 JUMP JUMPDEST DUP1 PUSH1 0x1F ADD PUSH1 0x20 DUP1 SWAP2 DIV MUL PUSH1 0x20 ADD PUSH1 0x40 MLOAD SWAP1 DUP2 ADD PUSH1 0x40 MSTORE DUP1 SWAP3 SWAP2 SWAP1 DUP2 DUP2 MSTORE PUSH1 0x20 ADD DUP3 DUP1 SLOAD PUSH2 0x2007 SWAP1 PUSH2 0x30C5 JUMP JUMPDEST DUP1 ISZERO PUSH2 0x2054 JUMPI DUP1 PUSH1 0x1F LT PUSH2 0x2029 JUMPI PUSH2 0x100 DUP1 DUP4 SLOAD DIV MUL DUP4 MSTORE SWAP2 PUSH1 0x20 ADD SWAP2 PUSH2 0x2054 JUMP JUMPDEST DUP3 ADD SWAP2 SWAP1 PUSH1 0x0 MSTORE PUSH1 0x20 PUSH1 0x0 KECCAK256 SWAP1 JUMPDEST DUP2 SLOAD DUP2 MSTORE SWAP1 PUSH1 0x1 ADD SWAP1 PUSH1 0x20 ADD DUP1 DUP4 GT PUSH2 0x2037 JUMPI DUP3 SWAP1 SUB PUSH1 0x1F AND DUP3 ADD SWAP2 JUMPDEST POP POP POP POP POP SWAP1 DUP1 PUSH1 0x1 ADD DUP1 SLOAD PUSH2 0x2069 SWAP1 PUSH2 0x30C5 JUMP JUMPDEST DUP1 PUSH1 0x1F ADD PUSH1 0x20 DUP1 SWAP2 DIV MUL PUSH1 0x20 ADD PUSH1 0x40 MLOAD SWAP1 DUP2 ADD PUSH1 0x40 MSTORE DUP1 SWAP3 SWAP2 SWAP1 DUP2 DUP2 MSTORE PUSH1 0x20 ADD DUP3 DUP1 SLOAD PUSH2 0x2095 SWAP1 PUSH2 0x30C5 JUMP JUMPDEST DUP1 ISZERO PUSH2 0x20E2 JUMPI DUP1 PUSH1 0x1F LT PUSH2 0x20B7 JUMPI PUSH2 0x100 DUP1 DUP4 SLOAD DIV MUL DUP4 MSTORE SWAP2 PUSH1 0x20 ADD SWAP2 PUSH2 0x20E2 JUMP JUMPDEST DUP3 ADD SWAP2 SWAP1 PUSH1 0x0 MSTORE PUSH1 0x20 PUSH1 0x0 KECCAK256 SWAP1 JUMPDEST DUP2 SLOAD DUP2 MSTORE SWAP1 PUSH1 0x1 ADD SWAP1 PUSH1 0x20 ADD DUP1 DUP4 GT PUSH2 0x20C5 JUMPI DUP3 SWAP1 SUB PUSH1 0x1F AND DUP3 ADD SWAP2 JUMPDEST POP POP POP PUSH1 0x2 DUP5 ADD SLOAD PUSH1 0x3 DUP6 ADD SLOAD PUSH1 0x4 DUP7 ADD SLOAD PUSH1 0x5 DUP8 ADD SLOAD PUSH1 0x6 SWAP1 SWAP8 ADD SLOAD SWAP6 SWAP7 PUSH1 0x1 PUSH1 0x1 PUSH1 0xA0 SHL SUB SWAP1 SWAP4 AND SWAP6 SWAP2 SWAP5 POP PUSH1 0xFF SWAP1 DUP2 AND SWAP4 POP AND DUP8 JUMP JUMPDEST PUSH1 0x0 SLOAD PUSH1 0x1 PUSH1 0x1 PUSH1 0xA0 SHL SUB AND CALLER EQ PUSH2 0xC0B JUMPI PUSH1 0x40 MLOAD PUSH4 0x118CDAA7 PUSH1 0xE0 SHL DUP2 MSTORE CALLER PUSH1 0x4 DUP3 ADD MSTORE PUSH1 0x24 ADD PUSH2 0x5B8 JUMP JUMPDEST PUSH1 0x40 DUP1 MLOAD PUSH1 0xA0 DUP2 ADD DUP3 MSTORE DUP6 DUP2 MSTORE PUSH1 0x20 DUP1 DUP3 ADD DUP7 SWAP1 MSTORE DUP2 DUP4 ADD DUP6 SWAP1 MSTORE TIMESTAMP PUSH1 0x60 DUP4 ADD MSTORE PUSH1 0x80 DUP3 ADD DUP5 SWAP1 MSTORE PUSH1 0x1 PUSH1 0x1 PUSH1 0xA0 SHL SUB DUP9 AND PUSH1 0x0 SWAP1 DUP2 MSTORE PUSH1 0x9 SWAP1 SWAP2 MSTORE SWAP2 SWAP1 SWAP2 KECCAK256 SLOAD PUSH1 0x32 GT PUSH2 0x22F4 JUMPI PUSH1 0x0 JUMPDEST PUSH1 0x1 PUSH1 0x1 PUSH1 0xA0 SHL SUB DUP8 AND PUSH1 0x0 SWAP1 DUP2 MSTORE PUSH1 0x9 PUSH1 0x20 MSTORE PUSH1 0x40 SWAP1 KECCAK256 SLOAD PUSH2 0x21B8 SWAP1 PUSH1 0x1 SWAP1 PUSH2 0x30FF JUMP JUMPDEST DUP2 LT ISZERO PUSH2 0x228B JUMPI PUSH1 0x1 PUSH1 0x1 PUSH1 0xA0 SHL SUB DUP8 AND PUSH1 0x0 SWAP1 DUP2 MSTORE PUSH1 0x9 PUSH1 0x20 MSTORE PUSH1 0x40 SWAP1 KECCAK256 PUSH2 0x21E2 DUP3 PUSH1 0x1 PUSH2 0x3112 JUMP JUMPDEST DUP2 SLOAD DUP2 LT PUSH2 0x21F2 JUMPI PUSH2 0x21F2 PUSH2 0x3080 JUMP JUMPDEST SWAP1 PUSH1 0x0 MSTORE PUSH1 0x20 PUSH1 0x0 KECCAK256 SWAP1 PUSH1 0x5 MUL ADD PUSH1 0x9 PUSH1 0x0 DUP10 PUSH1 0x1 PUSH1 0x1 PUSH1 0xA0 SHL SUB AND PUSH1 0x1 PUSH1 0x1 PUSH1 0xA0 SHL SUB AND DUP2 MSTORE PUSH1 0x20 ADD SWAP1 DUP2 MSTORE PUSH1 0x20 ADD PUSH1 0x0 KECCAK256 DUP3 DUP2 SLOAD DUP2 LT PUSH2 0x2236 JUMPI PUSH2 0x2236 PUSH2 0x3080 JUMP JUMPDEST PUSH1 0x0 SWAP2 DUP3 MSTORE PUSH1 0x20 SWAP1 SWAP2 KECCAK256 PUSH1 0x5 SWAP1 SWAP2 MUL ADD DUP1 PUSH2 0x2251 DUP4 DUP3 PUSH2 0x32B2 JUMP JUMPDEST POP PUSH1 0x1 DUP3 DUP2 ADD SLOAD SWAP1 DUP3 ADD SSTORE PUSH1 0x2 DUP1 DUP4 ADD SLOAD SWAP1 DUP3 ADD SSTORE PUSH1 0x3 DUP1 DUP4 ADD SLOAD SWAP1 DUP3 ADD SSTORE PUSH1 0x4 SWAP2 DUP3 ADD SLOAD SWAP2 ADD SSTORE DUP1 PUSH2 0x2283 DUP2 PUSH2 0x30AC JUMP JUMPDEST SWAP2 POP POP PUSH2 0x2193 JUMP JUMPDEST POP PUSH1 0x1 PUSH1 0x1 PUSH1 0xA0 SHL SUB DUP7 AND PUSH1 0x0 SWAP1 DUP2 MSTORE PUSH1 0x9 PUSH1 0x20 MSTORE PUSH1 0x40 SWAP1 KECCAK256 DUP1 SLOAD DUP1 PUSH2 0x22B3 JUMPI PUSH2 0x22B3 PUSH2 0x3125 JUMP JUMPDEST PUSH1 0x0 DUP3 DUP2 MSTORE PUSH1 0x20 DUP2 KECCAK256 PUSH1 0x0 NOT SWAP1 SWAP3 ADD SWAP2 PUSH1 0x5 DUP4 MUL ADD SWAP1 PUSH2 0x22D3 DUP3 DUP3 PUSH2 0x2663 JUMP JUMPDEST POP PUSH1 0x0 PUSH1 0x1 DUP3 ADD DUP2 SWAP1 SSTORE PUSH1 0x2 DUP3 ADD DUP2 SWAP1 SSTORE PUSH1 0x3 DUP3 ADD DUP2 SWAP1 SSTORE PUSH1 0x4 SWAP1 SWAP2 ADD SSTORE SWAP1 SSTORE JUMPDEST PUSH1 0x1 PUSH1 0x1 PUSH1 0xA0 SHL SUB DUP7 AND PUSH1 0x0 SWAP1 DUP2 MSTORE PUSH1 0x9 PUSH1 0x20 SWAP1 DUP2 MSTORE PUSH1 0x40 DUP3 KECCAK256 DUP1 SLOAD PUSH1 0x1 DUP2 ADD DUP3 SSTORE SWAP1 DUP4 MSTORE SWAP2 KECCAK256 DUP3 MLOAD DUP4 SWAP3 PUSH1 0x5 MUL SWAP1 SWAP2 ADD SWAP1 DUP2 SWAP1 PUSH2 0x2332 SWAP1 DUP3 PUSH2 0x31A6 JUMP JUMPDEST POP PUSH1 0x20 DUP3 ADD MLOAD DUP2 PUSH1 0x1 ADD SSTORE PUSH1 0x40 DUP3 ADD MLOAD DUP2 PUSH1 0x2 ADD SSTORE PUSH1 0x60 DUP3 ADD MLOAD DUP2 PUSH1 0x3 ADD SSTORE PUSH1 0x80 DUP3 ADD MLOAD DUP2 PUSH1 0x4 ADD SSTORE POP POP DUP2 DUP7 PUSH1 0x1 PUSH1 0x1 PUSH1 0xA0 SHL SUB AND PUSH32 0x564FC318F430D4DCC3F2E39F2E3BA74973ABE44920DECADA6D8F36DCCC12CA88 DUP8 DUP8 DUP8 TIMESTAMP PUSH1 0x40 MLOAD PUSH2 0x239D SWAP5 SWAP4 SWAP3 SWAP2 SWAP1 PUSH2 0x3384 JUMP JUMPDEST PUSH1 0x40 MLOAD DUP1 SWAP2 SUB SWAP1 LOG3 POP POP POP POP POP POP JUMP JUMPDEST PUSH1 0x0 DUP1 SLOAD PUSH1 0x1 PUSH1 0x1 PUSH1 0xA0 SHL SUB DUP4 DUP2 AND PUSH1 0x1 PUSH1 0x1 PUSH1 0xA0 SHL SUB NOT DUP4 AND DUP2 OR DUP5 SSTORE PUSH1 0x40 MLOAD SWAP2 SWAP1 SWAP3 AND SWAP3 DUP4 SWAP2 PUSH32 0x8BE0079C531659141344CD1FD0A4F28419497F9722A3DAAFE3B4186F6B6457E0 SWAP2 SWAP1 LOG3 POP POP JUMP JUMPDEST PUSH1 0x1 PUSH1 0x1 PUSH1 0xA0 SHL SUB DUP3 AND PUSH1 0x0 SWAP1 DUP2 MSTORE PUSH1 0xB PUSH1 0x20 MSTORE PUSH1 0x40 SWAP1 KECCAK256 SLOAD PUSH1 0x64 GT PUSH2 0x251D JUMPI PUSH1 0x0 JUMPDEST PUSH1 0x1 PUSH1 0x1 PUSH1 0xA0 SHL SUB DUP4 AND PUSH1 0x0 SWAP1 DUP2 MSTORE PUSH1 0xB PUSH1 0x20 MSTORE PUSH1 0x40 SWAP1 KECCAK256 SLOAD PUSH2 0x2445 SWAP1 PUSH1 0x1 SWAP1 PUSH2 0x30FF JUMP JUMPDEST DUP2 LT ISZERO PUSH2 0x24DE JUMPI PUSH1 0x1 PUSH1 0x1 PUSH1 0xA0 SHL SUB DUP4 AND PUSH1 0x0 SWAP1 DUP2 MSTORE PUSH1 0xB PUSH1 0x20 MSTORE PUSH1 0x40 SWAP1 KECCAK256 PUSH2 0x246F DUP3 PUSH1 0x1 PUSH2 0x3112 JUMP JUMPDEST DUP2 SLOAD DUP2 LT PUSH2 0x247F JUMPI PUSH2 0x247F PUSH2 0x3080 JUMP JUMPDEST SWAP1 PUSH1 0x0 MSTORE PUSH1 0x20 PUSH1 0x0 KECCAK256 ADD SLOAD PUSH1 0xB PUSH1 0x0 DUP6 PUSH1 0x1 PUSH1 0x1 PUSH1 0xA0 SHL SUB AND PUSH1 0x1 PUSH1 0x1 PUSH1 0xA0 SHL SUB AND DUP2 MSTORE PUSH1 0x20 ADD SWAP1 DUP2 MSTORE PUSH1 0x20 ADD PUSH1 0x0 KECCAK256 DUP3 DUP2 SLOAD DUP2 LT PUSH2 0x24C0 JUMPI PUSH2 0x24C0 PUSH2 0x3080 JUMP JUMPDEST PUSH1 0x0 SWAP2 DUP3 MSTORE PUSH1 0x20 SWAP1 SWAP2 KECCAK256 ADD SSTORE DUP1 PUSH2 0x24D6 DUP2 PUSH2 0x30AC JUMP JUMPDEST SWAP2 POP POP PUSH2 0x2420 JUMP JUMPDEST POP PUSH1 0x1 PUSH1 0x1 PUSH1 0xA0 SHL SUB DUP3 AND PUSH1 0x0 SWAP1 DUP2 MSTORE PUSH1 0xB PUSH1 0x20 MSTORE PUSH1 0x40 SWAP1 KECCAK256 DUP1 SLOAD DUP1 PUSH2 0x2506 JUMPI PUSH2 0x2506 PUSH2 0x3125 JUMP JUMPDEST PUSH1 0x1 SWAP1 SUB DUP2 DUP2 SWAP1 PUSH1 0x0 MSTORE PUSH1 0x20 PUSH1 0x0 KECCAK256 ADD PUSH1 0x0 SWAP1 SSTORE SWAP1 SSTORE JUMPDEST PUSH1 0x1 PUSH1 0x1 PUSH1 0xA0 SHL SUB DUP3 AND PUSH1 0x0 SWAP1 DUP2 MSTORE PUSH1 0xB PUSH1 0x20 SWAP1 DUP2 MSTORE PUSH1 0x40 DUP3 KECCAK256 DUP1 SLOAD PUSH1 0x1 DUP2 ADD DUP3 SSTORE SWAP1 DUP4 MSTORE SWAP1 DUP3 KECCAK256 ADD DUP3 SWAP1 SSTORE DUP1 JUMPDEST PUSH1 0x1 PUSH1 0x1 PUSH1 0xA0 SHL SUB DUP5 AND PUSH1 0x0 SWAP1 DUP2 MSTORE PUSH1 0xB PUSH1 0x20 MSTORE PUSH1 0x40 SWAP1 KECCAK256 SLOAD DUP2 LT ISZERO PUSH2 0x25BF JUMPI PUSH1 0x1 PUSH1 0x1 PUSH1 0xA0 SHL SUB DUP5 AND PUSH1 0x0 SWAP1 DUP2 MSTORE PUSH1 0xB PUSH1 0x20 MSTORE PUSH1 0x40 SWAP1 KECCAK256 DUP1 SLOAD DUP3 SWAP1 DUP2 LT PUSH2 0x2595 JUMPI PUSH2 0x2595 PUSH2 0x3080 JUMP JUMPDEST SWAP1 PUSH1 0x0 MSTORE PUSH1 0x20 PUSH1 0x0 KECCAK256 ADD SLOAD DUP3 PUSH2 0x25AB SWAP2 SWAP1 PUSH2 0x3112 JUMP JUMPDEST SWAP2 POP DUP1 PUSH2 0x25B7 DUP2 PUSH2 0x30AC JUMP JUMPDEST SWAP2 POP POP PUSH2 0x254B JUMP JUMPDEST POP PUSH1 0x1 PUSH1 0x1 PUSH1 0xA0 SHL SUB DUP4 AND PUSH1 0x0 SWAP1 DUP2 MSTORE PUSH1 0xB PUSH1 0x20 MSTORE PUSH1 0x40 DUP2 KECCAK256 SLOAD PUSH2 0x25E3 SWAP1 DUP4 PUSH2 0x33B3 JUMP JUMPDEST PUSH1 0x1 PUSH1 0x1 PUSH1 0xA0 SHL SUB DUP6 AND PUSH1 0x0 DUP2 DUP2 MSTORE PUSH1 0xB PUSH1 0x20 SWAP1 DUP2 MSTORE PUSH1 0x40 SWAP2 DUP3 SWAP1 KECCAK256 SLOAD DUP3 MLOAD DUP6 DUP2 MSTORE SWAP2 DUP3 ADD MSTORE TIMESTAMP DUP2 DUP4 ADD MSTORE SWAP1 MLOAD SWAP3 SWAP4 POP SWAP1 SWAP2 PUSH32 0x229ADE9366A177B70E58B25D10F66969D5C7E18EBE6EEF4C6B4955B2BD2BF54A SWAP2 DUP2 SWAP1 SUB PUSH1 0x60 ADD SWAP1 LOG2 POP POP POP POP JUMP JUMPDEST POP DUP1 SLOAD PUSH1 0x0 DUP3 SSTORE SWAP1 PUSH1 0x0 MSTORE PUSH1 0x20 PUSH1 0x0 KECCAK256 SWAP1 DUP2 ADD SWAP1 PUSH2 0x1F82 SWAP2 SWAP1 PUSH2 0x269D JUMP JUMPDEST POP DUP1 SLOAD PUSH2 0x266F SWAP1 PUSH2 0x30C5 JUMP JUMPDEST PUSH1 0x0 DUP3 SSTORE DUP1 PUSH1 0x1F LT PUSH2 0x267F JUMPI POP POP JUMP JUMPDEST PUSH1 0x1F ADD PUSH1 0x20 SWAP1 DIV SWAP1 PUSH1 0x0 MSTORE PUSH1 0x20 PUSH1 0x0 KECCAK256 SWAP1 DUP2 ADD SWAP1 PUSH2 0x1F82 SWAP2 SWAP1 PUSH2 0x26BE JUMP JUMPDEST DUP1 DUP3 GT ISZERO PUSH2 0x26BA JUMPI PUSH1 0x0 PUSH2 0x26B1 DUP3 DUP3 PUSH2 0x2663 JUMP JUMPDEST POP PUSH1 0x1 ADD PUSH2 0x269D JUMP JUMPDEST POP SWAP1 JUMP JUMPDEST JUMPDEST DUP1 DUP3 GT ISZERO PUSH2 0x26BA JUMPI PUSH1 0x0 DUP2 SSTORE PUSH1 0x1 ADD PUSH2 0x26BF JUMP JUMPDEST DUP1 CALLDATALOAD PUSH1 0x1 PUSH1 0x1 PUSH1 0xA0 SHL SUB DUP2 AND DUP2 EQ PUSH2 0x26EA JUMPI PUSH1 0x0 DUP1 REVERT JUMPDEST SWAP2 SWAP1 POP JUMP JUMPDEST PUSH1 0x0 PUSH1 0x20 DUP3 DUP5 SUB SLT ISZERO PUSH2 0x2701 JUMPI PUSH1 0x0 DUP1 REVERT JUMPDEST PUSH2 0x270A DUP3 PUSH2 0x26D3 JUMP JUMPDEST SWAP4 SWAP3 POP POP POP JUMP JUMPDEST PUSH1 0x0 JUMPDEST DUP4 DUP2 LT ISZERO PUSH2 0x272C JUMPI DUP2 DUP2 ADD MLOAD DUP4 DUP3 ADD MSTORE PUSH1 0x20 ADD PUSH2 0x2714 JUMP JUMPDEST POP POP PUSH1 0x0 SWAP2 ADD MSTORE JUMP JUMPDEST PUSH1 0x0 DUP2 MLOAD DUP1 DUP5 MSTORE PUSH2 0x274D DUP2 PUSH1 0x20 DUP7 ADD PUSH1 0x20 DUP7 ADD PUSH2 0x2711 JUMP JUMPDEST PUSH1 0x1F ADD PUSH1 0x1F NOT AND SWAP3 SWAP1 SWAP3 ADD PUSH1 0x20 ADD SWAP3 SWAP2 POP POP JUMP JUMPDEST PUSH1 0x0 DUP2 MLOAD DUP1 DUP5 MSTORE PUSH1 0x20 DUP1 DUP6 ADD SWAP5 POP DUP1 DUP5 ADD PUSH1 0x0 JUMPDEST DUP4 DUP2 LT ISZERO PUSH2 0x2791 JUMPI DUP2 MLOAD DUP8 MSTORE SWAP6 DUP3 ADD SWAP6 SWAP1 DUP3 ADD SWAP1 PUSH1 0x1 ADD PUSH2 0x2775 JUMP JUMPDEST POP SWAP5 SWAP6 SWAP5 POP POP POP POP POP JUMP JUMPDEST PUSH1 0x20 DUP1 DUP3 MSTORE DUP3 MLOAD DUP3 DUP3 ADD MSTORE DUP3 DUP2 ADD MLOAD PUSH1 0xC0 PUSH1 0x40 DUP5 ADD MSTORE DUP1 MLOAD PUSH1 0xE0 DUP5 ADD DUP2 SWAP1 MSTORE PUSH1 0x0 SWAP3 SWAP2 PUSH2 0x100 PUSH1 0x5 DUP4 SWAP1 SHL DUP7 ADD DUP2 ADD SWAP3 SWAP2 DUP5 ADD SWAP2 SWAP1 DUP7 ADD SWAP1 DUP6 JUMPDEST DUP2 DUP2 LT ISZERO PUSH2 0x2804 JUMPI PUSH1 0xFF NOT DUP9 DUP7 SUB ADD DUP4 MSTORE PUSH2 0x27F2 DUP6 DUP6 MLOAD PUSH2 0x2735 JUMP JUMPDEST SWAP5 POP SWAP3 DUP6 ADD SWAP3 SWAP2 DUP6 ADD SWAP2 PUSH1 0x1 ADD PUSH2 0x27D6 JUMP JUMPDEST POP POP POP POP PUSH1 0x40 DUP6 ADD MLOAD SWAP2 POP PUSH1 0x1F NOT DUP1 DUP6 DUP4 SUB ADD PUSH1 0x60 DUP7 ADD MSTORE PUSH2 0x2826 DUP3 DUP5 PUSH2 0x2761 JUMP JUMPDEST SWAP3 POP PUSH1 0x60 DUP7 ADD MLOAD PUSH1 0x80 DUP7 ADD MSTORE PUSH1 0x80 DUP7 ADD MLOAD SWAP2 POP DUP1 DUP6 DUP5 SUB ADD PUSH1 0xA0 DUP7 ADD MSTORE PUSH2 0x284D DUP4 DUP4 PUSH2 0x2761 JUMP JUMPDEST SWAP3 POP PUSH1 0xA0 DUP7 ADD MLOAD SWAP2 POP DUP1 DUP6 DUP5 SUB ADD PUSH1 0xC0 DUP7 ADD MSTORE POP PUSH2 0x286B DUP3 DUP3 PUSH2 0x2761 JUMP JUMPDEST SWAP6 SWAP5 POP POP POP POP POP JUMP JUMPDEST PUSH4 0x4E487B71 PUSH1 0xE0 SHL PUSH1 0x0 MSTORE PUSH1 0x41 PUSH1 0x4 MSTORE PUSH1 0x24 PUSH1 0x0 REVERT JUMPDEST PUSH1 0x40 MLOAD PUSH1 0x1F DUP3 ADD PUSH1 0x1F NOT AND DUP2 ADD PUSH1 0x1 PUSH1 0x1 PUSH1 0x40 SHL SUB DUP2 GT DUP3 DUP3 LT OR ISZERO PUSH2 0x28B2 JUMPI PUSH2 0x28B2 PUSH2 0x2874 JUMP JUMPDEST PUSH1 0x40 MSTORE SWAP2 SWAP1 POP JUMP JUMPDEST PUSH1 0x0 PUSH1 0x1 PUSH1 0x1 PUSH1 0x40 SHL SUB DUP3 GT ISZERO PUSH2 0x28D3 JUMPI PUSH2 0x28D3 PUSH2 0x2874 JUMP JUMPDEST POP PUSH1 0x1F ADD PUSH1 0x1F NOT AND PUSH1 0x20 ADD SWAP1 JUMP JUMPDEST PUSH1 0x0 DUP3 PUSH1 0x1F DUP4 ADD SLT PUSH2 0x28F2 JUMPI PUSH1 0x0 DUP1 REVERT JUMPDEST DUP2 CALLDATALOAD PUSH2 0x2905 PUSH2 0x2900 DUP3 PUSH2 0x28BA JUMP JUMPDEST PUSH2 0x288A JUMP JUMPDEST DUP2 DUP2 MSTORE DUP5 PUSH1 0x20 DUP4 DUP7 ADD ADD GT ISZERO PUSH2 0x291A JUMPI PUSH1 0x0 DUP1 REVERT JUMPDEST DUP2 PUSH1 0x20 DUP6 ADD PUSH1 0x20 DUP4 ADD CALLDATACOPY PUSH1 0x0 SWAP2 DUP2 ADD PUSH1 0x20 ADD SWAP2 SWAP1 SWAP2 MSTORE SWAP4 SWAP3 POP POP POP JUMP JUMPDEST PUSH1 0x0 DUP1 PUSH1 0x0 DUP1 PUSH1 0x0 PUSH1 0xA0 DUP7 DUP9 SUB SLT ISZERO PUSH2 0x294F JUMPI PUSH1 0x0 DUP1 REVERT JUMPDEST PUSH2 0x2958 DUP7 PUSH2 0x26D3 JUMP JUMPDEST SWAP5 POP PUSH1 0x20 DUP7 ADD CALLDATALOAD PUSH1 0x1 PUSH1 0x1 PUSH1 0x40 SHL SUB DUP2 GT ISZERO PUSH2 0x2973 JUMPI PUSH1 0x0 DUP1 REVERT JUMPDEST PUSH2 0x297F DUP9 DUP3 DUP10 ADD PUSH2 0x28E1 JUMP JUMPDEST SWAP6 SWAP9 SWAP6 SWAP8 POP POP POP POP PUSH1 0x40 DUP5 ADD CALLDATALOAD SWAP4 PUSH1 0x60 DUP2 ADD CALLDATALOAD SWAP4 PUSH1 0x80 SWAP1 SWAP2 ADD CALLDATALOAD SWAP3 POP SWAP1 POP JUMP JUMPDEST PUSH1 0x40 DUP1 DUP3 MSTORE DUP4 MLOAD SWAP1 DUP3 ADD DUP2 SWAP1 MSTORE PUSH1 0x0 SWAP1 PUSH1 0x20 SWAP1 PUSH1 0x60 DUP5 ADD SWAP1 DUP3 DUP8 ADD DUP5 JUMPDEST DUP3 DUP2 LT ISZERO PUSH2 0x29D8 JUMPI DUP2 MLOAD DUP5 MSTORE SWAP3 DUP5 ADD SWAP3 SWAP1 DUP5 ADD SWAP1 PUSH1 0x1 ADD PUSH2 0x29BC JUMP JUMPDEST POP POP POP DUP4 DUP2 SUB DUP3 DUP6 ADD MSTORE PUSH2 0x29EC DUP2 DUP7 PUSH2 0x2761 JUMP JUMPDEST SWAP7 SWAP6 POP POP POP POP POP POP JUMP JUMPDEST PUSH1 0x0 DUP1 PUSH1 0x40 DUP4 DUP6 SUB SLT ISZERO PUSH2 0x2A09 JUMPI PUSH1 0x0 DUP1 REVERT JUMPDEST PUSH2 0x2A12 DUP4 PUSH2 0x26D3 JUMP JUMPDEST SWAP2 POP PUSH1 0x20 DUP4 ADD CALLDATALOAD PUSH1 0x1 PUSH1 0x1 PUSH1 0x40 SHL SUB DUP2 GT ISZERO PUSH2 0x2A2D JUMPI PUSH1 0x0 DUP1 REVERT JUMPDEST PUSH2 0x2A39 DUP6 DUP3 DUP7 ADD PUSH2 0x28E1 JUMP JUMPDEST SWAP2 POP POP SWAP3 POP SWAP3 SWAP1 POP JUMP JUMPDEST PUSH1 0x0 PUSH1 0x20 DUP1 DUP4 ADD DUP2 DUP5 MSTORE DUP1 DUP6 MLOAD DUP1 DUP4 MSTORE PUSH1 0x40 SWAP3 POP DUP3 DUP7 ADD SWAP2 POP DUP3 DUP2 PUSH1 0x5 SHL DUP8 ADD ADD DUP5 DUP9 ADD PUSH1 0x0 JUMPDEST DUP4 DUP2 LT ISZERO PUSH2 0x2ACA JUMPI PUSH1 0x3F NOT DUP10 DUP5 SUB ADD DUP6 MSTORE DUP2 MLOAD PUSH1 0xA0 DUP2 MLOAD DUP2 DUP7 MSTORE PUSH2 0x2A90 DUP3 DUP8 ADD DUP3 PUSH2 0x2735 JUMP JUMPDEST DUP4 DUP12 ADD MLOAD DUP8 DUP13 ADD MSTORE DUP10 DUP5 ADD MLOAD DUP11 DUP9 ADD MSTORE PUSH1 0x60 DUP1 DUP6 ADD MLOAD SWAP1 DUP9 ADD MSTORE PUSH1 0x80 SWAP4 DUP5 ADD MLOAD SWAP4 SWAP1 SWAP7 ADD SWAP3 SWAP1 SWAP3 MSTORE POP POP SWAP4 DUP7 ADD SWAP4 SWAP1 DUP7 ADD SWAP1 PUSH1 0x1 ADD PUSH2 0x2A6A JUMP JUMPDEST POP SWAP1 SWAP9 SWAP8 POP POP POP POP POP POP POP POP JUMP JUMPDEST PUSH1 0x20 DUP1 DUP3 MSTORE DUP3 MLOAD DUP3 DUP3 ADD DUP2 SWAP1 MSTORE PUSH1 0x0 SWAP2 SWAP1 DUP5 DUP3 ADD SWAP1 PUSH1 0x40 DUP6 ADD SWAP1 DUP5 JUMPDEST DUP2 DUP2 LT ISZERO PUSH2 0x2B19 JUMPI DUP4 MLOAD PUSH1 0x1 PUSH1 0x1 PUSH1 0xA0 SHL SUB AND DUP4 MSTORE SWAP3 DUP5 ADD SWAP3 SWAP2 DUP5 ADD SWAP2 PUSH1 0x1 ADD PUSH2 0x2AF4 JUMP JUMPDEST POP SWAP1 SWAP7 SWAP6 POP POP POP POP POP POP JUMP JUMPDEST PUSH1 0x0 DUP1 PUSH1 0x0 PUSH1 0x60 DUP5 DUP7 SUB SLT ISZERO PUSH2 0x2B3A JUMPI PUSH1 0x0 DUP1 REVERT JUMPDEST PUSH2 0x2B43 DUP5 PUSH2 0x26D3 JUMP JUMPDEST SWAP6 PUSH1 0x20 DUP6 ADD CALLDATALOAD SWAP6 POP PUSH1 0x40 SWAP1 SWAP5 ADD CALLDATALOAD SWAP4 SWAP3 POP POP POP JUMP JUMPDEST PUSH1 0x0 PUSH1 0x40 DUP3 ADD PUSH1 0x40 DUP4 MSTORE DUP1 DUP6 MLOAD DUP1 DUP4 MSTORE PUSH1 0x60 DUP6 ADD SWAP2 POP PUSH1 0x60 DUP2 PUSH1 0x5 SHL DUP7 ADD ADD SWAP3 POP PUSH1 0x20 DUP1 DUP9 ADD PUSH1 0x0 JUMPDEST DUP4 DUP2 LT ISZERO PUSH2 0x2BAF JUMPI PUSH1 0x5F NOT DUP9 DUP8 SUB ADD DUP6 MSTORE PUSH2 0x2B9D DUP7 DUP4 MLOAD PUSH2 0x2735 JUMP JUMPDEST SWAP6 POP SWAP4 DUP3 ADD SWAP4 SWAP1 DUP3 ADD SWAP1 PUSH1 0x1 ADD PUSH2 0x2B81 JUMP JUMPDEST POP POP DUP6 DUP5 SUB DUP2 DUP8 ADD MSTORE POP POP POP PUSH2 0x286B DUP2 DUP6 PUSH2 0x2761 JUMP JUMPDEST PUSH1 0x0 DUP1 PUSH1 0x40 DUP4 DUP6 SUB SLT ISZERO PUSH2 0x2BD8 JUMPI PUSH1 0x0 DUP1 REVERT JUMPDEST DUP3 CALLDATALOAD PUSH1 0x1 PUSH1 0x1 PUSH1 0x40 SHL SUB DUP1 DUP3 GT ISZERO PUSH2 0x2BEF JUMPI PUSH1 0x0 DUP1 REVERT JUMPDEST PUSH2 0x2BFB DUP7 DUP4 DUP8 ADD PUSH2 0x28E1 JUMP JUMPDEST SWAP4 POP PUSH1 0x20 DUP6 ADD CALLDATALOAD SWAP2 POP DUP1 DUP3 GT ISZERO PUSH2 0x2C11 JUMPI PUSH1 0x0 DUP1 REVERT JUMPDEST POP PUSH2 0x2A39 DUP6 DUP3 DUP7 ADD PUSH2 0x28E1 JUMP JUMPDEST PUSH1 0x0 PUSH1 0x20 DUP3 DUP5 SUB SLT ISZERO PUSH2 0x2C30 JUMPI PUSH1 0x0 DUP1 REVERT JUMPDEST POP CALLDATALOAD SWAP2 SWAP1 POP JUMP JUMPDEST PUSH1 0x0 DUP1 PUSH1 0x0 PUSH1 0x60 DUP5 DUP7 SUB SLT ISZERO PUSH2 0x2C4C JUMPI PUSH1 0x0 DUP1 REVERT JUMPDEST DUP4 CALLDATALOAD PUSH1 0x1 PUSH1 0x1 PUSH1 0x40 SHL SUB DUP1 DUP3 GT ISZERO PUSH2 0x2C63 JUMPI PUSH1 0x0 DUP1 REVERT JUMPDEST PUSH2 0x2C6F DUP8 DUP4 DUP9 ADD PUSH2 0x28E1 JUMP JUMPDEST SWAP5 POP PUSH1 0x20 DUP7 ADD CALLDATALOAD SWAP2 POP DUP1 DUP3 GT ISZERO PUSH2 0x2C85 JUMPI PUSH1 0x0 DUP1 REVERT JUMPDEST POP PUSH2 0x2C92 DUP7 DUP3 DUP8 ADD PUSH2 0x28E1 JUMP JUMPDEST SWAP3 POP POP PUSH1 0x40 DUP5 ADD CALLDATALOAD PUSH1 0x4 DUP2 LT PUSH2 0x2CA7 JUMPI PUSH1 0x0 DUP1 REVERT JUMPDEST DUP1 SWAP2 POP POP SWAP3 POP SWAP3 POP SWAP3 JUMP JUMPDEST PUSH1 0x0 DUP1 PUSH1 0x40 DUP4 DUP6 SUB SLT ISZERO PUSH2 0x2CC5 JUMPI PUSH1 0x0 DUP1 REVERT JUMPDEST PUSH2 0x2CCE DUP4 PUSH2 0x26D3 JUMP JUMPDEST SWAP5 PUSH1 0x20 SWAP4 SWAP1 SWAP4 ADD CALLDATALOAD SWAP4 POP POP POP JUMP JUMPDEST PUSH1 0x20 DUP2 MSTORE PUSH1 0x0 PUSH2 0x270A PUSH1 0x20 DUP4 ADD DUP5 PUSH2 0x2761 JUMP JUMPDEST PUSH1 0x0 PUSH1 0x1 PUSH1 0x1 PUSH1 0x40 SHL SUB DUP3 GT ISZERO PUSH2 0x2D08 JUMPI PUSH2 0x2D08 PUSH2 0x2874 JUMP JUMPDEST POP PUSH1 0x5 SHL PUSH1 0x20 ADD SWAP1 JUMP JUMPDEST PUSH1 0x0 DUP3 PUSH1 0x1F DUP4 ADD SLT PUSH2 0x2D23 JUMPI PUSH1 0x0 DUP1 REVERT JUMPDEST DUP2 CALLDATALOAD PUSH1 0x20 PUSH2 0x2D33 PUSH2 0x2900 DUP4 PUSH2 0x2CEF JUMP JUMPDEST DUP3 DUP2 MSTORE PUSH1 0x5 SWAP3 SWAP1 SWAP3 SHL DUP5 ADD DUP2 ADD SWAP2 DUP2 DUP2 ADD SWAP1 DUP7 DUP5 GT ISZERO PUSH2 0x2D52 JUMPI PUSH1 0x0 DUP1 REVERT JUMPDEST DUP3 DUP7 ADD JUMPDEST DUP5 DUP2 LT ISZERO PUSH2 0x2D6D JUMPI DUP1 CALLDATALOAD DUP4 MSTORE SWAP2 DUP4 ADD SWAP2 DUP4 ADD PUSH2 0x2D56 JUMP JUMPDEST POP SWAP7 SWAP6 POP POP POP POP POP POP JUMP JUMPDEST PUSH1 0x0 DUP1 PUSH1 0x0 PUSH1 0x60 DUP5 DUP7 SUB SLT ISZERO PUSH2 0x2D8D JUMPI PUSH1 0x0 DUP1 REVERT JUMPDEST PUSH2 0x2D96 DUP5 PUSH2 0x26D3 JUMP JUMPDEST SWAP3 POP PUSH1 0x20 DUP1 DUP6 ADD CALLDATALOAD PUSH1 0x1 PUSH1 0x1 PUSH1 0x40 SHL SUB DUP1 DUP3 GT ISZERO PUSH2 0x2DB3 JUMPI PUSH1 0x0 DUP1 REVERT JUMPDEST DUP2 DUP8 ADD SWAP2 POP DUP8 PUSH1 0x1F DUP4 ADD SLT PUSH2 0x2DC7 JUMPI PUSH1 0x0 DUP1 REVERT JUMPDEST DUP2 CALLDATALOAD PUSH2 0x2DD5 PUSH2 0x2900 DUP3 PUSH2 0x2CEF JUMP JUMPDEST DUP2 DUP2 MSTORE PUSH1 0x5 SWAP2 SWAP1 SWAP2 SHL DUP4 ADD DUP5 ADD SWAP1 DUP5 DUP2 ADD SWAP1 DUP11 DUP4 GT ISZERO PUSH2 0x2DF4 JUMPI PUSH1 0x0 DUP1 REVERT JUMPDEST DUP6 DUP6 ADD JUMPDEST DUP4 DUP2 LT ISZERO PUSH2 0x2E2C JUMPI DUP1 CALLDATALOAD DUP6 DUP2 GT ISZERO PUSH2 0x2E10 JUMPI PUSH1 0x0 DUP1 DUP2 REVERT JUMPDEST PUSH2 0x2E1E DUP14 DUP10 DUP4 DUP11 ADD ADD PUSH2 0x28E1 JUMP JUMPDEST DUP5 MSTORE POP SWAP2 DUP7 ADD SWAP2 DUP7 ADD PUSH2 0x2DF8 JUMP JUMPDEST POP SWAP7 POP POP POP PUSH1 0x40 DUP8 ADD CALLDATALOAD SWAP3 POP DUP1 DUP4 GT ISZERO PUSH2 0x2E45 JUMPI PUSH1 0x0 DUP1 REVERT JUMPDEST POP POP PUSH2 0x2E53 DUP7 DUP3 DUP8 ADD PUSH2 0x2D12 JUMP JUMPDEST SWAP2 POP POP SWAP3 POP SWAP3 POP SWAP3 JUMP JUMPDEST PUSH4 0x4E487B71 PUSH1 0xE0 SHL PUSH1 0x0 MSTORE PUSH1 0x21 PUSH1 0x4 MSTORE PUSH1 0x24 PUSH1 0x0 REVERT JUMPDEST PUSH1 0xE0 DUP2 MSTORE PUSH1 0x0 PUSH2 0x2E86 PUSH1 0xE0 DUP4 ADD DUP11 PUSH2 0x2735 JUMP JUMPDEST DUP3 DUP2 SUB PUSH1 0x20 DUP5 ADD MSTORE PUSH2 0x2E98 DUP2 DUP11 PUSH2 0x2735 JUMP JUMPDEST PUSH1 0x1 PUSH1 0x1 PUSH1 0xA0 SHL SUB DUP10 AND PUSH1 0x40 DUP6 ADD MSTORE PUSH1 0x60 DUP5 ADD DUP9 SWAP1 MSTORE DUP7 ISZERO ISZERO PUSH1 0x80 DUP6 ADD MSTORE PUSH1 0xA0 DUP5 ADD DUP7 SWAP1 MSTORE SWAP2 POP POP PUSH1 0x4 DUP4 LT PUSH2 0x2EDE JUMPI PUSH4 0x4E487B71 PUSH1 0xE0 SHL PUSH1 0x0 MSTORE PUSH1 0x21 PUSH1 0x4 MSTORE PUSH1 0x24 PUSH1 0x0 REVERT JUMPDEST DUP3 PUSH1 0xC0 DUP4 ADD MSTORE SWAP9 SWAP8 POP POP POP POP POP POP POP POP JUMP JUMPDEST PUSH1 0x20 DUP1 DUP3 MSTORE PUSH1 0x14 SWAP1 DUP3 ADD MSTORE PUSH20 0x1059D95B9D081B9BDD081C9959DA5CDD195C9959 PUSH1 0x62 SHL PUSH1 0x40 DUP3 ADD MSTORE PUSH1 0x60 ADD SWAP1 JUMP JUMPDEST PUSH1 0x0 DUP3 PUSH1 0x1F DUP4 ADD SLT PUSH2 0x2F2F JUMPI PUSH1 0x0 DUP1 REVERT JUMPDEST DUP2 MLOAD PUSH1 0x20 PUSH2 0x2F3F PUSH2 0x2900 DUP4 PUSH2 0x2CEF JUMP JUMPDEST DUP3 DUP2 MSTORE PUSH1 0x5 SWAP3 SWAP1 SWAP3 SHL DUP5 ADD DUP2 ADD SWAP2 DUP2 DUP2 ADD SWAP1 DUP7 DUP5 GT ISZERO PUSH2 0x2F5E JUMPI PUSH1 0x0 DUP1 REVERT JUMPDEST DUP3 DUP7 ADD JUMPDEST DUP5 DUP2 LT ISZERO PUSH2 0x2D6D JUMPI DUP1 MLOAD DUP4 MSTORE SWAP2 DUP4 ADD SWAP2 DUP4 ADD PUSH2 0x2F62 JUMP JUMPDEST PUSH1 0x0 DUP1 PUSH1 0x40 DUP1 DUP5 DUP7 SUB SLT ISZERO PUSH2 0x2F8D JUMPI PUSH1 0x0 DUP1 REVERT JUMPDEST DUP4 MLOAD PUSH1 0x1 PUSH1 0x1 PUSH1 0x40 SHL SUB DUP1 DUP3 GT ISZERO PUSH2 0x2FA4 JUMPI PUSH1 0x0 DUP1 REVERT JUMPDEST DUP2 DUP7 ADD SWAP2 POP DUP7 PUSH1 0x1F DUP4 ADD SLT PUSH2 0x2FB8 JUMPI PUSH1 0x0 DUP1 REVERT JUMPDEST DUP2 MLOAD PUSH1 0x20 PUSH2 0x2FC8 PUSH2 0x2900 DUP4 PUSH2 0x2CEF JUMP JUMPDEST DUP3 DUP2 MSTORE PUSH1 0x5 SWAP3 SWAP1 SWAP3 SHL DUP5 ADD DUP2 ADD SWAP2 DUP2 DUP2 ADD SWAP1 DUP11 DUP5 GT ISZERO PUSH2 0x2FE7 JUMPI PUSH1 0x0 DUP1 REVERT JUMPDEST DUP3 DUP7 ADD JUMPDEST DUP5 DUP2 LT ISZERO PUSH2 0x3058 JUMPI DUP1 MLOAD DUP7 DUP2 GT ISZERO PUSH2 0x3003 JUMPI PUSH1 0x0 DUP1 DUP2 REVERT JUMPDEST DUP8 ADD PUSH1 0x3F DUP2 ADD DUP14 SGT PUSH2 0x3015 JUMPI PUSH1 0x0 DUP1 DUP2 REVERT JUMPDEST DUP5 DUP2 ADD MLOAD PUSH2 0x3025 PUSH2 0x2900 DUP3 PUSH2 0x28BA JUMP JUMPDEST DUP2 DUP2 MSTORE DUP15 DUP12 DUP4 DUP6 ADD ADD GT ISZERO PUSH2 0x303A JUMPI PUSH1 0x0 DUP1 DUP2 REVERT JUMPDEST PUSH2 0x3049 DUP3 DUP9 DUP4 ADD DUP14 DUP7 ADD PUSH2 0x2711 JUMP JUMPDEST DUP6 MSTORE POP POP SWAP2 DUP4 ADD SWAP2 DUP4 ADD PUSH2 0x2FEB JUMP JUMPDEST POP SWAP2 DUP10 ADD MLOAD SWAP2 SWAP8 POP SWAP1 SWAP5 POP POP POP DUP1 DUP4 GT ISZERO PUSH2 0x3072 JUMPI PUSH1 0x0 DUP1 REVERT JUMPDEST POP POP PUSH2 0x2A39 DUP6 DUP3 DUP7 ADD PUSH2 0x2F1E JUMP JUMPDEST PUSH4 0x4E487B71 PUSH1 0xE0 SHL PUSH1 0x0 MSTORE PUSH1 0x32 PUSH1 0x4 MSTORE PUSH1 0x24 PUSH1 0x0 REVERT JUMPDEST PUSH4 0x4E487B71 PUSH1 0xE0 SHL PUSH1 0x0 MSTORE PUSH1 0x11 PUSH1 0x4 MSTORE PUSH1 0x24 PUSH1 0x0 REVERT JUMPDEST PUSH1 0x0 PUSH1 0x1 DUP3 ADD PUSH2 0x30BE JUMPI PUSH2 0x30BE PUSH2 0x3096 JUMP JUMPDEST POP PUSH1 0x1 ADD SWAP1 JUMP JUMPDEST PUSH1 0x1 DUP2 DUP2 SHR SWAP1 DUP3 AND DUP1 PUSH2 0x30D9 JUMPI PUSH1 0x7F DUP3 AND SWAP2 POP JUMPDEST PUSH1 0x20 DUP3 LT DUP2 SUB PUSH2 0x30F9 JUMPI PUSH4 0x4E487B71 PUSH1 0xE0 SHL PUSH1 0x0 MSTORE PUSH1 0x22 PUSH1 0x4 MSTORE PUSH1 0x24 PUSH1 0x0 REVERT JUMPDEST POP SWAP2 SWAP1 POP JUMP JUMPDEST DUP2 DUP2 SUB DUP2 DUP2 GT ISZERO PUSH2 0xBF3 JUMPI PUSH2 0xBF3 PUSH2 0x3096 JUMP JUMPDEST DUP1 DUP3 ADD DUP1 DUP3 GT ISZERO PUSH2 0xBF3 JUMPI PUSH2 0xBF3 PUSH2 0x3096 JUMP JUMPDEST PUSH4 0x4E487B71 PUSH1 0xE0 SHL PUSH1 0x0 MSTORE PUSH1 0x31 PUSH1 0x4 MSTORE PUSH1 0x24 PUSH1 0x0 REVERT JUMPDEST PUSH1 0x0 DUP3 MLOAD PUSH2 0x314D DUP2 DUP5 PUSH1 0x20 DUP8 ADD PUSH2 0x2711 JUMP JUMPDEST SWAP2 SWAP1 SWAP2 ADD SWAP3 SWAP2 POP POP JUMP JUMPDEST PUSH1 0x1F DUP3 GT ISZERO PUSH2 0x31A1 JUMPI PUSH1 0x0 DUP2 DUP2 MSTORE PUSH1 0x20 DUP2 KECCAK256 PUSH1 0x1F DUP6 ADD PUSH1 0x5 SHR DUP2 ADD PUSH1 0x20 DUP7 LT ISZERO PUSH2 0x317E JUMPI POP DUP1 JUMPDEST PUSH1 0x1F DUP6 ADD PUSH1 0x5 SHR DUP3 ADD SWAP2 POP JUMPDEST DUP2 DUP2 LT ISZERO PUSH2 0x319D JUMPI DUP3 DUP2 SSTORE PUSH1 0x1 ADD PUSH2 0x318A JUMP JUMPDEST POP POP POP JUMPDEST POP POP POP JUMP JUMPDEST DUP2 MLOAD PUSH1 0x1 PUSH1 0x1 PUSH1 0x40 SHL SUB DUP2 GT ISZERO PUSH2 0x31BF JUMPI PUSH2 0x31BF PUSH2 0x2874 JUMP JUMPDEST PUSH2 0x31D3 DUP2 PUSH2 0x31CD DUP5 SLOAD PUSH2 0x30C5 JUMP JUMPDEST DUP5 PUSH2 0x3157 JUMP JUMPDEST PUSH1 0x20 DUP1 PUSH1 0x1F DUP4 GT PUSH1 0x1 DUP2 EQ PUSH2 0x3208 JUMPI PUSH1 0x0 DUP5 ISZERO PUSH2 0x31F0 JUMPI POP DUP6 DUP4 ADD MLOAD JUMPDEST PUSH1 0x0 NOT PUSH1 0x3 DUP7 SWAP1 SHL SHR NOT AND PUSH1 0x1 DUP6 SWAP1 SHL OR DUP6 SSTORE PUSH2 0x319D JUMP JUMPDEST PUSH1 0x0 DUP6 DUP2 MSTORE PUSH1 0x20 DUP2 KECCAK256 PUSH1 0x1F NOT DUP7 AND SWAP2 JUMPDEST DUP3 DUP2 LT ISZERO PUSH2 0x3237 JUMPI DUP9 DUP7 ADD MLOAD DUP3 SSTORE SWAP5 DUP5 ADD SWAP5 PUSH1 0x1 SWAP1 SWAP2 ADD SWAP1 DUP5 ADD PUSH2 0x3218 JUMP JUMPDEST POP DUP6 DUP3 LT ISZERO PUSH2 0x3255 JUMPI DUP8 DUP6 ADD MLOAD PUSH1 0x0 NOT PUSH1 0x3 DUP9 SWAP1 SHL PUSH1 0xF8 AND SHR NOT AND DUP2 SSTORE JUMPDEST POP POP POP POP POP PUSH1 0x1 SWAP1 DUP2 SHL ADD SWAP1 SSTORE POP JUMP JUMPDEST PUSH1 0x60 DUP2 MSTORE PUSH1 0x0 PUSH2 0x3278 PUSH1 0x60 DUP4 ADD DUP7 PUSH2 0x2735 JUMP JUMPDEST DUP3 DUP2 SUB PUSH1 0x20 DUP5 ADD MSTORE PUSH2 0x328A DUP2 DUP7 PUSH2 0x2735 JUMP JUMPDEST SWAP2 POP POP DUP3 PUSH1 0x40 DUP4 ADD MSTORE SWAP5 SWAP4 POP POP POP POP JUMP JUMPDEST PUSH1 0x0 DUP2 PUSH2 0x32AA JUMPI PUSH2 0x32AA PUSH2 0x3096 JUMP JUMPDEST POP PUSH1 0x0 NOT ADD SWAP1 JUMP JUMPDEST DUP2 DUP2 SUB PUSH2 0x32BD JUMPI POP POP JUMP JUMPDEST PUSH2 0x32C7 DUP3 SLOAD PUSH2 0x30C5 JUMP JUMPDEST PUSH1 0x1 PUSH1 0x1 PUSH1 0x40 SHL SUB DUP2 GT ISZERO PUSH2 0x32DE JUMPI PUSH2 0x32DE PUSH2 0x2874 JUMP JUMPDEST PUSH2 0x32EC DUP2 PUSH2 0x31CD DUP5 SLOAD PUSH2 0x30C5 JUMP JUMPDEST PUSH1 0x0 PUSH1 0x1F DUP3 GT PUSH1 0x1 DUP2 EQ PUSH2 0x3320 JUMPI PUSH1 0x0 DUP4 ISZERO PUSH2 0x3308 JUMPI POP DUP5 DUP3 ADD SLOAD JUMPDEST PUSH1 0x0 NOT PUSH1 0x3 DUP6 SWAP1 SHL SHR NOT AND PUSH1 0x1 DUP5 SWAP1 SHL OR DUP5 SSTORE PUSH2 0x8E1 JUMP JUMPDEST PUSH1 0x0 DUP6 DUP2 MSTORE PUSH1 0x20 SWAP1 KECCAK256 PUSH1 0x1F NOT DUP5 AND SWAP1 PUSH1 0x0 DUP7 DUP2 MSTORE PUSH1 0x20 SWAP1 KECCAK256 DUP5 JUMPDEST DUP4 DUP2 LT ISZERO PUSH2 0x335A JUMPI DUP3 DUP7 ADD SLOAD DUP3 SSTORE PUSH1 0x1 SWAP6 DUP7 ADD SWAP6 SWAP1 SWAP2 ADD SWAP1 PUSH1 0x20 ADD PUSH2 0x333A JUMP JUMPDEST POP DUP6 DUP4 LT ISZERO PUSH2 0x3255 JUMPI SWAP4 ADD SLOAD PUSH1 0x0 NOT PUSH1 0xF8 PUSH1 0x3 DUP8 SWAP1 SHL AND SHR NOT AND SWAP1 SWAP3 SSTORE POP POP PUSH1 0x1 SWAP1 DUP2 SHL ADD SWAP1 SSTORE POP JUMP JUMPDEST PUSH1 0x80 DUP2 MSTORE PUSH1 0x0 PUSH2 0x3397 PUSH1 0x80 DUP4 ADD DUP8 PUSH2 0x2735 JUMP JUMPDEST PUSH1 0x20 DUP4 ADD SWAP6 SWAP1 SWAP6 MSTORE POP PUSH1 0x40 DUP2 ADD SWAP3 SWAP1 SWAP3 MSTORE PUSH1 0x60 SWAP1 SWAP2 ADD MSTORE SWAP2 SWAP1 POP JUMP JUMPDEST PUSH1 0x0 DUP3 PUSH2 0x33D0 JUMPI PUSH4 0x4E487B71 PUSH1 0xE0 SHL PUSH1 0x0 MSTORE PUSH1 0x12 PUSH1 0x4 MSTORE PUSH1 0x24 PUSH1 0x0 REVERT JUMPDEST POP DIV SWAP1 JUMP INVALID LOG2 PUSH5 0x6970667358 0x22 SLT KECCAK256 0xE0 PUSH32 0xDF8A1A3EBB75F7C7078D7BA65C085D16AD53550B86282F6E93C96472D4656473 PUSH16 0x6C634300081400330000000000000000 "},"methodIdentifiers":{"MAX_EVOLUTION_HISTORY()":"984b429e","MAX_LEARNING_CURVE_POINTS()":"3224b395","MAX_RECENT_TASKS()":"f63540fb","activateAgent(address)":"4e81ba8e","agentAddresses(uint256)":"a7676a63","agentBiddingStrategies(address)":"d2badd54","agentWorkload(address)":"b696ae5b","agents(address)":"fd66091e","capabilityWeights(address,string)":"78375af6","deactivateAgent(address)":"b0a0a927","decrementWorkload(address)":"f21e7f26","getAgentBiddingStrategy(address)":"877dd2e3","getAgentCount()":"91cab63e","getAgentLearningState(address)":"0f85a257","getAgentRecentTasks(address)":"6033f508","getAgentReputation(address)":"ebeae587","getAllAgents()":"860e4ac6","getCapabilities(address)":"991ef171","getCapabilityEvolutionHistory(address)":"7b24da55","getLearningCurve(address)":"d4b5cbd0","getReputation(address)":"9c89a0e2","incrementWorkload(address)":"27893d8e","isActiveAgent(address)":"65e1e466","owner()":"8da5cb5b","recordCapabilityEvolution(address,string,uint256,uint256,bytes32)":"2a884371","recordTaskScore(address,bytes32,uint256)":"9092cbf4","registerAgent(string,string,uint8)":"a970c8e0","renounceOwnership()":"715018a6","resetWorkload(address)":"2538b153","setCapabilities(address,string[],uint256[])":"ecd5e358","setReputation(address,uint256)":"b120c16a","transferOwnership(address)":"f2fde38b","updateAgent(string,string)":"a6631e2f","updateBiddingStrategy(address,uint256,uint256)":"a6f3d0f9"}}}}}