{
  "_format": "hh-sol-artifact-1",
  "contractName": "BidAuction",
  "sourceName": "core/BidAuction.sol",
  "abi": [
    {
      "inputs": [
        {
          "internalType": "address",
          "name": "_agentRegistryAddress",
          "type": "address"
        },
        {
          "internalType": "address",
          "name": "_taskManagerAddress",
          "type": "address"
        }
      ],
      "stateMutability": "nonpayable",
      "type": "constructor"
    },
    {
      "inputs": [
        {
          "internalType": "address",
          "name": "owner",
          "type": "address"
        }
      ],
      "name": "OwnableInvalidOwner",
      "type": "error"
    },
    {
      "inputs": [
        {
          "internalType": "address",
          "name": "account",
          "type": "address"
        }
      ],
      "name": "OwnableUnauthorizedAccount",
      "type": "error"
    },
    {
      "anonymous": false,
      "inputs": [
        {
          "indexed": true,
          "internalType": "bytes32",
          "name": "taskId",
          "type": "bytes32"
        },
        {
          "indexed": true,
          "internalType": "address",
          "name": "agent",
          "type": "address"
        },
        {
          "indexed": false,
          "internalType": "uint256",
          "name": "utilityScore",
          "type": "uint256"
        },
        {
          "indexed": false,
          "internalType": "uint256",
          "name": "bidAmount",
          "type": "uint256"
        },
        {
          "indexed": false,
          "internalType": "uint256",
          "name": "timestamp",
          "type": "uint256"
        }
      ],
      "name": "BidPlaced",
      "type": "event"
    },
    {
      "anonymous": false,
      "inputs": [
        {
          "indexed": true,
          "internalType": "bytes32",
          "name": "taskId",
          "type": "bytes32"
        },
        {
          "indexed": false,
          "internalType": "uint256",
          "name": "bidCount",
          "type": "uint256"
        },
        {
          "indexed": false,
          "internalType": "uint256",
          "name": "timestamp",
          "type": "uint256"
        }
      ],
      "name": "BiddingClosed",
      "type": "event"
    },
    {
      "anonymous": false,
      "inputs": [
        {
          "indexed": true,
          "internalType": "bytes32",
          "name": "taskId",
          "type": "bytes32"
        },
        {
          "indexed": false,
          "internalType": "uint256",
          "name": "deadline",
          "type": "uint256"
        },
        {
          "indexed": false,
          "internalType": "uint256",
          "name": "timestamp",
          "type": "uint256"
        }
      ],
      "name": "BiddingOpened",
      "type": "event"
    },
    {
      "anonymous": false,
      "inputs": [
        {
          "indexed": true,
          "internalType": "address",
          "name": "previousOwner",
          "type": "address"
        },
        {
          "indexed": true,
          "internalType": "address",
          "name": "newOwner",
          "type": "address"
        }
      ],
      "name": "OwnershipTransferred",
      "type": "event"
    },
    {
      "anonymous": false,
      "inputs": [
        {
          "indexed": true,
          "internalType": "bytes32",
          "name": "taskId",
          "type": "bytes32"
        },
        {
          "indexed": true,
          "internalType": "address",
          "name": "agent",
          "type": "address"
        },
        {
          "indexed": false,
          "internalType": "uint256",
          "name": "utilityScore",
          "type": "uint256"
        },
        {
          "indexed": false,
          "internalType": "uint256",
          "name": "bidAmount",
          "type": "uint256"
        },
        {
          "indexed": false,
          "internalType": "uint256",
          "name": "timestamp",
          "type": "uint256"
        }
      ],
      "name": "TaskAssigned",
      "type": "event"
    },
    {
      "anonymous": false,
      "inputs": [
        {
          "indexed": true,
          "internalType": "bytes32",
          "name": "taskId",
          "type": "bytes32"
        },
        {
          "indexed": true,
          "internalType": "address",
          "name": "agent",
          "type": "address"
        },
        {
          "indexed": false,
          "internalType": "uint256",
          "name": "calculatedUtility",
          "type": "uint256"
        },
        {
          "indexed": false,
          "internalType": "uint256",
          "name": "timestamp",
          "type": "uint256"
        }
      ],
      "name": "UtilityCalculated",
      "type": "event"
    },
    {
      "inputs": [],
      "name": "agentRegistry",
      "outputs": [
        {
          "internalType": "contract AgentRegistry",
          "name": "",
          "type": "address"
        }
      ],
      "stateMutability": "view",
      "type": "function"
    },
    {
      "inputs": [
        {
          "internalType": "bytes32",
          "name": "taskId",
          "type": "bytes32"
        },
        {
          "internalType": "address",
          "name": "agent",
          "type": "address"
        }
      ],
      "name": "assignTaskManually",
      "outputs": [],
      "stateMutability": "nonpayable",
      "type": "function"
    },
    {
      "inputs": [
        {
          "internalType": "bytes32",
          "name": "",
          "type": "bytes32"
        }
      ],
      "name": "biddingDeadlines",
      "outputs": [
        {
          "internalType": "uint256",
          "name": "",
          "type": "uint256"
        }
      ],
      "stateMutability": "view",
      "type": "function"
    },
    {
      "inputs": [
        {
          "internalType": "bytes32",
          "name": "taskId",
          "type": "bytes32"
        },
        {
          "internalType": "address",
          "name": "agent",
          "type": "address"
        }
      ],
      "name": "calculateAgentUtility",
      "outputs": [
        {
          "internalType": "uint256",
          "name": "",
          "type": "uint256"
        }
      ],
      "stateMutability": "view",
      "type": "function"
    },
    {
      "inputs": [
        {
          "internalType": "bytes32",
          "name": "taskId",
          "type": "bytes32"
        }
      ],
      "name": "closeBidding",
      "outputs": [],
      "stateMutability": "nonpayable",
      "type": "function"
    },
    {
      "inputs": [
        {
          "internalType": "bytes32",
          "name": "taskId",
          "type": "bytes32"
        }
      ],
      "name": "getAllBids",
      "outputs": [
        {
          "components": [
            {
              "internalType": "address",
              "name": "agent",
              "type": "address"
            },
            {
              "internalType": "bytes32",
              "name": "taskId",
              "type": "bytes32"
            },
            {
              "internalType": "uint256",
              "name": "utilityScore",
              "type": "uint256"
            },
            {
              "internalType": "uint256",
              "name": "bidAmount",
              "type": "uint256"
            },
            {
              "internalType": "uint256",
              "name": "timestamp",
              "type": "uint256"
            },
            {
              "internalType": "bytes",
              "name": "signature",
              "type": "bytes"
            },
            {
              "internalType": "bool",
              "name": "selected",
              "type": "bool"
            }
          ],
          "internalType": "struct BidAuction.Bid[]",
          "name": "",
          "type": "tuple[]"
        }
      ],
      "stateMutability": "view",
      "type": "function"
    },
    {
      "inputs": [
        {
          "internalType": "bytes32",
          "name": "taskId",
          "type": "bytes32"
        }
      ],
      "name": "getTaskBids",
      "outputs": [
        {
          "internalType": "address[]",
          "name": "agents",
          "type": "address[]"
        },
        {
          "internalType": "uint256[]",
          "name": "utilityScores",
          "type": "uint256[]"
        },
        {
          "internalType": "uint256[]",
          "name": "bidAmounts",
          "type": "uint256[]"
        },
        {
          "internalType": "uint256[]",
          "name": "timestamps",
          "type": "uint256[]"
        }
      ],
      "stateMutability": "view",
      "type": "function"
    },
    {
      "inputs": [
        {
          "internalType": "bytes32",
          "name": "taskId",
          "type": "bytes32"
        }
      ],
      "name": "getWinningBid",
      "outputs": [
        {
          "internalType": "address",
          "name": "agent",
          "type": "address"
        },
        {
          "internalType": "uint256",
          "name": "utilityScore",
          "type": "uint256"
        },
        {
          "internalType": "uint256",
          "name": "bidAmount",
          "type": "uint256"
        },
        {
          "internalType": "uint256",
          "name": "timestamp",
          "type": "uint256"
        }
      ],
      "stateMutability": "view",
      "type": "function"
    },
    {
      "inputs": [
        {
          "internalType": "bytes32",
          "name": "taskId",
          "type": "bytes32"
        },
        {
          "internalType": "address",
          "name": "agent",
          "type": "address"
        }
      ],
      "name": "hasAgentBid",
      "outputs": [
        {
          "internalType": "bool",
          "name": "",
          "type": "bool"
        }
      ],
      "stateMutability": "view",
      "type": "function"
    },
    {
      "inputs": [],
      "name": "incentiveEngine",
      "outputs": [
        {
          "internalType": "contract IncentiveEngine",
          "name": "",
          "type": "address"
        }
      ],
      "stateMutability": "view",
      "type": "function"
    },
    {
      "inputs": [
        {
          "internalType": "bytes32",
          "name": "taskId",
          "type": "bytes32"
        }
      ],
      "name": "isBiddingOpen",
      "outputs": [
        {
          "internalType": "bool",
          "name": "",
          "type": "bool"
        }
      ],
      "stateMutability": "view",
      "type": "function"
    },
    {
      "inputs": [
        {
          "internalType": "bytes32",
          "name": "taskId",
          "type": "bytes32"
        },
        {
          "internalType": "uint256",
          "name": "biddingDuration",
          "type": "uint256"
        }
      ],
      "name": "openBidding",
      "outputs": [],
      "stateMutability": "nonpayable",
      "type": "function"
    },
    {
      "inputs": [],
      "name": "owner",
      "outputs": [
        {
          "internalType": "address",
          "name": "",
          "type": "address"
        }
      ],
      "stateMutability": "view",
      "type": "function"
    },
    {
      "inputs": [
        {
          "internalType": "bytes32",
          "name": "taskId",
          "type": "bytes32"
        },
        {
          "internalType": "uint256",
          "name": "bidAmount",
          "type": "uint256"
        }
      ],
      "name": "placeBid",
      "outputs": [],
      "stateMutability": "nonpayable",
      "type": "function"
    },
    {
      "inputs": [
        {
          "internalType": "bytes32",
          "name": "taskId",
          "type": "bytes32"
        },
        {
          "internalType": "uint256",
          "name": "utilityScore",
          "type": "uint256"
        },
        {
          "internalType": "uint256",
          "name": "bidAmount",
          "type": "uint256"
        },
        {
          "internalType": "bytes",
          "name": "signature",
          "type": "bytes"
        },
        {
          "internalType": "uint256",
          "name": "nonce",
          "type": "uint256"
        }
      ],
      "name": "placeBidWithSignature",
      "outputs": [],
      "stateMutability": "nonpayable",
      "type": "function"
    },
    {
      "inputs": [],
      "name": "renounceOwnership",
      "outputs": [],
      "stateMutability": "nonpayable",
      "type": "function"
    },
    {
      "inputs": [
        {
          "internalType": "address",
          "name": "_incentiveEngineAddress",
          "type": "address"
        }
      ],
      "name": "setIncentiveEngine",
      "outputs": [],
      "stateMutability": "nonpayable",
      "type": "function"
    },
    {
      "inputs": [
        {
          "internalType": "bytes32",
          "name": "",
          "type": "bytes32"
        }
      ],
      "name": "taskAssigned",
      "outputs": [
        {
          "internalType": "bool",
          "name": "",
          "type": "bool"
        }
      ],
      "stateMutability": "view",
      "type": "function"
    },
    {
      "inputs": [
        {
          "internalType": "bytes32",
          "name": "",
          "type": "bytes32"
        },
        {
          "internalType": "uint256",
          "name": "",
          "type": "uint256"
        }
      ],
      "name": "taskBids",
      "outputs": [
        {
          "internalType": "address",
          "name": "agent",
          "type": "address"
        },
        {
          "internalType": "bytes32",
          "name": "taskId",
          "type": "bytes32"
        },
        {
          "internalType": "uint256",
          "name": "utilityScore",
          "type": "uint256"
        },
        {
          "internalType": "uint256",
          "name": "bidAmount",
          "type": "uint256"
        },
        {
          "internalType": "uint256",
          "name": "timestamp",
          "type": "uint256"
        },
        {
          "internalType": "bytes",
          "name": "signature",
          "type": "bytes"
        },
        {
          "internalType": "bool",
          "name": "selected",
          "type": "bool"
        }
      ],
      "stateMutability": "view",
      "type": "function"
    },
    {
      "inputs": [],
      "name": "taskManager",
      "outputs": [
        {
          "internalType": "contract TaskManager",
          "name": "",
          "type": "address"
        }
      ],
      "stateMutability": "view",
      "type": "function"
    },
    {
      "inputs": [
        {
          "internalType": "address",
          "name": "newOwner",
          "type": "address"
        }
      ],
      "name": "transferOwnership",
      "outputs": [],
      "stateMutability": "nonpayable",
      "type": "function"
    }
  ],
  "bytecode": "0x60806040523480156200001157600080fd5b50604051620026c7380380620026c7833981016040819052620000349162000106565b33806200005b57604051631e4fbdf760e01b81526000600482015260240160405180910390fd5b620000668162000099565b50600180546001600160a01b039384166001600160a01b031991821617909155600280549290931691161790556200013e565b600080546001600160a01b038381166001600160a01b0319831681178455604051919092169283917f8be0079c531659141344cd1fd0a4f28419497f9722a3daafe3b4186f6b6457e09190a35050565b80516001600160a01b03811681146200010157600080fd5b919050565b600080604083850312156200011a57600080fd5b6200012583620000e9565b91506200013560208401620000e9565b90509250929050565b612579806200014e6000396000f3fe608060405234801561001057600080fd5b50600436106101375760003560e01c80638da5cb5b116100b8578063bca1aaa31161007c578063bca1aaa3146102f3578063cc1f537314610306578063eb4f32cf14610326578063ec45bd2e14610339578063f150b9df1461034c578063f2fde38b1461035f57600080fd5b80638da5cb5b146102735780639b3a178914610284578063a50a640e14610297578063a6eecb72146102aa578063b842f410146102d057600080fd5b806364a0c3f5116100ff57806364a0c3f5146101f45780636a279bbb14610217578063715018a61461022a5780637cf15662146102325780638d1fc13c1461026057600080fd5b806306b4da071461013c5780630d1cfcae1461015157806310d170db1461018157806313578290146101a45780635a19cdb4146101b7575b600080fd5b61014f61014a366004611cfd565b610372565b005b600154610164906001600160a01b031681565b6040516001600160a01b0390911681526020015b60405180910390f35b61019461018f366004611d21565b61039c565b6040519015158152602001610178565b61014f6101b2366004611d51565b61041a565b6101ca6101c5366004611d73565b61060a565b604080516001600160a01b0390951685526020850193909352918301526060820152608001610178565b610207610202366004611d73565b6107b2565b6040516101789493929190611dc7565b61014f610225366004611d73565b610a2e565b61014f610fca565b610252610240366004611d73565b60056020526000908152604090205481565b604051908152602001610178565b61025261026e366004611d21565b610fde565b6000546001600160a01b0316610164565b600354610164906001600160a01b031681565b600254610164906001600160a01b031681565b6102bd6102b8366004611d51565b611158565b6040516101789796959493929190611e96565b6101946102de366004611d73565b60066020526000908152604090205460ff1681565b61014f610301366004611d51565b61124d565b610319610314366004611d73565b61153c565b6040516101789190611ee5565b61014f61033436600461200d565b611691565b61014f610347366004611d21565b611a56565b61019461035a366004611d73565b611c00565b61014f61036d366004611cfd565b611c2d565b61037a611c6b565b600380546001600160a01b0319166001600160a01b0392909216919091179055565b6000828152600460205260408120815b815481101561040d57836001600160a01b03168282815481106103d1576103d16120b2565b60009182526020909120600790910201546001600160a01b0316036103fb57600192505050610414565b80610405816120de565b9150506103ac565b5060009150505b92915050565b806000036104275750610e105b600254604051639ba7799960e01b81526004810184905233916001600160a01b031690639ba7799990602401602060405180830381865afa158015610470573d6000803e3d6000fd5b505050506040513d601f19601f8201168201806040525081019061049491906120f7565b6001600160a01b031614806104c25750336104b76000546001600160a01b031690565b6001600160a01b0316145b6105045760405162461bcd60e51b815260206004820152600e60248201526d139bdd08185d5d1a1bdc9a5e995960921b60448201526064015b60405180910390fd5b600254604051632bf6cc7960e01b8152600481018490526001916001600160a01b031690632bf6cc7990602401602060405180830381865afa15801561054e573d6000803e3d6000fd5b505050506040513d601f19601f82011682018060405250810190610572919061212a565b600681111561058357610583612114565b146105a05760405162461bcd60e51b81526004016104fb9061214b565b60006105ac824261217b565b600084815260056020526040908190208290555190915083907f09159b8bcc1a884cc73fa6a5db07b4473f4169fd7b0010e792a6a63c30c195dc906105fd9084904290918252602082015260400190565b60405180910390a2505050565b60008181526006602052604081205481908190819060ff166106665760405162461bcd60e51b815260206004820152601560248201527415185cdac81b9bdd08185cdcda59db9959081e595d605a1b60448201526064016104fb565b6000858152600460205260408120905b815481101561076b57818181548110610691576106916120b2565b600091825260209091206006600790920201015460ff1615610759578181815481106106bf576106bf6120b2565b600091825260209091206007909102015482546001600160a01b03909116908390839081106106f0576106f06120b2565b906000526020600020906007020160020154838381548110610714576107146120b2565b906000526020600020906007020160030154848481548110610738576107386120b2565b906000526020600020906007020160040154955095509550955050506107ab565b80610763816120de565b915050610676565b5060405162461bcd60e51b8152602060048201526014602482015273139bc81dda5b9b9a5b99c8189a5908199bdd5b9960621b60448201526064016104fb565b9193509193565b600081815260046020526040902080546060918291829182918067ffffffffffffffff8111156107e4576107e4611f9e565b60405190808252806020026020018201604052801561080d578160200160208202803683370190505b5095508067ffffffffffffffff81111561082957610829611f9e565b604051908082528060200260200182016040528015610852578160200160208202803683370190505b5094508067ffffffffffffffff81111561086e5761086e611f9e565b604051908082528060200260200182016040528015610897578160200160208202803683370190505b5093508067ffffffffffffffff8111156108b3576108b3611f9e565b6040519080825280602002602001820160405280156108dc578160200160208202803683370190505b50925060005b81811015610a24578281815481106108fc576108fc6120b2565b600091825260209091206007909102015487516001600160a01b039091169088908390811061092d5761092d6120b2565b60200260200101906001600160a01b031690816001600160a01b03168152505082818154811061095f5761095f6120b2565b906000526020600020906007020160020154868281518110610983576109836120b2565b6020026020010181815250508281815481106109a1576109a16120b2565b9060005260206000209060070201600301548582815181106109c5576109c56120b2565b6020026020010181815250508281815481106109e3576109e36120b2565b906000526020600020906007020160040154848281518110610a0757610a076120b2565b602090810291909101015280610a1c816120de565b9150506108e2565b5050509193509193565b600254604051639ba7799960e01b81526004810183905233916001600160a01b031690639ba7799990602401602060405180830381865afa158015610a77573d6000803e3d6000fd5b505050506040513d601f19601f82011682018060405250810190610a9b91906120f7565b6001600160a01b03161480610ac9575033610abe6000546001600160a01b031690565b6001600160a01b0316145b610b065760405162461bcd60e51b815260206004820152600e60248201526d139bdd08185d5d1a1bdc9a5e995960921b60448201526064016104fb565b600081815260056020526040902054610b315760405162461bcd60e51b81526004016104fb9061218e565b600081815260056020526040902054421015610b8f5760405162461bcd60e51b815260206004820152601f60248201527f42696464696e6720646561646c696e65206e6f7420796574207061737365640060448201526064016104fb565b60008181526006602052604090205460ff1615610be65760405162461bcd60e51b815260206004820152601560248201527415185cdac8185b1c9958591e48185cdcda59db9959605a1b60448201526064016104fb565b60008181526004602052604090208054610c355760405162461bcd60e51b815260206004820152601060248201526f139bc8189a591cc81c9958d95a5d995960821b60448201526064016104fb565b6000806000805b8454811015610db9576000858281548110610c5957610c596120b2565b60009182526020822060035460079290920201805460405163ebeae58760e01b81526001600160a01b0391821660048201529194509091169063ebeae58790602401602060405180830381865afa158015610cb8573d6000803e3d6000fd5b505050506040513d601f19601f82011682018060405250810190610cdc91906121b8565b6002830154600354919250906001600160a01b031615610d58578254610d0c908a906001600160a01b0316610fde565b8354604080518381524260208201529293506001600160a01b03909116918b917f84efbfa7bce76ebfaf35d99431e74a605453fbceee707aba6b5ad5977a5d8af5910160405180910390a35b600061271084600301548484610d6e91906121d1565b610d7891906121d1565b610d8291906121e8565b905086811115610da25783546001600160a01b0316975095509293508392855b505050508080610db1906120de565b915050610c3c565b506001848281548110610dce57610dce6120b2565b6000918252602080832060066007909302018201805494151560ff1995861617905588835252604090819020805490921660011790915560025490516338a8b2f760e11b81526001600160a01b039091169063715165ee90610e4890889087906004019182526001600160a01b0316602082015260400190565b600060405180830381600087803b158015610e6257600080fd5b505af1158015610e76573d6000803e3d6000fd5b50506003546001600160a01b0316159150610ef4905057600354604051634b7b407560e11b81526001600160a01b03858116600483015260248201889052909116906396f680ea90604401600060405180830381600087803b158015610edb57600080fd5b505af1158015610eef573d6000803e3d6000fd5b505050505b83546040805191825242602083015286917f8f372b934a962afea59e1edb5e1ed82692b33232eaf03c3f0d3b44db09ded837910160405180910390a2826001600160a01b0316857ff058212685f468c4838bde2cbbe026f803f06d7e868e50feca63fa646e293ca0868481548110610f6e57610f6e6120b2565b906000526020600020906007020160020154878581548110610f9257610f926120b2565b600091825260209182902060036007909202010154604080519384529183015242908201526060015b60405180910390a35050505050565b610fd2611c6b565b610fdc6000611c98565b565b600254604051632bb8e45760e01b815260048101849052600091829182916001600160a01b031690632bb8e45790602401600060405180830381865afa15801561102c573d6000803e3d6000fd5b505050506040513d6000823e601f3d908101601f19168201604052611054919081019061220a565b50506003546040516339e1832f60e01b81526001600160a01b038a81166004830152949750929550600094509290921691506339e1832f90602401602060405180830381865afa1580156110ac573d6000803e3d6000fd5b505050506040513d601f19601f820116820180604052508101906110d091906121b8565b6003546040516323f51ab360e21b81529192506000916001600160a01b0390911690638fd46acc9061110c90899087908990889060040161235c565b602060405180830381865afa158015611129573d6000803e3d6000fd5b505050506040513d601f19601f8201168201806040525081019061114d91906121b8565b979650505050505050565b6004602052816000526040600020818154811061117457600080fd5b60009182526020909120600790910201805460018201546002830154600384015460048501546005860180546001600160a01b03909616985093965091949093919290916111c1906123d8565b80601f01602080910402602001604051908101604052809291908181526020018280546111ed906123d8565b801561123a5780601f1061120f5761010080835404028352916020019161123a565b820191906000526020600020905b81548152906001019060200180831161121d57829003601f168201915b5050506006909301549192505060ff1687565b6001546040516332f0f23360e11b81523360048201526001600160a01b03909116906365e1e46690602401602060405180830381865afa158015611295573d6000803e3d6000fd5b505050506040513d601f19601f820116820180604052508101906112b99190612412565b6113055760405162461bcd60e51b815260206004820152601d60248201527f4e6f742061207265676973746572656420616374697665206167656e7400000060448201526064016104fb565b6000828152600560205260409020546113305760405162461bcd60e51b81526004016104fb9061218e565b60008281526005602052604090205442106113875760405162461bcd60e51b8152602060048201526017602482015276109a59191a5b99c8191958591b1a5b99481c185cdcd959604a1b60448201526064016104fb565b600254604051632bf6cc7960e01b8152600481018490526001916001600160a01b031690632bf6cc7990602401602060405180830381865afa1580156113d1573d6000803e3d6000fd5b505050506040513d601f19601f820116820180604052508101906113f5919061212a565b600681111561140657611406612114565b146114235760405162461bcd60e51b81526004016104fb9061214b565b604080516020808201835260008083528581526004808352848220855160e0810187523381528085018981526032978201888152606083018a8152426080850181815260a086018b815260c087018a9052875460018082018a55988b529a90992086516007909b020180546001600160a01b0319166001600160a01b03909b169a909a178a5593519589019590955590516002880155516003870155519285019290925591519192909160058201906114dc9082612483565b5060c091909101516006909101805460ff191691151591909117905560408051848152602081018690524291810191909152339086907f63a6c54225ab867f091566413073a6f1614ac19637de731cb014261fea0556d790606001610fbb565b606060046000838152602001908152602001600020805480602002602001604051908101604052809291908181526020016000905b828210156116865760008481526020908190206040805160e0810182526007860290920180546001600160a01b03168352600181015493830193909352600283015490820152600382015460608201526004820154608082015260058201805491929160a0840191906115e3906123d8565b80601f016020809104026020016040519081016040528092919081815260200182805461160f906123d8565b801561165c5780601f106116315761010080835404028352916020019161165c565b820191906000526020600020905b81548152906001019060200180831161163f57829003601f168201915b50505091835250506006919091015460ff1615156020918201529082526001929092019101611571565b505050509050919050565b6001546040516332f0f23360e11b81523360048201526001600160a01b03909116906365e1e46690602401602060405180830381865afa1580156116d9573d6000803e3d6000fd5b505050506040513d601f19601f820116820180604052508101906116fd9190612412565b6117495760405162461bcd60e51b815260206004820152601d60248201527f4e6f742061207265676973746572656420616374697665206167656e7400000060448201526064016104fb565b6000858152600560205260409020546117745760405162461bcd60e51b81526004016104fb9061218e565b60008581526005602052604090205442106117cb5760405162461bcd60e51b8152602060048201526017602482015276109a59191a5b99c8191958591b1a5b99481c185cdcd959604a1b60448201526064016104fb565b600254604051632bf6cc7960e01b8152600481018790526001916001600160a01b031690632bf6cc7990602401602060405180830381865afa158015611815573d6000803e3d6000fd5b505050506040513d601f19601f82011682018060405250810190611839919061212a565b600681111561184a5761184a612114565b146118675760405162461bcd60e51b81526004016104fb9061214b565b33600090815260076020908152604080832084845290915290205460ff16156118c75760405162461bcd60e51b8152602060048201526012602482015271139bdb98d948185b1c9958591e481d5cd95960721b60448201526064016104fb565b3360009081526007602090815260408083208484529091529020805460ff1916600117905560648411156119495760405162461bcd60e51b815260206004820152602360248201527f5574696c6974792073636f7265206d757374206265206265747765656e20302d60448201526203130360ec1b60648201526084016104fb565b6000858152600460208181526040808420815160e0810183523381528084018b81529281018a8152606082018a8152426080840190815260a084018b815260c085018a9052855460018082018855968b5297909920845160079098020180546001600160a01b0319166001600160a01b0390981697909717875594519386019390935551600285015590516003840155905192820192909255915190919060058201906119f69082612483565b5060c091909101516006909101805460ff191691151591909117905560408051858152602081018590524291810191909152339086907f63a6c54225ab867f091566413073a6f1614ac19637de731cb014261fea0556d790606001610fbb565b611a5e611c6b565b60008281526006602052604090205460ff1615611ab55760405162461bcd60e51b815260206004820152601560248201527415185cdac8185b1c9958591e48185cdcda59db9959605a1b60448201526064016104fb565b60008281526006602052604090819020805460ff1916600117905560025490516338a8b2f760e11b8152600481018490526001600160a01b0383811660248301529091169063715165ee90604401600060405180830381600087803b158015611b1d57600080fd5b505af1158015611b31573d6000803e3d6000fd5b50506003546001600160a01b0316159150611baf905057600354604051634b7b407560e11b81526001600160a01b03838116600483015260248201859052909116906396f680ea90604401600060405180830381600087803b158015611b9657600080fd5b505af1158015611baa573d6000803e3d6000fd5b505050505b604080516032815260006020820152428183015290516001600160a01b0383169184917ff058212685f468c4838bde2cbbe026f803f06d7e868e50feca63fa646e293ca09181900360600190a35050565b60008181526005602052604081205415801590610414575050600090815260056020526040902054421090565b611c35611c6b565b6001600160a01b038116611c5f57604051631e4fbdf760e01b8152600060048201526024016104fb565b611c6881611c98565b50565b6000546001600160a01b03163314610fdc5760405163118cdaa760e01b81523360048201526024016104fb565b600080546001600160a01b038381166001600160a01b0319831681178455604051919092169283917f8be0079c531659141344cd1fd0a4f28419497f9722a3daafe3b4186f6b6457e09190a35050565b6001600160a01b0381168114611c6857600080fd5b600060208284031215611d0f57600080fd5b8135611d1a81611ce8565b9392505050565b60008060408385031215611d3457600080fd5b823591506020830135611d4681611ce8565b809150509250929050565b60008060408385031215611d6457600080fd5b50508035926020909101359150565b600060208284031215611d8557600080fd5b5035919050565b600081518084526020808501945080840160005b83811015611dbc57815187529582019590820190600101611da0565b509495945050505050565b6080808252855190820181905260009060209060a0840190828901845b82811015611e095781516001600160a01b031684529284019290840190600101611de4565b50505083810382850152611e1d8188611d8c565b9150508281036040840152611e328186611d8c565b9050828103606084015261114d8185611d8c565b60005b83811015611e61578181015183820152602001611e49565b50506000910152565b60008151808452611e82816020860160208601611e46565b601f01601f19169290920160200192915050565b60018060a01b038816815286602082015285604082015284606082015283608082015260e060a08201526000611ecf60e0830185611e6a565b905082151560c083015298975050505050505050565b60006020808301818452808551808352604092508286019150828160051b87010184880160005b83811015611f9057888303603f19018552815180516001600160a01b0316845287810151888501528681015187850152606080820151908501526080808201519085015260a08082015160e08287018190529190611f6c83880182611e6a565b60c09485015115159790940196909652505094870194925090860190600101611f0c565b509098975050505050505050565b634e487b7160e01b600052604160045260246000fd5b604051601f8201601f1916810167ffffffffffffffff81118282101715611fdd57611fdd611f9e565b604052919050565b600067ffffffffffffffff821115611fff57611fff611f9e565b50601f01601f191660200190565b600080600080600060a0868803121561202557600080fd5b853594506020860135935060408601359250606086013567ffffffffffffffff81111561205157600080fd5b8601601f8101881361206257600080fd5b803561207561207082611fe5565b611fb4565b81815289602083850101111561208a57600080fd5b8160208401602083013760009181016020019190915295989497509295608001359392505050565b634e487b7160e01b600052603260045260246000fd5b634e487b7160e01b600052601160045260246000fd5b6000600182016120f0576120f06120c8565b5060010190565b60006020828403121561210957600080fd5b8151611d1a81611ce8565b634e487b7160e01b600052602160045260246000fd5b60006020828403121561213c57600080fd5b815160078110611d1a57600080fd5b6020808252601690820152755461736b206e6f7420696e204f70656e20737461746560501b604082015260600190565b80820180821115610414576104146120c8565b60208082526010908201526f2134b23234b733903737ba1037b832b760811b604082015260600190565b6000602082840312156121ca57600080fd5b5051919050565b8082028115828204841417610414576104146120c8565b60008261220557634e487b7160e01b600052601260045260246000fd5b500490565b60008060008060008060c0878903121561222357600080fd5b865161222e81611ce8565b60208801516040890151919750955067ffffffffffffffff81111561225257600080fd5b8701601f8101891361226357600080fd5b805167ffffffffffffffff81111561227d5761227d611f9e565b61228c60208260051b01611fb4565b808282526020820191508b60208460051b86010111156122ab57600080fd5b602084015b60208460051b86010181101561233557805167ffffffffffffffff8111156122d757600080fd5b8d603f82880101126122e857600080fd5b602081870101516122fb61207082611fe5565b8181528f604083858b010101111561231257600080fd5b61232582602083016040868c0101611e46565b85525050602092830192016122b0565b5080975050505050606087015192506080870151915060a087015190509295509295509295565b60006080820160018060a01b0387168352602060808185015281875180845260a08601915060a08160051b870101935082890160005b828110156123c057609f198887030184526123ae868351611e6a565b95509284019290840190600101612392565b50505050506040830194909452506060015292915050565b600181811c908216806123ec57607f821691505b60208210810361240c57634e487b7160e01b600052602260045260246000fd5b50919050565b60006020828403121561242457600080fd5b81518015158114611d1a57600080fd5b601f82111561247e57600081815260208120601f850160051c8101602086101561245b5750805b601f850160051c820191505b8181101561247a57828155600101612467565b5050505b505050565b815167ffffffffffffffff81111561249d5761249d611f9e565b6124b1816124ab84546123d8565b84612434565b602080601f8311600181146124e657600084156124ce5750858301515b600019600386901b1c1916600185901b17855561247a565b600085815260208120601f198616915b82811015612515578886015182559484019460019091019084016124f6565b50858210156125335787850151600019600388901b60f8161c191681555b5050505050600190811b0190555056fea26469706673582212204c8e3ac7fd732cd328c0b344de8a6efb259719f3ad331a751dbe732831a120d364736f6c63430008140033",
  "linkReferences": {},
  "deployedLinkReferences": {}
}