{
  "_format": "hh-sol-artifact-1",
  "contractName": "IncentiveEngine",
  "sourceName": "core/IncentiveEngine.sol",
  "abi": [
    {
      "inputs": [
        {
          "internalType": "address",
          "name": "_agentRegistryAddress",
          "type": "address"
        }
      ],
      "stateMutability": "nonpayable",
      "type": "constructor"
    },
    {
      "inputs": [
        {
          "internalType": "address",
          "name": "owner",
          "type": "address"
        }
      ],
      "name": "OwnableInvalidOwner",
      "type": "error"
    },
    {
      "inputs": [
        {
          "internalType": "address",
          "name": "account",
          "type": "address"
        }
      ],
      "name": "OwnableUnauthorizedAccount",
      "type": "error"
    },
    {
      "anonymous": false,
      "inputs": [
        {
          "indexed": true,
          "internalType": "address",
          "name": "agent",
          "type": "address"
        },
        {
          "indexed": true,
          "internalType": "bytes32",
          "name": "taskId",
          "type": "bytes32"
        },
        {
          "indexed": false,
          "internalType": "string",
          "name": "reason",
          "type": "string"
        },
        {
          "indexed": false,
          "internalType": "uint256",
          "name": "timestamp",
          "type": "uint256"
        }
      ],
      "name": "AgentPenalized",
      "type": "event"
    },
    {
      "anonymous": false,
      "inputs": [
        {
          "indexed": true,
          "internalType": "bytes32",
          "name": "taskId",
          "type": "bytes32"
        },
        {
          "indexed": true,
          "internalType": "address",
          "name": "agent",
          "type": "address"
        },
        {
          "indexed": false,
          "internalType": "uint256",
          "name": "utilityScore",
          "type": "uint256"
        },
        {
          "indexed": false,
          "internalType": "uint256",
          "name": "timestamp",
          "type": "uint256"
        }
      ],
      "name": "BidWinRecorded",
      "type": "event"
    },
    {
      "anonymous": false,
      "inputs": [
        {
          "indexed": true,
          "internalType": "address",
          "name": "agent",
          "type": "address"
        },
        {
          "indexed": false,
          "internalType": "uint256",
          "name": "oldConfidence",
          "type": "uint256"
        },
        {
          "indexed": false,
          "internalType": "uint256",
          "name": "newConfidence",
          "type": "uint256"
        },
        {
          "indexed": false,
          "internalType": "uint256",
          "name": "oldRiskTolerance",
          "type": "uint256"
        },
        {
          "indexed": false,
          "internalType": "uint256",
          "name": "newRiskTolerance",
          "type": "uint256"
        },
        {
          "indexed": true,
          "internalType": "bytes32",
          "name": "taskId",
          "type": "bytes32"
        },
        {
          "indexed": false,
          "internalType": "uint256",
          "name": "timestamp",
          "type": "uint256"
        }
      ],
      "name": "BiddingStrategyUpdated",
      "type": "event"
    },
    {
      "anonymous": false,
      "inputs": [
        {
          "indexed": true,
          "internalType": "address",
          "name": "agent",
          "type": "address"
        },
        {
          "indexed": false,
          "internalType": "string",
          "name": "tag",
          "type": "string"
        },
        {
          "indexed": false,
          "internalType": "uint256",
          "name": "newWeight",
          "type": "uint256"
        },
        {
          "indexed": false,
          "internalType": "uint256",
          "name": "timestamp",
          "type": "uint256"
        }
      ],
      "name": "CapabilityAdjusted",
      "type": "event"
    },
    {
      "anonymous": false,
      "inputs": [
        {
          "indexed": true,
          "internalType": "address",
          "name": "agent",
          "type": "address"
        },
        {
          "indexed": false,
          "internalType": "string",
          "name": "capability",
          "type": "string"
        },
        {
          "indexed": false,
          "internalType": "uint256",
          "name": "oldWeight",
          "type": "uint256"
        },
        {
          "indexed": false,
          "internalType": "uint256",
          "name": "newWeight",
          "type": "uint256"
        },
        {
          "indexed": true,
          "internalType": "bytes32",
          "name": "taskId",
          "type": "bytes32"
        },
        {
          "indexed": false,
          "internalType": "uint256",
          "name": "timestamp",
          "type": "uint256"
        }
      ],
      "name": "CapabilityWeightUpdated",
      "type": "event"
    },
    {
      "anonymous": false,
      "inputs": [
        {
          "indexed": true,
          "internalType": "address",
          "name": "agent",
          "type": "address"
        },
        {
          "indexed": true,
          "internalType": "bytes32",
          "name": "taskId",
          "type": "bytes32"
        },
        {
          "indexed": false,
          "internalType": "uint256",
          "name": "score",
          "type": "uint256"
        },
        {
          "indexed": false,
          "internalType": "string[]",
          "name": "tags",
          "type": "string[]"
        },
        {
          "indexed": false,
          "internalType": "uint256[]",
          "name": "tagScores",
          "type": "uint256[]"
        },
        {
          "indexed": false,
          "internalType": "uint256",
          "name": "timestamp",
          "type": "uint256"
        }
      ],
      "name": "LearningFeedbackProvided",
      "type": "event"
    },
    {
      "anonymous": false,
      "inputs": [
        {
          "indexed": true,
          "internalType": "address",
          "name": "previousOwner",
          "type": "address"
        },
        {
          "indexed": true,
          "internalType": "address",
          "name": "newOwner",
          "type": "address"
        }
      ],
      "name": "OwnershipTransferred",
      "type": "event"
    },
    {
      "anonymous": false,
      "inputs": [
        {
          "indexed": true,
          "internalType": "address",
          "name": "agent",
          "type": "address"
        },
        {
          "indexed": false,
          "internalType": "uint256",
          "name": "oldReputation",
          "type": "uint256"
        },
        {
          "indexed": false,
          "internalType": "uint256",
          "name": "newReputation",
          "type": "uint256"
        },
        {
          "indexed": true,
          "internalType": "bytes32",
          "name": "taskId",
          "type": "bytes32"
        },
        {
          "indexed": false,
          "internalType": "uint256",
          "name": "timestamp",
          "type": "uint256"
        }
      ],
      "name": "ReputationUpdated",
      "type": "event"
    },
    {
      "anonymous": false,
      "inputs": [
        {
          "indexed": true,
          "internalType": "bytes32",
          "name": "taskId",
          "type": "bytes32"
        },
        {
          "indexed": true,
          "internalType": "address",
          "name": "agent",
          "type": "address"
        },
        {
          "indexed": false,
          "internalType": "uint256",
          "name": "quality",
          "type": "uint256"
        },
        {
          "indexed": false,
          "internalType": "uint256",
          "name": "timestamp",
          "type": "uint256"
        }
      ],
      "name": "TaskQualityRecorded",
      "type": "event"
    },
    {
      "anonymous": false,
      "inputs": [
        {
          "indexed": true,
          "internalType": "address",
          "name": "agent",
          "type": "address"
        },
        {
          "indexed": true,
          "internalType": "bytes32",
          "name": "taskId",
          "type": "bytes32"
        },
        {
          "indexed": false,
          "internalType": "uint256",
          "name": "score",
          "type": "uint256"
        },
        {
          "indexed": false,
          "internalType": "uint256",
          "name": "quality",
          "type": "uint256"
        },
        {
          "indexed": false,
          "internalType": "uint256",
          "name": "delayRatio",
          "type": "uint256"
        },
        {
          "indexed": false,
          "internalType": "uint256",
          "name": "timestamp",
          "type": "uint256"
        }
      ],
      "name": "TaskScoreComputed",
      "type": "event"
    },
    {
      "anonymous": false,
      "inputs": [
        {
          "indexed": true,
          "internalType": "address",
          "name": "agent",
          "type": "address"
        },
        {
          "indexed": true,
          "internalType": "bytes32",
          "name": "taskId",
          "type": "bytes32"
        },
        {
          "indexed": false,
          "internalType": "uint256",
          "name": "score",
          "type": "uint256"
        },
        {
          "indexed": false,
          "internalType": "uint256",
          "name": "timestamp",
          "type": "uint256"
        }
      ],
      "name": "UtilityEvaluated",
      "type": "event"
    },
    {
      "inputs": [],
      "name": "MAX_STRATEGY_HISTORY",
      "outputs": [
        {
          "internalType": "uint256",
          "name": "",
          "type": "uint256"
        }
      ],
      "stateMutability": "view",
      "type": "function"
    },
    {
      "inputs": [],
      "name": "actionLogger",
      "outputs": [
        {
          "internalType": "contract ActionLogger",
          "name": "",
          "type": "address"
        }
      ],
      "stateMutability": "view",
      "type": "function"
    },
    {
      "inputs": [],
      "name": "adaptationFactor",
      "outputs": [
        {
          "internalType": "uint256",
          "name": "",
          "type": "uint256"
        }
      ],
      "stateMutability": "view",
      "type": "function"
    },
    {
      "inputs": [
        {
          "internalType": "address",
          "name": "",
          "type": "address"
        },
        {
          "internalType": "uint256",
          "name": "",
          "type": "uint256"
        }
      ],
      "name": "agentCapabilities",
      "outputs": [
        {
          "internalType": "string",
          "name": "",
          "type": "string"
        }
      ],
      "stateMutability": "view",
      "type": "function"
    },
    {
      "inputs": [
        {
          "internalType": "address",
          "name": "",
          "type": "address"
        },
        {
          "internalType": "string",
          "name": "",
          "type": "string"
        }
      ],
      "name": "agentCapabilityWeights",
      "outputs": [
        {
          "internalType": "string",
          "name": "capability",
          "type": "string"
        },
        {
          "internalType": "uint256",
          "name": "weight",
          "type": "uint256"
        },
        {
          "internalType": "uint256",
          "name": "lastUpdated",
          "type": "uint256"
        },
        {
          "internalType": "bool",
          "name": "penalized",
          "type": "bool"
        },
        {
          "internalType": "uint256",
          "name": "penaltyEndTime",
          "type": "uint256"
        }
      ],
      "stateMutability": "view",
      "type": "function"
    },
    {
      "inputs": [],
      "name": "agentRegistry",
      "outputs": [
        {
          "internalType": "contract AgentRegistry",
          "name": "",
          "type": "address"
        }
      ],
      "stateMutability": "view",
      "type": "function"
    },
    {
      "inputs": [],
      "name": "alpha",
      "outputs": [
        {
          "internalType": "uint256",
          "name": "",
          "type": "uint256"
        }
      ],
      "stateMutability": "view",
      "type": "function"
    },
    {
      "inputs": [],
      "name": "beta",
      "outputs": [
        {
          "internalType": "uint256",
          "name": "",
          "type": "uint256"
        }
      ],
      "stateMutability": "view",
      "type": "function"
    },
    {
      "inputs": [
        {
          "internalType": "address",
          "name": "",
          "type": "address"
        },
        {
          "internalType": "uint256",
          "name": "",
          "type": "uint256"
        }
      ],
      "name": "biddingStrategyEvolution",
      "outputs": [
        {
          "internalType": "uint256",
          "name": "oldConfidence",
          "type": "uint256"
        },
        {
          "internalType": "uint256",
          "name": "newConfidence",
          "type": "uint256"
        },
        {
          "internalType": "uint256",
          "name": "oldRiskTolerance",
          "type": "uint256"
        },
        {
          "internalType": "uint256",
          "name": "newRiskTolerance",
          "type": "uint256"
        },
        {
          "internalType": "bytes32",
          "name": "taskId",
          "type": "bytes32"
        },
        {
          "internalType": "uint256",
          "name": "taskScore",
          "type": "uint256"
        },
        {
          "internalType": "uint256",
          "name": "timestamp",
          "type": "uint256"
        }
      ],
      "stateMutability": "view",
      "type": "function"
    },
    {
      "inputs": [
        {
          "internalType": "address",
          "name": "agent",
          "type": "address"
        },
        {
          "internalType": "string[]",
          "name": "requiredCapabilities",
          "type": "string[]"
        },
        {
          "internalType": "uint256",
          "name": "reward",
          "type": "uint256"
        },
        {
          "internalType": "uint256",
          "name": "workload",
          "type": "uint256"
        }
      ],
      "name": "calculateUtility",
      "outputs": [
        {
          "internalType": "uint256",
          "name": "",
          "type": "uint256"
        }
      ],
      "stateMutability": "view",
      "type": "function"
    },
    {
      "inputs": [
        {
          "internalType": "address",
          "name": "agent",
          "type": "address"
        },
        {
          "internalType": "bytes32",
          "name": "taskId",
          "type": "bytes32"
        },
        {
          "internalType": "uint256",
          "name": "quality",
          "type": "uint256"
        },
        {
          "internalType": "uint256",
          "name": "delayRatio",
          "type": "uint256"
        }
      ],
      "name": "computeTaskScore",
      "outputs": [
        {
          "internalType": "uint256",
          "name": "",
          "type": "uint256"
        }
      ],
      "stateMutability": "nonpayable",
      "type": "function"
    },
    {
      "inputs": [],
      "name": "confidenceAdjustRate",
      "outputs": [
        {
          "internalType": "uint256",
          "name": "",
          "type": "uint256"
        }
      ],
      "stateMutability": "view",
      "type": "function"
    },
    {
      "inputs": [],
      "name": "delta",
      "outputs": [
        {
          "internalType": "uint256",
          "name": "",
          "type": "uint256"
        }
      ],
      "stateMutability": "view",
      "type": "function"
    },
    {
      "inputs": [],
      "name": "gamma",
      "outputs": [
        {
          "internalType": "uint256",
          "name": "",
          "type": "uint256"
        }
      ],
      "stateMutability": "view",
      "type": "function"
    },
    {
      "inputs": [
        {
          "internalType": "address",
          "name": "agent",
          "type": "address"
        }
      ],
      "name": "getAgentReputation",
      "outputs": [
        {
          "internalType": "uint256",
          "name": "",
          "type": "uint256"
        }
      ],
      "stateMutability": "view",
      "type": "function"
    },
    {
      "inputs": [
        {
          "internalType": "address",
          "name": "agent",
          "type": "address"
        }
      ],
      "name": "getAgentWorkload",
      "outputs": [
        {
          "internalType": "uint256",
          "name": "",
          "type": "uint256"
        }
      ],
      "stateMutability": "view",
      "type": "function"
    },
    {
      "inputs": [
        {
          "internalType": "address",
          "name": "agent",
          "type": "address"
        }
      ],
      "name": "getBiddingStrategyEvolution",
      "outputs": [
        {
          "components": [
            {
              "internalType": "uint256",
              "name": "oldConfidence",
              "type": "uint256"
            },
            {
              "internalType": "uint256",
              "name": "newConfidence",
              "type": "uint256"
            },
            {
              "internalType": "uint256",
              "name": "oldRiskTolerance",
              "type": "uint256"
            },
            {
              "internalType": "uint256",
              "name": "newRiskTolerance",
              "type": "uint256"
            },
            {
              "internalType": "bytes32",
              "name": "taskId",
              "type": "bytes32"
            },
            {
              "internalType": "uint256",
              "name": "taskScore",
              "type": "uint256"
            },
            {
              "internalType": "uint256",
              "name": "timestamp",
              "type": "uint256"
            }
          ],
          "internalType": "struct IncentiveEngine.BiddingStrategyEvolution[]",
          "name": "",
          "type": "tuple[]"
        }
      ],
      "stateMutability": "view",
      "type": "function"
    },
    {
      "inputs": [
        {
          "internalType": "bytes32",
          "name": "taskId",
          "type": "bytes32"
        }
      ],
      "name": "getTaskEvaluation",
      "outputs": [
        {
          "internalType": "uint256",
          "name": "quality",
          "type": "uint256"
        },
        {
          "internalType": "uint256",
          "name": "delayRatio",
          "type": "uint256"
        },
        {
          "internalType": "uint256",
          "name": "finalScore",
          "type": "uint256"
        },
        {
          "internalType": "string[]",
          "name": "tags",
          "type": "string[]"
        },
        {
          "internalType": "uint256[]",
          "name": "scores",
          "type": "uint256[]"
        }
      ],
      "stateMutability": "view",
      "type": "function"
    },
    {
      "inputs": [],
      "name": "learningRate",
      "outputs": [
        {
          "internalType": "uint256",
          "name": "",
          "type": "uint256"
        }
      ],
      "stateMutability": "view",
      "type": "function"
    },
    {
      "inputs": [
        {
          "internalType": "address",
          "name": "agent",
          "type": "address"
        },
        {
          "internalType": "uint256",
          "name": "confidence",
          "type": "uint256"
        },
        {
          "internalType": "uint256",
          "name": "riskTolerance",
          "type": "uint256"
        }
      ],
      "name": "manuallyUpdateBiddingStrategy",
      "outputs": [],
      "stateMutability": "nonpayable",
      "type": "function"
    },
    {
      "inputs": [],
      "name": "maxConfidence",
      "outputs": [
        {
          "internalType": "uint256",
          "name": "",
          "type": "uint256"
        }
      ],
      "stateMutability": "view",
      "type": "function"
    },
    {
      "inputs": [],
      "name": "maxReputationChange",
      "outputs": [
        {
          "internalType": "uint256",
          "name": "",
          "type": "uint256"
        }
      ],
      "stateMutability": "view",
      "type": "function"
    },
    {
      "inputs": [],
      "name": "maxRiskTolerance",
      "outputs": [
        {
          "internalType": "uint256",
          "name": "",
          "type": "uint256"
        }
      ],
      "stateMutability": "view",
      "type": "function"
    },
    {
      "inputs": [],
      "name": "minConfidence",
      "outputs": [
        {
          "internalType": "uint256",
          "name": "",
          "type": "uint256"
        }
      ],
      "stateMutability": "view",
      "type": "function"
    },
    {
      "inputs": [],
      "name": "minRiskTolerance",
      "outputs": [
        {
          "internalType": "uint256",
          "name": "",
          "type": "uint256"
        }
      ],
      "stateMutability": "view",
      "type": "function"
    },
    {
      "inputs": [],
      "name": "mu",
      "outputs": [
        {
          "internalType": "uint256",
          "name": "",
          "type": "uint256"
        }
      ],
      "stateMutability": "view",
      "type": "function"
    },
    {
      "inputs": [],
      "name": "owner",
      "outputs": [
        {
          "internalType": "address",
          "name": "",
          "type": "address"
        }
      ],
      "stateMutability": "view",
      "type": "function"
    },
    {
      "inputs": [],
      "name": "penaltyFactor",
      "outputs": [
        {
          "internalType": "uint256",
          "name": "",
          "type": "uint256"
        }
      ],
      "stateMutability": "view",
      "type": "function"
    },
    {
      "inputs": [],
      "name": "penaltyThreshold",
      "outputs": [
        {
          "internalType": "uint256",
          "name": "",
          "type": "uint256"
        }
      ],
      "stateMutability": "view",
      "type": "function"
    },
    {
      "inputs": [
        {
          "internalType": "address",
          "name": "agent",
          "type": "address"
        },
        {
          "internalType": "bytes32",
          "name": "taskId",
          "type": "bytes32"
        }
      ],
      "name": "recordBidWin",
      "outputs": [],
      "stateMutability": "nonpayable",
      "type": "function"
    },
    {
      "inputs": [
        {
          "internalType": "bytes32",
          "name": "taskId",
          "type": "bytes32"
        },
        {
          "internalType": "address",
          "name": "agent",
          "type": "address"
        },
        {
          "internalType": "uint256",
          "name": "quality",
          "type": "uint256"
        }
      ],
      "name": "recordTaskQuality",
      "outputs": [],
      "stateMutability": "nonpayable",
      "type": "function"
    },
    {
      "inputs": [
        {
          "internalType": "address",
          "name": "agent",
          "type": "address"
        },
        {
          "internalType": "string[]",
          "name": "capabilities",
          "type": "string[]"
        }
      ],
      "name": "registerCapabilities",
      "outputs": [],
      "stateMutability": "nonpayable",
      "type": "function"
    },
    {
      "inputs": [],
      "name": "renounceOwnership",
      "outputs": [],
      "stateMutability": "nonpayable",
      "type": "function"
    },
    {
      "inputs": [],
      "name": "reputationAlpha",
      "outputs": [
        {
          "internalType": "uint256",
          "name": "",
          "type": "uint256"
        }
      ],
      "stateMutability": "view",
      "type": "function"
    },
    {
      "inputs": [],
      "name": "riskToleranceAdjustRate",
      "outputs": [
        {
          "internalType": "uint256",
          "name": "",
          "type": "uint256"
        }
      ],
      "stateMutability": "view",
      "type": "function"
    },
    {
      "inputs": [
        {
          "internalType": "address",
          "name": "_actionLoggerAddress",
          "type": "address"
        }
      ],
      "name": "setActionLogger",
      "outputs": [],
      "stateMutability": "nonpayable",
      "type": "function"
    },
    {
      "inputs": [
        {
          "internalType": "uint256",
          "name": "_confidenceRate",
          "type": "uint256"
        },
        {
          "internalType": "uint256",
          "name": "_riskToleranceRate",
          "type": "uint256"
        },
        {
          "internalType": "uint256",
          "name": "_minConfidence",
          "type": "uint256"
        },
        {
          "internalType": "uint256",
          "name": "_maxConfidence",
          "type": "uint256"
        },
        {
          "internalType": "uint256",
          "name": "_minRiskTolerance",
          "type": "uint256"
        },
        {
          "internalType": "uint256",
          "name": "_maxRiskTolerance",
          "type": "uint256"
        }
      ],
      "name": "setBiddingStrategyParameters",
      "outputs": [],
      "stateMutability": "nonpayable",
      "type": "function"
    },
    {
      "inputs": [
        {
          "internalType": "uint256",
          "name": "_learningRate",
          "type": "uint256"
        },
        {
          "internalType": "uint256",
          "name": "_adaptationFactor",
          "type": "uint256"
        }
      ],
      "name": "setLearningParameters",
      "outputs": [],
      "stateMutability": "nonpayable",
      "type": "function"
    },
    {
      "inputs": [
        {
          "internalType": "uint256",
          "name": "_mu",
          "type": "uint256"
        }
      ],
      "name": "setMu",
      "outputs": [],
      "stateMutability": "nonpayable",
      "type": "function"
    },
    {
      "inputs": [
        {
          "internalType": "uint256",
          "name": "_threshold",
          "type": "uint256"
        },
        {
          "internalType": "uint256",
          "name": "_factor",
          "type": "uint256"
        }
      ],
      "name": "setPenaltyThresholds",
      "outputs": [],
      "stateMutability": "nonpayable",
      "type": "function"
    },
    {
      "inputs": [
        {
          "internalType": "uint256",
          "name": "_lambda",
          "type": "uint256"
        },
        {
          "internalType": "uint256",
          "name": "_maxChange",
          "type": "uint256"
        }
      ],
      "name": "setReputationParameters",
      "outputs": [],
      "stateMutability": "nonpayable",
      "type": "function"
    },
    {
      "inputs": [
        {
          "internalType": "uint256",
          "name": "_alpha",
          "type": "uint256"
        },
        {
          "internalType": "uint256",
          "name": "_delta",
          "type": "uint256"
        }
      ],
      "name": "setScoreParameters",
      "outputs": [],
      "stateMutability": "nonpayable",
      "type": "function"
    },
    {
      "inputs": [
        {
          "internalType": "uint256",
          "name": "_beta",
          "type": "uint256"
        },
        {
          "internalType": "uint256",
          "name": "_gamma",
          "type": "uint256"
        }
      ],
      "name": "setUtilityParameters",
      "outputs": [],
      "stateMutability": "nonpayable",
      "type": "function"
    },
    {
      "inputs": [
        {
          "internalType": "bytes32",
          "name": "",
          "type": "bytes32"
        }
      ],
      "name": "taskCompletions",
      "outputs": [
        {
          "internalType": "bytes32",
          "name": "taskId",
          "type": "bytes32"
        },
        {
          "internalType": "address",
          "name": "agent",
          "type": "address"
        },
        {
          "internalType": "uint256",
          "name": "quality",
          "type": "uint256"
        },
        {
          "internalType": "uint256",
          "name": "timestamp",
          "type": "uint256"
        }
      ],
      "stateMutability": "view",
      "type": "function"
    },
    {
      "inputs": [
        {
          "internalType": "bytes32",
          "name": "",
          "type": "bytes32"
        }
      ],
      "name": "taskEvaluations",
      "outputs": [
        {
          "internalType": "uint256",
          "name": "quality",
          "type": "uint256"
        },
        {
          "internalType": "uint256",
          "name": "delayRatio",
          "type": "uint256"
        },
        {
          "internalType": "uint256",
          "name": "finalScore",
          "type": "uint256"
        }
      ],
      "stateMutability": "view",
      "type": "function"
    },
    {
      "inputs": [
        {
          "internalType": "address",
          "name": "newOwner",
          "type": "address"
        }
      ],
      "name": "transferOwnership",
      "outputs": [],
      "stateMutability": "nonpayable",
      "type": "function"
    },
    {
      "inputs": [
        {
          "internalType": "address",
          "name": "agent",
          "type": "address"
        },
        {
          "internalType": "uint256",
          "name": "workload",
          "type": "uint256"
        }
      ],
      "name": "updateAgentWorkload",
      "outputs": [],
      "stateMutability": "nonpayable",
      "type": "function"
    },
    {
      "inputs": [
        {
          "internalType": "address",
          "name": "agent",
          "type": "address"
        },
        {
          "internalType": "bytes32",
          "name": "taskId",
          "type": "bytes32"
        },
        {
          "internalType": "string[]",
          "name": "tags",
          "type": "string[]"
        },
        {
          "internalType": "uint256[]",
          "name": "scores",
          "type": "uint256[]"
        }
      ],
      "name": "updateSpecificCapabilityWeights",
      "outputs": [],
      "stateMutability": "nonpayable",
      "type": "function"
    }
  ],
  "bytecode": "0x60806040526050600355600a600455603c60055560286006556046600755600a6008556014600955601e600a556014600b556005600c556032600d556005600e556003600f55601e601055605f601155601460125560506013553480156200006657600080fd5b50604051620047c2380380620047c2833981016040819052620000899162000132565b3380620000b057604051631e4fbdf760e01b81526000600482015260240160405180910390fd5b620000bb81620000e2565b50600180546001600160a01b0319166001600160a01b039290921691909117905562000164565b600080546001600160a01b038381166001600160a01b0319831681178455604051919092169283917f8be0079c531659141344cd1fd0a4f28419497f9722a3daafe3b4186f6b6457e09190a35050565b6000602082840312156200014557600080fd5b81516001600160a01b03811681146200015d57600080fd5b9392505050565b61464e80620001746000396000f3fe608060405234801561001057600080fd5b50600436106102a05760003560e01c80637d17dda911610167578063bb6bdef1116100ce578063ddc8caf811610087578063ddc8caf814610623578063e528ccc31461062c578063ebeae5871461063f578063f2fde38b14610652578063fcac310f14610665578063feb6a9581461067857600080fd5b8063bb6bdef114610585578063be7dc4661461058e578063c46b78ae146105a1578063c91e514914610608578063d52b7a1414610611578063db1d0fd51461061a57600080fd5b80639cb92617116101205780639cb92617146105205780639faa3c9114610544578063a9c424651461054d578063ab4f971814610560578063b137392914610569578063b4087d621461057257600080fd5b80637d17dda9146104ad5780638da5cb5b146104c05780638ec224dd146104d15780638fd46acc146104da57806396f680ea146104ed57806398084cbd1461050057600080fd5b806339e1832f1161020b5780636112d6db116101c45780636112d6db1461044d578063715018a614610456578063717a54831461045e57806376d44094146104715780637adb40d31461047a5780637c4059e41461048d57600080fd5b806339e1832f146103f95780633a5b992c1461040c5780634d2d407a1461041f57806352181b14146104285780635a0089a61461043b5780635f1174b91461044457600080fd5b8063172b43731161025d578063172b437314610364578063212e81e81461036d57806328d18299146103805780632b227413146103935780632e356028146103dd5780633766bf19146103f057600080fd5b806301d164d3146102a5578063031e887f146102ba57806306c9b0a7146102d5578063085dc6871461031d5780630d1cfcae1461033057806312b495a81461035b575b600080fd5b6102b86102b3366004613669565b61069c565b005b6102c2601481565b6040519081526020015b60405180910390f35b6102e86102e33660046136c8565b610852565b604080519788526020880196909652948601939093526060850191909152608084015260a083015260c082015260e0016102cc565b6102b861032b3660046136f2565b6108ac565b600154610343906001600160a01b031681565b6040516001600160a01b0390911681526020016102cc565b6102c260065481565b6102c260135481565b6102b861037b3660046136f2565b61097d565b6102b861038e3660046136c8565b6109e9565b6103c26103a1366004613714565b60186020526000908152604090208054600182015460029092015490919083565b604080519384526020840192909252908201526060016102cc565b6102b86103eb3660046136f2565b610b23565b6102c2600c5481565b6102c261040736600461372d565b610bd8565b6102b861041a366004613748565b610c4d565b6102c260115481565b6102b8610436366004613913565b610e57565b6102c2600f5481565b6102c260035481565b6102c2600b5481565b6102b861145d565b6102b861046c3660046139e4565b611471565b6102c260125481565b6102b861048836600461372d565b61197c565b6104a061049b36600461372d565b6119a6565b6040516102cc9190613a69565b6102b86104bb366004613714565b611a61565b6000546001600160a01b0316610343565b6102c2600d5481565b6102c26104e8366004613aeb565b611abf565b6102b86104fb3660046136c8565b611c2a565b61051361050e3660046136c8565b611ec0565b6040516102cc9190613b98565b61053361052e366004613bab565b611f79565b6040516102cc959493929190613bf8565b6102c260085481565b6102b861055b3660046136f2565b612052565b6102c260075481565b6102c260095481565b6102b86105803660046136f2565b6120b6565b6102c260045481565b6102b861059c366004613c2f565b6120c9565b6105e06105af366004613714565b601760205260009081526040902080546001820154600283015460039093015491926001600160a01b039091169184565b604080519485526001600160a01b0390931660208501529183015260608201526080016102cc565b6102c2600a5481565b6102c260105481565b6102c260055481565b6102c2600e5481565b6102c261063a366004613c64565b612347565b6102c261064d36600461372d565b612567565b6102b861066036600461372d565b6125e1565b600254610343906001600160a01b031681565b61068b610686366004613714565b61261f565b6040516102cc959493929190613d20565b6106a46127ea565b60648611156107085760405162461bcd60e51b815260206004820152602560248201527f436f6e666964656e63652072617465206d757374206265206265747765656e206044820152640302d3130360dc1b60648201526084015b60405180910390fd5b606485111561076b5760405162461bcd60e51b815260206004820152602960248201527f5269736b20746f6c6572616e63652072617465206d7573742062652062657477604482015268065656e20302d3130360bc1b60648201526084016106ff565b828411156107cc5760405162461bcd60e51b815260206004820152602860248201527f4d696e20636f6e666964656e6365206d757374206265203c3d206d617820636f6044820152676e666964656e636560c01b60648201526084016106ff565b808211156108355760405162461bcd60e51b815260206004820152603060248201527f4d696e207269736b20746f6c6572616e6365206d757374206265203c3d206d6160448201526f78207269736b20746f6c6572616e636560801b60648201526084016106ff565b600e95909555600f93909355601091909155601155601255601355565b6016602052816000526040600020818154811061086e57600080fd5b600091825260209091206007909102018054600182015460028301546003840154600485015460058601546006909601549497509295509093909287565b6108b46127ea565b60648211156109115760405162461bcd60e51b815260206004820152602360248201527f4c6561726e696e672072617465206d757374206265206265747765656e20302d60448201526203130360ec1b60648201526084016106ff565b60648111156109725760405162461bcd60e51b815260206004820152602760248201527f41646170746174696f6e20666163746f72206d7573742062652062657477656560448201526606e20302d3130360cc1b60648201526084016106ff565b600c91909155600d55565b6109856127ea565b61098f8183613d79565b6064146109de5760405162461bcd60e51b815260206004820152601c60248201527f416c706861202b2044656c7461206d75737420657175616c203130300000000060448201526064016106ff565b600591909155600655565b6109f16127ea565b6064811115610a425760405162461bcd60e51b815260206004820152601e60248201527f576f726b6c6f6164206d757374206265206265747765656e20302d313030000060448201526064016106ff565b600154604051632538b15360e01b81526001600160a01b03848116600483015290911690632538b15390602401600060405180830381600087803b158015610a8957600080fd5b505af1158015610a9d573d6000803e3d6000fd5b5050505060005b81811015610b1e576001546040516313c49ec760e11b81526001600160a01b038581166004830152909116906327893d8e90602401600060405180830381600087803b158015610af357600080fd5b505af1158015610b07573d6000803e3d6000fd5b505050508080610b1690613d8c565b915050610aa4565b505050565b610b2b6127ea565b6064821115610b7c5760405162461bcd60e51b815260206004820152601f60248201527f5468726573686f6c64206d757374206265206265747765656e20302d3130300060448201526064016106ff565b6064811115610bcd5760405162461bcd60e51b815260206004820152601c60248201527f466163746f72206d757374206265206265747765656e20302d3130300000000060448201526064016106ff565b600a91909155600b55565b60015460405163b696ae5b60e01b81526001600160a01b038381166004830152600092169063b696ae5b90602401602060405180830381865afa158015610c23573d6000803e3d6000fd5b505050506040513d601f19601f82011682018060405250810190610c479190613da5565b92915050565b610c556127ea565b6064821115610ca65760405162461bcd60e51b815260206004820181905260248201527f436f6e666964656e6365206d757374206265206265747765656e20302d31303060448201526064016106ff565b6064811115610d035760405162461bcd60e51b8152602060048201526024808201527f5269736b20746f6c6572616e6365206d757374206265206265747765656e203060448201526302d3130360e41b60648201526084016106ff565b60015460405163877dd2e360e01b81526001600160a01b038581166004830152600092839291169063877dd2e390602401606060405180830381865afa158015610d51573d6000803e3d6000fd5b505050506040513d601f19601f82011682018060405250810190610d759190613dbe565b5060015460405163a6f3d0f960e01b81529294509092506001600160a01b03169063a6f3d0f990610dae90889088908890600401613dec565b600060405180830381600087803b158015610dc857600080fd5b505af1158015610ddc573d6000803e3d6000fd5b50505050610df385838684876000801b6000612817565b6040805183815260208101869052908101829052606081018490524260808201526000906001600160a01b038716907f7b0d402cf1f179778a20ef37ac6eaead60308b2515d316cceea700afe7623cbc9060a0015b60405180910390a35050505050565b610e5f6127ea565b8051825114610ebe5760405162461bcd60e51b815260206004820152602560248201527f5461677320616e642073636f726573206d75737420686176652073616d65206c6044820152640cadccee8d60db1b60648201526084016106ff565b60015460405163991ef17160e01b81526001600160a01b038681166004830152600092839291169063991ef17190602401600060405180830381865afa158015610f0c573d6000803e3d6000fd5b505050506040513d6000823e601f3d908101601f19168201604052610f349190810190613f23565b6000878152601860205260408120929450909250610f569060048301906135db565b60005b85518110156110095781600401868281518110610f7857610f78613f7c565b60209081029190910181015182546001810184556000938452919092200190610fa19082614012565b50848181518110610fb457610fb4613f7c565b602002602001015182600301878381518110610fd257610fd2613f7c565b6020026020010151604051610fe791906140d1565b908152604051908190036020019020558061100181613d8c565b915050610f59565b50600083516001600160401b038111156110255761102561377b565b60405190808252806020026020018201604052801561105857816020015b60608152602001906001900390816110435790505b509050600084516001600160401b038111156110765761107661377b565b60405190808252806020026020018201604052801561109f578160200160208202803683370190505b50905060005b855181101561139f578581815181106110c0576110c0613f7c565b60200260200101518382815181106110da576110da613f7c565b60200260200101819052508481815181106110f7576110f7613f7c565b602002602001015182828151811061111157611111613f7c565b60200260200101818152505060005b885181101561138c5788818151811061113b5761113b613f7c565b60200260200101518051906020012087838151811061115c5761115c613f7c565b6020026020010151805190602001200361137a57600086838151811061118457611184613f7c565b60200260200101519050600060648a84815181106111a4576111a4613f7c565b602002602001015160075460646111bb91906140ed565b6111c59190614100565b836007546111d39190614100565b6111dd9190613d79565b6111e79190614117565b9050818a84815181106111fc576111fc613f7c565b602002602001015111156112775760006064600c54848d878151811061122457611224613f7c565b602002602001015161123691906140ed565b6112409190614100565b61124a9190614117565b905060646112588284613d79565b1161126c576112678183613d79565b61126f565b60645b9150506112f6565b89838151811061128957611289613f7c565b60200260200101518211156112f65760006064600c548c86815181106112b1576112b1613f7c565b6020026020010151856112c491906140ed565b6112ce9190614100565b6112d89190614117565b90508082116112e85760016112f2565b6112f281836140ed565b9150505b8085858151811061130957611309613f7c565b6020026020010181815250508c6001600160a01b03167f54bac6cdfa26e620d72e753880836621790d083f0009267fa1a1a16664cb699f8c858151811061135257611352613f7c565b6020026020010151834260405161136b93929190614139565b60405180910390a2505061138c565b8061138481613d8c565b915050611120565b508061139781613d8c565b9150506110a5565b50600154604051631d9abc6b60e31b81526001600160a01b039091169063ecd5e358906113d4908c908690869060040161415e565b600060405180830381600087803b1580156113ee57600080fd5b505af1158015611402573d6000803e3d6000fd5b5050505087896001600160a01b03167fb309384727efd8e1e58f455270b8aebabbdc8c9e338fb082fc230ea094ce76ea85600201548a8a4260405161144a949392919061419e565b60405180910390a3505050505050505050565b6114656127ea565b61146f6000612a66565b565b336001600160a01b03841614806114a15750336114966000546001600160a01b031690565b6001600160a01b0316145b6114de5760405162461bcd60e51b815260206004820152600e60248201526d139bdd08185d5d1a1bdc9a5e995960921b60448201526064016106ff565b6001546040516332f0f23360e11b81526001600160a01b038581166004830152909116906365e1e46690602401602060405180830381865afa158015611528573d6000803e3d6000fd5b505050506040513d601f19601f8201168201806040525081019061154c91906141db565b61158b5760405162461bcd60e51b815260206004820152601060248201526f4167656e74206e6f742061637469766560801b60448201526064016106ff565b60005b6001600160a01b0384166000908152601560205260409020548110156116e7576001600160a01b03841660009081526015602052604081208054839081106115d8576115d8613f7c565b9060005260206000200180546115ed90613f92565b80601f016020809104026020016040519081016040528092919081815260200182805461161990613f92565b80156116665780601f1061163b57610100808354040283529160200191611666565b820191906000526020600020905b81548152906001019060200180831161164957829003601f168201915b5050506001600160a01b0388166000908152601460205260409081902090519394509261169692508491506140d1565b90815260405190819003602001902060006116b182826135f9565b506000600182018190556002820181905560038201805460ff1916905560049091015550806116df81613d8c565b91505061158e565b506001600160a01b0383166000908152601560205260408120611709916135db565b6000816001600160401b038111156117235761172361377b565b60405190808252806020026020018201604052801561174c578160200160208202803683370190505b50905060005b8281101561190d576001600160a01b038516600090815260156020526040902084848381811061178457611784613f7c565b905060200281019061179691906141fd565b825460018101845560009384526020909320909201916117b6918361424a565b506040518060a001604052808585848181106117d4576117d4613f7c565b90506020028101906117e691906141fd565b8080601f016020809104026020016040519081016040528093929190818152602001838380828437600092018290525093855250506032602080850191909152426040808601919091526060850184905260809094018390526001600160a01b038a16835260149052502085858481811061186357611863613f7c565b905060200281019061187591906141fd565b604051611883929190614309565b908152604051908190036020019020815181906118a09082614012565b506020820151600182015560408201516002820155606082015160038201805460ff191691151591909117905560809091015160049091015581516032908390839081106118f0576118f0613f7c565b60209081029190910101528061190581613d8c565b915050611752565b50600154604051631d9abc6b60e31b81526001600160a01b039091169063ecd5e35890611944908790879087908790600401614342565b600060405180830381600087803b15801561195e57600080fd5b505af1158015611972573d6000803e3d6000fd5b5050505050505050565b6119846127ea565b600280546001600160a01b0319166001600160a01b0392909216919091179055565b6001600160a01b0381166000908152601660209081526040808320805482518185028101850190935280835260609492939192909184015b82821015611a5657838290600052602060002090600702016040518060e0016040529081600082015481526020016001820154815260200160028201548152602001600382015481526020016004820154815260200160058201548152602001600682015481525050815260200190600101906119de565b505050509050919050565b611a696127ea565b6064811115611aba5760405162461bcd60e51b815260206004820152601860248201527f4d75206d757374206265206265747765656e20302d313030000000000000000060448201526064016106ff565b600755565b60015460405163991ef17160e01b81526001600160a01b038681166004830152600092839283929091169063991ef17190602401600060405180830381865afa158015611b10573d6000803e3d6000fd5b505050506040513d6000823e601f3d908101601f19168201604052611b389190810190613f23565b915091506000611b49878484612ab6565b60015460405163b696ae5b60e01b81526001600160a01b038b811660048301529293506000929091169063b696ae5b90602401602060405180830381865afa158015611b99573d6000803e3d6000fd5b505050506040513d601f19601f82011682018060405250810190611bbd9190613da5565b90506000600a60085483611bd19190614100565b611bdb9190614117565b9050876000611bea8584613d79565b821115611c095784611bfc84846140ed565b611c0691906140ed565b90505b60648111611c175780611c1a565b60645b9c9b505050505050505050505050565b611c326127ea565b6001546040516332f0f23360e11b81526001600160a01b038481166004830152909116906365e1e46690602401602060405180830381865afa158015611c7c573d6000803e3d6000fd5b505050506040513d601f19601f82011682018060405250810190611ca091906141db565b611cdf5760405162461bcd60e51b815260206004820152601060248201526f4167656e74206e6f742061637469766560801b60448201526064016106ff565b6001546040516313c49ec760e11b81526001600160a01b038481166004830152909116906327893d8e90602401600060405180830381600087803b158015611d2657600080fd5b505af1158015611d3a573d6000803e3d6000fd5b505050506000611d4983612567565b9050600160006064611d5b8385613d79565b11611d6f57611d6a8284613d79565b611d72565b60645b9050828114611e2e5760015460405163589060b560e11b81526001600160a01b038781166004830152602482018490529091169063b120c16a90604401600060405180830381600087803b158015611dc957600080fd5b505af1158015611ddd573d6000803e3d6000fd5b50506040805186815260208101859052428183015290518793506001600160a01b03891692507feafd6a64e8e6a98c7414cbaeb890e4f876ba04faf8e1c66f3582a6ce7bdea5439181900360600190a35b6002546001600160a01b031615611eb957600254604051637634eda960e11b81526001600160a01b039091169063ec69db5290611e749088906008908990600401614425565b6020604051808303816000875af1158015611e93573d6000803e3d6000fd5b505050506040513d601f19601f82011682018060405250810190611eb79190613da5565b505b5050505050565b60156020528160005260406000208181548110611edc57600080fd5b90600052602060002001600091509150508054611ef890613f92565b80601f0160208091040260200160405190810160405280929190818152602001828054611f2490613f92565b8015611f715780601f10611f4657610100808354040283529160200191611f71565b820191906000526020600020905b815481529060010190602001808311611f5457829003601f168201915b505050505081565b60146020908152600092835260409092208151808301840180519281529084019290930191909120915280548190611fb090613f92565b80601f0160208091040260200160405190810160405280929190818152602001828054611fdc90613f92565b80156120295780601f10611ffe57610100808354040283529160200191612029565b820191906000526020600020905b81548152906001019060200180831161200c57829003601f168201915b5050506001840154600285015460038601546004909601549495919490935060ff909116915085565b61205a6127ea565b60648211156120ab5760405162461bcd60e51b815260206004820152601c60248201527f4c616d626461206d757374206265206265747765656e20302d3130300000000060448201526064016106ff565b600391909155600455565b6120be6127ea565b600891909155600955565b6120d16127ea565b60648111156121225760405162461bcd60e51b815260206004820152601d60248201527f5175616c697479206d757374206265206265747765656e20302d31303000000060448201526064016106ff565b604080516080810182528481526001600160a01b038481166020808401918252838501868152426060860190815260008a81526017909352959091209351845590516001840180546001600160a01b03191691909316179091555160028201559051600390910155612195828483612bf3565b6121a0828483612e80565b6121ab8284836130c1565b600154604051632424b2fd60e21b81526001600160a01b0390911690639092cbf4906121df90859087908690600401613dec565b600060405180830381600087803b1580156121f957600080fd5b505af115801561220d573d6000803e3d6000fd5b505060015460405163790f3f9360e11b81526001600160a01b038681166004830152909116925063f21e7f269150602401600060405180830381600087803b15801561225857600080fd5b505af115801561226c573d6000803e3d6000fd5b50506002546001600160a01b03161591506122fd905057600254604051637634eda960e11b81526001600160a01b039091169063ec69db52906122b8908590600390889060040161446e565b6020604051808303816000875af11580156122d7573d6000803e3d6000fd5b505050506040513d601f19601f820116820180604052508101906122fb9190613da5565b505b604080518281524260208201526001600160a01b0384169185917fbcc9b09f002c580c5763c839298dab0f98cc51b77325abb5727266dc68932c0a910160405180910390a3505050565b60006123516127ea565b60648311156123a25760405162461bcd60e51b815260206004820152601d60248201527f5175616c697479206d757374206265206265747765656e20302d31303000000060448201526064016106ff565b60648211156123fd5760405162461bcd60e51b815260206004820152602160248201527f44656c617920726174696f206d757374206265206265747765656e20302d31306044820152600360fc1b60648201526084016106ff565b6000606461240b84826140ed565b6006546124189190614100565b856005546124269190614100565b6124309190613d79565b61243a9190614117565b60008681526018602052604090819020868155600180820187905560028201849055549151632424b2fd60e21b8152929350916001600160a01b0390911690639092cbf490612491908a908a908790600401613dec565b600060405180830381600087803b1580156124ab57600080fd5b505af11580156124bf573d6000803e3d6000fd5b505050506124ce8787846130c1565b600a548210156125095761250987876040518060400160405280600e81526020016d4c6f77207461736b2073636f726560901b8152506133be565b604080518381526020810187905290810185905242606082015286906001600160a01b038916907f05df06f70d25ba571bd44c3cce7d00426053f06bc1b2e8178b1d1c6ef2b4dc0f9060800160405180910390a35095945050505050565b600154604051630f85a25760e01b81526001600160a01b0383811660048301526000921690630f85a25790602401600060405180830381865afa1580156125b2573d6000803e3d6000fd5b505050506040513d6000823e601f3d908101601f191682016040526125da91908101906144c5565b5192915050565b6125e96127ea565b6001600160a01b03811661261357604051631e4fbdf760e01b8152600060048201526024016106ff565b61261c81612a66565b50565b6000806000606080600060186000888152602001908152602001600020905080600401805480602002602001604051908101604052809291908181526020016000905b8282101561270e57838290600052602060002001805461268190613f92565b80601f01602080910402602001604051908101604052809291908181526020018280546126ad90613f92565b80156126fa5780601f106126cf576101008083540402835291602001916126fa565b820191906000526020600020905b8154815290600101906020018083116126dd57829003601f168201915b505050505081526020019060010190612662565b50505050925082516001600160401b0381111561272d5761272d61377b565b604051908082528060200260200182016040528015612756578160200160208202803683370190505b50915060005b83518110156127ce578160030184828151811061277b5761277b613f7c565b602002602001015160405161279091906140d1565b9081526020016040518091039020548382815181106127b1576127b1613f7c565b6020908102919091010152806127c681613d8c565b91505061275c565b5080546001820154600290920154909891975095509193509150565b6000546001600160a01b0316331461146f5760405163118cdaa760e01b81523360048201526024016106ff565b6040805160e0810182528781526020808201889052818301879052606082018690526080820185905260a082018490524260c08301526001600160a01b038a166000908152601690915291909120546014116129e75760005b6001600160a01b038916600090815260166020526040902054612895906001906140ed565b81101561297d576001600160a01b03891660009081526016602052604090206128bf826001613d79565b815481106128cf576128cf613f7c565b9060005260206000209060070201601660008b6001600160a01b03166001600160a01b03168152602001908152602001600020828154811061291357612913613f7c565b906000526020600020906007020160008201548160000155600182015481600101556002820154816002015560038201548160030155600482015481600401556005820154816005015560068201548160060155905050808061297590613d8c565b915050612870565b506001600160a01b03881660009081526016602052604090208054806129a5576129a56145b1565b60008281526020812060076000199093019283020181815560018101829055600281018290556003810182905560048101829055600581018290556006015590555b6001600160a01b039097166000908152601660209081526040808320805460018181018355918552938390208b51600790950201938455918a0151918301919091558801516002820155606088015160038201556080880151600482015560a0880151600582015560c090970151600690970196909655505050505050565b600080546001600160a01b038381166001600160a01b0319831681178455604051919092169283917f8be0079c531659141344cd1fd0a4f28419497f9722a3daafe3b4186f6b6457e09190a35050565b60008351600003612ac957506000612bec565b8251600003612ae8578351600954612ae19190614100565b9050612bec565b6000805b8551811015612bc2576000805b8651811015612b7c57878381518110612b1457612b14613f7c565b602002602001015180519060200120878281518110612b3557612b35613f7c565b60200260200101518051906020012003612b6a57858181518110612b5b57612b5b613f7c565b60200260200101519150612b7c565b80612b7481613d8c565b915050612af9565b5080600003612b9757612b90606484613d79565b9250612baf565b612ba28160646140ed565b612bac9084613d79565b92505b5080612bba81613d8c565b915050612aec565b508451612bd0906064614100565b81600954612bde9190614100565b612be89190614117565b9150505b9392505050565b600154604051630f85a25760e01b81526001600160a01b0385811660048301526000921690630f85a25790602401600060405180830381865afa158015612c3e573d6000803e3d6000fd5b505050506040513d6000823e601f3d908101601f19168201604052612c6691908101906144c5565b60000151905060006064836003546064612c8091906140ed565b612c8a9190614100565b83600354612c989190614100565b612ca29190613d79565b612cac9190614117565b905081831115612d0b5760006103e8600d548486612cca91906140ed565b612cd49190614100565b612cde9190614117565b90506064612cec8284613d79565b11612d0057612cfb8183613d79565b612d03565b60645b915050612d59565b82821115612d595760006103e8600d548585612d2791906140ed565b612d319190614100565b612d3b9190614117565b9050808211612d4b576001612d55565b612d5581836140ed565b9150505b8181118015612d725750600454612d7083836140ed565b115b15612d8b57600454612d849083613d79565b9050612db9565b8082118015612da45750600454612da282846140ed565b115b15612db957600454612db690836140ed565b90505b6064811115612dc6575060645b818114611eb95760015460405163589060b560e11b81526001600160a01b038781166004830152602482018490529091169063b120c16a90604401600060405180830381600087803b158015612e1b57600080fd5b505af1158015612e2f573d6000803e3d6000fd5b5050604080518581526020810185905242918101919091528692506001600160a01b03881691507feafd6a64e8e6a98c7414cbaeb890e4f876ba04faf8e1c66f3582a6ce7bdea54390606001610e48565b60015460405163991ef17160e01b81526001600160a01b038581166004830152600092839291169063991ef17190602401600060405180830381865afa158015612ece573d6000803e3d6000fd5b505050506040513d6000823e601f3d908101601f19168201604052612ef69190810190613f23565b915091508151600003612f0a575050505050565b600082516001600160401b03811115612f2557612f2561377b565b604051908082528060200260200182016040528015612f4e578160200160208202803683370190505b50905060005b8351811015613052576000838281518110612f7157612f71613f7c565b6020026020010151905060006064876007546064612f8f91906140ed565b612f999190614100565b83600754612fa79190614100565b612fb19190613d79565b612fbb9190614117565b905080848481518110612fd057612fd0613f7c565b60200260200101818152505087896001600160a01b03167fc044aeef7596e34e8e03417c08f57148beeef24b0c218c082a2474761e8ff2cc88868151811061301a5761301a613f7c565b602002602001015185854260405161303594939291906145c7565b60405180910390a35050808061304a90613d8c565b915050612f54565b50600154604051631d9abc6b60e31b81526001600160a01b039091169063ecd5e358906130879089908790869060040161415e565b600060405180830381600087803b1580156130a157600080fd5b505af11580156130b5573d6000803e3d6000fd5b50505050505050505050565b60015460405163877dd2e360e01b81526001600160a01b038581166004830152600092839291169063877dd2e390602401606060405180830381865afa15801561310f573d6000803e3d6000fd5b505050506040513d601f19601f820116820180604052508101906131339190613dbe565b509150915060006046841061318e5760006064600e5460468761315691906140ed565b6131609190614100565b61316a9190614117565b90506131768185613d79565b91506011548211156131885760115491505b506131e4565b603284116131e15760006064600e548660326131aa91906140ed565b6131b49190614100565b6131be9190614117565b90508084116131cf576010546131d9565b6131d981856140ed565b9150506131e4565b50815b60015460405163ebeae58760e01b81526001600160a01b038881166004830152600092169063ebeae58790602401602060405180830381865afa15801561322f573d6000803e3d6000fd5b505050506040513d601f19601f820116820180604052508101906132539190613da5565b9050600060468210158015613269575060468610155b1561329357600f5461327b8186613d79565b915060135482111561328d5760135491505b506132d0565b6028821115806132a4575060288611155b156132cd57600f548085116132bb576012546132c5565b6132c581866140ed565b9150506132d0565b50825b84831415806132df5750838114155b156119725760015460405163a6f3d0f960e01b81526001600160a01b039091169063a6f3d0f990613318908b9087908690600401613dec565b600060405180830381600087803b15801561333257600080fd5b505af1158015613346573d6000803e3d6000fd5b5050505061335988868587858c8c612817565b60408051868152602081018590529081018590526060810182905242608082015287906001600160a01b038a16907f7b0d402cf1f179778a20ef37ac6eaead60308b2515d316cceea700afe7623cbc9060a00160405180910390a35050505050505050565b60015460405163991ef17160e01b81526001600160a01b038581166004830152600092839291169063991ef17190602401600060405180830381865afa15801561340c573d6000803e3d6000fd5b505050506040513d6000823e601f3d908101601f191682016040526134349190810190613f23565b915091508151600003613448575050505050565b600082516001600160401b038111156134635761346361377b565b60405190808252806020026020018201604052801561348c578160200160208202803683370190505b50905060005b83518110156135285760008382815181106134af576134af613f7c565b6020026020010151905060006064600b54836134cb9190614100565b6134d59190614117565b905060008183116134e75760016134f1565b6134f182846140ed565b90508085858151811061350657613506613f7c565b602002602001018181525050505050808061352090613d8c565b915050613492565b50600154604051631d9abc6b60e31b81526001600160a01b039091169063ecd5e3589061355d9089908790869060040161415e565b600060405180830381600087803b15801561357757600080fd5b505af115801561358b573d6000803e3d6000fd5b5050505084866001600160a01b03167f25dc1921df95ff9b32a8037196e0fdb5a097aae44ff30951e80bad9d8296cb1d86426040516135cb9291906145f6565b60405180910390a3505050505050565b508054600082559060005260206000209081019061261c9190613633565b50805461360590613f92565b6000825580601f10613615575050565b601f01602090049060005260206000209081019061261c9190613654565b8082111561365057600061364782826135f9565b50600101613633565b5090565b5b808211156136505760008155600101613655565b60008060008060008060c0878903121561368257600080fd5b505084359660208601359650604086013595606081013595506080810135945060a0013592509050565b80356001600160a01b03811681146136c357600080fd5b919050565b600080604083850312156136db57600080fd5b6136e4836136ac565b946020939093013593505050565b6000806040838503121561370557600080fd5b50508035926020909101359150565b60006020828403121561372657600080fd5b5035919050565b60006020828403121561373f57600080fd5b612bec826136ac565b60008060006060848603121561375d57600080fd5b613766846136ac565b95602085013595506040909401359392505050565b634e487b7160e01b600052604160045260246000fd5b60405160c081016001600160401b03811182821017156137b3576137b361377b565b60405290565b604051601f8201601f191681016001600160401b03811182821017156137e1576137e161377b565b604052919050565b60006001600160401b038211156138025761380261377b565b5060051b60200190565b60006001600160401b038211156138255761382561377b565b50601f01601f191660200190565b600082601f83011261384457600080fd5b81356138576138528261380c565b6137b9565b81815284602083860101111561386c57600080fd5b816020850160208301376000918101602001919091529392505050565b600082601f83011261389a57600080fd5b813560206138aa613852836137e9565b82815260059290921b840181019181810190868411156138c957600080fd5b8286015b848110156139085780356001600160401b038111156138ec5760008081fd5b6138fa8986838b0101613833565b8452509183019183016138cd565b509695505050505050565b6000806000806080858703121561392957600080fd5b613932856136ac565b9350602080860135935060408601356001600160401b038082111561395657600080fd5b61396289838a01613889565b9450606088013591508082111561397857600080fd5b508601601f8101881361398a57600080fd5b8035613998613852826137e9565b81815260059190911b8201830190838101908a8311156139b757600080fd5b928401925b828410156139d5578335825292840192908401906139bc565b979a9699509497505050505050565b6000806000604084860312156139f957600080fd5b613a02846136ac565b925060208401356001600160401b0380821115613a1e57600080fd5b818601915086601f830112613a3257600080fd5b813581811115613a4157600080fd5b8760208260051b8501011115613a5657600080fd5b6020830194508093505050509250925092565b602080825282518282018190526000919060409081850190868401855b82811015613ade5781518051855286810151878601528581015186860152606080820151908601526080808201519086015260a0808201519086015260c0908101519085015260e09093019290850190600101613a86565b5091979650505050505050565b60008060008060808587031215613b0157600080fd5b613b0a856136ac565b935060208501356001600160401b03811115613b2557600080fd5b613b3187828801613889565b949794965050505060408301359260600135919050565b60005b83811015613b63578181015183820152602001613b4b565b50506000910152565b60008151808452613b84816020860160208601613b48565b601f01601f19169290920160200192915050565b602081526000612bec6020830184613b6c565b60008060408385031215613bbe57600080fd5b613bc7836136ac565b915060208301356001600160401b03811115613be257600080fd5b613bee85828601613833565b9150509250929050565b60a081526000613c0b60a0830188613b6c565b60208301969096525060408101939093529015156060830152608090910152919050565b600080600060608486031215613c4457600080fd5b83359250613c54602085016136ac565b9150604084013590509250925092565b60008060008060808587031215613c7a57600080fd5b613c83856136ac565b966020860135965060408601359560600135945092505050565b600081518084526020808501808196508360051b8101915082860160005b85811015613ade578284038952613cd3848351613b6c565b98850198935090840190600101613cbb565b600081518084526020808501945080840160005b83811015613d1557815187529582019590820190600101613cf9565b509495945050505050565b85815284602082015283604082015260a060608201526000613d4560a0830185613c9d565b8281036080840152613d578185613ce5565b98975050505050505050565b634e487b7160e01b600052601160045260246000fd5b80820180821115610c4757610c47613d63565b600060018201613d9e57613d9e613d63565b5060010190565b600060208284031215613db757600080fd5b5051919050565b600080600060608486031215613dd357600080fd5b8351925060208401519150604084015190509250925092565b6001600160a01b039390931683526020830191909152604082015260600190565b600082601f830112613e1e57600080fd5b81516020613e2e613852836137e9565b82815260059290921b84018101918181019086841115613e4d57600080fd5b8286015b848110156139085780516001600160401b03811115613e705760008081fd5b8701603f81018913613e825760008081fd5b848101516040613e946138528361380c565b8281528b82848601011115613ea95760008081fd5b613eb883898301848701613b48565b8652505050918301918301613e51565b600082601f830112613ed957600080fd5b81516020613ee9613852836137e9565b82815260059290921b84018101918181019086841115613f0857600080fd5b8286015b848110156139085780518352918301918301613f0c565b60008060408385031215613f3657600080fd5b82516001600160401b0380821115613f4d57600080fd5b613f5986838701613e0d565b93506020850151915080821115613f6f57600080fd5b50613bee85828601613ec8565b634e487b7160e01b600052603260045260246000fd5b600181811c90821680613fa657607f821691505b602082108103613fc657634e487b7160e01b600052602260045260246000fd5b50919050565b601f821115610b1e57600081815260208120601f850160051c81016020861015613ff35750805b601f850160051c820191505b81811015611eb757828155600101613fff565b81516001600160401b0381111561402b5761402b61377b565b61403f816140398454613f92565b84613fcc565b602080601f831160018114614074576000841561405c5750858301515b600019600386901b1c1916600185901b178555611eb7565b600085815260208120601f198616915b828110156140a357888601518255948401946001909101908401614084565b50858210156140c15787850151600019600388901b60f8161c191681555b5050505050600190811b01905550565b600082516140e3818460208701613b48565b9190910192915050565b81810381811115610c4757610c47613d63565b8082028115828204841417610c4757610c47613d63565b60008261413457634e487b7160e01b600052601260045260246000fd5b500490565b60608152600061414c6060830186613b6c565b60208301949094525060400152919050565b6001600160a01b038416815260606020820181905260009061418290830185613c9d565b82810360408401526141948185613ce5565b9695505050505050565b8481526080602082015260006141b76080830186613c9d565b82810360408401526141c98186613ce5565b91505082606083015295945050505050565b6000602082840312156141ed57600080fd5b81518015158114612bec57600080fd5b6000808335601e1984360301811261421457600080fd5b8301803591506001600160401b0382111561422e57600080fd5b60200191503681900382131561424357600080fd5b9250929050565b6001600160401b038311156142615761426161377b565b6142758361426f8354613f92565b83613fcc565b6000601f8411600181146142a957600085156142915750838201355b600019600387901b1c1916600186901b178355611eb9565b600083815260209020601f19861690835b828110156142da57868501358255602094850194600190920191016142ba565b50868210156142f75760001960f88860031b161c19848701351681555b505060018560011b0183555050505050565b8183823760009101908152919050565b81835281816020850137506000828201602090810191909152601f909101601f19169091010190565b6001600160a01b0385168152606060208083018290529082018490526000906080600586901b840181019190840187845b888110156143e257868503607f190183528135368b9003601e1901811261439957600080fd5b8a0184810190356001600160401b038111156143b457600080fd5b8036038213156143c357600080fd5b6143ce878284614319565b965050509183019190830190600101614373565b5050505082810360408401526143f88185613ce5565b979650505050505050565b600c811061442157634e487b7160e01b600052602160045260246000fd5b9052565b6001600160a01b038416815261443e6020820184614403565b6040810191909152608060608201819052600790820152662134b2103bb7b760c91b60a082015260c00192915050565b6001600160a01b03841681526144876020820184614403565b60408101919091526080606082018190526015908201527415185cdac81c5d585b1a5d1e481c9958dbdc991959605a1b60a082015260c00192915050565b6000602082840312156144d757600080fd5b81516001600160401b03808211156144ee57600080fd5b9083019060c0828603121561450257600080fd5b61450a613791565b8251815260208301518281111561452057600080fd5b61452c87828601613e0d565b60208301525060408301518281111561454457600080fd5b61455087828601613ec8565b6040830152506060830151606082015260808301518281111561457257600080fd5b61457e87828601613ec8565b60808301525060a08301518281111561459657600080fd5b6145a287828601613ec8565b60a08301525095945050505050565b634e487b7160e01b600052603160045260246000fd5b6080815260006145da6080830187613b6c565b6020830195909552506040810192909252606090910152919050565b6040815260006146096040830185613b6c565b9050826020830152939250505056fea26469706673582212201c15aafe8ad163539a53c84e5ea18f2193be849085f536035c496880c4ddff3a64736f6c63430008140033",
  "linkReferences": {},
  "deployedLinkReferences": {}
}