{
  "_format": "hh-sol-artifact-1",
  "contractName": "Learning",
  "sourceName": "core/Learning.sol",
  "abi": [
    {
      "inputs": [
        {
          "internalType": "address",
          "name": "_agentRegistryAddress",
          "type": "address"
        }
      ],
      "stateMutability": "nonpayable",
      "type": "constructor"
    },
    {
      "anonymous": false,
      "inputs": [
        {
          "indexed": true,
          "internalType": "address",
          "name": "agent1",
          "type": "address"
        },
        {
          "indexed": true,
          "internalType": "address",
          "name": "agent2",
          "type": "address"
        },
        {
          "indexed": true,
          "internalType": "bytes32",
          "name": "collaborationId",
          "type": "bytes32"
        },
        {
          "indexed": false,
          "internalType": "string",
          "name": "eventType",
          "type": "string"
        },
        {
          "indexed": false,
          "internalType": "uint256",
          "name": "timestamp",
          "type": "uint256"
        }
      ],
      "name": "CollaborationEvent",
      "type": "event"
    },
    {
      "anonymous": false,
      "inputs": [
        {
          "indexed": true,
          "internalType": "uint256",
          "name": "eventId",
          "type": "uint256"
        },
        {
          "indexed": true,
          "internalType": "address",
          "name": "agentAddress",
          "type": "address"
        },
        {
          "indexed": false,
          "internalType": "string",
          "name": "eventType",
          "type": "string"
        },
        {
          "indexed": false,
          "internalType": "uint256",
          "name": "timestamp",
          "type": "uint256"
        }
      ],
      "name": "LearningEventRecorded",
      "type": "event"
    },
    {
      "anonymous": false,
      "inputs": [
        {
          "indexed": true,
          "internalType": "address",
          "name": "agentAddress",
          "type": "address"
        },
        {
          "indexed": false,
          "internalType": "string",
          "name": "milestoneType",
          "type": "string"
        },
        {
          "indexed": false,
          "internalType": "uint256",
          "name": "value",
          "type": "uint256"
        },
        {
          "indexed": false,
          "internalType": "uint256",
          "name": "timestamp",
          "type": "uint256"
        }
      ],
      "name": "LearningMilestone",
      "type": "event"
    },
    {
      "anonymous": false,
      "inputs": [
        {
          "indexed": true,
          "internalType": "address",
          "name": "agentAddress",
          "type": "address"
        },
        {
          "indexed": true,
          "internalType": "string",
          "name": "skillTag",
          "type": "string"
        },
        {
          "indexed": false,
          "internalType": "uint256",
          "name": "oldScore",
          "type": "uint256"
        },
        {
          "indexed": false,
          "internalType": "uint256",
          "name": "newScore",
          "type": "uint256"
        },
        {
          "indexed": false,
          "internalType": "uint256",
          "name": "timestamp",
          "type": "uint256"
        }
      ],
      "name": "SkillImprovement",
      "type": "event"
    },
    {
      "anonymous": false,
      "inputs": [
        {
          "indexed": true,
          "internalType": "address",
          "name": "agentAddress",
          "type": "address"
        },
        {
          "indexed": true,
          "internalType": "bytes32",
          "name": "taskId",
          "type": "bytes32"
        },
        {
          "indexed": false,
          "internalType": "uint256",
          "name": "qualityScore",
          "type": "uint256"
        },
        {
          "indexed": false,
          "internalType": "uint256",
          "name": "timeSpent",
          "type": "uint256"
        },
        {
          "indexed": false,
          "internalType": "uint256",
          "name": "timestamp",
          "type": "uint256"
        }
      ],
      "name": "TaskCompletion",
      "type": "event"
    },
    {
      "inputs": [
        {
          "internalType": "uint256",
          "name": "",
          "type": "uint256"
        }
      ],
      "name": "eventIds",
      "outputs": [
        {
          "internalType": "uint256",
          "name": "",
          "type": "uint256"
        }
      ],
      "stateMutability": "view",
      "type": "function"
    },
    {
      "inputs": [
        {
          "internalType": "uint256",
          "name": "",
          "type": "uint256"
        }
      ],
      "name": "events",
      "outputs": [
        {
          "internalType": "address",
          "name": "agentAddress",
          "type": "address"
        },
        {
          "internalType": "string",
          "name": "eventType",
          "type": "string"
        },
        {
          "internalType": "string",
          "name": "data",
          "type": "string"
        },
        {
          "internalType": "uint256",
          "name": "timestamp",
          "type": "uint256"
        }
      ],
      "stateMutability": "view",
      "type": "function"
    },
    {
      "inputs": [
        {
          "internalType": "address",
          "name": "agentAddress",
          "type": "address"
        }
      ],
      "name": "getAgentEvents",
      "outputs": [
        {
          "internalType": "uint256[]",
          "name": "",
          "type": "uint256[]"
        }
      ],
      "stateMutability": "view",
      "type": "function"
    },
    {
      "inputs": [],
      "name": "getAllEvents",
      "outputs": [
        {
          "internalType": "uint256[]",
          "name": "",
          "type": "uint256[]"
        }
      ],
      "stateMutability": "view",
      "type": "function"
    },
    {
      "inputs": [
        {
          "internalType": "uint256",
          "name": "eventId",
          "type": "uint256"
        }
      ],
      "name": "getEventDetails",
      "outputs": [
        {
          "components": [
            {
              "internalType": "address",
              "name": "agentAddress",
              "type": "address"
            },
            {
              "internalType": "string",
              "name": "eventType",
              "type": "string"
            },
            {
              "internalType": "string",
              "name": "data",
              "type": "string"
            },
            {
              "internalType": "uint256",
              "name": "timestamp",
              "type": "uint256"
            }
          ],
          "internalType": "struct Learning.LearningEvent",
          "name": "",
          "type": "tuple"
        }
      ],
      "stateMutability": "view",
      "type": "function"
    },
    {
      "inputs": [
        {
          "internalType": "string",
          "name": "eventType",
          "type": "string"
        }
      ],
      "name": "getEventsByType",
      "outputs": [
        {
          "internalType": "uint256[]",
          "name": "",
          "type": "uint256[]"
        }
      ],
      "stateMutability": "view",
      "type": "function"
    },
    {
      "inputs": [],
      "name": "getTotalEventCount",
      "outputs": [
        {
          "internalType": "uint256",
          "name": "",
          "type": "uint256"
        }
      ],
      "stateMutability": "view",
      "type": "function"
    },
    {
      "inputs": [
        {
          "internalType": "address",
          "name": "agent1",
          "type": "address"
        },
        {
          "internalType": "address",
          "name": "agent2",
          "type": "address"
        },
        {
          "internalType": "bytes32",
          "name": "collaborationId",
          "type": "bytes32"
        },
        {
          "internalType": "string",
          "name": "eventType",
          "type": "string"
        }
      ],
      "name": "recordCollaboration",
      "outputs": [],
      "stateMutability": "nonpayable",
      "type": "function"
    },
    {
      "inputs": [
        {
          "internalType": "address",
          "name": "agentAddress",
          "type": "address"
        },
        {
          "internalType": "string",
          "name": "eventType",
          "type": "string"
        },
        {
          "internalType": "string",
          "name": "data",
          "type": "string"
        }
      ],
      "name": "recordEvent",
      "outputs": [
        {
          "internalType": "uint256",
          "name": "",
          "type": "uint256"
        }
      ],
      "stateMutability": "nonpayable",
      "type": "function"
    },
    {
      "inputs": [
        {
          "internalType": "address",
          "name": "agentAddress",
          "type": "address"
        },
        {
          "internalType": "string",
          "name": "milestoneType",
          "type": "string"
        },
        {
          "internalType": "uint256",
          "name": "value",
          "type": "uint256"
        }
      ],
      "name": "recordLearningMilestone",
      "outputs": [],
      "stateMutability": "nonpayable",
      "type": "function"
    },
    {
      "inputs": [
        {
          "internalType": "address",
          "name": "agentAddress",
          "type": "address"
        },
        {
          "internalType": "string",
          "name": "skillTag",
          "type": "string"
        },
        {
          "internalType": "uint256",
          "name": "oldScore",
          "type": "uint256"
        },
        {
          "internalType": "uint256",
          "name": "newScore",
          "type": "uint256"
        }
      ],
      "name": "recordSkillImprovement",
      "outputs": [],
      "stateMutability": "nonpayable",
      "type": "function"
    },
    {
      "inputs": [
        {
          "internalType": "address",
          "name": "agentAddress",
          "type": "address"
        },
        {
          "internalType": "bytes32",
          "name": "taskId",
          "type": "bytes32"
        },
        {
          "internalType": "uint256",
          "name": "qualityScore",
          "type": "uint256"
        },
        {
          "internalType": "uint256",
          "name": "timeSpent",
          "type": "uint256"
        }
      ],
      "name": "recordTaskCompletion",
      "outputs": [],
      "stateMutability": "nonpayable",
      "type": "function"
    }
  ],
  "bytecode": "0x608060405234801561001057600080fd5b50604051611b88380380611b8883398101604081905261002f91610059565b600380546001600160a01b0319166001600160a01b03929092169190911790556001600255610089565b60006020828403121561006b57600080fd5b81516001600160a01b038116811461008257600080fd5b9392505050565b611af0806100986000396000f3fe608060405234801561001057600080fd5b50600436106100b45760003560e01c8063bcf52ef811610071578063bcf52ef814610152578063c27a500d14610165578063d6ff0ab41461016d578063ec38d5a014610180578063f2a5194d146101a0578063ffbf39c1146101b357600080fd5b806309ce3849146100b95780630b791430146100ce5780630ed0f06b146100fa578063649ad6321461010c578063870639f81461012c578063998f6ac01461013f575b600080fd5b6100cc6100c7366004611145565b6101c6565b005b6100e16100dc36600461117e565b6102ed565b6040516100f194939291906111e7565b60405180910390f35b6001545b6040519081526020016100f1565b61011f61011a36600461122f565b610430565b6040516100f1919061124a565b61011f61013a366004611331565b6105af565b6100fe61014d36600461117e565b610738565b6100cc610160366004611366565b610759565b61011f6107f9565b6100cc61017b3660046113bd565b610851565b61019361018e36600461117e565b610909565b6040516100f19190611425565b6100fe6101ae366004611487565b610a9c565b6100cc6101c13660046114fb565b610b87565b60648211156102285760405162461bcd60e51b815260206004820152602360248201527f5175616c6974792073636f7265206d757374206265206265747765656e20302d60448201526203130360ec1b60648201526084015b60405180910390fd5b600061023384610cfe565b61023c84610e35565b61024584610e35565b60405160200161025793929190611559565b60408051601f19818403018152828201909152600f82526e3a30b9b5afb1b7b6b83632ba34b7b760891b6020830152915061029490869083610a9c565b506040805184815260208101849052429181019190915284906001600160a01b038716907fb13a3274a663afdb60e66f8ea7b016c80fc0bae53534bfd255b32cdccbb9f5b4906060015b60405180910390a35050505050565b600060208190529081526040902080546001820180546001600160a01b039092169291610319906115fa565b80601f0160208091040260200160405190810160405280929190818152602001828054610345906115fa565b80156103925780601f1061036757610100808354040283529160200191610392565b820191906000526020600020905b81548152906001019060200180831161037557829003601f168201915b5050505050908060020180546103a7906115fa565b80601f01602080910402602001604051908101604052809291908181526020018280546103d3906115fa565b80156104205780601f106103f557610100808354040283529160200191610420565b820191906000526020600020905b81548152906001019060200180831161040357829003601f168201915b5050505050908060030154905084565b60606000805b6001548110156104aa57836001600160a01b03166000806001848154811061046057610460611634565b600091825260208083209091015483528201929092526040019020546001600160a01b031603610498578161049481611660565b9250505b806104a281611660565b915050610436565b5060008167ffffffffffffffff8111156104c6576104c661128e565b6040519080825280602002602001820160405280156104ef578160200160208202803683370190505b5090506000805b6001548110156105a557856001600160a01b03166000806001848154811061052057610520611634565b600091825260208083209091015483528201929092526040019020546001600160a01b031603610593576001818154811061055d5761055d611634565b906000526020600020015483838151811061057a5761057a611634565b60209081029190910101528161058f81611660565b9250505b8061059d81611660565b9150506104f6565b5090949350505050565b60606000805b600154811015610633578380519060200120600080600184815481106105dd576105dd611634565b906000526020600020015481526020019081526020016000206001016040516106069190611679565b604051809103902003610621578161061d81611660565b9250505b8061062b81611660565b9150506105b5565b5060008167ffffffffffffffff81111561064f5761064f61128e565b604051908082528060200260200182016040528015610678578160200160208202803683370190505b5090506000805b6001548110156105a5578580519060200120600080600184815481106106a7576106a7611634565b906000526020600020015481526020019081526020016000206001016040516106d09190611679565b60405180910390200361072657600181815481106106f0576106f0611634565b906000526020600020015483838151811061070d5761070d611634565b60209081029190910101528161072281611660565b9250505b8061073081611660565b91505061067f565b6001818154811061074857600080fd5b600091825260209091200154905081565b60008261076583610e35565b6040516020016107769291906116ef565b60408051601f1981840301815282820190915260098252686d696c6573746f6e6560b81b602083015291506107ad90859083610a9c565b50836001600160a01b03167fcff697fb21a631d739ba514768567da89581a3278707fb990bbb169e71f269868484426040516107eb93929190611761565b60405180910390a250505050565b6060600180548060200260200160405190810160405280929190818152602001828054801561084757602002820191906000526020600020905b815481526020019060010190808311610833575b5050505050905090565b600061085c83610cfe565b61086585610f3e565b8360405160200161087893929190611786565b60408051601f19818403018152828201909152600d82526c31b7b63630b137b930ba34b7b760991b602083015291506108b390869083610a9c565b5082846001600160a01b0316866001600160a01b03167ffbf0c0ec7f109cd21de232cfc50c2fd7f9656fa7a50f95541ab5593e4783b1ca85426040516108fa92919061182f565b60405180910390a45050505050565b61093d604051806080016040528060006001600160a01b031681526020016060815260200160608152602001600081525090565b6000828152602081815260409182902082516080810190935280546001600160a01b031683526001810180549192840191610977906115fa565b80601f01602080910402602001604051908101604052809291908181526020018280546109a3906115fa565b80156109f05780601f106109c5576101008083540402835291602001916109f0565b820191906000526020600020905b8154815290600101906020018083116109d357829003601f168201915b50505050508152602001600282018054610a09906115fa565b80601f0160208091040260200160405190810160405280929190818152602001828054610a35906115fa565b8015610a825780601f10610a5757610100808354040283529160200191610a82565b820191906000526020600020905b815481529060010190602001808311610a6557829003601f168201915b505050505081526020016003820154815250509050919050565b6002805460009182919082610ab083611660565b90915550600081815260208190526040902080546001600160a01b0319166001600160a01b03881617815590915060018101610aec86826118a0565b5060028101610afb85826118a0565b5042600382018190556001805480820182556000919091527fb10e2d527612073b26eecdfd717e6a320cf44b4afac2b0732d9fcbe2b7fa0cf6018390556040516001600160a01b0388169184917f216116d948fbe5e509c4dce846d98610c1ab3ba2be56176d2e19306b28f6f37091610b76918a919061182f565b60405180910390a350949350505050565b818111610be65760405162461bcd60e51b815260206004820152602760248201527f4e65772073636f7265206d75737420626520686967686572207468616e206f6c604482015266642073636f726560c81b606482015260840161021f565b6064811115610c375760405162461bcd60e51b815260206004820152601b60248201527f53636f7265206d757374206265206265747765656e20302d3130300000000000604482015260640161021f565b600083610c4384610e35565b610c4c84610e35565b604051602001610c5e93929190611960565b60408051601f1981840301815282820190915260118252701cdada5b1b17da5b5c1c9bdd995b595b9d607a1b60208301529150610c9d90869083610a9c565b5083604051610cac91906119fe565b60408051918290038220858352602083018590524291830191909152906001600160a01b038716907fb680df77c4ca7af1058cce109b4f75ed8ab998cff33dab8c2557b2843068689d906060016102de565b606060005b60208160ff16108015610d375750828160ff1660208110610d2657610d26611634565b1a60f81b6001600160f81b03191615155b15610d4e5780610d4681611a1a565b915050610d03565b60008160ff1667ffffffffffffffff811115610d6c57610d6c61128e565b6040519080825280601f01601f191660200182016040528015610d96576020820181803683370190505b509050600091505b60208260ff16108015610dd25750838260ff1660208110610dc157610dc1611634565b1a60f81b6001600160f81b03191615155b15610e2e57838260ff1660208110610dec57610dec611634565b1a60f81b818360ff1681518110610e0557610e05611634565b60200101906001600160f81b031916908160001a90535081610e2681611a1a565b925050610d9e565b9392505050565b606081600003610e5c5750506040805180820190915260018152600360fc1b602082015290565b8160005b8115610e865780610e7081611660565b9150610e7f9050600a83611a4f565b9150610e60565b60008167ffffffffffffffff811115610ea157610ea161128e565b6040519080825280601f01601f191660200182016040528015610ecb576020820181803683370190505b5090505b8415610f3657610ee0600183611a63565b9150610eed600a86611a7c565b610ef8906030611a90565b60f81b818381518110610f0d57610f0d611634565b60200101906001600160f81b031916908160001a905350610f2f600a86611a4f565b9450610ecf565b949350505050565b604080518082018252601081526f181899199a1a9b1b9c1cb0b131b232b360811b60208201528151602a80825260608281019094526001600160a01b0385169291600091602082018180368337019050509050600360fc1b81600081518110610fa957610fa9611634565b60200101906001600160f81b031916908160001a905350600f60fb1b81600181518110610fd857610fd8611634565b60200101906001600160f81b031916908160001a90535060005b6014811015611120578260048561100a84600c611a90565b6020811061101a5761101a611634565b1a60f81b6001600160f81b031916901c60f81c60ff168151811061104057611040611634565b01602001516001600160f81b0319168261105b836002611aa3565b611066906002611a90565b8151811061107657611076611634565b60200101906001600160f81b031916908160001a905350828461109a83600c611a90565b602081106110aa576110aa611634565b825191901a600f169081106110c1576110c1611634565b01602001516001600160f81b031916826110dc836002611aa3565b6110e7906003611a90565b815181106110f7576110f7611634565b60200101906001600160f81b031916908160001a9053508061111881611660565b915050610ff2565b50949350505050565b80356001600160a01b038116811461114057600080fd5b919050565b6000806000806080858703121561115b57600080fd5b61116485611129565b966020860135965060408601359560600135945092505050565b60006020828403121561119057600080fd5b5035919050565b60005b838110156111b257818101518382015260200161119a565b50506000910152565b600081518084526111d3816020860160208601611197565b601f01601f19169290920160200192915050565b6001600160a01b038516815260806020820181905260009061120b908301866111bb565b828103604084015261121d81866111bb565b91505082606083015295945050505050565b60006020828403121561124157600080fd5b610e2e82611129565b6020808252825182820181905260009190848201906040850190845b8181101561128257835183529284019291840191600101611266565b50909695505050505050565b634e487b7160e01b600052604160045260246000fd5b600082601f8301126112b557600080fd5b813567ffffffffffffffff808211156112d0576112d061128e565b604051601f8301601f19908116603f011681019082821181831017156112f8576112f861128e565b8160405283815286602085880101111561131157600080fd5b836020870160208301376000602085830101528094505050505092915050565b60006020828403121561134357600080fd5b813567ffffffffffffffff81111561135a57600080fd5b610f36848285016112a4565b60008060006060848603121561137b57600080fd5b61138484611129565b9250602084013567ffffffffffffffff8111156113a057600080fd5b6113ac868287016112a4565b925050604084013590509250925092565b600080600080608085870312156113d357600080fd5b6113dc85611129565b93506113ea60208601611129565b925060408501359150606085013567ffffffffffffffff81111561140d57600080fd5b611419878288016112a4565b91505092959194509250565b602080825282516001600160a01b0316828201528201516080604083015260009061145360a08401826111bb565b90506040840151601f1984830301606085015261147082826111bb565b915050606084015160808401528091505092915050565b60008060006060848603121561149c57600080fd5b6114a584611129565b9250602084013567ffffffffffffffff808211156114c257600080fd5b6114ce878388016112a4565b935060408601359150808211156114e457600080fd5b506114f1868287016112a4565b9150509250925092565b6000806000806080858703121561151157600080fd5b61151a85611129565b9350602085013567ffffffffffffffff81111561153657600080fd5b611542878288016112a4565b949794965050505060408301359260600135919050565b6a3d913a30b9b5a4b2111d1160a91b8152835160009061158081600b850160208901611197565b7011161138bab0b634ba3ca9b1b7b932911d60791b600b9184019182015284516115b181601c840160208901611197565b6c16113a34b6b2a9b832b73a111d60991b601c929091019182015283516115df816029840160208801611197565b607d60f81b60299290910191820152602a0195945050505050565b600181811c9082168061160e57607f821691505b60208210810361162e57634e487b7160e01b600052602260045260246000fd5b50919050565b634e487b7160e01b600052603260045260246000fd5b634e487b7160e01b600052601160045260246000fd5b6000600182016116725761167261164a565b5060010190565b6000808354611687816115fa565b6001828116801561169f57600181146116b4576116e3565b60ff19841687528215158302870194506116e3565b8760005260208060002060005b858110156116da5781548a8201529084019082016116c1565b50505082870194505b50929695505050505050565b713d9136b4b632b9ba37b732aa3cb832911d1160711b8152825160009061171d816012850160208801611197565b691116113b30b63ab2911d60b11b601291840191820152835161174781601c840160208801611197565b607d60f81b601c9290910191820152601d01949350505050565b60608152600061177460608301866111bb565b60208301949094525060400152919050565b733d9131b7b63630b137b930ba34b7b724b2111d1160611b815283516000906117b6816014850160208901611197565b6c1116113830b93a3732b9111d1160991b60149184019182015284516117e3816021840160208901611197565b6e11161132bb32b73a2a3cb832911d1160891b602192909101918201528351611813816030840160208801611197565b61227d60f01b6030929091019182015260320195945050505050565b60408152600061184260408301856111bb565b90508260208301529392505050565b601f82111561189b57600081815260208120601f850160051c810160208610156118785750805b601f850160051c820191505b8181101561189757828155600101611884565b5050505b505050565b815167ffffffffffffffff8111156118ba576118ba61128e565b6118ce816118c884546115fa565b84611851565b602080601f83116001811461190357600084156118eb5750858301515b600019600386901b1c1916600185901b178555611897565b600085815260208120601f198616915b8281101561193257888601518255948401946001909101908401611913565b50858210156119505787850151600019600388901b60f8161c191681555b5050505050600190811b01905550565b6c3d9139b5b4b6362a30b3911d1160991b8152835160009061198981600d850160208901611197565b6c11161137b63229b1b7b932911d60991b600d9184019182015284516119b681601a840160208901611197565b6b16113732bba9b1b7b932911d60a11b601a929091019182015283516119e3816026840160208801611197565b607d60f81b6026929091019182015260270195945050505050565b60008251611a10818460208701611197565b9190910192915050565b600060ff821660ff8103611a3057611a3061164a565b60010192915050565b634e487b7160e01b600052601260045260246000fd5b600082611a5e57611a5e611a39565b500490565b81810381811115611a7657611a7661164a565b92915050565b600082611a8b57611a8b611a39565b500690565b80820180821115611a7657611a7661164a565b8082028115828204841417611a7657611a7661164a56fea26469706673582212206b469eee76adb5708488a201b2bfc5dff1d921b51acb9d4960e599508bad9a1564736f6c63430008140033",
  "linkReferences": {},
  "deployedLinkReferences": {}
}