{
  "_format": "hh-sol-artifact-1",
  "contractName": "MessageHub",
  "sourceName": "core/MessageHub.sol",
  "abi": [
    {
      "inputs": [
        {
          "internalType": "address",
          "name": "_agentRegistryAddress",
          "type": "address"
        }
      ],
      "stateMutability": "nonpayable",
      "type": "constructor"
    },
    {
      "inputs": [],
      "name": "ECDSAInvalidSignature",
      "type": "error"
    },
    {
      "inputs": [
        {
          "internalType": "uint256",
          "name": "length",
          "type": "uint256"
        }
      ],
      "name": "ECDSAInvalidSignatureLength",
      "type": "error"
    },
    {
      "inputs": [
        {
          "internalType": "bytes32",
          "name": "s",
          "type": "bytes32"
        }
      ],
      "name": "ECDSAInvalidSignatureS",
      "type": "error"
    },
    {
      "inputs": [
        {
          "internalType": "address",
          "name": "owner",
          "type": "address"
        }
      ],
      "name": "OwnableInvalidOwner",
      "type": "error"
    },
    {
      "inputs": [
        {
          "internalType": "address",
          "name": "account",
          "type": "address"
        }
      ],
      "name": "OwnableUnauthorizedAccount",
      "type": "error"
    },
    {
      "anonymous": false,
      "inputs": [
        {
          "indexed": true,
          "internalType": "bytes32",
          "name": "messageHash",
          "type": "bytes32"
        },
        {
          "indexed": true,
          "internalType": "address",
          "name": "sender",
          "type": "address"
        },
        {
          "indexed": true,
          "internalType": "address",
          "name": "recipient",
          "type": "address"
        },
        {
          "indexed": false,
          "internalType": "string",
          "name": "messageURI",
          "type": "string"
        },
        {
          "indexed": false,
          "internalType": "uint256",
          "name": "timestamp",
          "type": "uint256"
        },
        {
          "indexed": false,
          "internalType": "bytes32",
          "name": "conversationId",
          "type": "bytes32"
        }
      ],
      "name": "MessageSent",
      "type": "event"
    },
    {
      "anonymous": false,
      "inputs": [
        {
          "indexed": true,
          "internalType": "bytes32",
          "name": "messageHash",
          "type": "bytes32"
        },
        {
          "indexed": true,
          "internalType": "address",
          "name": "verifier",
          "type": "address"
        },
        {
          "indexed": false,
          "internalType": "uint256",
          "name": "timestamp",
          "type": "uint256"
        }
      ],
      "name": "MessageVerified",
      "type": "event"
    },
    {
      "anonymous": false,
      "inputs": [
        {
          "indexed": true,
          "internalType": "address",
          "name": "previousOwner",
          "type": "address"
        },
        {
          "indexed": true,
          "internalType": "address",
          "name": "newOwner",
          "type": "address"
        }
      ],
      "name": "OwnershipTransferred",
      "type": "event"
    },
    {
      "inputs": [
        {
          "internalType": "address",
          "name": "",
          "type": "address"
        },
        {
          "internalType": "uint256",
          "name": "",
          "type": "uint256"
        }
      ],
      "name": "agentMessages",
      "outputs": [
        {
          "internalType": "bytes32",
          "name": "",
          "type": "bytes32"
        }
      ],
      "stateMutability": "view",
      "type": "function"
    },
    {
      "inputs": [],
      "name": "agentRegistry",
      "outputs": [
        {
          "internalType": "contract AgentRegistry",
          "name": "",
          "type": "address"
        }
      ],
      "stateMutability": "view",
      "type": "function"
    },
    {
      "inputs": [
        {
          "internalType": "bytes32",
          "name": "",
          "type": "bytes32"
        },
        {
          "internalType": "uint256",
          "name": "",
          "type": "uint256"
        }
      ],
      "name": "conversationMessages",
      "outputs": [
        {
          "internalType": "bytes32",
          "name": "",
          "type": "bytes32"
        }
      ],
      "stateMutability": "view",
      "type": "function"
    },
    {
      "inputs": [
        {
          "internalType": "address",
          "name": "agentAddress",
          "type": "address"
        }
      ],
      "name": "getAgentMessages",
      "outputs": [
        {
          "internalType": "bytes32[]",
          "name": "",
          "type": "bytes32[]"
        }
      ],
      "stateMutability": "view",
      "type": "function"
    },
    {
      "inputs": [
        {
          "internalType": "bytes32",
          "name": "conversationId",
          "type": "bytes32"
        }
      ],
      "name": "getConversationMessages",
      "outputs": [
        {
          "internalType": "bytes32[]",
          "name": "",
          "type": "bytes32[]"
        }
      ],
      "stateMutability": "view",
      "type": "function"
    },
    {
      "inputs": [
        {
          "internalType": "bytes32",
          "name": "messageHash",
          "type": "bytes32"
        }
      ],
      "name": "isMessageVerified",
      "outputs": [
        {
          "internalType": "bool",
          "name": "",
          "type": "bool"
        }
      ],
      "stateMutability": "view",
      "type": "function"
    },
    {
      "inputs": [
        {
          "internalType": "bytes32",
          "name": "",
          "type": "bytes32"
        }
      ],
      "name": "messages",
      "outputs": [
        {
          "internalType": "address",
          "name": "sender",
          "type": "address"
        },
        {
          "internalType": "address",
          "name": "recipient",
          "type": "address"
        },
        {
          "internalType": "bytes32",
          "name": "messageHash",
          "type": "bytes32"
        },
        {
          "internalType": "string",
          "name": "messageURI",
          "type": "string"
        },
        {
          "internalType": "uint256",
          "name": "timestamp",
          "type": "uint256"
        },
        {
          "internalType": "bytes32",
          "name": "previousMessageHash",
          "type": "bytes32"
        },
        {
          "internalType": "bool",
          "name": "verified",
          "type": "bool"
        }
      ],
      "stateMutability": "view",
      "type": "function"
    },
    {
      "inputs": [],
      "name": "owner",
      "outputs": [
        {
          "internalType": "address",
          "name": "",
          "type": "address"
        }
      ],
      "stateMutability": "view",
      "type": "function"
    },
    {
      "inputs": [],
      "name": "renounceOwnership",
      "outputs": [],
      "stateMutability": "nonpayable",
      "type": "function"
    },
    {
      "inputs": [
        {
          "internalType": "address",
          "name": "recipient",
          "type": "address"
        },
        {
          "internalType": "string",
          "name": "messageURI",
          "type": "string"
        },
        {
          "internalType": "bytes32",
          "name": "messageHash",
          "type": "bytes32"
        },
        {
          "internalType": "bytes32",
          "name": "conversationId",
          "type": "bytes32"
        },
        {
          "internalType": "bytes32",
          "name": "previousMessageHash",
          "type": "bytes32"
        },
        {
          "internalType": "bytes",
          "name": "signature",
          "type": "bytes"
        },
        {
          "internalType": "uint256",
          "name": "nonce",
          "type": "uint256"
        }
      ],
      "name": "sendMessage",
      "outputs": [],
      "stateMutability": "nonpayable",
      "type": "function"
    },
    {
      "inputs": [
        {
          "internalType": "address",
          "name": "newOwner",
          "type": "address"
        }
      ],
      "name": "transferOwnership",
      "outputs": [],
      "stateMutability": "nonpayable",
      "type": "function"
    },
    {
      "inputs": [
        {
          "internalType": "bytes32",
          "name": "messageHash",
          "type": "bytes32"
        },
        {
          "internalType": "bytes",
          "name": "signature",
          "type": "bytes"
        },
        {
          "internalType": "uint256",
          "name": "nonce",
          "type": "uint256"
        }
      ],
      "name": "verifyMessage",
      "outputs": [],
      "stateMutability": "nonpayable",
      "type": "function"
    }
  ],
  "bytecode": "0x608060405234801561001057600080fd5b5060405161128638038061128683398101604081905261002f916100d4565b338061005557604051631e4fbdf760e01b81526000600482015260240160405180910390fd5b61005e81610084565b50600180546001600160a01b0319166001600160a01b0392909216919091179055610104565b600080546001600160a01b038381166001600160a01b0319831681178455604051919092169283917f8be0079c531659141344cd1fd0a4f28419497f9722a3daafe3b4186f6b6457e09190a35050565b6000602082840312156100e657600080fd5b81516001600160a01b03811681146100fd57600080fd5b9392505050565b611173806101136000396000f3fe608060405234801561001057600080fd5b50600436106100b45760003560e01c8063715018a611610071578063715018a6146101785780638da5cb5b14610180578063befcddca14610191578063dc99d2ac146101a4578063e002fe37146101b7578063f2fde38b146101ed57600080fd5b80630d1cfcae146100b95780632bbd59ca146100e95780634e775e101461010f5780634f8713701461012f5780635f501e86146101445780636d46b53a14610157575b600080fd5b6001546100cc906001600160a01b031681565b6040516001600160a01b0390911681526020015b60405180910390f35b6100fc6100f7366004610c68565b610200565b6040516100e09796959493929190610cc7565b61012261011d366004610c68565b6102d7565b6040516100e09190610d1b565b61014261013d366004610e12565b610339565b005b610122610152366004610e7e565b6105b6565b61016a610165366004610e99565b610620565b6040519081526020016100e0565b610142610651565b6000546001600160a01b03166100cc565b61014261019f366004610ec3565b610665565b61016a6101b2366004610f75565b61098e565b6101dd6101c5366004610c68565b60009081526002602052604090206006015460ff1690565b60405190151581526020016100e0565b6101426101fb366004610e7e565b6109aa565b600260208190526000918252604090912080546001820154928201546003830180546001600160a01b039384169590931693919261023d90610f97565b80601f016020809104026020016040519081016040528092919081815260200182805461026990610f97565b80156102b65780601f1061028b576101008083540402835291602001916102b6565b820191906000526020600020905b81548152906001019060200180831161029957829003601f168201915b50505050600483015460058401546006909401549293909290915060ff1687565b60008181526004602090815260409182902080548351818402810184019094528084526060939283018282801561032d57602002820191906000526020600020905b815481526020019060010190808311610319575b50505050509050919050565b6000838152600260205260409020600401546103955760405162461bcd60e51b815260206004820152601660248201527513595cdcd859d948191bd95cc81b9bdd08195e1a5cdd60521b60448201526064015b60405180910390fd5b6000838152600260205260409020600101546001600160a01b031633146103fe5760405162461bcd60e51b815260206004820152601960248201527f4f6e6c7920726563697069656e742063616e2076657269667900000000000000604482015260640161038c565b33600090815260056020908152604080832084845290915290205460ff161561045e5760405162461bcd60e51b8152602060048201526012602482015271139bdb98d948185b1c9958591e481d5cd95960721b604482015260640161038c565b3360009081526005602090815260408083208484528252808320805460ff19166001179055516104f9916104b091879186910191825267159154925192515160c21b6020830152602882015260480190565b604051602081830303815290604052805190602001207f19457468657265756d205369676e6564204d6573736167653a0a3332000000006000908152601c91909152603c902090565b9050600061050782856109e8565b90506001600160a01b03811633146105555760405162461bcd60e51b8152602060048201526011602482015270496e76616c6964207369676e617475726560781b604482015260640161038c565b60008581526002602052604090819020600601805460ff1916600117905551339086907fbc93fa3cf41127d00c259d1f1e26fe9f511907e0dc8102a85792b5a822f7b401906105a79042815260200190565b60405180910390a35050505050565b6001600160a01b03811660009081526003602090815260409182902080548351818402810184019094528084526060939283018282801561032d57602002820191906000526020600020908154815260200190600101908083116103195750505050509050919050565b6003602052816000526040600020818154811061063c57600080fd5b90600052602060002001600091509150505481565b610659610a12565b6106636000610a3f565b565b6001546040516332f0f23360e11b81523360048201526001600160a01b03909116906365e1e46690602401602060405180830381865afa1580156106ad573d6000803e3d6000fd5b505050506040513d601f19601f820116820180604052508101906106d19190610fd1565b61071d5760405162461bcd60e51b815260206004820181905260248201527f53656e646572206973206e6f7420612072656769737465726564206167656e74604482015260640161038c565b33600090815260056020908152604080832084845290915290205460ff161561077d5760405162461bcd60e51b8152602060048201526012602482015271139bdb98d948185b1c9958591e481d5cd95960721b604482015260640161038c565b3360009081526005602090815260408083208484528252808320805460ff19166001179055805191820188905260608a901b6bffffffffffffffffffffffff191690820152605481018390526107d5906074016104b0565b905060006107e382856109e8565b90506001600160a01b03811633146108315760405162461bcd60e51b8152602060048201526011602482015270496e76616c6964207369676e617475726560781b604482015260640161038c565b6040805160e0810182523381526001600160a01b038b811660208084019182528385018c8152606085018e815242608087015260a086018c9052600060c087018190528e815260029384905296909620855181546001600160a01b03199081169187169190911782559351600182018054909516951694909417909255905190820155915190919060038201906108c89082611042565b50608082015160048281019190915560a0830151600583015560c0909201516006909101805460ff1916911515919091179055336000818152600360209081526040808320805460018181018355918552838520018d90558b8452948252808320805495860181558352912090920189905590516001600160a01b038b16919089907f764f798d1b9c65b26da76ea522ba5cb579233c2cbba19fcf1de8271c18b84a4e9061097b908d9042908d90611102565b60405180910390a4505050505050505050565b6004602052816000526040600020818154811061063c57600080fd5b6109b2610a12565b6001600160a01b0381166109dc57604051631e4fbdf760e01b81526000600482015260240161038c565b6109e581610a3f565b50565b6000806000806109f88686610a8f565b925092509250610a088282610adc565b5090949350505050565b6000546001600160a01b031633146106635760405163118cdaa760e01b815233600482015260240161038c565b600080546001600160a01b038381166001600160a01b0319831681178455604051919092169283917f8be0079c531659141344cd1fd0a4f28419497f9722a3daafe3b4186f6b6457e09190a35050565b60008060008351604103610ac95760208401516040850151606086015160001a610abb88828585610b99565b955095509550505050610ad5565b50508151600091506002905b9250925092565b6000826003811115610af057610af0611127565b03610af9575050565b6001826003811115610b0d57610b0d611127565b03610b2b5760405163f645eedf60e01b815260040160405180910390fd5b6002826003811115610b3f57610b3f611127565b03610b605760405163fce698f760e01b81526004810182905260240161038c565b6003826003811115610b7457610b74611127565b03610b95576040516335e2f38360e21b81526004810182905260240161038c565b5050565b600080807f7fffffffffffffffffffffffffffffff5d576e7357a4501ddfe92f46681b20a0841115610bd45750600091506003905082610c5e565b604080516000808252602082018084528a905260ff891692820192909252606081018790526080810186905260019060a0016020604051602081039080840390855afa158015610c28573d6000803e3d6000fd5b5050604051601f1901519150506001600160a01b038116610c5457506000925060019150829050610c5e565b9250600091508190505b9450945094915050565b600060208284031215610c7a57600080fd5b5035919050565b6000815180845260005b81811015610ca757602081850181015186830182015201610c8b565b506000602082860101526020601f19601f83011685010191505092915050565b6001600160a01b038881168252871660208201526040810186905260e060608201819052600090610cfa90830187610c81565b60808301959095525060a0810192909252151560c090910152949350505050565b6020808252825182820181905260009190848201906040850190845b81811015610d5357835183529284019291840191600101610d37565b50909695505050505050565b634e487b7160e01b600052604160045260246000fd5b600067ffffffffffffffff80841115610d9057610d90610d5f565b604051601f8501601f19908116603f01168101908282118183101715610db857610db8610d5f565b81604052809350858152868686011115610dd157600080fd5b858560208301376000602087830101525050509392505050565b600082601f830112610dfc57600080fd5b610e0b83833560208501610d75565b9392505050565b600080600060608486031215610e2757600080fd5b83359250602084013567ffffffffffffffff811115610e4557600080fd5b610e5186828701610deb565b925050604084013590509250925092565b80356001600160a01b0381168114610e7957600080fd5b919050565b600060208284031215610e9057600080fd5b610e0b82610e62565b60008060408385031215610eac57600080fd5b610eb583610e62565b946020939093013593505050565b600080600080600080600060e0888a031215610ede57600080fd5b610ee788610e62565b9650602088013567ffffffffffffffff80821115610f0457600080fd5b818a0191508a601f830112610f1857600080fd5b610f278b833560208501610d75565b975060408a0135965060608a0135955060808a0135945060a08a0135915080821115610f5257600080fd5b50610f5f8a828b01610deb565b92505060c0880135905092959891949750929550565b60008060408385031215610f8857600080fd5b50508035926020909101359150565b600181811c90821680610fab57607f821691505b602082108103610fcb57634e487b7160e01b600052602260045260246000fd5b50919050565b600060208284031215610fe357600080fd5b81518015158114610e0b57600080fd5b601f82111561103d57600081815260208120601f850160051c8101602086101561101a5750805b601f850160051c820191505b8181101561103957828155600101611026565b5050505b505050565b815167ffffffffffffffff81111561105c5761105c610d5f565b6110708161106a8454610f97565b84610ff3565b602080601f8311600181146110a5576000841561108d5750858301515b600019600386901b1c1916600185901b178555611039565b600085815260208120601f198616915b828110156110d4578886015182559484019460019091019084016110b5565b50858210156110f25787850151600019600388901b60f8161c191681555b5050505050600190811b01905550565b6060815260006111156060830186610c81565b60208301949094525060400152919050565b634e487b7160e01b600052602160045260246000fdfea26469706673582212207a2500cb45a3e59d745c12aa02d5259d43b16696a58c29ae90fa19225400b33364736f6c63430008140033",
  "linkReferences": {},
  "deployedLinkReferences": {}
}