{
  "_format": "hh-sol-artifact-1",
  "contractName": "TaskMarketplace",
  "sourceName": "core/TaskMarketplace.sol",
  "abi": [
    {
      "inputs": [
        {
          "internalType": "address",
          "name": "_taskManagerAddress",
          "type": "address"
        },
        {
          "internalType": "address",
          "name": "_bidAuctionAddress",
          "type": "address"
        },
        {
          "internalType": "address",
          "name": "_agentRegistryAddress",
          "type": "address"
        },
        {
          "internalType": "address",
          "name": "_incentiveEngineAddress",
          "type": "address"
        }
      ],
      "stateMutability": "nonpayable",
      "type": "constructor"
    },
    {
      "inputs": [
        {
          "internalType": "address",
          "name": "owner",
          "type": "address"
        }
      ],
      "name": "OwnableInvalidOwner",
      "type": "error"
    },
    {
      "inputs": [
        {
          "internalType": "address",
          "name": "account",
          "type": "address"
        }
      ],
      "name": "OwnableUnauthorizedAccount",
      "type": "error"
    },
    {
      "anonymous": false,
      "inputs": [
        {
          "indexed": true,
          "internalType": "address",
          "name": "previousOwner",
          "type": "address"
        },
        {
          "indexed": true,
          "internalType": "address",
          "name": "newOwner",
          "type": "address"
        }
      ],
      "name": "OwnershipTransferred",
      "type": "event"
    },
    {
      "anonymous": false,
      "inputs": [
        {
          "indexed": true,
          "internalType": "uint256",
          "name": "taskId",
          "type": "uint256"
        },
        {
          "indexed": true,
          "internalType": "address",
          "name": "creator",
          "type": "address"
        }
      ],
      "name": "TaskCreated",
      "type": "event"
    },
    {
      "inputs": [],
      "name": "agentRegistry",
      "outputs": [
        {
          "internalType": "contract AgentRegistry",
          "name": "",
          "type": "address"
        }
      ],
      "stateMutability": "view",
      "type": "function"
    },
    {
      "inputs": [],
      "name": "bidAuction",
      "outputs": [
        {
          "internalType": "contract BidAuction",
          "name": "",
          "type": "address"
        }
      ],
      "stateMutability": "view",
      "type": "function"
    },
    {
      "inputs": [
        {
          "internalType": "uint256",
          "name": "taskId",
          "type": "uint256"
        }
      ],
      "name": "cancelTask",
      "outputs": [],
      "stateMutability": "nonpayable",
      "type": "function"
    },
    {
      "inputs": [
        {
          "internalType": "uint256",
          "name": "taskId",
          "type": "uint256"
        },
        {
          "internalType": "string",
          "name": "resultURI",
          "type": "string"
        }
      ],
      "name": "completeTask",
      "outputs": [],
      "stateMutability": "nonpayable",
      "type": "function"
    },
    {
      "inputs": [
        {
          "internalType": "string",
          "name": "title",
          "type": "string"
        },
        {
          "internalType": "string",
          "name": "description",
          "type": "string"
        },
        {
          "internalType": "string[]",
          "name": "capabilities",
          "type": "string[]"
        },
        {
          "internalType": "uint256",
          "name": "minReputation",
          "type": "uint256"
        },
        {
          "internalType": "uint256",
          "name": "reward",
          "type": "uint256"
        },
        {
          "internalType": "uint256",
          "name": "deadline",
          "type": "uint256"
        }
      ],
      "name": "createTask",
      "outputs": [
        {
          "internalType": "uint256",
          "name": "",
          "type": "uint256"
        }
      ],
      "stateMutability": "nonpayable",
      "type": "function"
    },
    {
      "inputs": [
        {
          "internalType": "address",
          "name": "agent",
          "type": "address"
        }
      ],
      "name": "getAgentCapabilities",
      "outputs": [
        {
          "internalType": "string[]",
          "name": "",
          "type": "string[]"
        }
      ],
      "stateMutability": "view",
      "type": "function"
    },
    {
      "inputs": [
        {
          "internalType": "address",
          "name": "agent",
          "type": "address"
        }
      ],
      "name": "getAgentDetails",
      "outputs": [
        {
          "internalType": "string",
          "name": "name",
          "type": "string"
        },
        {
          "internalType": "uint256",
          "name": "reputation",
          "type": "uint256"
        },
        {
          "internalType": "bool",
          "name": "active",
          "type": "bool"
        },
        {
          "internalType": "uint256",
          "name": "workload",
          "type": "uint256"
        },
        {
          "internalType": "string[]",
          "name": "capabilities",
          "type": "string[]"
        },
        {
          "internalType": "uint256[]",
          "name": "weights",
          "type": "uint256[]"
        }
      ],
      "stateMutability": "view",
      "type": "function"
    },
    {
      "inputs": [
        {
          "internalType": "address",
          "name": "agent",
          "type": "address"
        }
      ],
      "name": "getAgentTasks",
      "outputs": [
        {
          "internalType": "uint256[]",
          "name": "",
          "type": "uint256[]"
        }
      ],
      "stateMutability": "view",
      "type": "function"
    },
    {
      "inputs": [
        {
          "internalType": "string",
          "name": "capability",
          "type": "string"
        }
      ],
      "name": "getAgentsByCapability",
      "outputs": [
        {
          "internalType": "address[]",
          "name": "",
          "type": "address[]"
        }
      ],
      "stateMutability": "view",
      "type": "function"
    },
    {
      "inputs": [
        {
          "internalType": "uint256",
          "name": "minReputation",
          "type": "uint256"
        }
      ],
      "name": "getAgentsByMinReputation",
      "outputs": [
        {
          "internalType": "address[]",
          "name": "",
          "type": "address[]"
        }
      ],
      "stateMutability": "view",
      "type": "function"
    },
    {
      "inputs": [],
      "name": "getAssignedTasks",
      "outputs": [
        {
          "internalType": "uint256[]",
          "name": "",
          "type": "uint256[]"
        }
      ],
      "stateMutability": "view",
      "type": "function"
    },
    {
      "inputs": [],
      "name": "getCancelledTasks",
      "outputs": [
        {
          "internalType": "uint256[]",
          "name": "",
          "type": "uint256[]"
        }
      ],
      "stateMutability": "view",
      "type": "function"
    },
    {
      "inputs": [],
      "name": "getCompletedTasks",
      "outputs": [
        {
          "internalType": "uint256[]",
          "name": "",
          "type": "uint256[]"
        }
      ],
      "stateMutability": "view",
      "type": "function"
    },
    {
      "inputs": [],
      "name": "getOpenTasks",
      "outputs": [
        {
          "internalType": "uint256[]",
          "name": "",
          "type": "uint256[]"
        }
      ],
      "stateMutability": "view",
      "type": "function"
    },
    {
      "inputs": [],
      "name": "getSubmittedTasks",
      "outputs": [
        {
          "internalType": "uint256[]",
          "name": "",
          "type": "uint256[]"
        }
      ],
      "stateMutability": "view",
      "type": "function"
    },
    {
      "inputs": [
        {
          "internalType": "uint256",
          "name": "taskId",
          "type": "uint256"
        }
      ],
      "name": "getTaskBids",
      "outputs": [
        {
          "internalType": "address[]",
          "name": "agents",
          "type": "address[]"
        },
        {
          "internalType": "uint256[]",
          "name": "utilityScores",
          "type": "uint256[]"
        },
        {
          "internalType": "uint256[]",
          "name": "bidAmounts",
          "type": "uint256[]"
        },
        {
          "internalType": "uint256[]",
          "name": "timestamps",
          "type": "uint256[]"
        }
      ],
      "stateMutability": "view",
      "type": "function"
    },
    {
      "inputs": [
        {
          "internalType": "uint256",
          "name": "taskId",
          "type": "uint256"
        }
      ],
      "name": "getTaskDetails",
      "outputs": [
        {
          "internalType": "uint256",
          "name": "_taskId",
          "type": "uint256"
        },
        {
          "internalType": "string",
          "name": "description",
          "type": "string"
        },
        {
          "internalType": "address",
          "name": "creator",
          "type": "address"
        },
        {
          "internalType": "uint8",
          "name": "status",
          "type": "uint8"
        },
        {
          "internalType": "string[]",
          "name": "capabilities",
          "type": "string[]"
        },
        {
          "internalType": "uint256",
          "name": "reward",
          "type": "uint256"
        },
        {
          "internalType": "uint256",
          "name": "minReputation",
          "type": "uint256"
        },
        {
          "internalType": "uint256",
          "name": "deadline",
          "type": "uint256"
        }
      ],
      "stateMutability": "view",
      "type": "function"
    },
    {
      "inputs": [
        {
          "internalType": "string",
          "name": "capability",
          "type": "string"
        }
      ],
      "name": "getTasksByCapability",
      "outputs": [
        {
          "internalType": "uint256[]",
          "name": "",
          "type": "uint256[]"
        }
      ],
      "stateMutability": "view",
      "type": "function"
    },
    {
      "inputs": [
        {
          "internalType": "address",
          "name": "creator",
          "type": "address"
        }
      ],
      "name": "getTasksByCreator",
      "outputs": [
        {
          "internalType": "uint256[]",
          "name": "",
          "type": "uint256[]"
        }
      ],
      "stateMutability": "view",
      "type": "function"
    },
    {
      "inputs": [
        {
          "internalType": "uint256",
          "name": "minReputation",
          "type": "uint256"
        }
      ],
      "name": "getTasksByMinReputation",
      "outputs": [
        {
          "internalType": "uint256[]",
          "name": "",
          "type": "uint256[]"
        }
      ],
      "stateMutability": "view",
      "type": "function"
    },
    {
      "inputs": [
        {
          "internalType": "uint8",
          "name": "status",
          "type": "uint8"
        }
      ],
      "name": "getTasksByStatus",
      "outputs": [
        {
          "internalType": "uint256[]",
          "name": "",
          "type": "uint256[]"
        }
      ],
      "stateMutability": "view",
      "type": "function"
    },
    {
      "inputs": [],
      "name": "getTasksWithOpenBidding",
      "outputs": [
        {
          "internalType": "uint256[]",
          "name": "",
          "type": "uint256[]"
        }
      ],
      "stateMutability": "view",
      "type": "function"
    },
    {
      "inputs": [],
      "name": "incentiveEngine",
      "outputs": [
        {
          "internalType": "contract IncentiveEngine",
          "name": "",
          "type": "address"
        }
      ],
      "stateMutability": "view",
      "type": "function"
    },
    {
      "inputs": [],
      "name": "owner",
      "outputs": [
        {
          "internalType": "address",
          "name": "",
          "type": "address"
        }
      ],
      "stateMutability": "view",
      "type": "function"
    },
    {
      "inputs": [
        {
          "internalType": "uint256",
          "name": "taskId",
          "type": "uint256"
        },
        {
          "internalType": "uint256",
          "name": "utilityScore",
          "type": "uint256"
        },
        {
          "internalType": "uint256",
          "name": "bidAmount",
          "type": "uint256"
        },
        {
          "internalType": "bytes",
          "name": "signature",
          "type": "bytes"
        },
        {
          "internalType": "uint256",
          "name": "nonce",
          "type": "uint256"
        }
      ],
      "name": "placeBid",
      "outputs": [],
      "stateMutability": "nonpayable",
      "type": "function"
    },
    {
      "inputs": [
        {
          "internalType": "uint256",
          "name": "taskId",
          "type": "uint256"
        },
        {
          "internalType": "uint256",
          "name": "bidAmount",
          "type": "uint256"
        }
      ],
      "name": "placeBidSimple",
      "outputs": [],
      "stateMutability": "nonpayable",
      "type": "function"
    },
    {
      "inputs": [],
      "name": "renounceOwnership",
      "outputs": [],
      "stateMutability": "nonpayable",
      "type": "function"
    },
    {
      "inputs": [
        {
          "internalType": "uint256",
          "name": "taskId",
          "type": "uint256"
        },
        {
          "internalType": "string",
          "name": "resultURI",
          "type": "string"
        }
      ],
      "name": "submitTaskResults",
      "outputs": [],
      "stateMutability": "nonpayable",
      "type": "function"
    },
    {
      "inputs": [],
      "name": "taskManager",
      "outputs": [
        {
          "internalType": "contract TaskManager",
          "name": "",
          "type": "address"
        }
      ],
      "stateMutability": "view",
      "type": "function"
    },
    {
      "inputs": [
        {
          "internalType": "address",
          "name": "newOwner",
          "type": "address"
        }
      ],
      "name": "transferOwnership",
      "outputs": [],
      "stateMutability": "nonpayable",
      "type": "function"
    }
  ],
  "bytecode": "0x60806040523480156200001157600080fd5b5060405162002ec038038062002ec0833981016040819052620000349162000128565b33806200005b57604051631e4fbdf760e01b81526000600482015260240160405180910390fd5b6200006681620000bb565b50600180546001600160a01b039586166001600160a01b031991821617909155600280549486169482169490941790935560038054928516928416929092179091556004805491909316911617905562000185565b600080546001600160a01b038381166001600160a01b0319831681178455604051919092169283917f8be0079c531659141344cd1fd0a4f28419497f9722a3daafe3b4186f6b6457e09190a35050565b80516001600160a01b03811681146200012357600080fd5b919050565b600080600080608085870312156200013f57600080fd5b6200014a856200010b565b93506200015a602086016200010b565b92506200016a604086016200010b565b91506200017a606086016200010b565b905092959194509250565b612d2b80620001956000396000f3fe608060405234801561001057600080fd5b50600436106101da5760003560e01c80638da5cb5b11610104578063b5267112116100a2578063d5a82aa011610071578063d5a82aa014610413578063d8ea68211461041b578063e2e22fcc1461032d578063f2fde38b1461042e57600080fd5b8063b5267112146103b5578063b7fb4359146103c8578063b8c05671146103db578063cc62097a1461040057600080fd5b8063a440f8a4116100de578063a440f8a41461037f578063a50a640e14610387578063ac9917ac1461039a578063b2031bee146103a257600080fd5b80638da5cb5b146103535780638f8a1429146103645780639b3a17891461036c57600080fd5b80633888b9d51161017c5780636c830f4b1161014b5780636c830f4b1461031d578063715018a61461032557806374aaa7601461032d5780637eec20a81461034057600080fd5b80633888b9d5146102bb578063441dbc4c146102e2578063626958b4146102ea578063685827cd146102fd57600080fd5b8063169e9f57116101b8578063169e9f57146102505780632cacac9b146102655780632fedbe521461028857806331a40131146102a857600080fd5b8063044efce6146101df5780630d1cfcae146102055780631579259b14610230575b600080fd5b6101f26101ed36600461227d565b610441565b6040519081526020015b60405180910390f35b600354610218906001600160a01b031681565b6040516001600160a01b0390911681526020016101fc565b61024361023e36600461238a565b6104fe565b6040516101fc91906123e8565b61026361025e3660046123fb565b61062d565b005b61027861027336600461241d565b610698565b6040516101fc949392919061246f565b61029b6102963660046124dc565b610722565b6040516101fc919061259e565b6102436102b63660046124dc565b6107a1565b6102ce6102c936600461241d565b610a48565b6040516101fc9897969594939291906125b1565b610243610c83565b6102436102f836600461241d565b610d10565b61031061030b36600461241d565b610f88565b6040516101fc9190612618565b61024361123e565b610263611274565b61026361033b36600461262b565b611288565b61026361034e36600461241d565b6112ba565b6000546001600160a01b0316610218565b61024361131c565b600454610218906001600160a01b031681565b610243611353565b600154610218906001600160a01b031681565b61024361138a565b600254610218906001600160a01b031681565b6102436103c3366004612671565b61160a565b6102636103d63660046126a5565b611928565b6103ee6103e93660046124dc565b61199a565b6040516101fc9695949392919061271a565b61031061040e366004612671565b611b98565b610243611eee565b6102436104293660046124dc565b611f21565b61026361043c3660046124dc565b611faa565b6001546040516302277e7360e11b815260009182916001600160a01b039091169063044efce690610480908b908b908b908b908b908b90600401612774565b6020604051808303816000875af115801561049f573d6000803e3d6000fd5b505050506040513d601f19601f820116820180604052508101906104c391906127cc565b604051909150339082907fe9ee39160568153d230ca0e29961267415d513defbb7d3b21af0fe940e1ebd1590600090a3979650505050505050565b606060008260ff16600103610515575060016105a4565b8260ff16600203610528575060026105a4565b8260ff1660030361053b575060036105a4565b8260ff1660040361054e575060046105a4565b8260ff16600503610561575060066105a4565b60405162461bcd60e51b8152602060048201526013602482015272496e76616c69642073746174757320636f646560681b60448201526064015b60405180910390fd5b600154604051631579259b60e01b81526000916001600160a01b031690631579259b906105d59085906004016127fb565b600060405180830381865afa1580156105f2573d6000803e3d6000fd5b505050506040513d6000823e601f3d908101601f1916820160405261061a9190810190612823565b905061062581611fe8565b949350505050565b60025460405163bca1aaa360e01b8152600481018490526024810183905283916001600160a01b03169063bca1aaa3906044015b600060405180830381600087803b15801561067b57600080fd5b505af115801561068f573d6000803e3d6000fd5b50505050505050565b6002546040516364a0c3f560e01b81526004810183905260609182918291829186916001600160a01b0316906364a0c3f590602401600060405180830381865afa1580156106ea573d6000803e3d6000fd5b505050506040513d6000823e601f3d908101601f191682016040526107129190810190612972565b9450945094509450509193509193565b60035460405163991ef17160e01b81526001600160a01b03838116600483015260609260009291169063991ef17190602401600060405180830381865afa158015610771573d6000803e3d6000fd5b505050506040513d6000823e601f3d908101601f191682016040526107999190810190612ad9565b509392505050565b60606000600160009054906101000a90046001600160a01b03166001600160a01b031663779900b46040518163ffffffff1660e01b8152600401600060405180830381865afa1580156107f8573d6000803e3d6000fd5b505050506040513d6000823e601f3d908101601f191682016040526108209190810190612823565b90506000805b82518110156108ef5760015483516001600160a01b03808816921690639ba779999086908590811061085a5761085a612b32565b60200260200101516040518263ffffffff1660e01b815260040161088091815260200190565b602060405180830381865afa15801561089d573d6000803e3d6000fd5b505050506040513d601f19601f820116820180604052508101906108c19190612b48565b6001600160a01b0316036108dd57816108d981612b65565b9250505b806108e781612b65565b915050610826565b506000816001600160401b0381111561090a5761090a61218f565b604051908082528060200260200182016040528015610933578160200160208202803683370190505b5090506000805b8451811015610a3d5760015485516001600160a01b03808a16921690639ba779999088908590811061096e5761096e612b32565b60200260200101516040518263ffffffff1660e01b815260040161099491815260200190565b602060405180830381865afa1580156109b1573d6000803e3d6000fd5b505050506040513d601f19601f820116820180604052508101906109d59190612b48565b6001600160a01b031603610a2b578481815181106109f5576109f5612b32565b602002602001015160001c838381518110610a1257610a12612b32565b602090810291909101015281610a2781612b65565b9250505b80610a3581612b65565b91505061093a565b509095945050505050565b600154604051639ba7799960e01b8152600481018390526000916060918391829184918391829182918a916001600160a01b031690639ba7799990602401602060405180830381865afa158015610aa3573d6000803e3d6000fd5b505050506040513d601f19601f82011682018060405250810190610ac79190612b48565b60015460405163ee09e42d60e01b8152600481018490529198506001600160a01b03169063ee09e42d90602401602060405180830381865afa158015610b11573d6000803e3d6000fd5b505050506040513d601f19601f82011682018060405250810190610b3591906127cc565b600154604051632bf6cc7960e01b8152600481018490529194506000916001600160a01b0390911690632bf6cc7990602401602060405180830381865afa158015610b84573d6000803e3d6000fd5b505050506040513d601f19601f82011682018060405250810190610ba89190612b8c565b9050806006811115610bbc57610bbc6127e5565b600154604051632bb8e45760e01b815260048101859052919850600091829182916001600160a01b0390911690632bb8e45790602401600060405180830381865afa158015610c0f573d6000803e3d6000fd5b505050506040513d6000823e601f3d908101601f19168201604052610c379190810190612bad565b929d50929b50985091945092509050610c4f85612090565b604051602001610c5f9190612c22565b6040516020818303038152906040529b508d9c505050505050919395975091939597565b600154604051631579259b60e01b81526060916000916001600160a01b0390911690631579259b90610cba906006906004016127fb565b600060405180830381865afa158015610cd7573d6000803e3d6000fd5b505050506040513d6000823e601f3d908101601f19168201604052610cff9190810190612823565b9050610d0a81611fe8565b91505090565b60018054604051631579259b60e01b81526060926000926001600160a01b031691631579259b91610d43916004016127fb565b600060405180830381865afa158015610d60573d6000803e3d6000fd5b505050506040513d6000823e601f3d908101601f19168201604052610d889190810190612823565b90506000805b8251811015610e55576000838281518110610dab57610dab612b32565b602090810291909101015160015460405163ee09e42d60e01b8152600481018390529192506000916001600160a01b039091169063ee09e42d90602401602060405180830381865afa158015610e05573d6000803e3d6000fd5b505050506040513d601f19601f82011682018060405250810190610e2991906127cc565b9050868111610e405783610e3c81612b65565b9450505b50508080610e4d90612b65565b915050610d8e565b506000816001600160401b03811115610e7057610e7061218f565b604051908082528060200260200182016040528015610e99578160200160208202803683370190505b5090506000805b8451811015610a3d576000858281518110610ebd57610ebd612b32565b602090810291909101015160015460405163ee09e42d60e01b8152600481018390529192506000916001600160a01b039091169063ee09e42d90602401602060405180830381865afa158015610f17573d6000803e3d6000fd5b505050506040513d601f19601f82011682018060405250810190610f3b91906127cc565b9050888111610f73578160001c858581518110610f5a57610f5a612b32565b602090810291909101015283610f6f81612b65565b9450505b50508080610f8090612b65565b915050610ea0565b60606000600360009054906101000a90046001600160a01b03166001600160a01b031663860e4ac66040518163ffffffff1660e01b8152600401600060405180830381865afa158015610fdf573d6000803e3d6000fd5b505050506040513d6000823e601f3d908101601f191682016040526110079190810190612c4f565b90506000805b82518110156110de5760045483516000916001600160a01b03169063ebeae5879086908590811061104057611040612b32565b60200260200101516040518263ffffffff1660e01b815260040161107391906001600160a01b0391909116815260200190565b602060405180830381865afa158015611090573d6000803e3d6000fd5b505050506040513d601f19601f820116820180604052508101906110b491906127cc565b90508581106110cb57826110c781612b65565b9350505b50806110d681612b65565b91505061100d565b506000816001600160401b038111156110f9576110f961218f565b604051908082528060200260200182016040528015611122578160200160208202803683370190505b5090506000805b8451811015610a3d5760045485516000916001600160a01b03169063ebeae5879088908590811061115c5761115c612b32565b60200260200101516040518263ffffffff1660e01b815260040161118f91906001600160a01b0391909116815260200190565b602060405180830381865afa1580156111ac573d6000803e3d6000fd5b505050506040513d601f19601f820116820180604052508101906111d091906127cc565b905087811061122b578582815181106111eb576111eb612b32565b602002602001015184848151811061120557611205612b32565b6001600160a01b03909216602092830291909101909101528261122781612b65565b9350505b508061123681612b65565b915050611129565b600154604051631579259b60e01b81526060916000916001600160a01b0390911690631579259b90610cba9060049081016127fb565b61127c612112565b611286600061213f565b565b600154604051634d51e85f60e11b815283916001600160a01b031690639aa3d0be906106619084908690600401612c83565b60015460405163ee8ca3b560e01b81526004810183905282916001600160a01b03169063ee8ca3b590602401600060405180830381600087803b15801561130057600080fd5b505af1158015611314573d6000803e3d6000fd5b505050505050565b600154604051631579259b60e01b81526060916000916001600160a01b0390911690631579259b90610cba906002906004016127fb565b600154604051631579259b60e01b81526060916000916001600160a01b0390911690631579259b90610cba906003906004016127fb565b60018054604051631579259b60e01b81526060926000926001600160a01b031691631579259b916113bd916004016127fb565b600060405180830381865afa1580156113da573d6000803e3d6000fd5b505050506040513d6000823e601f3d908101601f191682016040526114029190810190612823565b90506000805b82518110156114ce57600083828151811061142557611425612b32565b602090810291909101015160025460405163f150b9df60e01b8152600481018390529192506000916001600160a01b039091169063f150b9df90602401602060405180830381865afa15801561147f573d6000803e3d6000fd5b505050506040513d601f19601f820116820180604052508101906114a39190612c9c565b905080156114b957836114b581612b65565b9450505b505080806114c690612b65565b915050611408565b506000816001600160401b038111156114e9576114e961218f565b604051908082528060200260200182016040528015611512578160200160208202803683370190505b5090506000805b845181101561160057600085828151811061153657611536612b32565b602090810291909101015160025460405163f150b9df60e01b8152600481018390529192506000916001600160a01b039091169063f150b9df90602401602060405180830381865afa158015611590573d6000803e3d6000fd5b505050506040513d601f19601f820116820180604052508101906115b49190612c9c565b905080156115eb578160001c8585815181106115d2576115d2612b32565b6020908102919091010152836115e781612b65565b9450505b505080806115f890612b65565b915050611519565b5090949350505050565b60018054604051631579259b60e01b81526060926000926001600160a01b031691631579259b9161163d916004016127fb565b600060405180830381865afa15801561165a573d6000803e3d6000fd5b505050506040513d6000823e601f3d908101601f191682016040526116829190810190612823565b90506000805b82518110156117a25760008382815181106116a5576116a5612b32565b6020908102919091010151600154604051632bb8e45760e01b8152600481018390529192506000916001600160a01b0390911690632bb8e45790602401600060405180830381865afa1580156116ff573d6000803e3d6000fd5b505050506040513d6000823e601f3d908101601f191682016040526117279190810190612bad565b5050509250505060005b815181101561178c57878051906020012082828151811061175457611754612b32565b6020026020010151805190602001200361177a578461177281612b65565b95505061178c565b8061178481612b65565b915050611731565b505050808061179a90612b65565b915050611688565b506000816001600160401b038111156117bd576117bd61218f565b6040519080825280602002602001820160405280156117e6578160200160208202803683370190505b5090506000805b8451811015610a3d57600085828151811061180a5761180a612b32565b6020908102919091010151600154604051632bb8e45760e01b8152600481018390529192506000916001600160a01b0390911690632bb8e45790602401600060405180830381865afa158015611864573d6000803e3d6000fd5b505050506040513d6000823e601f3d908101601f1916820160405261188c9190810190612bad565b5050509250505060005b81518110156119125789805190602001208282815181106118b9576118b9612b32565b60200260200101518051906020012003611900578260001c8686815181106118e3576118e3612b32565b6020908102919091010152846118f881612b65565b955050611912565b8061190a81612b65565b915050611896565b505050808061192090612b65565b9150506117ed565b60025460405163eb4f32cf60e01b815286916001600160a01b03169063eb4f32cf906119609084908990899089908990600401612cbe565b600060405180830381600087803b15801561197a57600080fd5b505af115801561198e573d6000803e3d6000fd5b50505050505050505050565b6004805460405163ebeae58760e01b81526001600160a01b0384811693820193909352606092600092839283928692839291169063ebeae58790602401602060405180830381865afa1580156119f4573d6000803e3d6000fd5b505050506040513d601f19601f82011682018060405250810190611a1891906127cc565b600480546040516339e1832f60e01b81526001600160a01b038b81169382019390935292975016906339e1832f90602401602060405180830381865afa158015611a66573d6000803e3d6000fd5b505050506040513d601f19601f82011682018060405250810190611a8a91906127cc565b6003546040516332f0f23360e11b81526001600160a01b038a811660048301529295509116906365e1e46690602401602060405180830381865afa158015611ad6573d6000803e3d6000fd5b505050506040513d601f19601f82011682018060405250810190611afa9190612c9c565b60408051808201825260058152641059d95b9d60da1b6020820152600354915163991ef17160e01b81526001600160a01b038b81166004830152919950929650169063991ef17190602401600060405180830381865afa158015611b62573d6000803e3d6000fd5b505050506040513d6000823e601f3d908101601f19168201604052611b8a9190810190612ad9565b909250905091939550919395565b60606000600360009054906101000a90046001600160a01b03166001600160a01b031663860e4ac66040518163ffffffff1660e01b8152600401600060405180830381865afa158015611bef573d6000803e3d6000fd5b505050506040513d6000823e601f3d908101601f19168201604052611c179190810190612c4f565b90506000805b8251811015611d3e5760035483516000916001600160a01b03169063991ef17190869085908110611c5057611c50612b32565b60200260200101516040518263ffffffff1660e01b8152600401611c8391906001600160a01b0391909116815260200190565b600060405180830381865afa158015611ca0573d6000803e3d6000fd5b505050506040513d6000823e601f3d908101601f19168201604052611cc89190810190612ad9565b50905060005b8151811015611d29578680519060200120828281518110611cf157611cf1612b32565b60200260200101518051906020012003611d175783611d0f81612b65565b945050611d29565b80611d2181612b65565b915050611cce565b50508080611d3690612b65565b915050611c1d565b506000816001600160401b03811115611d5957611d5961218f565b604051908082528060200260200182016040528015611d82578160200160208202803683370190505b5090506000805b8451811015610a3d5760035485516000916001600160a01b03169063991ef17190889085908110611dbc57611dbc612b32565b60200260200101516040518263ffffffff1660e01b8152600401611def91906001600160a01b0391909116815260200190565b600060405180830381865afa158015611e0c573d6000803e3d6000fd5b505050506040513d6000823e601f3d908101601f19168201604052611e349190810190612ad9565b50905060005b8151811015611ed9578880519060200120828281518110611e5d57611e5d612b32565b60200260200101518051906020012003611ec757868381518110611e8357611e83612b32565b6020026020010151858581518110611e9d57611e9d612b32565b6001600160a01b039092166020928302919091019091015283611ebf81612b65565b945050611ed9565b80611ed181612b65565b915050611e3a565b50508080611ee690612b65565b915050611d89565b60018054604051631579259b60e01b81526060926000926001600160a01b031691631579259b91610cba916004016127fb565b60015460405163d8ea682160e01b81526001600160a01b03838116600483015260609260009291169063d8ea682190602401600060405180830381865afa158015611f70573d6000803e3d6000fd5b505050506040513d6000823e601f3d908101601f19168201604052611f989190810190612823565b9050611fa381611fe8565b9392505050565b611fb2612112565b6001600160a01b038116611fdc57604051631e4fbdf760e01b81526000600482015260240161059b565b611fe58161213f565b50565b6060600082516001600160401b038111156120055761200561218f565b60405190808252806020026020018201604052801561202e578160200160208202803683370190505b50905060005b83518110156120895783818151811061204f5761204f612b32565b602002602001015160001c82828151811061206c5761206c612b32565b60209081029190910101528061208181612b65565b915050612034565b5092915050565b6040805160208082528183019092526060916000919060208201818036833701905050905060005b6020811015612089578381602081106120d3576120d3612b32565b1a60f81b8282815181106120e9576120e9612b32565b60200101906001600160f81b031916908160001a9053508061210a81612b65565b9150506120b8565b6000546001600160a01b031633146112865760405163118cdaa760e01b815233600482015260240161059b565b600080546001600160a01b038381166001600160a01b0319831681178455604051919092169283917f8be0079c531659141344cd1fd0a4f28419497f9722a3daafe3b4186f6b6457e09190a35050565b634e487b7160e01b600052604160045260246000fd5b604051601f8201601f191681016001600160401b03811182821017156121cd576121cd61218f565b604052919050565b60006001600160401b038211156121ee576121ee61218f565b50601f01601f191660200190565b600061220f61220a846121d5565b6121a5565b905082815283838301111561222357600080fd5b828260208301376000602084830101529392505050565b600082601f83011261224b57600080fd5b611fa3838335602085016121fc565b60006001600160401b038211156122735761227361218f565b5060051b60200190565b60008060008060008060c0878903121561229657600080fd5b6001600160401b0380883511156122ac57600080fd5b6122b98989358a0161223a565b9650602080890135828111156122ce57600080fd5b6122da8b828c0161223a565b9750506040890135828111156122ef57600080fd5b8901601f81018b1361230057600080fd5b803561230e61220a8261225a565b81815260059190911b8201830190838101908d83111561232d57600080fd5b8484015b8381101561236357868135111561234757600080fd5b6123568f87833588010161223a565b8352918501918501612331565b509a9d999c50999a60608101359a5060808101359960a09091013598509650505050505050565b60006020828403121561239c57600080fd5b813560ff81168114611fa357600080fd5b600081518084526020808501945080840160005b838110156123dd578151875295820195908201906001016123c1565b509495945050505050565b602081526000611fa360208301846123ad565b6000806040838503121561240e57600080fd5b50508035926020909101359150565b60006020828403121561242f57600080fd5b5035919050565b600081518084526020808501945080840160005b838110156123dd5781516001600160a01b03168752958201959082019060010161244a565b6080815260006124826080830187612436565b828103602084015261249481876123ad565b905082810360408401526124a881866123ad565b905082810360608401526124bc81856123ad565b979650505050505050565b6001600160a01b0381168114611fe557600080fd5b6000602082840312156124ee57600080fd5b8135611fa3816124c7565b60005b838110156125145781810151838201526020016124fc565b50506000910152565b600081518084526125358160208601602086016124f9565b601f01601f19169290920160200192915050565b600081518084526020808501808196508360051b8101915082860160005b8581101561259157828403895261257f84835161251d565b98850198935090840190600101612567565b5091979650505050505050565b602081526000611fa36020830184612549565b60006101008a83528060208401526125cb8184018b61251d565b6001600160a01b038a16604085015260ff89166060850152838103608085015290506125f78188612549565b60a0840196909652505060c081019290925260e09091015295945050505050565b602081526000611fa36020830184612436565b6000806040838503121561263e57600080fd5b8235915060208301356001600160401b0381111561265b57600080fd5b6126678582860161223a565b9150509250929050565b60006020828403121561268357600080fd5b81356001600160401b0381111561269957600080fd5b6106258482850161223a565b600080600080600060a086880312156126bd57600080fd5b85359450602086013593506040860135925060608601356001600160401b038111156126e857600080fd5b8601601f810188136126f957600080fd5b612708888235602084016121fc565b95989497509295608001359392505050565b60c08152600061272d60c083018961251d565b876020840152861515604084015285606084015282810360808401526127538186612549565b905082810360a084015261276781856123ad565b9998505050505050505050565b60c08152600061278760c083018961251d565b8281036020840152612799818961251d565b905082810360408401526127ad8188612549565b60608401969096525050608081019290925260a0909101529392505050565b6000602082840312156127de57600080fd5b5051919050565b634e487b7160e01b600052602160045260246000fd5b602081016007831061281d57634e487b7160e01b600052602160045260246000fd5b91905290565b6000602080838503121561283657600080fd5b82516001600160401b0381111561284c57600080fd5b8301601f8101851361285d57600080fd5b805161286b61220a8261225a565b81815260059190911b8201830190838101908783111561288a57600080fd5b928401925b828410156124bc5783518252928401929084019061288f565b600082601f8301126128b957600080fd5b815160206128c961220a8361225a565b82815260059290921b840181019181810190868411156128e857600080fd5b8286015b8481101561290c5780516128ff816124c7565b83529183019183016128ec565b509695505050505050565b600082601f83011261292857600080fd5b8151602061293861220a8361225a565b82815260059290921b8401810191818101908684111561295757600080fd5b8286015b8481101561290c578051835291830191830161295b565b6000806000806080858703121561298857600080fd5b84516001600160401b038082111561299f57600080fd5b6129ab888389016128a8565b955060208701519150808211156129c157600080fd5b6129cd88838901612917565b945060408701519150808211156129e357600080fd5b6129ef88838901612917565b93506060870151915080821115612a0557600080fd5b50612a1287828801612917565b91505092959194509250565b600082601f830112612a2f57600080fd5b81516020612a3f61220a8361225a565b82815260059290921b84018101918181019086841115612a5e57600080fd5b8286015b8481101561290c5780516001600160401b03811115612a815760008081fd5b8701603f81018913612a935760008081fd5b848101516040612aa561220a836121d5565b8281528b82848601011115612aba5760008081fd5b612ac9838983018487016124f9565b8652505050918301918301612a62565b60008060408385031215612aec57600080fd5b82516001600160401b0380821115612b0357600080fd5b612b0f86838701612a1e565b93506020850151915080821115612b2557600080fd5b5061266785828601612917565b634e487b7160e01b600052603260045260246000fd5b600060208284031215612b5a57600080fd5b8151611fa3816124c7565b600060018201612b8557634e487b7160e01b600052601160045260246000fd5b5060010190565b600060208284031215612b9e57600080fd5b815160078110611fa357600080fd5b60008060008060008060c08789031215612bc657600080fd5b8651612bd1816124c7565b6020880151604089015191975095506001600160401b03811115612bf457600080fd5b612c0089828a01612a1e565b945050606087015192506080870151915060a087015190509295509295509295565b6402a30b9b5960dd1b815260008251612c428160058501602087016124f9565b9190910160050192915050565b600060208284031215612c6157600080fd5b81516001600160401b03811115612c7757600080fd5b610625848285016128a8565b828152604060208201526000610625604083018461251d565b600060208284031215612cae57600080fd5b81518015158114611fa357600080fd5b85815284602082015283604082015260a060608201526000612ce360a083018561251d565b9050826080830152969550505050505056fea26469706673582212200e6be83c223d4e589b77ee3adb8b571b9daa5a9c71fd2bdb6654e7d9e1dfffa064736f6c63430008140033",
  "linkReferences": {},
  "deployedLinkReferences": {}
}