{
  "_format": "hh-sol-artifact-1",
  "contractName": "TaskManager",
  "sourceName": "core/TaskManager.sol",
  "abi": [
    {
      "inputs": [
        {
          "internalType": "address",
          "name": "_agentRegistryAddress",
          "type": "address"
        }
      ],
      "stateMutability": "nonpayable",
      "type": "constructor"
    },
    {
      "inputs": [
        {
          "internalType": "address",
          "name": "owner",
          "type": "address"
        }
      ],
      "name": "OwnableInvalidOwner",
      "type": "error"
    },
    {
      "inputs": [
        {
          "internalType": "address",
          "name": "account",
          "type": "address"
        }
      ],
      "name": "OwnableUnauthorizedAccount",
      "type": "error"
    },
    {
      "anonymous": false,
      "inputs": [
        {
          "indexed": true,
          "internalType": "bytes32",
          "name": "taskId",
          "type": "bytes32"
        },
        {
          "indexed": true,
          "internalType": "address",
          "name": "creator",
          "type": "address"
        },
        {
          "indexed": false,
          "internalType": "address[]",
          "name": "selectedAgents",
          "type": "address[]"
        },
        {
          "indexed": false,
          "internalType": "string",
          "name": "collaborationId",
          "type": "string"
        },
        {
          "indexed": false,
          "internalType": "uint256",
          "name": "timestamp",
          "type": "uint256"
        }
      ],
      "name": "AgentCollaborationStarted",
      "type": "event"
    },
    {
      "anonymous": false,
      "inputs": [
        {
          "indexed": true,
          "internalType": "bytes32",
          "name": "taskId",
          "type": "bytes32"
        },
        {
          "indexed": true,
          "internalType": "string",
          "name": "conversationId",
          "type": "string"
        },
        {
          "indexed": false,
          "internalType": "address[]",
          "name": "participants",
          "type": "address[]"
        },
        {
          "indexed": false,
          "internalType": "string",
          "name": "conversationTopic",
          "type": "string"
        },
        {
          "indexed": false,
          "internalType": "uint256",
          "name": "timestamp",
          "type": "uint256"
        }
      ],
      "name": "CollaborationConversationStarted",
      "type": "event"
    },
    {
      "anonymous": false,
      "inputs": [
        {
          "indexed": true,
          "internalType": "bytes32",
          "name": "taskId",
          "type": "bytes32"
        },
        {
          "indexed": true,
          "internalType": "string",
          "name": "conversationId",
          "type": "string"
        },
        {
          "indexed": true,
          "internalType": "address",
          "name": "sender",
          "type": "address"
        },
        {
          "indexed": false,
          "internalType": "string",
          "name": "message",
          "type": "string"
        },
        {
          "indexed": false,
          "internalType": "uint256",
          "name": "messageIndex",
          "type": "uint256"
        },
        {
          "indexed": false,
          "internalType": "uint256",
          "name": "timestamp",
          "type": "uint256"
        }
      ],
      "name": "CollaborationMessage",
      "type": "event"
    },
    {
      "anonymous": false,
      "inputs": [
        {
          "indexed": true,
          "internalType": "bytes32",
          "name": "taskId",
          "type": "bytes32"
        },
        {
          "indexed": true,
          "internalType": "string",
          "name": "conversationId",
          "type": "string"
        },
        {
          "indexed": false,
          "internalType": "address[]",
          "name": "participants",
          "type": "address[]"
        },
        {
          "indexed": false,
          "internalType": "string",
          "name": "result",
          "type": "string"
        },
        {
          "indexed": false,
          "internalType": "string",
          "name": "conversationSummary",
          "type": "string"
        },
        {
          "indexed": false,
          "internalType": "uint256",
          "name": "timestamp",
          "type": "uint256"
        }
      ],
      "name": "CollaborationResult",
      "type": "event"
    },
    {
      "anonymous": false,
      "inputs": [
        {
          "indexed": true,
          "internalType": "address",
          "name": "previousOwner",
          "type": "address"
        },
        {
          "indexed": true,
          "internalType": "address",
          "name": "newOwner",
          "type": "address"
        }
      ],
      "name": "OwnershipTransferred",
      "type": "event"
    },
    {
      "anonymous": false,
      "inputs": [
        {
          "indexed": true,
          "internalType": "bytes32",
          "name": "taskId",
          "type": "bytes32"
        },
        {
          "indexed": true,
          "internalType": "address",
          "name": "agent",
          "type": "address"
        },
        {
          "indexed": false,
          "internalType": "uint256",
          "name": "timestamp",
          "type": "uint256"
        }
      ],
      "name": "TaskAssigned",
      "type": "event"
    },
    {
      "anonymous": false,
      "inputs": [
        {
          "indexed": true,
          "internalType": "bytes32",
          "name": "taskId",
          "type": "bytes32"
        },
        {
          "indexed": true,
          "internalType": "address",
          "name": "actor",
          "type": "address"
        },
        {
          "indexed": false,
          "internalType": "string",
          "name": "reason",
          "type": "string"
        },
        {
          "indexed": false,
          "internalType": "uint256",
          "name": "timestamp",
          "type": "uint256"
        }
      ],
      "name": "TaskCancelled",
      "type": "event"
    },
    {
      "anonymous": false,
      "inputs": [
        {
          "indexed": true,
          "internalType": "bytes32",
          "name": "taskId",
          "type": "bytes32"
        },
        {
          "indexed": true,
          "internalType": "address",
          "name": "agent",
          "type": "address"
        },
        {
          "indexed": false,
          "internalType": "string",
          "name": "result",
          "type": "string"
        },
        {
          "indexed": false,
          "internalType": "uint256",
          "name": "timestamp",
          "type": "uint256"
        }
      ],
      "name": "TaskCompleted",
      "type": "event"
    },
    {
      "anonymous": false,
      "inputs": [
        {
          "indexed": true,
          "internalType": "bytes32",
          "name": "taskId",
          "type": "bytes32"
        },
        {
          "indexed": true,
          "internalType": "address",
          "name": "creator",
          "type": "address"
        },
        {
          "indexed": false,
          "internalType": "string",
          "name": "title",
          "type": "string"
        },
        {
          "indexed": false,
          "internalType": "string",
          "name": "description",
          "type": "string"
        },
        {
          "indexed": false,
          "internalType": "string[]",
          "name": "capabilities",
          "type": "string[]"
        },
        {
          "indexed": false,
          "internalType": "uint256",
          "name": "minReputation",
          "type": "uint256"
        },
        {
          "indexed": false,
          "internalType": "uint256",
          "name": "reward",
          "type": "uint256"
        },
        {
          "indexed": false,
          "internalType": "uint256",
          "name": "deadline",
          "type": "uint256"
        }
      ],
      "name": "TaskCreated",
      "type": "event"
    },
    {
      "anonymous": false,
      "inputs": [
        {
          "indexed": true,
          "internalType": "bytes32",
          "name": "taskId",
          "type": "bytes32"
        },
        {
          "indexed": true,
          "internalType": "address",
          "name": "agent",
          "type": "address"
        },
        {
          "indexed": false,
          "internalType": "uint256",
          "name": "qualityScore",
          "type": "uint256"
        },
        {
          "indexed": false,
          "internalType": "uint256",
          "name": "delayRatio",
          "type": "uint256"
        },
        {
          "indexed": false,
          "internalType": "uint256",
          "name": "finalScore",
          "type": "uint256"
        },
        {
          "indexed": false,
          "internalType": "uint256",
          "name": "timestamp",
          "type": "uint256"
        }
      ],
      "name": "TaskEvaluated",
      "type": "event"
    },
    {
      "anonymous": false,
      "inputs": [
        {
          "indexed": true,
          "internalType": "bytes32",
          "name": "taskId",
          "type": "bytes32"
        },
        {
          "indexed": true,
          "internalType": "address",
          "name": "agent",
          "type": "address"
        },
        {
          "indexed": false,
          "internalType": "string",
          "name": "reason",
          "type": "string"
        },
        {
          "indexed": false,
          "internalType": "uint256",
          "name": "timestamp",
          "type": "uint256"
        }
      ],
      "name": "TaskFailed",
      "type": "event"
    },
    {
      "anonymous": false,
      "inputs": [
        {
          "indexed": true,
          "internalType": "bytes32",
          "name": "taskId",
          "type": "bytes32"
        },
        {
          "indexed": true,
          "internalType": "enum TaskManager.TaskStatus",
          "name": "status",
          "type": "uint8"
        },
        {
          "indexed": true,
          "internalType": "address",
          "name": "agent",
          "type": "address"
        },
        {
          "indexed": false,
          "internalType": "uint256",
          "name": "timestamp",
          "type": "uint256"
        }
      ],
      "name": "TaskStatusUpdated",
      "type": "event"
    },
    {
      "anonymous": false,
      "inputs": [
        {
          "indexed": true,
          "internalType": "bytes32",
          "name": "taskId",
          "type": "bytes32"
        },
        {
          "indexed": true,
          "internalType": "address",
          "name": "updater",
          "type": "address"
        },
        {
          "indexed": false,
          "internalType": "string",
          "name": "field",
          "type": "string"
        },
        {
          "indexed": false,
          "internalType": "string",
          "name": "oldValue",
          "type": "string"
        },
        {
          "indexed": false,
          "internalType": "string",
          "name": "newValue",
          "type": "string"
        },
        {
          "indexed": false,
          "internalType": "uint256",
          "name": "timestamp",
          "type": "uint256"
        }
      ],
      "name": "TaskUpdated",
      "type": "event"
    },
    {
      "inputs": [
        {
          "internalType": "bytes32",
          "name": "taskId",
          "type": "bytes32"
        },
        {
          "internalType": "address",
          "name": "agent",
          "type": "address"
        }
      ],
      "name": "agentHasCapabilities",
      "outputs": [
        {
          "internalType": "bool",
          "name": "",
          "type": "bool"
        }
      ],
      "stateMutability": "view",
      "type": "function"
    },
    {
      "inputs": [],
      "name": "agentRegistry",
      "outputs": [
        {
          "internalType": "contract AgentRegistry",
          "name": "",
          "type": "address"
        }
      ],
      "stateMutability": "view",
      "type": "function"
    },
    {
      "inputs": [
        {
          "internalType": "address",
          "name": "",
          "type": "address"
        },
        {
          "internalType": "uint256",
          "name": "",
          "type": "uint256"
        }
      ],
      "name": "agentTasks",
      "outputs": [
        {
          "internalType": "bytes32",
          "name": "",
          "type": "bytes32"
        }
      ],
      "stateMutability": "view",
      "type": "function"
    },
    {
      "inputs": [
        {
          "internalType": "bytes32",
          "name": "taskId",
          "type": "bytes32"
        },
        {
          "internalType": "address",
          "name": "agent",
          "type": "address"
        }
      ],
      "name": "assignTask",
      "outputs": [],
      "stateMutability": "nonpayable",
      "type": "function"
    },
    {
      "inputs": [],
      "name": "bidAuction",
      "outputs": [
        {
          "internalType": "contract BidAuction",
          "name": "",
          "type": "address"
        }
      ],
      "stateMutability": "view",
      "type": "function"
    },
    {
      "inputs": [
        {
          "internalType": "bytes32",
          "name": "taskId",
          "type": "bytes32"
        }
      ],
      "name": "cancelTask",
      "outputs": [],
      "stateMutability": "nonpayable",
      "type": "function"
    },
    {
      "inputs": [
        {
          "internalType": "bytes32",
          "name": "taskId",
          "type": "bytes32"
        },
        {
          "internalType": "string",
          "name": "result",
          "type": "string"
        }
      ],
      "name": "completeTask",
      "outputs": [],
      "stateMutability": "nonpayable",
      "type": "function"
    },
    {
      "inputs": [
        {
          "internalType": "string",
          "name": "title",
          "type": "string"
        },
        {
          "internalType": "string",
          "name": "description",
          "type": "string"
        },
        {
          "internalType": "string[]",
          "name": "capabilities",
          "type": "string[]"
        },
        {
          "internalType": "uint256",
          "name": "minReputation",
          "type": "uint256"
        },
        {
          "internalType": "uint256",
          "name": "reward",
          "type": "uint256"
        },
        {
          "internalType": "uint256",
          "name": "deadline",
          "type": "uint256"
        }
      ],
      "name": "createTask",
      "outputs": [
        {
          "internalType": "bytes32",
          "name": "",
          "type": "bytes32"
        }
      ],
      "stateMutability": "nonpayable",
      "type": "function"
    },
    {
      "inputs": [
        {
          "internalType": "bytes32",
          "name": "taskId",
          "type": "bytes32"
        },
        {
          "internalType": "uint256",
          "name": "qualityScore",
          "type": "uint256"
        },
        {
          "internalType": "uint256",
          "name": "delayRatio",
          "type": "uint256"
        },
        {
          "internalType": "string[]",
          "name": "tags",
          "type": "string[]"
        },
        {
          "internalType": "uint256[]",
          "name": "tagScores",
          "type": "uint256[]"
        }
      ],
      "name": "evaluateTaskOutcome",
      "outputs": [
        {
          "internalType": "uint256",
          "name": "",
          "type": "uint256"
        }
      ],
      "stateMutability": "nonpayable",
      "type": "function"
    },
    {
      "inputs": [
        {
          "internalType": "bytes32",
          "name": "taskId",
          "type": "bytes32"
        },
        {
          "internalType": "string",
          "name": "reason",
          "type": "string"
        }
      ],
      "name": "failTask",
      "outputs": [],
      "stateMutability": "nonpayable",
      "type": "function"
    },
    {
      "inputs": [
        {
          "internalType": "address",
          "name": "agent",
          "type": "address"
        }
      ],
      "name": "getAgentTasks",
      "outputs": [
        {
          "internalType": "bytes32[]",
          "name": "",
          "type": "bytes32[]"
        }
      ],
      "stateMutability": "view",
      "type": "function"
    },
    {
      "inputs": [],
      "name": "getAllTasks",
      "outputs": [
        {
          "internalType": "bytes32[]",
          "name": "",
          "type": "bytes32[]"
        }
      ],
      "stateMutability": "view",
      "type": "function"
    },
    {
      "inputs": [
        {
          "internalType": "bytes32",
          "name": "taskId",
          "type": "bytes32"
        }
      ],
      "name": "getTaskBasicInfo",
      "outputs": [
        {
          "internalType": "address",
          "name": "creator",
          "type": "address"
        },
        {
          "internalType": "string",
          "name": "title",
          "type": "string"
        },
        {
          "internalType": "string",
          "name": "description",
          "type": "string"
        },
        {
          "internalType": "uint256",
          "name": "reward",
          "type": "uint256"
        },
        {
          "internalType": "uint256",
          "name": "deadline",
          "type": "uint256"
        },
        {
          "internalType": "enum TaskManager.TaskStatus",
          "name": "status",
          "type": "uint8"
        }
      ],
      "stateMutability": "view",
      "type": "function"
    },
    {
      "inputs": [],
      "name": "getTaskCount",
      "outputs": [
        {
          "internalType": "uint256",
          "name": "",
          "type": "uint256"
        }
      ],
      "stateMutability": "view",
      "type": "function"
    },
    {
      "inputs": [
        {
          "internalType": "bytes32",
          "name": "taskId",
          "type": "bytes32"
        }
      ],
      "name": "getTaskCreator",
      "outputs": [
        {
          "internalType": "address",
          "name": "",
          "type": "address"
        }
      ],
      "stateMutability": "view",
      "type": "function"
    },
    {
      "inputs": [
        {
          "internalType": "bytes32",
          "name": "taskId",
          "type": "bytes32"
        }
      ],
      "name": "getTaskExecutionDetails",
      "outputs": [
        {
          "internalType": "string[]",
          "name": "capabilities",
          "type": "string[]"
        },
        {
          "internalType": "uint256",
          "name": "minReputation",
          "type": "uint256"
        },
        {
          "internalType": "address",
          "name": "assignedAgent",
          "type": "address"
        },
        {
          "internalType": "uint256",
          "name": "createdAt",
          "type": "uint256"
        },
        {
          "internalType": "uint256",
          "name": "completedAt",
          "type": "uint256"
        },
        {
          "internalType": "string",
          "name": "result",
          "type": "string"
        }
      ],
      "stateMutability": "view",
      "type": "function"
    },
    {
      "inputs": [
        {
          "internalType": "bytes32",
          "name": "taskId",
          "type": "bytes32"
        }
      ],
      "name": "getTaskExecutionInfo",
      "outputs": [
        {
          "internalType": "address",
          "name": "agent",
          "type": "address"
        },
        {
          "internalType": "uint256",
          "name": "reward",
          "type": "uint256"
        },
        {
          "internalType": "string[]",
          "name": "capabilities",
          "type": "string[]"
        },
        {
          "internalType": "uint256",
          "name": "deadline",
          "type": "uint256"
        },
        {
          "internalType": "uint256",
          "name": "assignedAt",
          "type": "uint256"
        },
        {
          "internalType": "uint256",
          "name": "completedAt",
          "type": "uint256"
        }
      ],
      "stateMutability": "view",
      "type": "function"
    },
    {
      "inputs": [
        {
          "internalType": "bytes32",
          "name": "taskId",
          "type": "bytes32"
        }
      ],
      "name": "getTaskMinReputation",
      "outputs": [
        {
          "internalType": "uint256",
          "name": "",
          "type": "uint256"
        }
      ],
      "stateMutability": "view",
      "type": "function"
    },
    {
      "inputs": [
        {
          "internalType": "bytes32",
          "name": "taskId",
          "type": "bytes32"
        }
      ],
      "name": "getTaskStatus",
      "outputs": [
        {
          "internalType": "enum TaskManager.TaskStatus",
          "name": "",
          "type": "uint8"
        }
      ],
      "stateMutability": "view",
      "type": "function"
    },
    {
      "inputs": [
        {
          "internalType": "enum TaskManager.TaskStatus",
          "name": "status",
          "type": "uint8"
        }
      ],
      "name": "getTasksByStatus",
      "outputs": [
        {
          "internalType": "bytes32[]",
          "name": "",
          "type": "bytes32[]"
        }
      ],
      "stateMutability": "view",
      "type": "function"
    },
    {
      "inputs": [],
      "name": "incentiveEngine",
      "outputs": [
        {
          "internalType": "contract IncentiveEngine",
          "name": "",
          "type": "address"
        }
      ],
      "stateMutability": "view",
      "type": "function"
    },
    {
      "inputs": [
        {
          "internalType": "bytes32",
          "name": "taskId",
          "type": "bytes32"
        }
      ],
      "name": "openTask",
      "outputs": [],
      "stateMutability": "nonpayable",
      "type": "function"
    },
    {
      "inputs": [],
      "name": "owner",
      "outputs": [
        {
          "internalType": "address",
          "name": "",
          "type": "address"
        }
      ],
      "stateMutability": "view",
      "type": "function"
    },
    {
      "inputs": [
        {
          "internalType": "bytes32",
          "name": "taskId",
          "type": "bytes32"
        },
        {
          "internalType": "string",
          "name": "conversationId",
          "type": "string"
        },
        {
          "internalType": "address",
          "name": "sender",
          "type": "address"
        },
        {
          "internalType": "string",
          "name": "message",
          "type": "string"
        },
        {
          "internalType": "uint256",
          "name": "messageIndex",
          "type": "uint256"
        }
      ],
      "name": "recordCollaborationMessage",
      "outputs": [],
      "stateMutability": "nonpayable",
      "type": "function"
    },
    {
      "inputs": [
        {
          "internalType": "bytes32",
          "name": "taskId",
          "type": "bytes32"
        },
        {
          "internalType": "string",
          "name": "conversationId",
          "type": "string"
        },
        {
          "internalType": "address[]",
          "name": "participants",
          "type": "address[]"
        },
        {
          "internalType": "string",
          "name": "result",
          "type": "string"
        },
        {
          "internalType": "string",
          "name": "conversationSummary",
          "type": "string"
        }
      ],
      "name": "recordCollaborationResult",
      "outputs": [],
      "stateMutability": "nonpayable",
      "type": "function"
    },
    {
      "inputs": [],
      "name": "renounceOwnership",
      "outputs": [],
      "stateMutability": "nonpayable",
      "type": "function"
    },
    {
      "inputs": [
        {
          "internalType": "address",
          "name": "_bidAuctionAddress",
          "type": "address"
        }
      ],
      "name": "setBidAuction",
      "outputs": [],
      "stateMutability": "nonpayable",
      "type": "function"
    },
    {
      "inputs": [
        {
          "internalType": "address",
          "name": "_incentiveEngineAddress",
          "type": "address"
        }
      ],
      "name": "setIncentiveEngine",
      "outputs": [],
      "stateMutability": "nonpayable",
      "type": "function"
    },
    {
      "inputs": [
        {
          "internalType": "bytes32",
          "name": "taskId",
          "type": "bytes32"
        },
        {
          "internalType": "address[]",
          "name": "selectedAgents",
          "type": "address[]"
        },
        {
          "internalType": "string",
          "name": "collaborationId",
          "type": "string"
        }
      ],
      "name": "startAgentCollaboration",
      "outputs": [],
      "stateMutability": "nonpayable",
      "type": "function"
    },
    {
      "inputs": [
        {
          "internalType": "bytes32",
          "name": "taskId",
          "type": "bytes32"
        },
        {
          "internalType": "string",
          "name": "conversationId",
          "type": "string"
        },
        {
          "internalType": "address[]",
          "name": "participants",
          "type": "address[]"
        },
        {
          "internalType": "string",
          "name": "conversationTopic",
          "type": "string"
        }
      ],
      "name": "startCollaborationConversation",
      "outputs": [],
      "stateMutability": "nonpayable",
      "type": "function"
    },
    {
      "inputs": [
        {
          "internalType": "bytes32",
          "name": "taskId",
          "type": "bytes32"
        }
      ],
      "name": "startTask",
      "outputs": [],
      "stateMutability": "nonpayable",
      "type": "function"
    },
    {
      "inputs": [
        {
          "internalType": "uint256",
          "name": "",
          "type": "uint256"
        }
      ],
      "name": "taskIds",
      "outputs": [
        {
          "internalType": "bytes32",
          "name": "",
          "type": "bytes32"
        }
      ],
      "stateMutability": "view",
      "type": "function"
    },
    {
      "inputs": [
        {
          "internalType": "bytes32",
          "name": "",
          "type": "bytes32"
        }
      ],
      "name": "tasks",
      "outputs": [
        {
          "internalType": "bytes32",
          "name": "taskId",
          "type": "bytes32"
        },
        {
          "internalType": "address",
          "name": "creator",
          "type": "address"
        },
        {
          "internalType": "string",
          "name": "title",
          "type": "string"
        },
        {
          "internalType": "string",
          "name": "description",
          "type": "string"
        },
        {
          "internalType": "uint256",
          "name": "minReputation",
          "type": "uint256"
        },
        {
          "internalType": "uint256",
          "name": "reward",
          "type": "uint256"
        },
        {
          "internalType": "uint256",
          "name": "deadline",
          "type": "uint256"
        },
        {
          "internalType": "enum TaskManager.TaskStatus",
          "name": "status",
          "type": "uint8"
        },
        {
          "internalType": "address",
          "name": "assignedAgent",
          "type": "address"
        },
        {
          "internalType": "uint256",
          "name": "createdAt",
          "type": "uint256"
        },
        {
          "internalType": "uint256",
          "name": "assignedAt",
          "type": "uint256"
        },
        {
          "internalType": "uint256",
          "name": "completedAt",
          "type": "uint256"
        },
        {
          "internalType": "string",
          "name": "result",
          "type": "string"
        },
        {
          "internalType": "bool",
          "name": "isEvaluated",
          "type": "bool"
        }
      ],
      "stateMutability": "view",
      "type": "function"
    },
    {
      "inputs": [
        {
          "internalType": "address",
          "name": "newOwner",
          "type": "address"
        }
      ],
      "name": "transferOwnership",
      "outputs": [],
      "stateMutability": "nonpayable",
      "type": "function"
    },
    {
      "inputs": [
        {
          "internalType": "bytes32",
          "name": "taskId",
          "type": "bytes32"
        },
        {
          "internalType": "string",
          "name": "newTitle",
          "type": "string"
        },
        {
          "internalType": "string",
          "name": "newDescription",
          "type": "string"
        },
        {
          "internalType": "uint256",
          "name": "newDeadline",
          "type": "uint256"
        },
        {
          "internalType": "uint256",
          "name": "newReward",
          "type": "uint256"
        }
      ],
      "name": "updateTask",
      "outputs": [],
      "stateMutability": "nonpayable",
      "type": "function"
    }
  ],
  "bytecode": "0x60806040523480156200001157600080fd5b50604051620042cb380380620042cb8339810160408190526200003491620000dd565b33806200005b57604051631e4fbdf760e01b81526000600482015260240160405180910390fd5b62000066816200008d565b50600180546001600160a01b0319166001600160a01b03929092169190911790556200010f565b600080546001600160a01b038381166001600160a01b0319831681178455604051919092169283917f8be0079c531659141344cd1fd0a4f28419497f9722a3daafe3b4186f6b6457e09190a35050565b600060208284031215620000f057600080fd5b81516001600160a01b03811681146200010857600080fd5b9392505050565b6141ac806200011f6000396000f3fe608060405234801561001057600080fd5b50600436106102115760003560e01c80639aa3d0be11610125578063c17a340e116100ad578063e579f5001161007c578063e579f500146104d4578063ece32b0314610501578063ee09e42d14610526578063ee8ca3b514610549578063f2fde38b1461055c57600080fd5b8063c17a340e14610493578063c2bea8451461049b578063d8ea6821146104ae578063e094ec90146104c157600080fd5b8063aa03376f116100f4578063aa03376f14610434578063ad5f152e14610447578063b0f1c2b51461045a578063b2031bee1461046d578063b99f01a91461048057600080fd5b80639aa3d0be146103cf5780639b3a1789146103e25780639ba77999146103f5578063a2ef208d1461042157600080fd5b806339118d25116101a8578063715018a611610177578063715018a614610388578063715165ee14610390578063779900b4146103a35780637962f3ad146103ab5780638da5cb5b146103be57600080fd5b806339118d251461032c578063527f815b1461033f578063670ad782146103525780636c1fb9151461036557600080fd5b8063156ffac7116101e4578063156ffac7146102a15780631579259b146102b45780632bb8e457146102d45780632bf6cc79146102f957600080fd5b8063044efce61461021657806306b4da071461023c57806308fd1cb3146102515780630d1cfcae14610276575b600080fd5b610229610224366004612fe4565b61056f565b6040519081526020015b60405180910390f35b61024f61024a3660046130a3565b610945565b005b61026461025f3660046130c5565b61096f565b60405161023396959493929190613183565b600154610289906001600160a01b031681565b6040516001600160a01b039091168152602001610233565b61024f6102af36600461323b565b610b34565b6102c76102c23660046132f1565b610c50565b6040516102339190613312565b6102e76102e23660046130c5565b610dfc565b60405161023396959493929190613356565b61031f6103073660046130c5565b60009081526004602052604090206008015460ff1690565b60405161023391906133d3565b61022961033a3660046130c5565b610f35565b61024f61034d3660046133e1565b610f56565b61022961036036600461345f565b6113c5565b610378610373366004613489565b6113f6565b6040519015158152602001610233565b61024f61147a565b61024f61039e366004613489565b61148e565b6102c76117e1565b61024f6103b93660046130a3565b611839565b6000546001600160a01b0316610289565b61024f6103dd3660046134b5565b611863565b600354610289906001600160a01b031681565b6102896104033660046130c5565b6000908152600460205260409020600101546001600160a01b031690565b61024f61042f3660046130c5565b6119b5565b61024f6104423660046134b5565b611acf565b61024f6104553660046134fb565b611bcb565b61024f61046836600461358c565b611ce6565b600254610289906001600160a01b031681565b61024f61048e3660046130c5565b612078565b600554610229565b6102296104a93660046135f8565b612138565b6102c76104bc3660046130a3565b6124f4565b61024f6104cf3660046136ce565b612560565b6104e76104e23660046130c5565b61267c565b6040516102339e9d9c9b9a99989796959493929190613753565b61051461050f3660046130c5565b6128a6565b6040516102339695949392919061380d565b6102296105343660046130c5565b60009081526004602052604090206005015490565b61024f6105573660046130c5565b612a21565b61024f61056a3660046130a3565b612bc9565b6000808751116105be5760405162461bcd60e51b81526020600482015260156024820152745469746c652063616e6e6f7420626520656d70747960581b60448201526064015b60405180910390fd5b600086511161060f5760405162461bcd60e51b815260206004820152601b60248201527f4465736372697074696f6e2063616e6e6f7420626520656d707479000000000060448201526064016105b5565b60008551116106605760405162461bcd60e51b815260206004820181905260248201527f4174206c65617374206f6e65206361706162696c69747920726571756972656460448201526064016105b5565b4282116106af5760405162461bcd60e51b815260206004820152601e60248201527f446561646c696e65206d75737420626520696e2074686520667574757265000060448201526064016105b5565b6005546040516000916106cc9133918b918b91429160200161386a565b604051602081830303815290604052805190602001209050604051806101e00160405280828152602001336001600160a01b031681526020018981526020018881526020018781526020018681526020018581526020018481526020016001600681111561073c5761073c61339b565b8152600060208083018290524260408085019190915260608401839052608084018390528051808301825283815260a085015260c0909301829052848252600481529082902083518155908301516001820180546001600160a01b0319166001600160a01b039092169190911790559082015160028201906107be908261394a565b50606082015160038201906107d3908261394a565b50608082015180516107ef916004840191602090910190612d8f565b5060a0820151816005015560c0820151816006015560e082015181600701556101008201518160080160006101000a81548160ff021916908360068111156108395761083961339b565b02179055506101208201516008820180546001600160a01b0390921661010002610100600160a81b03199092169190911790556101408201516009820155610160820151600a820155610180820151600b8201556101a0820151600c8201906108a2908261394a565b506101c09190910151600d909101805460ff1916911515919091179055600580546001810182556000919091527f036b6384b5eca791c62761152d0c79bb0604c104a5fb6f4eb0703f3154bb3db001819055604051339082907f66c0e17f17f6650da30b099db3eb6fe82d28835006af30fe229f32454e7b221d90610932908c908c908c908c908c908c90613a09565b60405180910390a3979650505050505050565b61094d612c07565b600380546001600160a01b0319166001600160a01b0392909216919091179055565b6060600080600080606060006004600089815260200190815260200160002090508060040181600501548260080160019054906101000a90046001600160a01b0316836009015484600b015485600c0185805480602002602001604051908101604052809291908181526020016000905b82821015610a8c5783829060005260206000200180546109ff906138c5565b80601f0160208091040260200160405190810160405280929190818152602001828054610a2b906138c5565b8015610a785780601f10610a4d57610100808354040283529160200191610a78565b820191906000526020600020905b815481529060010190602001808311610a5b57829003601f168201915b5050505050815260200190600101906109e0565b505050509550808054610a9e906138c5565b80601f0160208091040260200160405190810160405280929190818152602001828054610aca906138c5565b8015610b175780601f10610aec57610100808354040283529160200191610b17565b820191906000526020600020905b815481529060010190602001808311610afa57829003601f168201915b505050505090509650965096509650965096505091939550919395565b60008581526004602052604090206002600882015460ff166006811115610b5d57610b5d61339b565b14610b7a5760405162461bcd60e51b81526004016105b590613a61565b6000855111610b9b5760405162461bcd60e51b81526004016105b590613a8c565b6000835111610be55760405162461bcd60e51b8152602060048201526016602482015275526573756c742063616e6e6f7420626520656d70747960501b60448201526064016105b5565b600c8101610bf3848261394a565b5084604051610c029190613ac3565b6040518091039020867f53791dc2531f6eb2d254bc945813caeafc8d40261443d9f20912166f50e2700286868642604051610c409493929190613b23565b60405180910390a3505050505050565b60606000805b600554811015610ce157836006811115610c7257610c7261339b565b6004600060058481548110610c8957610c89613b6e565b6000918252602080832090910154835282019290925260400190206008015460ff166006811115610cbc57610cbc61339b565b03610ccf5781610ccb81613b9a565b9250505b80610cd981613b9a565b915050610c56565b506000816001600160401b03811115610cfc57610cfc612e4c565b604051908082528060200260200182016040528015610d25578160200160208202803683370190505b5090506000805b600554811015610df257856006811115610d4857610d4861339b565b6004600060058481548110610d5f57610d5f613b6e565b6000918252602080832090910154835282019290925260400190206008015460ff166006811115610d9257610d9261339b565b03610de05760058181548110610daa57610daa613b6e565b9060005260206000200154838381518110610dc757610dc7613b6e565b602090810291909101015281610ddc81613b9a565b9250505b80610dea81613b9a565b915050610d2c565b5090949350505050565b60008060606000806000806004600089815260200190815260200160002090508060080160019054906101000a90046001600160a01b0316816006015482600401836007015484600a015485600b015483805480602002602001604051908101604052809291908181526020016000905b82821015610f19578382906000526020600020018054610e8c906138c5565b80601f0160208091040260200160405190810160405280929190818152602001828054610eb8906138c5565b8015610f055780601f10610eda57610100808354040283529160200191610f05565b820191906000526020600020905b815481529060010190602001808311610ee857829003601f168201915b505050505081526020019060010190610e6d565b5050505093509650965096509650965096505091939550919395565b60058181548110610f4557600080fd5b600091825260209091200154905081565b600085815260046020526040902060018101546001600160a01b03163314610fc05760405162461bcd60e51b815260206004820152601c60248201527f4f6e6c792063726561746f722063616e20757064617465207461736b0000000060448201526064016105b5565b6001600882015460ff166006811115610fdb57610fdb61339b565b1480610fff57506000600882015460ff166006811115610ffd57610ffd61339b565b145b61105b5760405162461bcd60e51b815260206004820152602760248201527f5461736b2063616e6e6f74206265207570646174656420696e2063757272656e6044820152667420737461746560c81b60648201526084016105b5565b6000855111801561108a57508451602086012060405161107f906002840190613bb3565b604051809103902014155b156111685760008160020180546110a0906138c5565b80601f01602080910402602001604051908101604052809291908181526020018280546110cc906138c5565b80156111195780601f106110ee57610100808354040283529160200191611119565b820191906000526020600020905b8154815290600101906020018083116110fc57829003601f168201915b5050505050905085826002019081611131919061394a565b50336001600160a01b03168760008051602061415783398151915283894260405161115e93929190613c29565b60405180910390a3505b6000845111801561119757508351602085012060405161118c906003840190613bb3565b604051809103902014155b156112755760008160030180546111ad906138c5565b80601f01602080910402602001604051908101604052809291908181526020018280546111d9906138c5565b80156112265780601f106111fb57610100808354040283529160200191611226565b820191906000526020600020905b81548152906001019060200180831161120957829003601f168201915b505050505090508482600301908161123e919061394a565b50336001600160a01b03168760008051602061415783398151915283884260405161126b93929190613c7b565b60405180910390a3505b600083118015611289575080600701548314155b15611346574283116112e85760405162461bcd60e51b815260206004820152602260248201527f4e657720646561646c696e65206d75737420626520696e207468652066757475604482015261726560f01b60648201526084016105b5565b60006112f78260070154612c34565b9050600061130485612c34565b9050848360070181905550336001600160a01b03168860008051602061415783398151915284844260405161133b93929190613cb0565b60405180910390a350505b60008211801561135a575080600601548214155b156113bd57600061136e8260060154612c34565b9050600061137b84612c34565b9050838360060181905550336001600160a01b0316886000805160206141578339815191528484426040516113b293929190613ce2565b60405180910390a350505b505050505050565b600660205281600052604060002081815481106113e157600080fd5b90600052602060002001600091509150505481565b60015460405163991ef17160e01b81526001600160a01b038381166004830152600092839291169063991ef17190602401600060405180830381865afa158015611444573d6000803e3d6000fd5b505050506040513d6000823e601f3d908101601f1916820160405261146c9190810190613e28565b505115159150505b92915050565b611482612c07565b61148c6000612d3f565b565b6000546001600160a01b03163314806114b157506002546001600160a01b031633145b61150f5760405162461bcd60e51b815260206004820152602960248201527f4f6e6c79206f776e6572206f722042696441756374696f6e2063616e2061737360448201526869676e207461736b7360b81b60648201526084016105b5565b60008281526004602052604090206001600882015460ff1660068111156115385761153861339b565b146115855760405162461bcd60e51b815260206004820152601c60248201527f5461736b206e6f74206f70656e20666f722061737369676e6d656e740000000060448201526064016105b5565b6001546040516332f0f23360e11b81526001600160a01b038481166004830152909116906365e1e46690602401602060405180830381865afa1580156115cf573d6000803e3d6000fd5b505050506040513d601f19601f820116820180604052508101906115f39190613e81565b61163f5760405162461bcd60e51b815260206004820152601d60248201527f4e6f742061207265676973746572656420616374697665206167656e7400000060448201526064016105b5565b600154604051630f85a25760e01b81526001600160a01b0384811660048301526000921690630f85a25790602401600060405180830381865afa15801561168a573d6000803e3d6000fd5b505050506040513d6000823e601f3d908101601f191682016040526116b29190810190613ea3565b51600583015490915081101561170a5760405162461bcd60e51b815260206004820152601860248201527f4167656e742072657075746174696f6e20746f6f206c6f77000000000000000060448201526064016105b5565b6008820180546001600160a81b0319166101006001600160a01b0386169081029190911760021790915542600a84018190556000828152600660209081526040808320805460018101825590845292829020909201889055905191825286917f3bdb25236c92adb14dbb0371a1d50611197c4c37294c59b8f890083fc0fd9f6f910160405180910390a36001600160a01b03831660025b857fba97412deb53032743fc0c9852ae5fc2d4f8293235dcab6c4a2af8fd0597e95d426040516117d391815260200190565b60405180910390a450505050565b6060600580548060200260200160405190810160405280929190818152602001828054801561182f57602002820191906000526020600020905b81548152602001906001019080831161181b575b5050505050905090565b611841612c07565b600280546001600160a01b0319166001600160a01b0392909216919091179055565b6000828152600460205260409020600881015461010090046001600160a01b031633146118a25760405162461bcd60e51b81526004016105b590613f8f565b6003600882015460ff1660068111156118bd576118bd61339b565b1461190a5760405162461bcd60e51b815260206004820152601c60248201527f5461736b206e6f7420696e20496e50726f67726573732073746174650000000060448201526064016105b5565b60088101805460ff1916600417905542600b820155600c810161192d838261394a565b50336001600160a01b0316837f715859a49c965271e3496c2dd225ed9fa2ff8536c4456324327a34528981e27e844260405161196a929190613fc6565b60405180910390a33360045b847fba97412deb53032743fc0c9852ae5fc2d4f8293235dcab6c4a2af8fd0597e95d426040516119a891815260200190565b60405180910390a4505050565b600081815260046020526040902060018101546001600160a01b03163314806119f75750336119ec6000546001600160a01b031690565b6001600160a01b0316145b611a135760405162461bcd60e51b81526004016105b590613fe8565b6000600882015460ff166006811115611a2e57611a2e61339b565b14611a7b5760405162461bcd60e51b815260206004820152601960248201527f5461736b206e6f7420696e20437265617465642073746174650000000000000060448201526064016105b5565b60088101805460ff191660019081179091556000905b837fba97412deb53032743fc0c9852ae5fc2d4f8293235dcab6c4a2af8fd0597e95d42604051611ac391815260200190565b60405180910390a45050565b6000828152600460205260409020600881015461010090046001600160a01b03163314611b0e5760405162461bcd60e51b81526004016105b590613f8f565b6003600882015460ff166006811115611b2957611b2961339b565b14611b765760405162461bcd60e51b815260206004820152601c60248201527f5461736b206e6f7420696e20496e50726f67726573732073746174650000000060448201526064016105b5565b60088101805460ff19166005179055604051339084907f49b6858c5cd0f7df82326119b619342e425cec127b6d75453af44ab1fa6c3f2190611bbb9086904290613fc6565b60405180910390a3336005611976565b60008481526004602052604090206002600882015460ff166006811115611bf457611bf461339b565b14611c115760405162461bcd60e51b81526004016105b590613a61565b6000835111611c6c5760405162461bcd60e51b815260206004820152602160248201527f4174206c65617374206f6e65207061727469636970616e7420726571756972656044820152601960fa1b60648201526084016105b5565b6000845111611c8d5760405162461bcd60e51b81526004016105b590613a8c565b83604051611c9b9190613ac3565b6040518091039020857f6056555396d7601202277be9878cd6fa50826187f8370a0205573bfa6f967063858542604051611cd793929190614010565b60405180910390a35050505050565b600083815260046020526040902060018101546001600160a01b0316331480611d28575033611d1d6000546001600160a01b031690565b6001600160a01b0316145b611d445760405162461bcd60e51b81526004016105b590613fe8565b6001600882015460ff166006811115611d5f57611d5f61339b565b14611da55760405162461bcd60e51b81526020600482015260166024820152755461736b206e6f7420696e204f70656e20737461746560501b60448201526064016105b5565b6000835111611df65760405162461bcd60e51b815260206004820152601b60248201527f4174206c65617374206f6e65206167656e74207265717569726564000000000060448201526064016105b5565b6000825111611e475760405162461bcd60e51b815260206004820152601960248201527f436f6c6c61626f726174696f6e2049442072657175697265640000000000000060448201526064016105b5565b60005b8351811015611f415760015484516001600160a01b03909116906365e1e46690869084908110611e7c57611e7c613b6e565b60200260200101516040518263ffffffff1660e01b8152600401611eaf91906001600160a01b0391909116815260200190565b602060405180830381865afa158015611ecc573d6000803e3d6000fd5b505050506040513d601f19601f82011682018060405250810190611ef09190613e81565b611f2f5760405162461bcd60e51b815260206004820152601060248201526f4167656e74206e6f742061637469766560801b60448201526064016105b5565b80611f3981613b9a565b915050611e4a565b5060088101805460ff1916600217905582518390600090611f6457611f64613b6e565b60200260200101518160080160016101000a8154816001600160a01b0302191690836001600160a01b031602179055504281600a0181905550336001600160a01b0316847fd8771545db98b1eb7c4c2a73d62b29737b444f2e2d70fea61283129d606093e2858542604051611fdb93929190614010565b60405180910390a382600081518110611ff657611ff6613b6e565b60200260200101516001600160a01b0316847f3bdb25236c92adb14dbb0371a1d50611197c4c37294c59b8f890083fc0fd9f6f4260405161203991815260200190565b60405180910390a38260008151811061205457612054613b6e565b60200260200101516001600160a01b0316600260068111156117a1576117a161339b565b6000818152600460205260409020600881015461010090046001600160a01b031633146120b75760405162461bcd60e51b81526004016105b590613f8f565b6002600882015460ff1660068111156120d2576120d261339b565b1461211f5760405162461bcd60e51b815260206004820152601a60248201527f5461736b206e6f7420696e2041737369676e656420737461746500000000000060448201526064016105b5565b60088101805460ff191660039081179091553390611a91565b6000612142612c07565b600086815260046020819052604090912090600882015460ff16600681111561216d5761216d61339b565b146121af5760405162461bcd60e51b815260206004820152601260248201527115185cdac81b9bdd0818dbdb5c1b195d195960721b60448201526064016105b5565b600d81015460ff16156121fd5760405162461bcd60e51b815260206004820152601660248201527515185cdac8185b1c9958591e48195d985b1d585d195960521b60448201526064016105b5565b606486111561224e5760405162461bcd60e51b815260206004820152601b60248201527f5175616c6974792073636f7265206d75737420626520302d313030000000000060448201526064016105b5565b606485111561229f5760405162461bcd60e51b815260206004820152601960248201527f44656c617920726174696f206d75737420626520302d3130300000000000000060448201526064016105b5565b82518451146122fe5760405162461bcd60e51b815260206004820152602560248201527f5461677320616e642073636f726573206d75737420686176652073616d65206c6044820152640cadccee8d60db1b60648201526084016105b5565b600d81018054600160ff19909116179055600354600882015460405163e528ccc360e01b81526101009091046001600160a01b039081166004830152602482018a90526044820189905260648201889052600092169063e528ccc3906084016020604051808303816000875af115801561237c573d6000803e3d6000fd5b505050506040513d601f19601f820116820180604052508101906123a09190614046565b600354600884015460405163148606c560e21b81529293506001600160a01b03918216926352181b14926123e392610100900416908c908a908a9060040161405f565b600060405180830381600087803b1580156123fd57600080fd5b505af1158015612411573d6000803e3d6000fd5b50506003546008850154604051635f3ee23360e11b8152600481018d90526001600160a01b0361010090920482166024820152604481018c90529116925063be7dc4669150606401600060405180830381600087803b15801561247357600080fd5b505af1158015612487573d6000803e3d6000fd5b50505050600882015460408051898152602081018990529081018390524260608201526101009091046001600160a01b03169089907f5fe21a5ac931932d848d36e2d8252743b3e1ffbc5be7f8e76cae9d329f5e24239060800160405180910390a3979650505050505050565b6001600160a01b03811660009081526006602090815260409182902080548351818402810184019094528084526060939283018282801561255457602002820191906000526020600020905b815481526020019060010190808311612540575b50505050509050919050565b60008581526004602052604090206002600882015460ff1660068111156125895761258961339b565b146125a65760405162461bcd60e51b81526004016105b590613a61565b60008551116125c75760405162461bcd60e51b81526004016105b590613a8c565b60008351116126185760405162461bcd60e51b815260206004820152601760248201527f4d6573736167652063616e6e6f7420626520656d70747900000000000000000060448201526064016105b5565b836001600160a01b0316856040516126309190613ac3565b6040518091039020877fa09464a17c8f79356f81f079b1a1535260da8867b8b6930a8cd05f88c6f43f7f86864260405161266c939291906140c9565b60405180910390a4505050505050565b60046020526000908152604090208054600182015460028301805492936001600160a01b03909216926126ae906138c5565b80601f01602080910402602001604051908101604052809291908181526020018280546126da906138c5565b80156127275780601f106126fc57610100808354040283529160200191612727565b820191906000526020600020905b81548152906001019060200180831161270a57829003601f168201915b50505050509080600301805461273c906138c5565b80601f0160208091040260200160405190810160405280929190818152602001828054612768906138c5565b80156127b55780601f1061278a576101008083540402835291602001916127b5565b820191906000526020600020905b81548152906001019060200180831161279857829003601f168201915b5050505050908060050154908060060154908060070154908060080160009054906101000a900460ff16908060080160019054906101000a90046001600160a01b03169080600901549080600a01549080600b01549080600c01805461281a906138c5565b80601f0160208091040260200160405190810160405280929190818152602001828054612846906138c5565b80156128935780601f1061286857610100808354040283529160200191612893565b820191906000526020600020905b81548152906001019060200180831161287657829003601f168201915b505050600d909301549192505060ff168e565b60008181526004602052604081206001810154600682015460078301546008840154600285018054606096879689968796879693956001600160a01b03909316949293600387019360ff9091169085906128ff906138c5565b80601f016020809104026020016040519081016040528092919081815260200182805461292b906138c5565b80156129785780601f1061294d57610100808354040283529160200191612978565b820191906000526020600020905b81548152906001019060200180831161295b57829003601f168201915b5050505050945083805461298b906138c5565b80601f01602080910402602001604051908101604052809291908181526020018280546129b7906138c5565b8015612a045780601f106129d957610100808354040283529160200191612a04565b820191906000526020600020905b8154815290600101906020018083116129e757829003601f168201915b505050505093509650965096509650965096505091939550919395565b600081815260046020526040902060018101546001600160a01b0316331480612a63575033612a586000546001600160a01b031690565b6001600160a01b0316145b612a7f5760405162461bcd60e51b81526004016105b590613fe8565b6004600882015460ff166006811115612a9a57612a9a61339b565b03612ae75760405162461bcd60e51b815260206004820152601c60248201527f43616e6e6f742063616e63656c20636f6d706c65746564207461736b0000000060448201526064016105b5565b6006600882015460ff166006811115612b0257612b0261339b565b03612b485760405162461bcd60e51b815260206004820152601660248201527515185cdac8185b1c9958591e4818d85b98d95b1b195960521b60448201526064016105b5565b60088101805460ff19166006179055604080518181526019818301527f5461736b2063616e63656c6c65642062792063726561746f720000000000000060608201524260208201529051339184917f8ad5d320fffca3c032c97ef86b331febf4e9ab9b7e6736f737f313a442138f91916080908290030190a3336006611a91565b612bd1612c07565b6001600160a01b038116612bfb57604051631e4fbdf760e01b8152600060048201526024016105b5565b612c0481612d3f565b50565b6000546001600160a01b0316331461148c5760405163118cdaa760e01b81523360048201526024016105b5565b606081600003612c5b5750506040805180820190915260018152600360fc1b602082015290565b8160005b8115612c855780612c6f81613b9a565b9150612c7e9050600a83614104565b9150612c5f565b6000816001600160401b03811115612c9f57612c9f612e4c565b6040519080825280601f01601f191660200182016040528015612cc9576020820181803683370190505b508593509050815b8315612d3657612ce2600a85614118565b612ced90603061412c565b60f81b82612cfa8361413f565b92508281518110612d0d57612d0d613b6e565b60200101906001600160f81b031916908160001a905350612d2f600a85614104565b9350612cd1565b50949350505050565b600080546001600160a01b038381166001600160a01b0319831681178455604051919092169283917f8be0079c531659141344cd1fd0a4f28419497f9722a3daafe3b4186f6b6457e09190a35050565b828054828255906000526020600020908101928215612dd5579160200282015b82811115612dd55782518290612dc5908261394a565b5091602001919060010190612daf565b50612de1929150612de5565b5090565b80821115612de1576000612df98282612e02565b50600101612de5565b508054612e0e906138c5565b6000825580601f10612e1e575050565b601f016020900490600052602060002090810190612c0491905b80821115612de15760008155600101612e38565b634e487b7160e01b600052604160045260246000fd5b60405160c081016001600160401b0381118282101715612e8457612e84612e4c565b60405290565b604051601f8201601f191681016001600160401b0381118282101715612eb257612eb2612e4c565b604052919050565b60006001600160401b03821115612ed357612ed3612e4c565b50601f01601f191660200190565b600082601f830112612ef257600080fd5b8135612f05612f0082612eba565b612e8a565b818152846020838601011115612f1a57600080fd5b816020850160208301376000918101602001919091529392505050565b60006001600160401b03821115612f5057612f50612e4c565b5060051b60200190565b600082601f830112612f6b57600080fd5b81356020612f7b612f0083612f37565b82815260059290921b84018101918181019086841115612f9a57600080fd5b8286015b84811015612fd95780356001600160401b03811115612fbd5760008081fd5b612fcb8986838b0101612ee1565b845250918301918301612f9e565b509695505050505050565b60008060008060008060c08789031215612ffd57600080fd5b86356001600160401b038082111561301457600080fd5b6130208a838b01612ee1565b9750602089013591508082111561303657600080fd5b6130428a838b01612ee1565b9650604089013591508082111561305857600080fd5b5061306589828a01612f5a565b945050606087013592506080870135915060a087013590509295509295509295565b80356001600160a01b038116811461309e57600080fd5b919050565b6000602082840312156130b557600080fd5b6130be82613087565b9392505050565b6000602082840312156130d757600080fd5b5035919050565b60005b838110156130f95781810151838201526020016130e1565b50506000910152565b6000815180845261311a8160208601602086016130de565b601f01601f19169290920160200192915050565b600081518084526020808501808196508360051b8101915082860160005b85811015613176578284038952613164848351613102565b9885019893509084019060010161314c565b5091979650505050505050565b60c08152600061319660c083018961312e565b602083018890526001600160a01b0387166040840152606083018690526080830185905282810360a08401526131cc8185613102565b9998505050505050505050565b600082601f8301126131ea57600080fd5b813560206131fa612f0083612f37565b82815260059290921b8401810191818101908684111561321957600080fd5b8286015b84811015612fd95761322e81613087565b835291830191830161321d565b600080600080600060a0868803121561325357600080fd5b8535945060208601356001600160401b038082111561327157600080fd5b61327d89838a01612ee1565b9550604088013591508082111561329357600080fd5b61329f89838a016131d9565b945060608801359150808211156132b557600080fd5b6132c189838a01612ee1565b935060808801359150808211156132d757600080fd5b506132e488828901612ee1565b9150509295509295909350565b60006020828403121561330357600080fd5b8135600781106130be57600080fd5b6020808252825182820181905260009190848201906040850190845b8181101561334a5783518352928401929184019160010161332e565b50909695505050505050565b60018060a01b038716815285602082015260c06040820152600061337d60c083018761312e565b606083019590955250608081019290925260a0909101529392505050565b634e487b7160e01b600052602160045260246000fd5b600781106133cf57634e487b7160e01b600052602160045260246000fd5b9052565b6020810161147482846133b1565b600080600080600060a086880312156133f957600080fd5b8535945060208601356001600160401b038082111561341757600080fd5b61342389838a01612ee1565b9550604088013591508082111561343957600080fd5b5061344688828901612ee1565b9598949750949560608101359550608001359392505050565b6000806040838503121561347257600080fd5b61347b83613087565b946020939093013593505050565b6000806040838503121561349c57600080fd5b823591506134ac60208401613087565b90509250929050565b600080604083850312156134c857600080fd5b8235915060208301356001600160401b038111156134e557600080fd5b6134f185828601612ee1565b9150509250929050565b6000806000806080858703121561351157600080fd5b8435935060208501356001600160401b038082111561352f57600080fd5b61353b88838901612ee1565b9450604087013591508082111561355157600080fd5b61355d888389016131d9565b9350606087013591508082111561357357600080fd5b5061358087828801612ee1565b91505092959194509250565b6000806000606084860312156135a157600080fd5b8335925060208401356001600160401b03808211156135bf57600080fd5b6135cb878388016131d9565b935060408601359150808211156135e157600080fd5b506135ee86828701612ee1565b9150509250925092565b600080600080600060a0868803121561361057600080fd5b8535945060208087013594506040870135935060608701356001600160401b038082111561363d57600080fd5b6136498a838b01612f5a565b9450608089013591508082111561365f57600080fd5b508701601f8101891361367157600080fd5b803561367f612f0082612f37565b81815260059190911b8201830190838101908b83111561369e57600080fd5b928401925b828410156136bc578335825292840192908401906136a3565b80955050505050509295509295909350565b600080600080600060a086880312156136e657600080fd5b8535945060208601356001600160401b038082111561370457600080fd5b61371089838a01612ee1565b955061371e60408901613087565b9450606088013591508082111561373457600080fd5b5061374188828901612ee1565b95989497509295608001359392505050565b8e81526001600160a01b038e1660208201526101c06040820152600061377d6101c083018f613102565b828103606084015261378f818f613102565b90508c60808401528b60a08401528a60c08401526137b060e084018b6133b1565b6001600160a01b0389166101008401528761012084015286610140840152856101608401528281036101808401526137e88186613102565b9150506137fa6101a083018415159052565b9f9e505050505050505050505050505050565b6001600160a01b038716815260c06020820181905260009061383190830188613102565b82810360408401526138438188613102565b91505084606083015283608083015261385f60a08301846133b1565b979650505050505050565b6bffffffffffffffffffffffff198660601b16815260008551613894816014850160208a016130de565b8551908301906138ab816014840160208a016130de565b016014810194909452505060348201526054019392505050565b600181811c908216806138d957607f821691505b6020821081036138f957634e487b7160e01b600052602260045260246000fd5b50919050565b601f82111561394557600081815260208120601f850160051c810160208610156139265750805b601f850160051c820191505b818110156113bd57828155600101613932565b505050565b81516001600160401b0381111561396357613963612e4c565b6139778161397184546138c5565b846138ff565b602080601f8311600181146139ac57600084156139945750858301515b600019600386901b1c1916600185901b1785556113bd565b600085815260208120601f198616915b828110156139db578886015182559484019460019091019084016139bc565b50858210156139f95787850151600019600388901b60f8161c191681555b5050505050600190811b01905550565b60c081526000613a1c60c0830189613102565b8281036020840152613a2e8189613102565b90508281036040840152613a42818861312e565b60608401969096525050608081019290925260a0909101529392505050565b60208082526011908201527015185cdac81b9bdd08185cdcda59db9959607a1b604082015260600190565b60208082526018908201527f436f6e766572736174696f6e2049442072657175697265640000000000000000604082015260600190565b60008251613ad58184602087016130de565b9190910192915050565b600081518084526020808501945080840160005b83811015613b185781516001600160a01b031687529582019590820190600101613af3565b509495945050505050565b608081526000613b366080830187613adf565b8281036020840152613b488187613102565b90508281036040840152613b5c8186613102565b91505082606083015295945050505050565b634e487b7160e01b600052603260045260246000fd5b634e487b7160e01b600052601160045260246000fd5b600060018201613bac57613bac613b84565b5060010190565b6000808354613bc1816138c5565b60018281168015613bd95760018114613bee57613c1d565b60ff1984168752821515830287019450613c1d565b8760005260208060002060005b85811015613c145781548a820152908401908201613bfb565b50505082870194505b50929695505050505050565b6080815260056080820152647469746c6560d81b60a082015260c060208201526000613c5860c0830186613102565b8281036040840152613c6a8186613102565b915050826060830152949350505050565b60808152600b60808201526a3232b9b1b934b83a34b7b760a91b60a082015260c060208201526000613c5860c0830186613102565b608081526008608082015267646561646c696e6560c01b60a082015260c060208201526000613c5860c0830186613102565b6080815260066080820152651c995dd85c9960d21b60a082015260c060208201526000613c5860c0830186613102565b600082601f830112613d2357600080fd5b81516020613d33612f0083612f37565b82815260059290921b84018101918181019086841115613d5257600080fd5b8286015b84811015612fd95780516001600160401b03811115613d755760008081fd5b8701603f81018913613d875760008081fd5b848101516040613d99612f0083612eba565b8281528b82848601011115613dae5760008081fd5b613dbd838983018487016130de565b8652505050918301918301613d56565b600082601f830112613dde57600080fd5b81516020613dee612f0083612f37565b82815260059290921b84018101918181019086841115613e0d57600080fd5b8286015b84811015612fd95780518352918301918301613e11565b60008060408385031215613e3b57600080fd5b82516001600160401b0380821115613e5257600080fd5b613e5e86838701613d12565b93506020850151915080821115613e7457600080fd5b506134f185828601613dcd565b600060208284031215613e9357600080fd5b815180151581146130be57600080fd5b600060208284031215613eb557600080fd5b81516001600160401b0380821115613ecc57600080fd5b9083019060c08286031215613ee057600080fd5b613ee8612e62565b82518152602083015182811115613efe57600080fd5b613f0a87828601613d12565b602083015250604083015182811115613f2257600080fd5b613f2e87828601613dcd565b60408301525060608301516060820152608083015182811115613f5057600080fd5b613f5c87828601613dcd565b60808301525060a083015182811115613f7457600080fd5b613f8087828601613dcd565b60a08301525095945050505050565b6020808252601a908201527f4e6f742061737369676e656420746f2074686973206167656e74000000000000604082015260600190565b604081526000613fd96040830185613102565b90508260208301529392505050565b6020808252600e908201526d139bdd08185d5d1a1bdc9a5e995960921b604082015260600190565b6060815260006140236060830186613adf565b82810360208401526140358186613102565b915050826040830152949350505050565b60006020828403121561405857600080fd5b5051919050565b60018060a01b038516815260006020858184015260806040840152614087608084018661312e565b838103606085015284518082528286019183019060005b818110156140ba5783518352928401929184019160010161409e565b50909998505050505050505050565b6060815260006140dc6060830186613102565b60208301949094525060400152919050565b634e487b7160e01b600052601260045260246000fd5b600082614113576141136140ee565b500490565b600082614127576141276140ee565b500690565b8082018082111561147457611474613b84565b60008161414e5761414e613b84565b50600019019056fe6f97c72b6ccbb554cee2467bdfd8449653824390a6d7c5c5492aca35a8291d30a2646970667358221220b909834b58eb7876914036654d9bd7d51ba6f0b6d04cd8d2c1953909bda1d99b64736f6c63430008140033",
  "linkReferences": {},
  "deployedLinkReferences": {}
}