{
  "_format": "hh-sol-artifact-1",
  "contractName": "TaskManager",
  "sourceName": "core/TaskManager.sol",
  "abi": [
    {
      "inputs": [
        {
          "internalType": "address",
          "name": "_agentRegistryAddress",
          "type": "address"
        }
      ],
      "stateMutability": "nonpayable",
      "type": "constructor"
    },
    {
      "inputs": [
        {
          "internalType": "address",
          "name": "owner",
          "type": "address"
        }
      ],
      "name": "OwnableInvalidOwner",
      "type": "error"
    },
    {
      "inputs": [
        {
          "internalType": "address",
          "name": "account",
          "type": "address"
        }
      ],
      "name": "OwnableUnauthorizedAccount",
      "type": "error"
    },
    {
      "anonymous": false,
      "inputs": [
        {
          "indexed": true,
          "internalType": "address",
          "name": "previousOwner",
          "type": "address"
        },
        {
          "indexed": true,
          "internalType": "address",
          "name": "newOwner",
          "type": "address"
        }
      ],
      "name": "OwnershipTransferred",
      "type": "event"
    },
    {
      "anonymous": false,
      "inputs": [
        {
          "indexed": true,
          "internalType": "bytes32",
          "name": "taskId",
          "type": "bytes32"
        },
        {
          "indexed": true,
          "internalType": "address",
          "name": "agent",
          "type": "address"
        },
        {
          "indexed": false,
          "internalType": "uint256",
          "name": "timestamp",
          "type": "uint256"
        }
      ],
      "name": "TaskAssigned",
      "type": "event"
    },
    {
      "anonymous": false,
      "inputs": [
        {
          "indexed": true,
          "internalType": "bytes32",
          "name": "taskId",
          "type": "bytes32"
        },
        {
          "indexed": true,
          "internalType": "address",
          "name": "agent",
          "type": "address"
        },
        {
          "indexed": false,
          "internalType": "string",
          "name": "resultURI",
          "type": "string"
        },
        {
          "indexed": false,
          "internalType": "uint256",
          "name": "timestamp",
          "type": "uint256"
        }
      ],
      "name": "TaskCompleted",
      "type": "event"
    },
    {
      "anonymous": false,
      "inputs": [
        {
          "indexed": true,
          "internalType": "bytes32",
          "name": "taskId",
          "type": "bytes32"
        },
        {
          "indexed": true,
          "internalType": "address",
          "name": "creator",
          "type": "address"
        },
        {
          "indexed": false,
          "internalType": "string",
          "name": "metadataURI",
          "type": "string"
        },
        {
          "indexed": false,
          "internalType": "string[]",
          "name": "capabilities",
          "type": "string[]"
        },
        {
          "indexed": false,
          "internalType": "uint256",
          "name": "minReputation",
          "type": "uint256"
        },
        {
          "indexed": false,
          "internalType": "uint256",
          "name": "reward",
          "type": "uint256"
        },
        {
          "indexed": false,
          "internalType": "uint256",
          "name": "deadline",
          "type": "uint256"
        }
      ],
      "name": "TaskCreated",
      "type": "event"
    },
    {
      "anonymous": false,
      "inputs": [
        {
          "indexed": true,
          "internalType": "bytes32",
          "name": "taskId",
          "type": "bytes32"
        },
        {
          "indexed": true,
          "internalType": "address",
          "name": "agent",
          "type": "address"
        },
        {
          "indexed": false,
          "internalType": "uint256",
          "name": "qualityScore",
          "type": "uint256"
        },
        {
          "indexed": false,
          "internalType": "uint256",
          "name": "delayRatio",
          "type": "uint256"
        },
        {
          "indexed": false,
          "internalType": "uint256",
          "name": "finalScore",
          "type": "uint256"
        },
        {
          "indexed": false,
          "internalType": "uint256",
          "name": "timestamp",
          "type": "uint256"
        }
      ],
      "name": "TaskEvaluated",
      "type": "event"
    },
    {
      "anonymous": false,
      "inputs": [
        {
          "indexed": true,
          "internalType": "bytes32",
          "name": "taskId",
          "type": "bytes32"
        },
        {
          "indexed": true,
          "internalType": "address",
          "name": "agent",
          "type": "address"
        },
        {
          "indexed": false,
          "internalType": "string",
          "name": "reason",
          "type": "string"
        },
        {
          "indexed": false,
          "internalType": "uint256",
          "name": "timestamp",
          "type": "uint256"
        }
      ],
      "name": "TaskFailed",
      "type": "event"
    },
    {
      "anonymous": false,
      "inputs": [
        {
          "indexed": true,
          "internalType": "bytes32",
          "name": "taskId",
          "type": "bytes32"
        },
        {
          "indexed": true,
          "internalType": "enum TaskManager.TaskStatus",
          "name": "status",
          "type": "uint8"
        },
        {
          "indexed": true,
          "internalType": "address",
          "name": "agent",
          "type": "address"
        },
        {
          "indexed": false,
          "internalType": "uint256",
          "name": "timestamp",
          "type": "uint256"
        }
      ],
      "name": "TaskStatusUpdated",
      "type": "event"
    },
    {
      "inputs": [
        {
          "internalType": "bytes32",
          "name": "taskId",
          "type": "bytes32"
        },
        {
          "internalType": "address",
          "name": "agent",
          "type": "address"
        }
      ],
      "name": "agentHasCapabilities",
      "outputs": [
        {
          "internalType": "bool",
          "name": "",
          "type": "bool"
        }
      ],
      "stateMutability": "view",
      "type": "function"
    },
    {
      "inputs": [],
      "name": "agentRegistry",
      "outputs": [
        {
          "internalType": "contract AgentRegistry",
          "name": "",
          "type": "address"
        }
      ],
      "stateMutability": "view",
      "type": "function"
    },
    {
      "inputs": [
        {
          "internalType": "address",
          "name": "",
          "type": "address"
        },
        {
          "internalType": "uint256",
          "name": "",
          "type": "uint256"
        }
      ],
      "name": "agentTasks",
      "outputs": [
        {
          "internalType": "bytes32",
          "name": "",
          "type": "bytes32"
        }
      ],
      "stateMutability": "view",
      "type": "function"
    },
    {
      "inputs": [
        {
          "internalType": "bytes32",
          "name": "taskId",
          "type": "bytes32"
        },
        {
          "internalType": "address",
          "name": "agent",
          "type": "address"
        }
      ],
      "name": "assignTask",
      "outputs": [],
      "stateMutability": "nonpayable",
      "type": "function"
    },
    {
      "inputs": [],
      "name": "bidAuction",
      "outputs": [
        {
          "internalType": "contract BidAuction",
          "name": "",
          "type": "address"
        }
      ],
      "stateMutability": "view",
      "type": "function"
    },
    {
      "inputs": [
        {
          "internalType": "bytes32",
          "name": "taskId",
          "type": "bytes32"
        }
      ],
      "name": "cancelTask",
      "outputs": [],
      "stateMutability": "nonpayable",
      "type": "function"
    },
    {
      "inputs": [
        {
          "internalType": "bytes32",
          "name": "taskId",
          "type": "bytes32"
        },
        {
          "internalType": "string",
          "name": "resultURI",
          "type": "string"
        }
      ],
      "name": "completeTask",
      "outputs": [],
      "stateMutability": "nonpayable",
      "type": "function"
    },
    {
      "inputs": [
        {
          "internalType": "string",
          "name": "metadataURI",
          "type": "string"
        },
        {
          "internalType": "string[]",
          "name": "capabilities",
          "type": "string[]"
        },
        {
          "internalType": "uint256",
          "name": "minReputation",
          "type": "uint256"
        },
        {
          "internalType": "uint256",
          "name": "reward",
          "type": "uint256"
        },
        {
          "internalType": "uint256",
          "name": "deadline",
          "type": "uint256"
        }
      ],
      "name": "createTask",
      "outputs": [
        {
          "internalType": "bytes32",
          "name": "",
          "type": "bytes32"
        }
      ],
      "stateMutability": "nonpayable",
      "type": "function"
    },
    {
      "inputs": [
        {
          "internalType": "bytes32",
          "name": "taskId",
          "type": "bytes32"
        },
        {
          "internalType": "uint256",
          "name": "qualityScore",
          "type": "uint256"
        },
        {
          "internalType": "uint256",
          "name": "delayRatio",
          "type": "uint256"
        },
        {
          "internalType": "string[]",
          "name": "tags",
          "type": "string[]"
        },
        {
          "internalType": "uint256[]",
          "name": "tagScores",
          "type": "uint256[]"
        }
      ],
      "name": "evaluateTaskOutcome",
      "outputs": [
        {
          "internalType": "uint256",
          "name": "",
          "type": "uint256"
        }
      ],
      "stateMutability": "nonpayable",
      "type": "function"
    },
    {
      "inputs": [
        {
          "internalType": "bytes32",
          "name": "taskId",
          "type": "bytes32"
        },
        {
          "internalType": "string",
          "name": "reason",
          "type": "string"
        }
      ],
      "name": "failTask",
      "outputs": [],
      "stateMutability": "nonpayable",
      "type": "function"
    },
    {
      "inputs": [
        {
          "internalType": "address",
          "name": "agent",
          "type": "address"
        }
      ],
      "name": "getAgentTasks",
      "outputs": [
        {
          "internalType": "bytes32[]",
          "name": "",
          "type": "bytes32[]"
        }
      ],
      "stateMutability": "view",
      "type": "function"
    },
    {
      "inputs": [],
      "name": "getAllTasks",
      "outputs": [
        {
          "internalType": "bytes32[]",
          "name": "",
          "type": "bytes32[]"
        }
      ],
      "stateMutability": "view",
      "type": "function"
    },
    {
      "inputs": [
        {
          "internalType": "bytes32",
          "name": "taskId",
          "type": "bytes32"
        }
      ],
      "name": "getTaskCreator",
      "outputs": [
        {
          "internalType": "address",
          "name": "",
          "type": "address"
        }
      ],
      "stateMutability": "view",
      "type": "function"
    },
    {
      "inputs": [
        {
          "internalType": "bytes32",
          "name": "taskId",
          "type": "bytes32"
        }
      ],
      "name": "getTaskExecutionInfo",
      "outputs": [
        {
          "internalType": "address",
          "name": "agent",
          "type": "address"
        },
        {
          "internalType": "uint256",
          "name": "reward",
          "type": "uint256"
        },
        {
          "internalType": "string[]",
          "name": "capabilities",
          "type": "string[]"
        },
        {
          "internalType": "uint256",
          "name": "deadline",
          "type": "uint256"
        },
        {
          "internalType": "uint256",
          "name": "assignedAt",
          "type": "uint256"
        },
        {
          "internalType": "uint256",
          "name": "completedAt",
          "type": "uint256"
        }
      ],
      "stateMutability": "view",
      "type": "function"
    },
    {
      "inputs": [
        {
          "internalType": "bytes32",
          "name": "taskId",
          "type": "bytes32"
        }
      ],
      "name": "getTaskMinReputation",
      "outputs": [
        {
          "internalType": "uint256",
          "name": "",
          "type": "uint256"
        }
      ],
      "stateMutability": "view",
      "type": "function"
    },
    {
      "inputs": [
        {
          "internalType": "bytes32",
          "name": "taskId",
          "type": "bytes32"
        }
      ],
      "name": "getTaskStatus",
      "outputs": [
        {
          "internalType": "enum TaskManager.TaskStatus",
          "name": "",
          "type": "uint8"
        }
      ],
      "stateMutability": "view",
      "type": "function"
    },
    {
      "inputs": [
        {
          "internalType": "enum TaskManager.TaskStatus",
          "name": "status",
          "type": "uint8"
        }
      ],
      "name": "getTasksByStatus",
      "outputs": [
        {
          "internalType": "bytes32[]",
          "name": "",
          "type": "bytes32[]"
        }
      ],
      "stateMutability": "view",
      "type": "function"
    },
    {
      "inputs": [],
      "name": "incentiveEngine",
      "outputs": [
        {
          "internalType": "contract IncentiveEngine",
          "name": "",
          "type": "address"
        }
      ],
      "stateMutability": "view",
      "type": "function"
    },
    {
      "inputs": [
        {
          "internalType": "bytes32",
          "name": "taskId",
          "type": "bytes32"
        }
      ],
      "name": "openTask",
      "outputs": [],
      "stateMutability": "nonpayable",
      "type": "function"
    },
    {
      "inputs": [],
      "name": "owner",
      "outputs": [
        {
          "internalType": "address",
          "name": "",
          "type": "address"
        }
      ],
      "stateMutability": "view",
      "type": "function"
    },
    {
      "inputs": [],
      "name": "renounceOwnership",
      "outputs": [],
      "stateMutability": "nonpayable",
      "type": "function"
    },
    {
      "inputs": [
        {
          "internalType": "address",
          "name": "_bidAuctionAddress",
          "type": "address"
        }
      ],
      "name": "setBidAuction",
      "outputs": [],
      "stateMutability": "nonpayable",
      "type": "function"
    },
    {
      "inputs": [
        {
          "internalType": "address",
          "name": "_incentiveEngineAddress",
          "type": "address"
        }
      ],
      "name": "setIncentiveEngine",
      "outputs": [],
      "stateMutability": "nonpayable",
      "type": "function"
    },
    {
      "inputs": [
        {
          "internalType": "bytes32",
          "name": "taskId",
          "type": "bytes32"
        }
      ],
      "name": "startTask",
      "outputs": [],
      "stateMutability": "nonpayable",
      "type": "function"
    },
    {
      "inputs": [
        {
          "internalType": "uint256",
          "name": "",
          "type": "uint256"
        }
      ],
      "name": "taskIds",
      "outputs": [
        {
          "internalType": "bytes32",
          "name": "",
          "type": "bytes32"
        }
      ],
      "stateMutability": "view",
      "type": "function"
    },
    {
      "inputs": [
        {
          "internalType": "bytes32",
          "name": "",
          "type": "bytes32"
        }
      ],
      "name": "tasks",
      "outputs": [
        {
          "internalType": "bytes32",
          "name": "taskId",
          "type": "bytes32"
        },
        {
          "internalType": "address",
          "name": "creator",
          "type": "address"
        },
        {
          "internalType": "string",
          "name": "metadataURI",
          "type": "string"
        },
        {
          "internalType": "uint256",
          "name": "minReputation",
          "type": "uint256"
        },
        {
          "internalType": "uint256",
          "name": "reward",
          "type": "uint256"
        },
        {
          "internalType": "uint256",
          "name": "deadline",
          "type": "uint256"
        },
        {
          "internalType": "enum TaskManager.TaskStatus",
          "name": "status",
          "type": "uint8"
        },
        {
          "internalType": "address",
          "name": "assignedAgent",
          "type": "address"
        },
        {
          "internalType": "uint256",
          "name": "createdAt",
          "type": "uint256"
        },
        {
          "internalType": "uint256",
          "name": "assignedAt",
          "type": "uint256"
        },
        {
          "internalType": "uint256",
          "name": "completedAt",
          "type": "uint256"
        },
        {
          "internalType": "string",
          "name": "resultURI",
          "type": "string"
        },
        {
          "internalType": "bool",
          "name": "isEvaluated",
          "type": "bool"
        }
      ],
      "stateMutability": "view",
      "type": "function"
    },
    {
      "inputs": [
        {
          "internalType": "address",
          "name": "newOwner",
          "type": "address"
        }
      ],
      "name": "transferOwnership",
      "outputs": [],
      "stateMutability": "nonpayable",
      "type": "function"
    }
  ],
  "bytecode": "0x60806040523480156200001157600080fd5b50604051620028bf380380620028bf8339810160408190526200003491620000dd565b33806200005b57604051631e4fbdf760e01b81526000600482015260240160405180910390fd5b62000066816200008d565b50600180546001600160a01b0319166001600160a01b03929092169190911790556200010f565b600080546001600160a01b038381166001600160a01b0319831681178455604051919092169283917f8be0079c531659141344cd1fd0a4f28419497f9722a3daafe3b4186f6b6457e09190a35050565b600060208284031215620000f057600080fd5b81516001600160a01b03811681146200010857600080fd5b9392505050565b6127a0806200011f6000396000f3fe608060405234801561001057600080fd5b50600436106101a95760003560e01c80638da5cb5b116100f9578063b99f01a911610097578063e579f50011610071578063e579f500146103e0578063ee09e42d1461040c578063ee8ca3b514610430578063f2fde38b1461044357600080fd5b8063b99f01a9146103a7578063c2bea845146103ba578063d8ea6821146103cd57600080fd5b80639ba77999116100d35780639ba7799914610342578063a2ef208d1461036e578063aa03376f14610381578063b2031bee1461039457600080fd5b80638da5cb5b1461030b5780639aa3d0be1461031c5780639b3a17891461032f57600080fd5b806339118d2511610166578063715018a611610140578063715018a6146102d5578063715165ee146102dd578063779900b4146102f05780637962f3ad146102f857600080fd5b806339118d251461028c578063670ad7821461029f5780636c1fb915146102b257600080fd5b806306b4da07146101ae5780630d1cfcae146101c35780631579259b146101f35780631940fef8146102135780632bb8e457146102345780632bf6cc7914610259575b600080fd5b6101c16101bc366004611c15565b610456565b005b6001546101d6906001600160a01b031681565b6040516001600160a01b0390911681526020015b60405180910390f35b610206610201366004611c37565b610480565b6040516101ea9190611c58565b610226610221366004611e34565b61062c565b6040519081526020016101ea565b610247610242366004611eb2565b610943565b6040516101ea96959493929190611f70565b61027f610267366004611eb2565b60009081526004602052604090206007015460ff1690565b6040516101ea9190611fed565b61022661029a366004611eb2565b610a7c565b6102266102ad366004611ffb565b610a9d565b6102c56102c0366004612025565b610ace565b60405190151581526020016101ea565b6101c1610b52565b6101c16102eb366004612025565b610b66565b610206610e91565b6101c1610306366004611c15565b610ee9565b6000546001600160a01b03166101d6565b6101c161032a366004612051565b610f13565b6003546101d6906001600160a01b031681565b6101d6610350366004611eb2565b6000908152600460205260409020600101546001600160a01b031690565b6101c161037c366004611eb2565b611065565b6101c161038f366004612051565b6111a0565b6002546101d6906001600160a01b031681565b6101c16103b5366004611eb2565b61129c565b6102266103c8366004612097565b61135c565b6102066103db366004611c15565b611718565b6103f36103ee366004611eb2565b611784565b6040516101ea9d9c9b9a9998979695949392919061216d565b61022661041a366004611eb2565b6000908152600460208190526040909120015490565b6101c161043e366004611eb2565b611920565b6101c1610451366004611c15565b611a81565b61045e611abf565b600380546001600160a01b0319166001600160a01b0392909216919091179055565b60606000805b600554811015610511578360068111156104a2576104a2611fb5565b60046000600584815481106104b9576104b9612205565b6000918252602080832090910154835282019290925260400190206007015460ff1660068111156104ec576104ec611fb5565b036104ff57816104fb8161221b565b9250505b806105098161221b565b915050610486565b506000816001600160401b0381111561052c5761052c611c9c565b604051908082528060200260200182016040528015610555578160200160208202803683370190505b5090506000805b6005548110156106225785600681111561057857610578611fb5565b600460006005848154811061058f5761058f612205565b6000918252602080832090910154835282019290925260400190206007015460ff1660068111156105c2576105c2611fb5565b0361061057600581815481106105da576105da612205565b90600052602060002001548383815181106105f7576105f7612205565b60209081029190910101528161060c8161221b565b9250505b8061061a8161221b565b91505061055c565b5090949350505050565b6000808551116106835760405162461bcd60e51b815260206004820181905260248201527f4174206c65617374206f6e65206361706162696c69747920726571756972656460448201526064015b60405180910390fd5b4282116106d25760405162461bcd60e51b815260206004820152601e60248201527f446561646c696e65206d75737420626520696e20746865206675747572650000604482015260640161067a565b6005546040516000916106ee9133918a91429190602001612242565b604051602081830303815290604052805190602001209050604051806101c00160405280828152602001336001600160a01b031681526020018881526020018781526020018681526020018581526020018481526020016000600681111561075857610758611fb5565b8152600060208083018290524260408085019190915260608401839052608084018390528051808301825283815260a085015260c0909301829052848252600481529082902083518155908301516001820180546001600160a01b0319166001600160a01b039092169190911790559082015160028201906107da908261230f565b50606082015180516107f6916003840191602090910190611b3c565b506080820151816004015560a0820151816005015560c0820151816006015560e08201518160070160006101000a81548160ff0219169083600681111561083f5761083f611fb5565b021790555061010082810151600783018054610100600160a81b0319166001600160a01b0390921690920217905561012082015160088201556101408201516009820155610160820151600a820155610180820151600b8201906108a3908261230f565b506101a09190910151600c909101805460ff1916911515919091179055600580546001810182556000919091527f036b6384b5eca791c62761152d0c79bb0604c104a5fb6f4eb0703f3154bb3db001819055604051339082907fb576773f5188b75701a9711500e853eac16e4e920724f99ac9c296e8669c6c2b90610931908b908b908b908b908b906123ce565b60405180910390a39695505050505050565b60008060606000806000806004600089815260200190815260200160002090508060070160019054906101000a90046001600160a01b03168160050154826003018360060154846009015485600a015483805480602002602001604051908101604052809291908181526020016000905b82821015610a605783829060005260206000200180546109d390612286565b80601f01602080910402602001604051908101604052809291908181526020018280546109ff90612286565b8015610a4c5780601f10610a2157610100808354040283529160200191610a4c565b820191906000526020600020905b815481529060010190602001808311610a2f57829003601f168201915b5050505050815260200190600101906109b4565b5050505093509650965096509650965096505091939550919395565b60058181548110610a8c57600080fd5b600091825260209091200154905081565b60066020528160005260406000208181548110610ab957600080fd5b90600052602060002001600091509150505481565b60015460405163991ef17160e01b81526001600160a01b038381166004830152600092839291169063991ef17190602401600060405180830381865afa158015610b1c573d6000803e3d6000fd5b505050506040513d6000823e601f3d908101601f19168201604052610b449190810190612527565b505115159150505b92915050565b610b5a611abf565b610b646000611aec565b565b6002546001600160a01b03163314610bc05760405162461bcd60e51b815260206004820181905260248201527f4f6e6c792042696441756374696f6e2063616e2061737369676e207461736b73604482015260640161067a565b60008281526004602052604090206001600782015460ff166006811115610be957610be9611fb5565b14610c365760405162461bcd60e51b815260206004820152601c60248201527f5461736b206e6f74206f70656e20666f722061737369676e6d656e7400000000604482015260640161067a565b6001546040516332f0f23360e11b81526001600160a01b038481166004830152909116906365e1e46690602401602060405180830381865afa158015610c80573d6000803e3d6000fd5b505050506040513d601f19601f82011682018060405250810190610ca49190612580565b610cf05760405162461bcd60e51b815260206004820152601d60248201527f4e6f742061207265676973746572656420616374697665206167656e74000000604482015260640161067a565b600154604051630f85a25760e01b81526001600160a01b0384811660048301526000921690630f85a25790602401600060405180830381865afa158015610d3b573d6000803e3d6000fd5b505050506040513d6000823e601f3d908101601f19168201604052610d6391908101906125a2565b516004830154909150811015610dbb5760405162461bcd60e51b815260206004820152601860248201527f4167656e742072657075746174696f6e20746f6f206c6f770000000000000000604482015260640161067a565b6007820180546001600160a81b0319166101006001600160a01b0386169081029190911760021790915542600984018190556000828152600660209081526040808320805460018101825590845292829020909201889055905191825286917f3bdb25236c92adb14dbb0371a1d50611197c4c37294c59b8f890083fc0fd9f6f910160405180910390a36001600160a01b0383166002857fba97412deb53032743fc0c9852ae5fc2d4f8293235dcab6c4a2af8fd0597e95d42604051610e8391815260200190565b60405180910390a450505050565b60606005805480602002602001604051908101604052809291908181526020018280548015610edf57602002820191906000526020600020905b815481526020019060010190808311610ecb575b5050505050905090565b610ef1611abf565b600280546001600160a01b0319166001600160a01b0392909216919091179055565b6000828152600460205260409020600781015461010090046001600160a01b03163314610f525760405162461bcd60e51b815260040161067a9061268e565b6003600782015460ff166006811115610f6d57610f6d611fb5565b14610fba5760405162461bcd60e51b815260206004820152601c60248201527f5461736b206e6f7420696e20496e50726f677265737320737461746500000000604482015260640161067a565b60078101805460ff1916600417905542600a820155600b8101610fdd838261230f565b50336001600160a01b0316837f715859a49c965271e3496c2dd225ed9fa2ff8536c4456324327a34528981e27e844260405161101a9291906126c5565b60405180910390a33360045b847fba97412deb53032743fc0c9852ae5fc2d4f8293235dcab6c4a2af8fd0597e95d4260405161105891815260200190565b60405180910390a4505050565b600081815260046020526040902060018101546001600160a01b03163314806110a757503361109c6000546001600160a01b031690565b6001600160a01b0316145b6110e45760405162461bcd60e51b815260206004820152600e60248201526d139bdd08185d5d1a1bdc9a5e995960921b604482015260640161067a565b6000600782015460ff1660068111156110ff576110ff611fb5565b1461114c5760405162461bcd60e51b815260206004820152601960248201527f5461736b206e6f7420696e204372656174656420737461746500000000000000604482015260640161067a565b60078101805460ff191660019081179091556000905b837fba97412deb53032743fc0c9852ae5fc2d4f8293235dcab6c4a2af8fd0597e95d4260405161119491815260200190565b60405180910390a45050565b6000828152600460205260409020600781015461010090046001600160a01b031633146111df5760405162461bcd60e51b815260040161067a9061268e565b6003600782015460ff1660068111156111fa576111fa611fb5565b146112475760405162461bcd60e51b815260206004820152601c60248201527f5461736b206e6f7420696e20496e50726f677265737320737461746500000000604482015260640161067a565b60078101805460ff19166005179055604051339084907f49b6858c5cd0f7df82326119b619342e425cec127b6d75453af44ab1fa6c3f219061128c90869042906126c5565b60405180910390a3336005611026565b6000818152600460205260409020600781015461010090046001600160a01b031633146112db5760405162461bcd60e51b815260040161067a9061268e565b6002600782015460ff1660068111156112f6576112f6611fb5565b146113435760405162461bcd60e51b815260206004820152601a60248201527f5461736b206e6f7420696e2041737369676e6564207374617465000000000000604482015260640161067a565b60078101805460ff191660039081179091553390611162565b6000611366611abf565b600086815260046020819052604090912090600782015460ff16600681111561139157611391611fb5565b146113d35760405162461bcd60e51b815260206004820152601260248201527115185cdac81b9bdd0818dbdb5c1b195d195960721b604482015260640161067a565b600c81015460ff16156114215760405162461bcd60e51b815260206004820152601660248201527515185cdac8185b1c9958591e48195d985b1d585d195960521b604482015260640161067a565b60648611156114725760405162461bcd60e51b815260206004820152601b60248201527f5175616c6974792073636f7265206d75737420626520302d3130300000000000604482015260640161067a565b60648511156114c35760405162461bcd60e51b815260206004820152601960248201527f44656c617920726174696f206d75737420626520302d31303000000000000000604482015260640161067a565b82518451146115225760405162461bcd60e51b815260206004820152602560248201527f5461677320616e642073636f726573206d75737420686176652073616d65206c6044820152640cadccee8d60db1b606482015260840161067a565b600c81018054600160ff19909116179055600354600782015460405163e528ccc360e01b81526101009091046001600160a01b039081166004830152602482018a90526044820189905260648201889052600092169063e528ccc3906084016020604051808303816000875af11580156115a0573d6000803e3d6000fd5b505050506040513d601f19601f820116820180604052508101906115c491906126e7565b600354600784015460405163148606c560e21b81529293506001600160a01b03918216926352181b149261160792610100900416908c908a908a90600401612700565b600060405180830381600087803b15801561162157600080fd5b505af1158015611635573d6000803e3d6000fd5b50506003546007850154604051635f3ee23360e11b8152600481018d90526001600160a01b0361010090920482166024820152604481018c90529116925063be7dc4669150606401600060405180830381600087803b15801561169757600080fd5b505af11580156116ab573d6000803e3d6000fd5b50505050600782015460408051898152602081018990529081018390524260608201526101009091046001600160a01b03169089907f5fe21a5ac931932d848d36e2d8252743b3e1ffbc5be7f8e76cae9d329f5e24239060800160405180910390a3979650505050505050565b6001600160a01b03811660009081526006602090815260409182902080548351818402810184019094528084526060939283018282801561177857602002820191906000526020600020905b815481526020019060010190808311611764575b50505050509050919050565b60046020526000908152604090208054600182015460028301805492936001600160a01b03909216926117b690612286565b80601f01602080910402602001604051908101604052809291908181526020018280546117e290612286565b801561182f5780601f106118045761010080835404028352916020019161182f565b820191906000526020600020905b81548152906001019060200180831161181257829003601f168201915b5050505050908060040154908060050154908060060154908060070160009054906101000a900460ff16908060070160019054906101000a90046001600160a01b03169080600801549080600901549080600a01549080600b01805461189490612286565b80601f01602080910402602001604051908101604052809291908181526020018280546118c090612286565b801561190d5780601f106118e25761010080835404028352916020019161190d565b820191906000526020600020905b8154815290600101906020018083116118f057829003601f168201915b505050600c909301549192505060ff168d565b600081815260046020526040902060018101546001600160a01b03163314806119625750336119576000546001600160a01b031690565b6001600160a01b0316145b61199f5760405162461bcd60e51b815260206004820152600e60248201526d139bdd08185d5d1a1bdc9a5e995960921b604482015260640161067a565b6004600782015460ff1660068111156119ba576119ba611fb5565b03611a075760405162461bcd60e51b815260206004820152601c60248201527f43616e6e6f742063616e63656c20636f6d706c65746564207461736b00000000604482015260640161067a565b6006600782015460ff166006811115611a2257611a22611fb5565b03611a685760405162461bcd60e51b815260206004820152601660248201527515185cdac8185b1c9958591e4818d85b98d95b1b195960521b604482015260640161067a565b60078101805460ff191660069081179091553390611162565b611a89611abf565b6001600160a01b038116611ab357604051631e4fbdf760e01b81526000600482015260240161067a565b611abc81611aec565b50565b6000546001600160a01b03163314610b645760405163118cdaa760e01b815233600482015260240161067a565b600080546001600160a01b038381166001600160a01b0319831681178455604051919092169283917f8be0079c531659141344cd1fd0a4f28419497f9722a3daafe3b4186f6b6457e09190a35050565b828054828255906000526020600020908101928215611b82579160200282015b82811115611b825782518290611b72908261230f565b5091602001919060010190611b5c565b50611b8e929150611b92565b5090565b80821115611b8e576000611ba68282611baf565b50600101611b92565b508054611bbb90612286565b6000825580601f10611bcb575050565b601f016020900490600052602060002090810190611abc91905b80821115611b8e5760008155600101611be5565b80356001600160a01b0381168114611c1057600080fd5b919050565b600060208284031215611c2757600080fd5b611c3082611bf9565b9392505050565b600060208284031215611c4957600080fd5b813560078110611c3057600080fd5b6020808252825182820181905260009190848201906040850190845b81811015611c9057835183529284019291840191600101611c74565b50909695505050505050565b634e487b7160e01b600052604160045260246000fd5b60405160c081016001600160401b0381118282101715611cd457611cd4611c9c565b60405290565b604051601f8201601f191681016001600160401b0381118282101715611d0257611d02611c9c565b604052919050565b60006001600160401b03821115611d2357611d23611c9c565b50601f01601f191660200190565b600082601f830112611d4257600080fd5b8135611d55611d5082611d0a565b611cda565b818152846020838601011115611d6a57600080fd5b816020850160208301376000918101602001919091529392505050565b60006001600160401b03821115611da057611da0611c9c565b5060051b60200190565b600082601f830112611dbb57600080fd5b81356020611dcb611d5083611d87565b82815260059290921b84018101918181019086841115611dea57600080fd5b8286015b84811015611e295780356001600160401b03811115611e0d5760008081fd5b611e1b8986838b0101611d31565b845250918301918301611dee565b509695505050505050565b600080600080600060a08688031215611e4c57600080fd5b85356001600160401b0380821115611e6357600080fd5b611e6f89838a01611d31565b96506020880135915080821115611e8557600080fd5b50611e9288828901611daa565b959895975050505060408401359360608101359360809091013592509050565b600060208284031215611ec457600080fd5b5035919050565b60005b83811015611ee6578181015183820152602001611ece565b50506000910152565b60008151808452611f07816020860160208601611ecb565b601f01601f19169290920160200192915050565b600081518084526020808501808196508360051b8101915082860160005b85811015611f63578284038952611f51848351611eef565b98850198935090840190600101611f39565b5091979650505050505050565b60018060a01b038716815285602082015260c060408201526000611f9760c0830187611f1b565b606083019590955250608081019290925260a0909101529392505050565b634e487b7160e01b600052602160045260246000fd5b60078110611fe957634e487b7160e01b600052602160045260246000fd5b9052565b60208101610b4c8284611fcb565b6000806040838503121561200e57600080fd5b61201783611bf9565b946020939093013593505050565b6000806040838503121561203857600080fd5b8235915061204860208401611bf9565b90509250929050565b6000806040838503121561206457600080fd5b8235915060208301356001600160401b0381111561208157600080fd5b61208d85828601611d31565b9150509250929050565b600080600080600060a086880312156120af57600080fd5b8535945060208087013594506040870135935060608701356001600160401b03808211156120dc57600080fd5b6120e88a838b01611daa565b945060808901359150808211156120fe57600080fd5b508701601f8101891361211057600080fd5b803561211e611d5082611d87565b81815260059190911b8201830190838101908b83111561213d57600080fd5b928401925b8284101561215b57833582529284019290840190612142565b80955050505050509295509295909350565b8d8152600060018060a01b03808f1660208401526101a060408401526121976101a084018f611eef565b8d60608501528c60808501528b60a08501526121b660c085018c611fcb565b818a1660e08501528861010085015287610120850152866101408501528381036101608501526121e68187611eef565b925050508215156101808301529e9d5050505050505050505050505050565b634e487b7160e01b600052603260045260246000fd5b60006001820161223b57634e487b7160e01b600052601160045260246000fd5b5060010190565b6bffffffffffffffffffffffff198560601b1681526000845161226c816014850160208901611ecb565b909101601481019390935250603482015260540192915050565b600181811c9082168061229a57607f821691505b6020821081036122ba57634e487b7160e01b600052602260045260246000fd5b50919050565b601f82111561230a57600081815260208120601f850160051c810160208610156122e75750805b601f850160051c820191505b81811015612306578281556001016122f3565b5050505b505050565b81516001600160401b0381111561232857612328611c9c565b61233c816123368454612286565b846122c0565b602080601f83116001811461237157600084156123595750858301515b600019600386901b1c1916600185901b178555612306565b600085815260208120601f198616915b828110156123a057888601518255948401946001909101908401612381565b50858210156123be5787850151600019600388901b60f8161c191681555b5050505050600190811b01905550565b60a0815260006123e160a0830188611eef565b82810360208401526123f38188611f1b565b60408401969096525050606081019290925260809091015292915050565b600082601f83011261242257600080fd5b81516020612432611d5083611d87565b82815260059290921b8401810191818101908684111561245157600080fd5b8286015b84811015611e295780516001600160401b038111156124745760008081fd5b8701603f810189136124865760008081fd5b848101516040612498611d5083611d0a565b8281528b828486010111156124ad5760008081fd5b6124bc83898301848701611ecb565b8652505050918301918301612455565b600082601f8301126124dd57600080fd5b815160206124ed611d5083611d87565b82815260059290921b8401810191818101908684111561250c57600080fd5b8286015b84811015611e295780518352918301918301612510565b6000806040838503121561253a57600080fd5b82516001600160401b038082111561255157600080fd5b61255d86838701612411565b9350602085015191508082111561257357600080fd5b5061208d858286016124cc565b60006020828403121561259257600080fd5b81518015158114611c3057600080fd5b6000602082840312156125b457600080fd5b81516001600160401b03808211156125cb57600080fd5b9083019060c082860312156125df57600080fd5b6125e7611cb2565b825181526020830151828111156125fd57600080fd5b61260987828601612411565b60208301525060408301518281111561262157600080fd5b61262d878286016124cc565b6040830152506060830151606082015260808301518281111561264f57600080fd5b61265b878286016124cc565b60808301525060a08301518281111561267357600080fd5b61267f878286016124cc565b60a08301525095945050505050565b6020808252601a908201527f4e6f742061737369676e656420746f2074686973206167656e74000000000000604082015260600190565b6040815260006126d86040830185611eef565b90508260208301529392505050565b6000602082840312156126f957600080fd5b5051919050565b60018060a01b0385168152600060208581840152608060408401526127286080840186611f1b565b838103606085015284518082528286019183019060005b8181101561275b5783518352928401929184019160010161273f565b5090999850505050505050505056fea264697066735822122000c1072e6462777de8f7de65a3ea1ffa3c917bdaf8561595a268051eeb42692564736f6c63430008140033",
  "linkReferences": {},
  "deployedLinkReferences": {}
}