{
  "_format": "hh-sol-artifact-1",
  "contractName": "TaskMarketplace",
  "sourceName": "core/TaskMarketplace.sol",
  "abi": [
    {
      "inputs": [
        {
          "internalType": "address",
          "name": "_taskManagerAddress",
          "type": "address"
        },
        {
          "internalType": "address",
          "name": "_bidAuctionAddress",
          "type": "address"
        },
        {
          "internalType": "address",
          "name": "_agentRegistryAddress",
          "type": "address"
        },
        {
          "internalType": "address",
          "name": "_incentiveEngineAddress",
          "type": "address"
        }
      ],
      "stateMutability": "nonpayable",
      "type": "constructor"
    },
    {
      "inputs": [
        {
          "internalType": "address",
          "name": "owner",
          "type": "address"
        }
      ],
      "name": "OwnableInvalidOwner",
      "type": "error"
    },
    {
      "inputs": [
        {
          "internalType": "address",
          "name": "account",
          "type": "address"
        }
      ],
      "name": "OwnableUnauthorizedAccount",
      "type": "error"
    },
    {
      "anonymous": false,
      "inputs": [
        {
          "indexed": true,
          "internalType": "address",
          "name": "previousOwner",
          "type": "address"
        },
        {
          "indexed": true,
          "internalType": "address",
          "name": "newOwner",
          "type": "address"
        }
      ],
      "name": "OwnershipTransferred",
      "type": "event"
    },
    {
      "anonymous": false,
      "inputs": [
        {
          "indexed": true,
          "internalType": "uint256",
          "name": "taskId",
          "type": "uint256"
        },
        {
          "indexed": true,
          "internalType": "address",
          "name": "creator",
          "type": "address"
        }
      ],
      "name": "TaskCreated",
      "type": "event"
    },
    {
      "inputs": [],
      "name": "agentRegistry",
      "outputs": [
        {
          "internalType": "contract AgentRegistry",
          "name": "",
          "type": "address"
        }
      ],
      "stateMutability": "view",
      "type": "function"
    },
    {
      "inputs": [],
      "name": "bidAuction",
      "outputs": [
        {
          "internalType": "contract BidAuction",
          "name": "",
          "type": "address"
        }
      ],
      "stateMutability": "view",
      "type": "function"
    },
    {
      "inputs": [
        {
          "internalType": "uint256",
          "name": "taskId",
          "type": "uint256"
        }
      ],
      "name": "cancelTask",
      "outputs": [],
      "stateMutability": "nonpayable",
      "type": "function"
    },
    {
      "inputs": [
        {
          "internalType": "uint256",
          "name": "taskId",
          "type": "uint256"
        },
        {
          "internalType": "string",
          "name": "resultURI",
          "type": "string"
        }
      ],
      "name": "completeTask",
      "outputs": [],
      "stateMutability": "nonpayable",
      "type": "function"
    },
    {
      "inputs": [
        {
          "internalType": "string",
          "name": "metadataURI",
          "type": "string"
        },
        {
          "internalType": "string[]",
          "name": "capabilities",
          "type": "string[]"
        },
        {
          "internalType": "uint256",
          "name": "minReputation",
          "type": "uint256"
        },
        {
          "internalType": "uint256",
          "name": "reward",
          "type": "uint256"
        },
        {
          "internalType": "uint256",
          "name": "deadline",
          "type": "uint256"
        }
      ],
      "name": "createTask",
      "outputs": [
        {
          "internalType": "uint256",
          "name": "",
          "type": "uint256"
        }
      ],
      "stateMutability": "nonpayable",
      "type": "function"
    },
    {
      "inputs": [
        {
          "internalType": "address",
          "name": "agent",
          "type": "address"
        }
      ],
      "name": "getAgentCapabilities",
      "outputs": [
        {
          "internalType": "string[]",
          "name": "",
          "type": "string[]"
        }
      ],
      "stateMutability": "view",
      "type": "function"
    },
    {
      "inputs": [
        {
          "internalType": "address",
          "name": "agent",
          "type": "address"
        }
      ],
      "name": "getAgentDetails",
      "outputs": [
        {
          "internalType": "string",
          "name": "name",
          "type": "string"
        },
        {
          "internalType": "uint256",
          "name": "reputation",
          "type": "uint256"
        },
        {
          "internalType": "bool",
          "name": "active",
          "type": "bool"
        },
        {
          "internalType": "uint256",
          "name": "workload",
          "type": "uint256"
        },
        {
          "internalType": "string[]",
          "name": "capabilities",
          "type": "string[]"
        },
        {
          "internalType": "uint256[]",
          "name": "weights",
          "type": "uint256[]"
        }
      ],
      "stateMutability": "view",
      "type": "function"
    },
    {
      "inputs": [
        {
          "internalType": "address",
          "name": "agent",
          "type": "address"
        }
      ],
      "name": "getAgentTasks",
      "outputs": [
        {
          "internalType": "uint256[]",
          "name": "",
          "type": "uint256[]"
        }
      ],
      "stateMutability": "view",
      "type": "function"
    },
    {
      "inputs": [
        {
          "internalType": "string",
          "name": "capability",
          "type": "string"
        }
      ],
      "name": "getAgentsByCapability",
      "outputs": [
        {
          "internalType": "address[]",
          "name": "",
          "type": "address[]"
        }
      ],
      "stateMutability": "view",
      "type": "function"
    },
    {
      "inputs": [
        {
          "internalType": "uint256",
          "name": "minReputation",
          "type": "uint256"
        }
      ],
      "name": "getAgentsByMinReputation",
      "outputs": [
        {
          "internalType": "address[]",
          "name": "",
          "type": "address[]"
        }
      ],
      "stateMutability": "view",
      "type": "function"
    },
    {
      "inputs": [],
      "name": "getAssignedTasks",
      "outputs": [
        {
          "internalType": "uint256[]",
          "name": "",
          "type": "uint256[]"
        }
      ],
      "stateMutability": "view",
      "type": "function"
    },
    {
      "inputs": [],
      "name": "getCancelledTasks",
      "outputs": [
        {
          "internalType": "uint256[]",
          "name": "",
          "type": "uint256[]"
        }
      ],
      "stateMutability": "view",
      "type": "function"
    },
    {
      "inputs": [],
      "name": "getCompletedTasks",
      "outputs": [
        {
          "internalType": "uint256[]",
          "name": "",
          "type": "uint256[]"
        }
      ],
      "stateMutability": "view",
      "type": "function"
    },
    {
      "inputs": [],
      "name": "getOpenTasks",
      "outputs": [
        {
          "internalType": "uint256[]",
          "name": "",
          "type": "uint256[]"
        }
      ],
      "stateMutability": "view",
      "type": "function"
    },
    {
      "inputs": [],
      "name": "getSubmittedTasks",
      "outputs": [
        {
          "internalType": "uint256[]",
          "name": "",
          "type": "uint256[]"
        }
      ],
      "stateMutability": "view",
      "type": "function"
    },
    {
      "inputs": [
        {
          "internalType": "uint256",
          "name": "taskId",
          "type": "uint256"
        }
      ],
      "name": "getTaskBids",
      "outputs": [
        {
          "internalType": "address[]",
          "name": "agents",
          "type": "address[]"
        },
        {
          "internalType": "uint256[]",
          "name": "utilityScores",
          "type": "uint256[]"
        },
        {
          "internalType": "uint256[]",
          "name": "bidAmounts",
          "type": "uint256[]"
        },
        {
          "internalType": "uint256[]",
          "name": "timestamps",
          "type": "uint256[]"
        }
      ],
      "stateMutability": "view",
      "type": "function"
    },
    {
      "inputs": [
        {
          "internalType": "uint256",
          "name": "taskId",
          "type": "uint256"
        }
      ],
      "name": "getTaskDetails",
      "outputs": [
        {
          "internalType": "uint256",
          "name": "_taskId",
          "type": "uint256"
        },
        {
          "internalType": "string",
          "name": "description",
          "type": "string"
        },
        {
          "internalType": "address",
          "name": "creator",
          "type": "address"
        },
        {
          "internalType": "uint8",
          "name": "status",
          "type": "uint8"
        },
        {
          "internalType": "string[]",
          "name": "capabilities",
          "type": "string[]"
        },
        {
          "internalType": "uint256",
          "name": "reward",
          "type": "uint256"
        },
        {
          "internalType": "uint256",
          "name": "minReputation",
          "type": "uint256"
        },
        {
          "internalType": "uint256",
          "name": "deadline",
          "type": "uint256"
        }
      ],
      "stateMutability": "view",
      "type": "function"
    },
    {
      "inputs": [
        {
          "internalType": "string",
          "name": "capability",
          "type": "string"
        }
      ],
      "name": "getTasksByCapability",
      "outputs": [
        {
          "internalType": "uint256[]",
          "name": "",
          "type": "uint256[]"
        }
      ],
      "stateMutability": "view",
      "type": "function"
    },
    {
      "inputs": [
        {
          "internalType": "address",
          "name": "creator",
          "type": "address"
        }
      ],
      "name": "getTasksByCreator",
      "outputs": [
        {
          "internalType": "uint256[]",
          "name": "",
          "type": "uint256[]"
        }
      ],
      "stateMutability": "view",
      "type": "function"
    },
    {
      "inputs": [
        {
          "internalType": "uint256",
          "name": "minReputation",
          "type": "uint256"
        }
      ],
      "name": "getTasksByMinReputation",
      "outputs": [
        {
          "internalType": "uint256[]",
          "name": "",
          "type": "uint256[]"
        }
      ],
      "stateMutability": "view",
      "type": "function"
    },
    {
      "inputs": [
        {
          "internalType": "uint8",
          "name": "status",
          "type": "uint8"
        }
      ],
      "name": "getTasksByStatus",
      "outputs": [
        {
          "internalType": "uint256[]",
          "name": "",
          "type": "uint256[]"
        }
      ],
      "stateMutability": "view",
      "type": "function"
    },
    {
      "inputs": [],
      "name": "getTasksWithOpenBidding",
      "outputs": [
        {
          "internalType": "uint256[]",
          "name": "",
          "type": "uint256[]"
        }
      ],
      "stateMutability": "view",
      "type": "function"
    },
    {
      "inputs": [],
      "name": "incentiveEngine",
      "outputs": [
        {
          "internalType": "contract IncentiveEngine",
          "name": "",
          "type": "address"
        }
      ],
      "stateMutability": "view",
      "type": "function"
    },
    {
      "inputs": [],
      "name": "owner",
      "outputs": [
        {
          "internalType": "address",
          "name": "",
          "type": "address"
        }
      ],
      "stateMutability": "view",
      "type": "function"
    },
    {
      "inputs": [
        {
          "internalType": "uint256",
          "name": "taskId",
          "type": "uint256"
        },
        {
          "internalType": "uint256",
          "name": "utilityScore",
          "type": "uint256"
        },
        {
          "internalType": "uint256",
          "name": "bidAmount",
          "type": "uint256"
        },
        {
          "internalType": "bytes",
          "name": "signature",
          "type": "bytes"
        },
        {
          "internalType": "uint256",
          "name": "nonce",
          "type": "uint256"
        }
      ],
      "name": "placeBid",
      "outputs": [],
      "stateMutability": "nonpayable",
      "type": "function"
    },
    {
      "inputs": [
        {
          "internalType": "uint256",
          "name": "taskId",
          "type": "uint256"
        },
        {
          "internalType": "uint256",
          "name": "bidAmount",
          "type": "uint256"
        }
      ],
      "name": "placeBidSimple",
      "outputs": [],
      "stateMutability": "nonpayable",
      "type": "function"
    },
    {
      "inputs": [],
      "name": "renounceOwnership",
      "outputs": [],
      "stateMutability": "nonpayable",
      "type": "function"
    },
    {
      "inputs": [
        {
          "internalType": "uint256",
          "name": "taskId",
          "type": "uint256"
        },
        {
          "internalType": "string",
          "name": "resultURI",
          "type": "string"
        }
      ],
      "name": "submitTaskResults",
      "outputs": [],
      "stateMutability": "nonpayable",
      "type": "function"
    },
    {
      "inputs": [],
      "name": "taskManager",
      "outputs": [
        {
          "internalType": "contract TaskManager",
          "name": "",
          "type": "address"
        }
      ],
      "stateMutability": "view",
      "type": "function"
    },
    {
      "inputs": [
        {
          "internalType": "address",
          "name": "newOwner",
          "type": "address"
        }
      ],
      "name": "transferOwnership",
      "outputs": [],
      "stateMutability": "nonpayable",
      "type": "function"
    }
  ],
  "bytecode": "0x60806040523480156200001157600080fd5b5060405162002e8838038062002e88833981016040819052620000349162000128565b33806200005b57604051631e4fbdf760e01b81526000600482015260240160405180910390fd5b6200006681620000bb565b50600180546001600160a01b039586166001600160a01b031991821617909155600280549486169482169490941790935560038054928516928416929092179091556004805491909316911617905562000185565b600080546001600160a01b038381166001600160a01b0319831681178455604051919092169283917f8be0079c531659141344cd1fd0a4f28419497f9722a3daafe3b4186f6b6457e09190a35050565b80516001600160a01b03811681146200012357600080fd5b919050565b600080600080608085870312156200013f57600080fd5b6200014a856200010b565b93506200015a602086016200010b565b92506200016a604086016200010b565b91506200017a606086016200010b565b905092959194509250565b612cf380620001956000396000f3fe608060405234801561001057600080fd5b50600436106101da5760003560e01c80638da5cb5b11610104578063b5267112116100a2578063d5a82aa011610071578063d5a82aa014610413578063d8ea68211461041b578063e2e22fcc1461032d578063f2fde38b1461042e57600080fd5b8063b5267112146103b5578063b7fb4359146103c8578063b8c05671146103db578063cc62097a1461040057600080fd5b8063a440f8a4116100de578063a440f8a41461037f578063a50a640e14610387578063ac9917ac1461039a578063b2031bee146103a257600080fd5b80638da5cb5b146103535780638f8a1429146103645780639b3a17891461036c57600080fd5b80633888b9d51161017c5780636c830f4b1161014b5780636c830f4b1461031d578063715018a61461032557806374aaa7601461032d5780637eec20a81461034057600080fd5b80633888b9d5146102bb578063441dbc4c146102e2578063626958b4146102ea578063685827cd146102fd57600080fd5b80631940fef8116101b85780631940fef8146102445780632cacac9b146102655780632fedbe521461028857806331a40131146102a857600080fd5b80630d1cfcae146101df5780631579259b1461020f578063169e9f571461022f575b600080fd5b6003546101f2906001600160a01b031681565b6040516001600160a01b0390911681526020015b60405180910390f35b61022261021d36600461218c565b610441565b60405161020691906121ea565b61024261023d3660046121fd565b610570565b005b61025761025236600461230d565b6105db565b604051908152602001610206565b6102786102733660046123fa565b610695565b604051610206949392919061244c565b61029b6102963660046124b9565b61071f565b604051610206919061257b565b6102226102b63660046124b9565b61079e565b6102ce6102c93660046123fa565b610a45565b60405161020698979695949392919061258e565b610222610c80565b6102226102f83660046123fa565b610d0d565b61031061030b3660046123fa565b610f85565b60405161020691906125f5565b61022261123b565b610242611271565b61024261033b366004612608565b611285565b61024261034e3660046123fa565b6112b7565b6000546001600160a01b03166101f2565b610222611319565b6004546101f2906001600160a01b031681565b610222611350565b6001546101f2906001600160a01b031681565b610222611387565b6002546101f2906001600160a01b031681565b6102226103c336600461264e565b611607565b6102426103d6366004612682565b611925565b6103ee6103e93660046124b9565b611997565b604051610206969594939291906126f7565b61031061040e36600461264e565b611b95565b610222611eeb565b6102226104293660046124b9565b611f1e565b61024261043c3660046124b9565b611fa7565b606060008260ff16600103610458575060016104e7565b8260ff1660020361046b575060026104e7565b8260ff1660030361047e575060036104e7565b8260ff16600403610491575060046104e7565b8260ff166005036104a4575060066104e7565b60405162461bcd60e51b8152602060048201526013602482015272496e76616c69642073746174757320636f646560681b60448201526064015b60405180910390fd5b600154604051631579259b60e01b81526000916001600160a01b031690631579259b90610518908590600401612767565b600060405180830381865afa158015610535573d6000803e3d6000fd5b505050506040513d6000823e601f3d908101601f1916820160405261055d919081019061278f565b905061056881611fe5565b949350505050565b60025460405163bca1aaa360e01b8152600481018490526024810183905283916001600160a01b03169063bca1aaa3906044015b600060405180830381600087803b1580156105be57600080fd5b505af11580156105d2573d6000803e3d6000fd5b50505050505050565b6001546040516303281fdf60e31b815260009182916001600160a01b0390911690631940fef890610618908a908a908a908a908a90600401612814565b6020604051808303816000875af1158015610637573d6000803e3d6000fd5b505050506040513d601f19601f8201168201806040525081019061065b9190612857565b604051909150339082907fe9ee39160568153d230ca0e29961267415d513defbb7d3b21af0fe940e1ebd1590600090a39695505050505050565b6002546040516364a0c3f560e01b81526004810183905260609182918291829186916001600160a01b0316906364a0c3f590602401600060405180830381865afa1580156106e7573d6000803e3d6000fd5b505050506040513d6000823e601f3d908101601f1916820160405261070f919081019061293a565b9450945094509450509193509193565b60035460405163991ef17160e01b81526001600160a01b03838116600483015260609260009291169063991ef17190602401600060405180830381865afa15801561076e573d6000803e3d6000fd5b505050506040513d6000823e601f3d908101601f191682016040526107969190810190612aa1565b509392505050565b60606000600160009054906101000a90046001600160a01b03166001600160a01b031663779900b46040518163ffffffff1660e01b8152600401600060405180830381865afa1580156107f5573d6000803e3d6000fd5b505050506040513d6000823e601f3d908101601f1916820160405261081d919081019061278f565b90506000805b82518110156108ec5760015483516001600160a01b03808816921690639ba779999086908590811061085757610857612afa565b60200260200101516040518263ffffffff1660e01b815260040161087d91815260200190565b602060405180830381865afa15801561089a573d6000803e3d6000fd5b505050506040513d601f19601f820116820180604052508101906108be9190612b10565b6001600160a01b0316036108da57816108d681612b2d565b9250505b806108e481612b2d565b915050610823565b506000816001600160401b038111156109075761090761221f565b604051908082528060200260200182016040528015610930578160200160208202803683370190505b5090506000805b8451811015610a3a5760015485516001600160a01b03808a16921690639ba779999088908590811061096b5761096b612afa565b60200260200101516040518263ffffffff1660e01b815260040161099191815260200190565b602060405180830381865afa1580156109ae573d6000803e3d6000fd5b505050506040513d601f19601f820116820180604052508101906109d29190612b10565b6001600160a01b031603610a28578481815181106109f2576109f2612afa565b602002602001015160001c838381518110610a0f57610a0f612afa565b602090810291909101015281610a2481612b2d565b9250505b80610a3281612b2d565b915050610937565b509095945050505050565b600154604051639ba7799960e01b8152600481018390526000916060918391829184918391829182918a916001600160a01b031690639ba7799990602401602060405180830381865afa158015610aa0573d6000803e3d6000fd5b505050506040513d601f19601f82011682018060405250810190610ac49190612b10565b60015460405163ee09e42d60e01b8152600481018490529198506001600160a01b03169063ee09e42d90602401602060405180830381865afa158015610b0e573d6000803e3d6000fd5b505050506040513d601f19601f82011682018060405250810190610b329190612857565b600154604051632bf6cc7960e01b8152600481018490529194506000916001600160a01b0390911690632bf6cc7990602401602060405180830381865afa158015610b81573d6000803e3d6000fd5b505050506040513d601f19601f82011682018060405250810190610ba59190612b54565b9050806006811115610bb957610bb9612751565b600154604051632bb8e45760e01b815260048101859052919850600091829182916001600160a01b0390911690632bb8e45790602401600060405180830381865afa158015610c0c573d6000803e3d6000fd5b505050506040513d6000823e601f3d908101601f19168201604052610c349190810190612b75565b929d50929b50985091945092509050610c4c8561208d565b604051602001610c5c9190612bea565b6040516020818303038152906040529b508d9c505050505050919395975091939597565b600154604051631579259b60e01b81526060916000916001600160a01b0390911690631579259b90610cb790600690600401612767565b600060405180830381865afa158015610cd4573d6000803e3d6000fd5b505050506040513d6000823e601f3d908101601f19168201604052610cfc919081019061278f565b9050610d0781611fe5565b91505090565b60018054604051631579259b60e01b81526060926000926001600160a01b031691631579259b91610d4091600401612767565b600060405180830381865afa158015610d5d573d6000803e3d6000fd5b505050506040513d6000823e601f3d908101601f19168201604052610d85919081019061278f565b90506000805b8251811015610e52576000838281518110610da857610da8612afa565b602090810291909101015160015460405163ee09e42d60e01b8152600481018390529192506000916001600160a01b039091169063ee09e42d90602401602060405180830381865afa158015610e02573d6000803e3d6000fd5b505050506040513d601f19601f82011682018060405250810190610e269190612857565b9050868111610e3d5783610e3981612b2d565b9450505b50508080610e4a90612b2d565b915050610d8b565b506000816001600160401b03811115610e6d57610e6d61221f565b604051908082528060200260200182016040528015610e96578160200160208202803683370190505b5090506000805b8451811015610a3a576000858281518110610eba57610eba612afa565b602090810291909101015160015460405163ee09e42d60e01b8152600481018390529192506000916001600160a01b039091169063ee09e42d90602401602060405180830381865afa158015610f14573d6000803e3d6000fd5b505050506040513d601f19601f82011682018060405250810190610f389190612857565b9050888111610f70578160001c858581518110610f5757610f57612afa565b602090810291909101015283610f6c81612b2d565b9450505b50508080610f7d90612b2d565b915050610e9d565b60606000600360009054906101000a90046001600160a01b03166001600160a01b031663860e4ac66040518163ffffffff1660e01b8152600401600060405180830381865afa158015610fdc573d6000803e3d6000fd5b505050506040513d6000823e601f3d908101601f191682016040526110049190810190612c17565b90506000805b82518110156110db5760045483516000916001600160a01b03169063ebeae5879086908590811061103d5761103d612afa565b60200260200101516040518263ffffffff1660e01b815260040161107091906001600160a01b0391909116815260200190565b602060405180830381865afa15801561108d573d6000803e3d6000fd5b505050506040513d601f19601f820116820180604052508101906110b19190612857565b90508581106110c857826110c481612b2d565b9350505b50806110d381612b2d565b91505061100a565b506000816001600160401b038111156110f6576110f661221f565b60405190808252806020026020018201604052801561111f578160200160208202803683370190505b5090506000805b8451811015610a3a5760045485516000916001600160a01b03169063ebeae5879088908590811061115957611159612afa565b60200260200101516040518263ffffffff1660e01b815260040161118c91906001600160a01b0391909116815260200190565b602060405180830381865afa1580156111a9573d6000803e3d6000fd5b505050506040513d601f19601f820116820180604052508101906111cd9190612857565b9050878110611228578582815181106111e8576111e8612afa565b602002602001015184848151811061120257611202612afa565b6001600160a01b03909216602092830291909101909101528261122481612b2d565b9350505b508061123381612b2d565b915050611126565b600154604051631579259b60e01b81526060916000916001600160a01b0390911690631579259b90610cb7906004908101612767565b61127961210f565b611283600061213c565b565b600154604051634d51e85f60e11b815283916001600160a01b031690639aa3d0be906105a49084908690600401612c4b565b60015460405163ee8ca3b560e01b81526004810183905282916001600160a01b03169063ee8ca3b590602401600060405180830381600087803b1580156112fd57600080fd5b505af1158015611311573d6000803e3d6000fd5b505050505050565b600154604051631579259b60e01b81526060916000916001600160a01b0390911690631579259b90610cb790600290600401612767565b600154604051631579259b60e01b81526060916000916001600160a01b0390911690631579259b90610cb790600390600401612767565b60018054604051631579259b60e01b81526060926000926001600160a01b031691631579259b916113ba91600401612767565b600060405180830381865afa1580156113d7573d6000803e3d6000fd5b505050506040513d6000823e601f3d908101601f191682016040526113ff919081019061278f565b90506000805b82518110156114cb57600083828151811061142257611422612afa565b602090810291909101015160025460405163f150b9df60e01b8152600481018390529192506000916001600160a01b039091169063f150b9df90602401602060405180830381865afa15801561147c573d6000803e3d6000fd5b505050506040513d601f19601f820116820180604052508101906114a09190612c64565b905080156114b657836114b281612b2d565b9450505b505080806114c390612b2d565b915050611405565b506000816001600160401b038111156114e6576114e661221f565b60405190808252806020026020018201604052801561150f578160200160208202803683370190505b5090506000805b84518110156115fd57600085828151811061153357611533612afa565b602090810291909101015160025460405163f150b9df60e01b8152600481018390529192506000916001600160a01b039091169063f150b9df90602401602060405180830381865afa15801561158d573d6000803e3d6000fd5b505050506040513d601f19601f820116820180604052508101906115b19190612c64565b905080156115e8578160001c8585815181106115cf576115cf612afa565b6020908102919091010152836115e481612b2d565b9450505b505080806115f590612b2d565b915050611516565b5090949350505050565b60018054604051631579259b60e01b81526060926000926001600160a01b031691631579259b9161163a91600401612767565b600060405180830381865afa158015611657573d6000803e3d6000fd5b505050506040513d6000823e601f3d908101601f1916820160405261167f919081019061278f565b90506000805b825181101561179f5760008382815181106116a2576116a2612afa565b6020908102919091010151600154604051632bb8e45760e01b8152600481018390529192506000916001600160a01b0390911690632bb8e45790602401600060405180830381865afa1580156116fc573d6000803e3d6000fd5b505050506040513d6000823e601f3d908101601f191682016040526117249190810190612b75565b5050509250505060005b815181101561178957878051906020012082828151811061175157611751612afa565b60200260200101518051906020012003611777578461176f81612b2d565b955050611789565b8061178181612b2d565b91505061172e565b505050808061179790612b2d565b915050611685565b506000816001600160401b038111156117ba576117ba61221f565b6040519080825280602002602001820160405280156117e3578160200160208202803683370190505b5090506000805b8451811015610a3a57600085828151811061180757611807612afa565b6020908102919091010151600154604051632bb8e45760e01b8152600481018390529192506000916001600160a01b0390911690632bb8e45790602401600060405180830381865afa158015611861573d6000803e3d6000fd5b505050506040513d6000823e601f3d908101601f191682016040526118899190810190612b75565b5050509250505060005b815181101561190f5789805190602001208282815181106118b6576118b6612afa565b602002602001015180519060200120036118fd578260001c8686815181106118e0576118e0612afa565b6020908102919091010152846118f581612b2d565b95505061190f565b8061190781612b2d565b915050611893565b505050808061191d90612b2d565b9150506117ea565b60025460405163eb4f32cf60e01b815286916001600160a01b03169063eb4f32cf9061195d9084908990899089908990600401612c86565b600060405180830381600087803b15801561197757600080fd5b505af115801561198b573d6000803e3d6000fd5b50505050505050505050565b6004805460405163ebeae58760e01b81526001600160a01b0384811693820193909352606092600092839283928692839291169063ebeae58790602401602060405180830381865afa1580156119f1573d6000803e3d6000fd5b505050506040513d601f19601f82011682018060405250810190611a159190612857565b600480546040516339e1832f60e01b81526001600160a01b038b81169382019390935292975016906339e1832f90602401602060405180830381865afa158015611a63573d6000803e3d6000fd5b505050506040513d601f19601f82011682018060405250810190611a879190612857565b6003546040516332f0f23360e11b81526001600160a01b038a811660048301529295509116906365e1e46690602401602060405180830381865afa158015611ad3573d6000803e3d6000fd5b505050506040513d601f19601f82011682018060405250810190611af79190612c64565b60408051808201825260058152641059d95b9d60da1b6020820152600354915163991ef17160e01b81526001600160a01b038b81166004830152919950929650169063991ef17190602401600060405180830381865afa158015611b5f573d6000803e3d6000fd5b505050506040513d6000823e601f3d908101601f19168201604052611b879190810190612aa1565b909250905091939550919395565b60606000600360009054906101000a90046001600160a01b03166001600160a01b031663860e4ac66040518163ffffffff1660e01b8152600401600060405180830381865afa158015611bec573d6000803e3d6000fd5b505050506040513d6000823e601f3d908101601f19168201604052611c149190810190612c17565b90506000805b8251811015611d3b5760035483516000916001600160a01b03169063991ef17190869085908110611c4d57611c4d612afa565b60200260200101516040518263ffffffff1660e01b8152600401611c8091906001600160a01b0391909116815260200190565b600060405180830381865afa158015611c9d573d6000803e3d6000fd5b505050506040513d6000823e601f3d908101601f19168201604052611cc59190810190612aa1565b50905060005b8151811015611d26578680519060200120828281518110611cee57611cee612afa565b60200260200101518051906020012003611d145783611d0c81612b2d565b945050611d26565b80611d1e81612b2d565b915050611ccb565b50508080611d3390612b2d565b915050611c1a565b506000816001600160401b03811115611d5657611d5661221f565b604051908082528060200260200182016040528015611d7f578160200160208202803683370190505b5090506000805b8451811015610a3a5760035485516000916001600160a01b03169063991ef17190889085908110611db957611db9612afa565b60200260200101516040518263ffffffff1660e01b8152600401611dec91906001600160a01b0391909116815260200190565b600060405180830381865afa158015611e09573d6000803e3d6000fd5b505050506040513d6000823e601f3d908101601f19168201604052611e319190810190612aa1565b50905060005b8151811015611ed6578880519060200120828281518110611e5a57611e5a612afa565b60200260200101518051906020012003611ec457868381518110611e8057611e80612afa565b6020026020010151858581518110611e9a57611e9a612afa565b6001600160a01b039092166020928302919091019091015283611ebc81612b2d565b945050611ed6565b80611ece81612b2d565b915050611e37565b50508080611ee390612b2d565b915050611d86565b60018054604051631579259b60e01b81526060926000926001600160a01b031691631579259b91610cb791600401612767565b60015460405163d8ea682160e01b81526001600160a01b03838116600483015260609260009291169063d8ea682190602401600060405180830381865afa158015611f6d573d6000803e3d6000fd5b505050506040513d6000823e601f3d908101601f19168201604052611f95919081019061278f565b9050611fa081611fe5565b9392505050565b611faf61210f565b6001600160a01b038116611fd957604051631e4fbdf760e01b8152600060048201526024016104de565b611fe28161213c565b50565b6060600082516001600160401b038111156120025761200261221f565b60405190808252806020026020018201604052801561202b578160200160208202803683370190505b50905060005b83518110156120865783818151811061204c5761204c612afa565b602002602001015160001c82828151811061206957612069612afa565b60209081029190910101528061207e81612b2d565b915050612031565b5092915050565b6040805160208082528183019092526060916000919060208201818036833701905050905060005b6020811015612086578381602081106120d0576120d0612afa565b1a60f81b8282815181106120e6576120e6612afa565b60200101906001600160f81b031916908160001a9053508061210781612b2d565b9150506120b5565b6000546001600160a01b031633146112835760405163118cdaa760e01b81523360048201526024016104de565b600080546001600160a01b038381166001600160a01b0319831681178455604051919092169283917f8be0079c531659141344cd1fd0a4f28419497f9722a3daafe3b4186f6b6457e09190a35050565b60006020828403121561219e57600080fd5b813560ff81168114611fa057600080fd5b600081518084526020808501945080840160005b838110156121df578151875295820195908201906001016121c3565b509495945050505050565b602081526000611fa060208301846121af565b6000806040838503121561221057600080fd5b50508035926020909101359150565b634e487b7160e01b600052604160045260246000fd5b604051601f8201601f191681016001600160401b038111828210171561225d5761225d61221f565b604052919050565b60006001600160401b0382111561227e5761227e61221f565b50601f01601f191660200190565b600061229f61229a84612265565b612235565b90508281528383830111156122b357600080fd5b828260208301376000602084830101529392505050565b600082601f8301126122db57600080fd5b611fa08383356020850161228c565b60006001600160401b038211156123035761230361221f565b5060051b60200190565b600080600080600060a0868803121561232557600080fd5b85356001600160401b038082111561233c57600080fd5b61234889838a016122ca565b965060209150818801358181111561235f57600080fd5b8801601f81018a1361237057600080fd5b803561237e61229a826122ea565b81815260059190911b8201840190848101908c83111561239d57600080fd5b8584015b838110156123d5578035868111156123b95760008081fd5b6123c78f89838901016122ca565b8452509186019186016123a1565b50999c999b505050506040880135976060810135976080909101359650945050505050565b60006020828403121561240c57600080fd5b5035919050565b600081518084526020808501945080840160005b838110156121df5781516001600160a01b031687529582019590820190600101612427565b60808152600061245f6080830187612413565b828103602084015261247181876121af565b9050828103604084015261248581866121af565b9050828103606084015261249981856121af565b979650505050505050565b6001600160a01b0381168114611fe257600080fd5b6000602082840312156124cb57600080fd5b8135611fa0816124a4565b60005b838110156124f15781810151838201526020016124d9565b50506000910152565b600081518084526125128160208601602086016124d6565b601f01601f19169290920160200192915050565b600081518084526020808501808196508360051b8101915082860160005b8581101561256e57828403895261255c8483516124fa565b98850198935090840190600101612544565b5091979650505050505050565b602081526000611fa06020830184612526565b60006101008a83528060208401526125a88184018b6124fa565b6001600160a01b038a16604085015260ff89166060850152838103608085015290506125d48188612526565b60a0840196909652505060c081019290925260e09091015295945050505050565b602081526000611fa06020830184612413565b6000806040838503121561261b57600080fd5b8235915060208301356001600160401b0381111561263857600080fd5b612644858286016122ca565b9150509250929050565b60006020828403121561266057600080fd5b81356001600160401b0381111561267657600080fd5b610568848285016122ca565b600080600080600060a0868803121561269a57600080fd5b85359450602086013593506040860135925060608601356001600160401b038111156126c557600080fd5b8601601f810188136126d657600080fd5b6126e58882356020840161228c565b95989497509295608001359392505050565b60c08152600061270a60c08301896124fa565b876020840152861515604084015285606084015282810360808401526127308186612526565b905082810360a084015261274481856121af565b9998505050505050505050565b634e487b7160e01b600052602160045260246000fd5b602081016007831061278957634e487b7160e01b600052602160045260246000fd5b91905290565b600060208083850312156127a257600080fd5b82516001600160401b038111156127b857600080fd5b8301601f810185136127c957600080fd5b80516127d761229a826122ea565b81815260059190911b820183019083810190878311156127f657600080fd5b928401925b82841015612499578351825292840192908401906127fb565b60a08152600061282760a08301886124fa565b82810360208401526128398188612526565b60408401969096525050606081019290925260809091015292915050565b60006020828403121561286957600080fd5b5051919050565b600082601f83011261288157600080fd5b8151602061289161229a836122ea565b82815260059290921b840181019181810190868411156128b057600080fd5b8286015b848110156128d45780516128c7816124a4565b83529183019183016128b4565b509695505050505050565b600082601f8301126128f057600080fd5b8151602061290061229a836122ea565b82815260059290921b8401810191818101908684111561291f57600080fd5b8286015b848110156128d45780518352918301918301612923565b6000806000806080858703121561295057600080fd5b84516001600160401b038082111561296757600080fd5b61297388838901612870565b9550602087015191508082111561298957600080fd5b612995888389016128df565b945060408701519150808211156129ab57600080fd5b6129b7888389016128df565b935060608701519150808211156129cd57600080fd5b506129da878288016128df565b91505092959194509250565b600082601f8301126129f757600080fd5b81516020612a0761229a836122ea565b82815260059290921b84018101918181019086841115612a2657600080fd5b8286015b848110156128d45780516001600160401b03811115612a495760008081fd5b8701603f81018913612a5b5760008081fd5b848101516040612a6d61229a83612265565b8281528b82848601011115612a825760008081fd5b612a91838983018487016124d6565b8652505050918301918301612a2a565b60008060408385031215612ab457600080fd5b82516001600160401b0380821115612acb57600080fd5b612ad7868387016129e6565b93506020850151915080821115612aed57600080fd5b50612644858286016128df565b634e487b7160e01b600052603260045260246000fd5b600060208284031215612b2257600080fd5b8151611fa0816124a4565b600060018201612b4d57634e487b7160e01b600052601160045260246000fd5b5060010190565b600060208284031215612b6657600080fd5b815160078110611fa057600080fd5b60008060008060008060c08789031215612b8e57600080fd5b8651612b99816124a4565b6020880151604089015191975095506001600160401b03811115612bbc57600080fd5b612bc889828a016129e6565b945050606087015192506080870151915060a087015190509295509295509295565b6402a30b9b5960dd1b815260008251612c0a8160058501602087016124d6565b9190910160050192915050565b600060208284031215612c2957600080fd5b81516001600160401b03811115612c3f57600080fd5b61056884828501612870565b82815260406020820152600061056860408301846124fa565b600060208284031215612c7657600080fd5b81518015158114611fa057600080fd5b85815284602082015283604082015260a060608201526000612cab60a08301856124fa565b9050826080830152969550505050505056fea26469706673582212200cecbbec369c0f873550f3908a6911c5b70d3b30167c18d818a4cd19b47c50d764736f6c63430008140033",
  "linkReferences": {},
  "deployedLinkReferences": {}
}