{
  "_format": "hh-sol-artifact-1",
  "contractName": "Learning",
  "sourceName": "core/Learning.sol",
  "abi": [
    {
      "inputs": [
        {
          "internalType": "address",
          "name": "_agentRegistryAddress",
          "type": "address"
        }
      ],
      "stateMutability": "nonpayable",
      "type": "constructor"
    },
    {
      "anonymous": false,
      "inputs": [
        {
          "indexed": true,
          "internalType": "uint256",
          "name": "eventId",
          "type": "uint256"
        },
        {
          "indexed": true,
          "internalType": "address",
          "name": "agentAddress",
          "type": "address"
        },
        {
          "indexed": false,
          "internalType": "string",
          "name": "eventType",
          "type": "string"
        },
        {
          "indexed": false,
          "internalType": "uint256",
          "name": "timestamp",
          "type": "uint256"
        }
      ],
      "name": "LearningEventRecorded",
      "type": "event"
    },
    {
      "inputs": [
        {
          "internalType": "uint256",
          "name": "",
          "type": "uint256"
        }
      ],
      "name": "eventIds",
      "outputs": [
        {
          "internalType": "uint256",
          "name": "",
          "type": "uint256"
        }
      ],
      "stateMutability": "view",
      "type": "function"
    },
    {
      "inputs": [
        {
          "internalType": "uint256",
          "name": "",
          "type": "uint256"
        }
      ],
      "name": "events",
      "outputs": [
        {
          "internalType": "address",
          "name": "agentAddress",
          "type": "address"
        },
        {
          "internalType": "string",
          "name": "eventType",
          "type": "string"
        },
        {
          "internalType": "string",
          "name": "data",
          "type": "string"
        },
        {
          "internalType": "uint256",
          "name": "timestamp",
          "type": "uint256"
        }
      ],
      "stateMutability": "view",
      "type": "function"
    },
    {
      "inputs": [
        {
          "internalType": "address",
          "name": "agentAddress",
          "type": "address"
        }
      ],
      "name": "getAgentEvents",
      "outputs": [
        {
          "internalType": "uint256[]",
          "name": "",
          "type": "uint256[]"
        }
      ],
      "stateMutability": "view",
      "type": "function"
    },
    {
      "inputs": [],
      "name": "getAllEvents",
      "outputs": [
        {
          "internalType": "uint256[]",
          "name": "",
          "type": "uint256[]"
        }
      ],
      "stateMutability": "view",
      "type": "function"
    },
    {
      "inputs": [
        {
          "internalType": "uint256",
          "name": "eventId",
          "type": "uint256"
        }
      ],
      "name": "getEventDetails",
      "outputs": [
        {
          "components": [
            {
              "internalType": "address",
              "name": "agentAddress",
              "type": "address"
            },
            {
              "internalType": "string",
              "name": "eventType",
              "type": "string"
            },
            {
              "internalType": "string",
              "name": "data",
              "type": "string"
            },
            {
              "internalType": "uint256",
              "name": "timestamp",
              "type": "uint256"
            }
          ],
          "internalType": "struct Learning.LearningEvent",
          "name": "",
          "type": "tuple"
        }
      ],
      "stateMutability": "view",
      "type": "function"
    },
    {
      "inputs": [
        {
          "internalType": "string",
          "name": "eventType",
          "type": "string"
        }
      ],
      "name": "getEventsByType",
      "outputs": [
        {
          "internalType": "uint256[]",
          "name": "",
          "type": "uint256[]"
        }
      ],
      "stateMutability": "view",
      "type": "function"
    },
    {
      "inputs": [
        {
          "internalType": "address",
          "name": "agentAddress",
          "type": "address"
        },
        {
          "internalType": "string",
          "name": "eventType",
          "type": "string"
        },
        {
          "internalType": "string",
          "name": "data",
          "type": "string"
        }
      ],
      "name": "recordEvent",
      "outputs": [
        {
          "internalType": "uint256",
          "name": "",
          "type": "uint256"
        }
      ],
      "stateMutability": "nonpayable",
      "type": "function"
    }
  ],
  "bytecode": "0x608060405234801561001057600080fd5b50604051610e4a380380610e4a83398101604081905261002f91610059565b600380546001600160a01b0319166001600160a01b03929092169190911790556001600255610089565b60006020828403121561006b57600080fd5b81516001600160a01b038116811461008257600080fd5b9392505050565b610db2806100986000396000f3fe608060405234801561001057600080fd5b506004361061007d5760003560e01c8063998f6ac01161005b578063998f6ac0146100e1578063c27a500d14610102578063ec38d5a01461010a578063f2a5194d1461012a57600080fd5b80630b79143014610082578063649ad632146100ae578063870639f8146100ce575b600080fd5b61009561009036600461087f565b61013d565b6040516100a594939291906108de565b60405180910390f35b6100c16100bc366004610942565b610280565b6040516100a59190610964565b6100c16100dc366004610a4b565b6103ff565b6100f46100ef36600461087f565b610588565b6040519081526020016100a5565b6100c16105a9565b61011d61011836600461087f565b610601565b6040516100a59190610a88565b6100f4610138366004610aea565b610794565b600060208190529081526040902080546001820180546001600160a01b03909216929161016990610b5e565b80601f016020809104026020016040519081016040528092919081815260200182805461019590610b5e565b80156101e25780601f106101b7576101008083540402835291602001916101e2565b820191906000526020600020905b8154815290600101906020018083116101c557829003601f168201915b5050505050908060020180546101f790610b5e565b80601f016020809104026020016040519081016040528092919081815260200182805461022390610b5e565b80156102705780601f1061024557610100808354040283529160200191610270565b820191906000526020600020905b81548152906001019060200180831161025357829003601f168201915b5050505050908060030154905084565b60606000805b6001548110156102fa57836001600160a01b0316600080600184815481106102b0576102b0610b98565b600091825260208083209091015483528201929092526040019020546001600160a01b0316036102e857816102e481610bae565b9250505b806102f281610bae565b915050610286565b5060008167ffffffffffffffff811115610316576103166109a8565b60405190808252806020026020018201604052801561033f578160200160208202803683370190505b5090506000805b6001548110156103f557856001600160a01b03166000806001848154811061037057610370610b98565b600091825260208083209091015483528201929092526040019020546001600160a01b0316036103e357600181815481106103ad576103ad610b98565b90600052602060002001548383815181106103ca576103ca610b98565b6020908102919091010152816103df81610bae565b9250505b806103ed81610bae565b915050610346565b5090949350505050565b60606000805b6001548110156104835783805190602001206000806001848154811061042d5761042d610b98565b906000526020600020015481526020019081526020016000206001016040516104569190610bd5565b604051809103902003610471578161046d81610bae565b9250505b8061047b81610bae565b915050610405565b5060008167ffffffffffffffff81111561049f5761049f6109a8565b6040519080825280602002602001820160405280156104c8578160200160208202803683370190505b5090506000805b6001548110156103f5578580519060200120600080600184815481106104f7576104f7610b98565b906000526020600020015481526020019081526020016000206001016040516105209190610bd5565b604051809103902003610576576001818154811061054057610540610b98565b906000526020600020015483838151811061055d5761055d610b98565b60209081029190910101528161057281610bae565b9250505b8061058081610bae565b9150506104cf565b6001818154811061059857600080fd5b600091825260209091200154905081565b606060018054806020026020016040519081016040528092919081815260200182805480156105f757602002820191906000526020600020905b8154815260200190600101908083116105e3575b5050505050905090565b610635604051806080016040528060006001600160a01b031681526020016060815260200160608152602001600081525090565b6000828152602081815260409182902082516080810190935280546001600160a01b03168352600181018054919284019161066f90610b5e565b80601f016020809104026020016040519081016040528092919081815260200182805461069b90610b5e565b80156106e85780601f106106bd576101008083540402835291602001916106e8565b820191906000526020600020905b8154815290600101906020018083116106cb57829003601f168201915b5050505050815260200160028201805461070190610b5e565b80601f016020809104026020016040519081016040528092919081815260200182805461072d90610b5e565b801561077a5780601f1061074f5761010080835404028352916020019161077a565b820191906000526020600020905b81548152906001019060200180831161075d57829003601f168201915b505050505081526020016003820154815250509050919050565b60028054600091829190826107a883610bae565b90915550600081815260208190526040902080546001600160a01b0319166001600160a01b038816178155909150600181016107e48682610c9a565b50600281016107f38582610c9a565b5042600382018190556001805480820182556000919091527fb10e2d527612073b26eecdfd717e6a320cf44b4afac2b0732d9fcbe2b7fa0cf6018390556040516001600160a01b0388169184917f216116d948fbe5e509c4dce846d98610c1ab3ba2be56176d2e19306b28f6f3709161086e918a9190610d5a565b60405180910390a350949350505050565b60006020828403121561089157600080fd5b5035919050565b6000815180845260005b818110156108be576020818501810151868301820152016108a2565b506000602082860101526020601f19601f83011685010191505092915050565b6001600160a01b038516815260806020820181905260009061090290830186610898565b82810360408401526109148186610898565b91505082606083015295945050505050565b80356001600160a01b038116811461093d57600080fd5b919050565b60006020828403121561095457600080fd5b61095d82610926565b9392505050565b6020808252825182820181905260009190848201906040850190845b8181101561099c57835183529284019291840191600101610980565b50909695505050505050565b634e487b7160e01b600052604160045260246000fd5b600082601f8301126109cf57600080fd5b813567ffffffffffffffff808211156109ea576109ea6109a8565b604051601f8301601f19908116603f01168101908282118183101715610a1257610a126109a8565b81604052838152866020858801011115610a2b57600080fd5b836020870160208301376000602085830101528094505050505092915050565b600060208284031215610a5d57600080fd5b813567ffffffffffffffff811115610a7457600080fd5b610a80848285016109be565b949350505050565b602080825282516001600160a01b03168282015282015160806040830152600090610ab660a0840182610898565b90506040840151601f19848303016060850152610ad38282610898565b915050606084015160808401528091505092915050565b600080600060608486031215610aff57600080fd5b610b0884610926565b9250602084013567ffffffffffffffff80821115610b2557600080fd5b610b31878388016109be565b93506040860135915080821115610b4757600080fd5b50610b54868287016109be565b9150509250925092565b600181811c90821680610b7257607f821691505b602082108103610b9257634e487b7160e01b600052602260045260246000fd5b50919050565b634e487b7160e01b600052603260045260246000fd5b600060018201610bce57634e487b7160e01b600052601160045260246000fd5b5060010190565b6000808354610be381610b5e565b60018281168015610bfb5760018114610c1057610c3f565b60ff1984168752821515830287019450610c3f565b8760005260208060002060005b85811015610c365781548a820152908401908201610c1d565b50505082870194505b50929695505050505050565b601f821115610c9557600081815260208120601f850160051c81016020861015610c725750805b601f850160051c820191505b81811015610c9157828155600101610c7e565b5050505b505050565b815167ffffffffffffffff811115610cb457610cb46109a8565b610cc881610cc28454610b5e565b84610c4b565b602080601f831160018114610cfd5760008415610ce55750858301515b600019600386901b1c1916600185901b178555610c91565b600085815260208120601f198616915b82811015610d2c57888601518255948401946001909101908401610d0d565b5085821015610d4a5787850151600019600388901b60f8161c191681555b5050505050600190811b01905550565b604081526000610d6d6040830185610898565b9050826020830152939250505056fea2646970667358221220ceac08fb166200396d9325bbcdb04f1c949242c40217147222e06c1e12dbabb364736f6c63430008140033",
  "linkReferences": {},
  "deployedLinkReferences": {}
}