{
  "_format": "hh-sol-artifact-1",
  "contractName": "ActionLogger",
  "sourceName": "core/ActionLogger.sol",
  "abi": [
    {
      "inputs": [
        {
          "internalType": "address",
          "name": "_agentRegistryAddress",
          "type": "address"
        }
      ],
      "stateMutability": "nonpayable",
      "type": "constructor"
    },
    {
      "inputs": [],
      "name": "ECDSAInvalidSignature",
      "type": "error"
    },
    {
      "inputs": [
        {
          "internalType": "uint256",
          "name": "length",
          "type": "uint256"
        }
      ],
      "name": "ECDSAInvalidSignatureLength",
      "type": "error"
    },
    {
      "inputs": [
        {
          "internalType": "bytes32",
          "name": "s",
          "type": "bytes32"
        }
      ],
      "name": "ECDSAInvalidSignatureS",
      "type": "error"
    },
    {
      "inputs": [
        {
          "internalType": "address",
          "name": "owner",
          "type": "address"
        }
      ],
      "name": "OwnableInvalidOwner",
      "type": "error"
    },
    {
      "inputs": [
        {
          "internalType": "address",
          "name": "account",
          "type": "address"
        }
      ],
      "name": "OwnableUnauthorizedAccount",
      "type": "error"
    },
    {
      "anonymous": false,
      "inputs": [
        {
          "indexed": true,
          "internalType": "bytes32",
          "name": "actionId",
          "type": "bytes32"
        },
        {
          "indexed": true,
          "internalType": "address",
          "name": "agent",
          "type": "address"
        },
        {
          "indexed": true,
          "internalType": "enum ActionLogger.ActionType",
          "name": "actionType",
          "type": "uint8"
        },
        {
          "indexed": false,
          "internalType": "bytes32",
          "name": "resourceId",
          "type": "bytes32"
        },
        {
          "indexed": false,
          "internalType": "string",
          "name": "metadataURI",
          "type": "string"
        },
        {
          "indexed": false,
          "internalType": "uint256",
          "name": "timestamp",
          "type": "uint256"
        }
      ],
      "name": "ActionLogged",
      "type": "event"
    },
    {
      "anonymous": false,
      "inputs": [
        {
          "indexed": true,
          "internalType": "address",
          "name": "previousOwner",
          "type": "address"
        },
        {
          "indexed": true,
          "internalType": "address",
          "name": "newOwner",
          "type": "address"
        }
      ],
      "name": "OwnershipTransferred",
      "type": "event"
    },
    {
      "inputs": [
        {
          "internalType": "bytes32",
          "name": "",
          "type": "bytes32"
        }
      ],
      "name": "actions",
      "outputs": [
        {
          "internalType": "bytes32",
          "name": "actionId",
          "type": "bytes32"
        },
        {
          "internalType": "address",
          "name": "agent",
          "type": "address"
        },
        {
          "internalType": "enum ActionLogger.ActionType",
          "name": "actionType",
          "type": "uint8"
        },
        {
          "internalType": "bytes32",
          "name": "resourceId",
          "type": "bytes32"
        },
        {
          "internalType": "string",
          "name": "metadataURI",
          "type": "string"
        },
        {
          "internalType": "uint256",
          "name": "timestamp",
          "type": "uint256"
        },
        {
          "internalType": "bytes",
          "name": "signature",
          "type": "bytes"
        }
      ],
      "stateMutability": "view",
      "type": "function"
    },
    {
      "inputs": [
        {
          "internalType": "address",
          "name": "",
          "type": "address"
        },
        {
          "internalType": "uint256",
          "name": "",
          "type": "uint256"
        }
      ],
      "name": "agentActions",
      "outputs": [
        {
          "internalType": "bytes32",
          "name": "",
          "type": "bytes32"
        }
      ],
      "stateMutability": "view",
      "type": "function"
    },
    {
      "inputs": [],
      "name": "agentRegistry",
      "outputs": [
        {
          "internalType": "contract AgentRegistry",
          "name": "",
          "type": "address"
        }
      ],
      "stateMutability": "view",
      "type": "function"
    },
    {
      "inputs": [
        {
          "internalType": "address",
          "name": "agent",
          "type": "address"
        }
      ],
      "name": "getAgentActions",
      "outputs": [
        {
          "internalType": "bytes32[]",
          "name": "",
          "type": "bytes32[]"
        }
      ],
      "stateMutability": "view",
      "type": "function"
    },
    {
      "inputs": [
        {
          "internalType": "address",
          "name": "agent",
          "type": "address"
        },
        {
          "internalType": "enum ActionLogger.ActionType",
          "name": "actionType",
          "type": "uint8"
        }
      ],
      "name": "getAgentActionsByType",
      "outputs": [
        {
          "internalType": "bytes32[]",
          "name": "",
          "type": "bytes32[]"
        }
      ],
      "stateMutability": "view",
      "type": "function"
    },
    {
      "inputs": [
        {
          "internalType": "bytes32",
          "name": "resourceId",
          "type": "bytes32"
        }
      ],
      "name": "getResourceActions",
      "outputs": [
        {
          "internalType": "bytes32[]",
          "name": "",
          "type": "bytes32[]"
        }
      ],
      "stateMutability": "view",
      "type": "function"
    },
    {
      "inputs": [
        {
          "internalType": "bytes32",
          "name": "resourceId",
          "type": "bytes32"
        },
        {
          "internalType": "enum ActionLogger.ActionType",
          "name": "actionType",
          "type": "uint8"
        }
      ],
      "name": "getResourceActionsByType",
      "outputs": [
        {
          "internalType": "bytes32[]",
          "name": "",
          "type": "bytes32[]"
        }
      ],
      "stateMutability": "view",
      "type": "function"
    },
    {
      "inputs": [
        {
          "internalType": "enum ActionLogger.ActionType",
          "name": "actionType",
          "type": "uint8"
        },
        {
          "internalType": "bytes32",
          "name": "resourceId",
          "type": "bytes32"
        },
        {
          "internalType": "string",
          "name": "metadataURI",
          "type": "string"
        },
        {
          "internalType": "bytes",
          "name": "signature",
          "type": "bytes"
        },
        {
          "internalType": "uint256",
          "name": "nonce",
          "type": "uint256"
        }
      ],
      "name": "logAction",
      "outputs": [
        {
          "internalType": "bytes32",
          "name": "",
          "type": "bytes32"
        }
      ],
      "stateMutability": "nonpayable",
      "type": "function"
    },
    {
      "inputs": [
        {
          "internalType": "address",
          "name": "agent",
          "type": "address"
        },
        {
          "internalType": "enum ActionLogger.ActionType",
          "name": "actionType",
          "type": "uint8"
        },
        {
          "internalType": "bytes32",
          "name": "resourceId",
          "type": "bytes32"
        },
        {
          "internalType": "string",
          "name": "metadataURI",
          "type": "string"
        }
      ],
      "name": "logSystemAction",
      "outputs": [
        {
          "internalType": "bytes32",
          "name": "",
          "type": "bytes32"
        }
      ],
      "stateMutability": "nonpayable",
      "type": "function"
    },
    {
      "inputs": [],
      "name": "owner",
      "outputs": [
        {
          "internalType": "address",
          "name": "",
          "type": "address"
        }
      ],
      "stateMutability": "view",
      "type": "function"
    },
    {
      "inputs": [],
      "name": "renounceOwnership",
      "outputs": [],
      "stateMutability": "nonpayable",
      "type": "function"
    },
    {
      "inputs": [
        {
          "internalType": "bytes32",
          "name": "",
          "type": "bytes32"
        },
        {
          "internalType": "uint256",
          "name": "",
          "type": "uint256"
        }
      ],
      "name": "resourceActions",
      "outputs": [
        {
          "internalType": "bytes32",
          "name": "",
          "type": "bytes32"
        }
      ],
      "stateMutability": "view",
      "type": "function"
    },
    {
      "inputs": [
        {
          "internalType": "address",
          "name": "newOwner",
          "type": "address"
        }
      ],
      "name": "transferOwnership",
      "outputs": [],
      "stateMutability": "nonpayable",
      "type": "function"
    }
  ],
  "bytecode": "0x608060405234801561001057600080fd5b5060405161185b38038061185b83398101604081905261002f916100d4565b338061005557604051631e4fbdf760e01b81526000600482015260240160405180910390fd5b61005e81610084565b50600180546001600160a01b0319166001600160a01b0392909216919091179055610104565b600080546001600160a01b038381166001600160a01b0319831681178455604051919092169283917f8be0079c531659141344cd1fd0a4f28419497f9722a3daafe3b4186f6b6457e09190a35050565b6000602082840312156100e657600080fd5b81516001600160a01b03811681146100fd57600080fd5b9392505050565b611748806101136000396000f3fe608060405234801561001057600080fd5b50600436106100cf5760003560e01c8063715018a61161008c578063ec69db5211610066578063ec69db52146101ac578063f2fde38b146101bf578063f3abde32146101d2578063f7e6ad73146101f857600080fd5b8063715018a61461017e5780638da5cb5b14610188578063e1f48a921461019957600080fd5b80630d1cfcae146100d45780631769049e146101045780632a0e6c83146101245780632bd7139c146101455780633084ee5d146101585780635eb984391461016b575b600080fd5b6001546100e7906001600160a01b031681565b6040516001600160a01b0390911681526020015b60405180910390f35b610117610112366004611135565b61020b565b6040516100fb919061114e565b610137610132366004611192565b61026d565b6040519081526020016100fb565b6101176101533660046111df565b61029e565b610137610166366004611212565b610491565b61011761017936600461123c565b6104ad565b61018661066d565b005b6000546001600160a01b03166100e7565b6101176101a736600461125f565b610681565b6101376101ba36600461132d565b6106eb565b6101866101cd36600461125f565b610909565b6101e56101e0366004611135565b61094c565b6040516100fb97969594939291906113fb565b610137610206366004611473565b610aaa565b60008181526004602090815260409182902080548351818402810184019094528084526060939283018282801561026157602002820191906000526020600020905b81548152602001906001019080831161024d575b50505050509050919050565b6004602052816000526040600020818154811061028957600080fd5b90600052602060002001600091509150505481565b60606000805b6001600160a01b038516600090815260036020526040902054811015610360576001600160a01b03851660009081526003602052604081208054839081106102ee576102ee61150d565b9060005260206000200154905084600b81111561030d5761030d611395565b600082815260026020526040902060010154600160a01b900460ff16600b81111561033a5761033a611395565b0361034d578261034981611523565b9350505b508061035881611523565b9150506102a4565b5060008167ffffffffffffffff81111561037c5761037c611281565b6040519080825280602002602001820160405280156103a5578160200160208202803683370190505b5090506000805b6001600160a01b038716600090815260036020526040902054811015610486576001600160a01b03871660009081526003602052604081208054839081106103f6576103f661150d565b9060005260206000200154905086600b81111561041557610415611395565b600082815260026020526040902060010154600160a01b900460ff16600b81111561044257610442611395565b03610473578084848151811061045a5761045a61150d565b60209081029190910101528261046f81611523565b9350505b508061047e81611523565b9150506103ac565b509095945050505050565b6003602052816000526040600020818154811061028957600080fd5b60606000805b60008581526004602052604090205481101561055b5760008581526004602052604081208054839081106104e9576104e961150d565b9060005260206000200154905084600b81111561050857610508611395565b600082815260026020526040902060010154600160a01b900460ff16600b81111561053557610535611395565b03610548578261054481611523565b9350505b508061055381611523565b9150506104b3565b5060008167ffffffffffffffff81111561057757610577611281565b6040519080825280602002602001820160405280156105a0578160200160208202803683370190505b5090506000805b6000878152600460205260409020548110156104865760008781526004602052604081208054839081106105dd576105dd61150d565b9060005260206000200154905086600b8111156105fc576105fc611395565b600082815260026020526040902060010154600160a01b900460ff16600b81111561062957610629611395565b0361065a57808484815181106106415761064161150d565b60209081029190910101528261065681611523565b9350505b508061066581611523565b9150506105a7565b610675610eb5565b61067f6000610ee2565b565b6001600160a01b038116600090815260036020908152604091829020805483518184028101840190945280845260609392830182828015610261576020028201919060005260206000209081548152602001906001019080831161024d5750505050509050919050565b60006106f5610eb5565b60008585600b81111561070a5761070a611395565b60405160609290921b6bffffffffffffffffffffffff191660208301526034820152605481018590524260748201526553595354454d60d01b6094820152609a016040516020818303038152906040528051906020012090506040518060e00160405280828152602001876001600160a01b0316815260200186600b81111561079557610795611395565b815260208082018790526040808301879052426060840152805180830182526000808252608090940152848352600282529182902083518155908301516001820180546001600160a01b039092166001600160a01b031983168117825593850151929390916001600160a81b03191617600160a01b83600b81111561081c5761081c611395565b0217905550606082015160028201556080820151600382019061083f90826115d3565b5060a0820151600482015560c0820151600582019061085e90826115d3565b5050506001600160a01b0386166000908152600360209081526040808320805460018181018355918552838520018590558784526004835290832080549182018155835291200181905584600b8111156108ba576108ba611395565b866001600160a01b0316827fa985408f8570e16178b7e839f45ed7a12c2d71ec6bd1ad37452ab2d98b70fe468787426040516108f893929190611693565b60405180910390a495945050505050565b610911610eb5565b6001600160a01b03811661094057604051631e4fbdf760e01b8152600060048201526024015b60405180910390fd5b61094981610ee2565b50565b6002602081905260009182526040909120805460018201549282015460038301805492946001600160a01b03811694600160a01b90910460ff16939091906109939061154a565b80601f01602080910402602001604051908101604052809291908181526020018280546109bf9061154a565b8015610a0c5780601f106109e157610100808354040283529160200191610a0c565b820191906000526020600020905b8154815290600101906020018083116109ef57829003601f168201915b505050505090806004015490806005018054610a279061154a565b80601f0160208091040260200160405190810160405280929190818152602001828054610a539061154a565b8015610aa05780601f10610a7557610100808354040283529160200191610aa0565b820191906000526020600020905b815481529060010190602001808311610a8357829003601f168201915b5050505050905087565b6001546040516332f0f23360e11b81523360048201526000916001600160a01b0316906365e1e46690602401602060405180830381865afa158015610af3573d6000803e3d6000fd5b505050506040513d601f19601f82011682018060405250810190610b1791906116bc565b610b635760405162461bcd60e51b815260206004820152601d60248201527f4e6f742061207265676973746572656420616374697665206167656e740000006044820152606401610937565b33600090815260056020908152604080832085845290915290205460ff1615610bc35760405162461bcd60e51b8152602060048201526012602482015271139bdb98d948185b1c9958591e481d5cd95960721b6044820152606401610937565b3360009081526005602090815260408083208584529091528120805460ff19166001179055610c5c87600b811115610bfd57610bfd611395565b878786604051602001610c1394939291906116de565b604051602081830303815290604052805190602001207f19457468657265756d205369676e6564204d6573736167653a0a3332000000006000908152601c91909152603c902090565b90506000610c6a8286610f32565b90506001600160a01b0381163314610cb85760405162461bcd60e51b8152602060048201526011602482015270496e76616c6964207369676e617475726560781b6044820152606401610937565b60003389600b811115610ccd57610ccd611395565b60405160609290921b6bffffffffffffffffffffffff191660208301526034820152605481018990524260748201526094810186905260b4016040516020818303038152906040528051906020012090506040518060e00160405280828152602001336001600160a01b031681526020018a600b811115610d5057610d50611395565b815260208082018b905260408083018b9052426060840152608090920189905260008481526002825282902083518155908301516001820180546001600160a01b039092166001600160a01b031983168117825593850151929390916001600160a81b03191617600160a01b83600b811115610dce57610dce611395565b02179055506060820151600282015560808201516003820190610df190826115d3565b5060a0820151600482015560c08201516005820190610e1090826115d3565b5050336000908152600360209081526040808320805460018181018355918552838520018690558c8452600483529083208054918201815583529120018290555088600b811115610e6357610e63611395565b336001600160a01b0316827fa985408f8570e16178b7e839f45ed7a12c2d71ec6bd1ad37452ab2d98b70fe468b8b42604051610ea193929190611693565b60405180910390a498975050505050505050565b6000546001600160a01b0316331461067f5760405163118cdaa760e01b8152336004820152602401610937565b600080546001600160a01b038381166001600160a01b0319831681178455604051919092169283917f8be0079c531659141344cd1fd0a4f28419497f9722a3daafe3b4186f6b6457e09190a35050565b600080600080610f428686610f5c565b925092509250610f528282610fa9565b5090949350505050565b60008060008351604103610f965760208401516040850151606086015160001a610f8888828585611066565b955095509550505050610fa2565b50508151600091506002905b9250925092565b6000826003811115610fbd57610fbd611395565b03610fc6575050565b6001826003811115610fda57610fda611395565b03610ff85760405163f645eedf60e01b815260040160405180910390fd5b600282600381111561100c5761100c611395565b0361102d5760405163fce698f760e01b815260048101829052602401610937565b600382600381111561104157611041611395565b03611062576040516335e2f38360e21b815260048101829052602401610937565b5050565b600080807f7fffffffffffffffffffffffffffffff5d576e7357a4501ddfe92f46681b20a08411156110a1575060009150600390508261112b565b604080516000808252602082018084528a905260ff891692820192909252606081018790526080810186905260019060a0016020604051602081039080840390855afa1580156110f5573d6000803e3d6000fd5b5050604051601f1901519150506001600160a01b0381166111215750600092506001915082905061112b565b9250600091508190505b9450945094915050565b60006020828403121561114757600080fd5b5035919050565b6020808252825182820181905260009190848201906040850190845b818110156111865783518352928401929184019160010161116a565b50909695505050505050565b600080604083850312156111a557600080fd5b50508035926020909101359150565b80356001600160a01b03811681146111cb57600080fd5b919050565b8035600c81106111cb57600080fd5b600080604083850312156111f257600080fd5b6111fb836111b4565b9150611209602084016111d0565b90509250929050565b6000806040838503121561122557600080fd5b61122e836111b4565b946020939093013593505050565b6000806040838503121561124f57600080fd5b82359150611209602084016111d0565b60006020828403121561127157600080fd5b61127a826111b4565b9392505050565b634e487b7160e01b600052604160045260246000fd5b600067ffffffffffffffff808411156112b2576112b2611281565b604051601f8501601f19908116603f011681019082821181831017156112da576112da611281565b816040528093508581528686860111156112f357600080fd5b858560208301376000602087830101525050509392505050565b600082601f83011261131e57600080fd5b61127a83833560208501611297565b6000806000806080858703121561134357600080fd5b61134c856111b4565b935061135a602086016111d0565b925060408501359150606085013567ffffffffffffffff81111561137d57600080fd5b6113898782880161130d565b91505092959194509250565b634e487b7160e01b600052602160045260246000fd5b60005b838110156113c65781810151838201526020016113ae565b50506000910152565b600081518084526113e78160208601602086016113ab565b601f01601f19169290920160200192915050565b8781526001600160a01b03871660208201526000600c871061142d57634e487b7160e01b600052602160045260246000fd5b86604083015285606083015260e0608083015261144d60e08301866113cf565b8460a084015282810360c084015261146581856113cf565b9a9950505050505050505050565b600080600080600060a0868803121561148b57600080fd5b611494866111d0565b945060208601359350604086013567ffffffffffffffff808211156114b857600080fd5b6114c489838a0161130d565b945060608801359150808211156114da57600080fd5b508601601f810188136114ec57600080fd5b6114fb88823560208401611297565b95989497509295608001359392505050565b634e487b7160e01b600052603260045260246000fd5b60006001820161154357634e487b7160e01b600052601160045260246000fd5b5060010190565b600181811c9082168061155e57607f821691505b60208210810361157e57634e487b7160e01b600052602260045260246000fd5b50919050565b601f8211156115ce57600081815260208120601f850160051c810160208610156115ab5750805b601f850160051c820191505b818110156115ca578281556001016115b7565b5050505b505050565b815167ffffffffffffffff8111156115ed576115ed611281565b611601816115fb845461154a565b84611584565b602080601f831160018114611636576000841561161e5750858301515b600019600386901b1c1916600185901b1785556115ca565b600085815260208120601f198616915b8281101561166557888601518255948401946001909101908401611646565b50858210156116835787850151600019600388901b60f8161c191681555b5050505050600190811b01905550565b8381526060602082015260006116ac60608301856113cf565b9050826040830152949350505050565b6000602082840312156116ce57600080fd5b8151801515811461127a57600080fd5b848152836020820152600083516116fc8160408501602088016113ab565b604092019182019290925260600194935050505056fea264697066735822122049cae7fb3284764a9eec10767a9cc4bff1bc615ee8b60974704fe3506668e89564736f6c63430008140033",
  "linkReferences": {},
  "deployedLinkReferences": {}
}