{
  "_format": "hh-sol-artifact-1",
  "contractName": "AgentRegistry",
  "sourceName": "core/AgentRegistry.sol",
  "abi": [
    {
      "inputs": [],
      "stateMutability": "nonpayable",
      "type": "constructor"
    },
    {
      "inputs": [
        {
          "internalType": "address",
          "name": "owner",
          "type": "address"
        }
      ],
      "name": "OwnableInvalidOwner",
      "type": "error"
    },
    {
      "inputs": [
        {
          "internalType": "address",
          "name": "account",
          "type": "address"
        }
      ],
      "name": "OwnableUnauthorizedAccount",
      "type": "error"
    },
    {
      "anonymous": false,
      "inputs": [
        {
          "indexed": true,
          "internalType": "address",
          "name": "agentAddress",
          "type": "address"
        },
        {
          "indexed": false,
          "internalType": "uint256",
          "name": "timestamp",
          "type": "uint256"
        }
      ],
      "name": "AgentActivated",
      "type": "event"
    },
    {
      "anonymous": false,
      "inputs": [
        {
          "indexed": true,
          "internalType": "address",
          "name": "agentAddress",
          "type": "address"
        },
        {
          "indexed": false,
          "internalType": "uint256",
          "name": "timestamp",
          "type": "uint256"
        }
      ],
      "name": "AgentDeactivated",
      "type": "event"
    },
    {
      "anonymous": false,
      "inputs": [
        {
          "indexed": true,
          "internalType": "address",
          "name": "agentAddress",
          "type": "address"
        },
        {
          "indexed": false,
          "internalType": "string",
          "name": "name",
          "type": "string"
        },
        {
          "indexed": false,
          "internalType": "string[]",
          "name": "capabilities",
          "type": "string[]"
        },
        {
          "indexed": false,
          "internalType": "uint256",
          "name": "timestamp",
          "type": "uint256"
        }
      ],
      "name": "AgentRegistered",
      "type": "event"
    },
    {
      "anonymous": false,
      "inputs": [
        {
          "indexed": true,
          "internalType": "address",
          "name": "agentAddress",
          "type": "address"
        },
        {
          "indexed": false,
          "internalType": "string",
          "name": "name",
          "type": "string"
        },
        {
          "indexed": false,
          "internalType": "string[]",
          "name": "capabilities",
          "type": "string[]"
        },
        {
          "indexed": false,
          "internalType": "uint256",
          "name": "timestamp",
          "type": "uint256"
        }
      ],
      "name": "AgentUpdated",
      "type": "event"
    },
    {
      "anonymous": false,
      "inputs": [
        {
          "indexed": true,
          "internalType": "address",
          "name": "agentAddress",
          "type": "address"
        },
        {
          "indexed": false,
          "internalType": "uint256",
          "name": "confidenceFactor",
          "type": "uint256"
        },
        {
          "indexed": false,
          "internalType": "uint256",
          "name": "riskTolerance",
          "type": "uint256"
        },
        {
          "indexed": false,
          "internalType": "uint256",
          "name": "timestamp",
          "type": "uint256"
        }
      ],
      "name": "BiddingStrategyUpdated",
      "type": "event"
    },
    {
      "anonymous": false,
      "inputs": [
        {
          "indexed": true,
          "internalType": "address",
          "name": "agentAddress",
          "type": "address"
        },
        {
          "indexed": false,
          "internalType": "string[]",
          "name": "tags",
          "type": "string[]"
        },
        {
          "indexed": false,
          "internalType": "uint256[]",
          "name": "weights",
          "type": "uint256[]"
        }
      ],
      "name": "CapabilitiesUpdated",
      "type": "event"
    },
    {
      "anonymous": false,
      "inputs": [
        {
          "indexed": true,
          "internalType": "address",
          "name": "agentAddress",
          "type": "address"
        },
        {
          "indexed": false,
          "internalType": "string",
          "name": "tag",
          "type": "string"
        },
        {
          "indexed": false,
          "internalType": "uint256",
          "name": "oldWeight",
          "type": "uint256"
        },
        {
          "indexed": false,
          "internalType": "uint256",
          "name": "newWeight",
          "type": "uint256"
        },
        {
          "indexed": true,
          "internalType": "bytes32",
          "name": "taskId",
          "type": "bytes32"
        },
        {
          "indexed": false,
          "internalType": "uint256",
          "name": "timestamp",
          "type": "uint256"
        }
      ],
      "name": "CapabilityEvolutionRecorded",
      "type": "event"
    },
    {
      "anonymous": false,
      "inputs": [
        {
          "indexed": true,
          "internalType": "address",
          "name": "agentAddress",
          "type": "address"
        },
        {
          "indexed": false,
          "internalType": "uint256",
          "name": "averageScore",
          "type": "uint256"
        },
        {
          "indexed": false,
          "internalType": "uint256",
          "name": "dataPoints",
          "type": "uint256"
        },
        {
          "indexed": false,
          "internalType": "uint256",
          "name": "timestamp",
          "type": "uint256"
        }
      ],
      "name": "LearningCurveUpdated",
      "type": "event"
    },
    {
      "anonymous": false,
      "inputs": [
        {
          "indexed": true,
          "internalType": "address",
          "name": "previousOwner",
          "type": "address"
        },
        {
          "indexed": true,
          "internalType": "address",
          "name": "newOwner",
          "type": "address"
        }
      ],
      "name": "OwnershipTransferred",
      "type": "event"
    },
    {
      "anonymous": false,
      "inputs": [
        {
          "indexed": true,
          "internalType": "address",
          "name": "agentAddress",
          "type": "address"
        },
        {
          "indexed": true,
          "internalType": "bytes32",
          "name": "taskId",
          "type": "bytes32"
        },
        {
          "indexed": false,
          "internalType": "uint256",
          "name": "score",
          "type": "uint256"
        }
      ],
      "name": "TaskScoreRecorded",
      "type": "event"
    },
    {
      "inputs": [],
      "name": "MAX_EVOLUTION_HISTORY",
      "outputs": [
        {
          "internalType": "uint256",
          "name": "",
          "type": "uint256"
        }
      ],
      "stateMutability": "view",
      "type": "function"
    },
    {
      "inputs": [],
      "name": "MAX_LEARNING_CURVE_POINTS",
      "outputs": [
        {
          "internalType": "uint256",
          "name": "",
          "type": "uint256"
        }
      ],
      "stateMutability": "view",
      "type": "function"
    },
    {
      "inputs": [],
      "name": "MAX_RECENT_TASKS",
      "outputs": [
        {
          "internalType": "uint256",
          "name": "",
          "type": "uint256"
        }
      ],
      "stateMutability": "view",
      "type": "function"
    },
    {
      "inputs": [
        {
          "internalType": "address",
          "name": "agentAddress",
          "type": "address"
        }
      ],
      "name": "activateAgent",
      "outputs": [],
      "stateMutability": "nonpayable",
      "type": "function"
    },
    {
      "inputs": [
        {
          "internalType": "uint256",
          "name": "",
          "type": "uint256"
        }
      ],
      "name": "agentAddresses",
      "outputs": [
        {
          "internalType": "address",
          "name": "",
          "type": "address"
        }
      ],
      "stateMutability": "view",
      "type": "function"
    },
    {
      "inputs": [
        {
          "internalType": "address",
          "name": "",
          "type": "address"
        }
      ],
      "name": "agentBiddingStrategies",
      "outputs": [
        {
          "internalType": "uint256",
          "name": "confidenceFactor",
          "type": "uint256"
        },
        {
          "internalType": "uint256",
          "name": "riskTolerance",
          "type": "uint256"
        },
        {
          "internalType": "uint256",
          "name": "lastUpdated",
          "type": "uint256"
        }
      ],
      "stateMutability": "view",
      "type": "function"
    },
    {
      "inputs": [
        {
          "internalType": "address",
          "name": "",
          "type": "address"
        }
      ],
      "name": "agentWorkload",
      "outputs": [
        {
          "internalType": "uint256",
          "name": "",
          "type": "uint256"
        }
      ],
      "stateMutability": "view",
      "type": "function"
    },
    {
      "inputs": [
        {
          "internalType": "address",
          "name": "",
          "type": "address"
        }
      ],
      "name": "agents",
      "outputs": [
        {
          "internalType": "string",
          "name": "name",
          "type": "string"
        },
        {
          "internalType": "address",
          "name": "owner",
          "type": "address"
        },
        {
          "internalType": "uint256",
          "name": "reputation",
          "type": "uint256"
        },
        {
          "internalType": "bool",
          "name": "active",
          "type": "bool"
        },
        {
          "internalType": "uint256",
          "name": "registeredAt",
          "type": "uint256"
        },
        {
          "internalType": "enum AgentRegistry.AgentType",
          "name": "agentType",
          "type": "uint8"
        }
      ],
      "stateMutability": "view",
      "type": "function"
    },
    {
      "inputs": [
        {
          "internalType": "address",
          "name": "",
          "type": "address"
        },
        {
          "internalType": "string",
          "name": "",
          "type": "string"
        }
      ],
      "name": "capabilityWeights",
      "outputs": [
        {
          "internalType": "uint256",
          "name": "",
          "type": "uint256"
        }
      ],
      "stateMutability": "view",
      "type": "function"
    },
    {
      "inputs": [
        {
          "internalType": "address",
          "name": "agentAddress",
          "type": "address"
        }
      ],
      "name": "deactivateAgent",
      "outputs": [],
      "stateMutability": "nonpayable",
      "type": "function"
    },
    {
      "inputs": [
        {
          "internalType": "address",
          "name": "agentAddress",
          "type": "address"
        }
      ],
      "name": "decrementWorkload",
      "outputs": [],
      "stateMutability": "nonpayable",
      "type": "function"
    },
    {
      "inputs": [
        {
          "internalType": "address",
          "name": "agentAddress",
          "type": "address"
        }
      ],
      "name": "getAgent",
      "outputs": [
        {
          "components": [
            {
              "internalType": "string",
              "name": "name",
              "type": "string"
            },
            {
              "internalType": "string[]",
              "name": "capabilities",
              "type": "string[]"
            },
            {
              "internalType": "address",
              "name": "owner",
              "type": "address"
            },
            {
              "internalType": "uint256",
              "name": "reputation",
              "type": "uint256"
            },
            {
              "internalType": "bool",
              "name": "active",
              "type": "bool"
            },
            {
              "internalType": "uint256",
              "name": "registeredAt",
              "type": "uint256"
            },
            {
              "internalType": "enum AgentRegistry.AgentType",
              "name": "agentType",
              "type": "uint8"
            }
          ],
          "internalType": "struct AgentRegistry.Agent",
          "name": "",
          "type": "tuple"
        }
      ],
      "stateMutability": "view",
      "type": "function"
    },
    {
      "inputs": [
        {
          "internalType": "address",
          "name": "agentAddress",
          "type": "address"
        }
      ],
      "name": "getAgentBiddingStrategy",
      "outputs": [
        {
          "internalType": "uint256",
          "name": "confidenceFactor",
          "type": "uint256"
        },
        {
          "internalType": "uint256",
          "name": "riskTolerance",
          "type": "uint256"
        },
        {
          "internalType": "uint256",
          "name": "lastUpdated",
          "type": "uint256"
        }
      ],
      "stateMutability": "view",
      "type": "function"
    },
    {
      "inputs": [],
      "name": "getAgentCount",
      "outputs": [
        {
          "internalType": "uint256",
          "name": "",
          "type": "uint256"
        }
      ],
      "stateMutability": "view",
      "type": "function"
    },
    {
      "inputs": [
        {
          "internalType": "address",
          "name": "agentAddress",
          "type": "address"
        }
      ],
      "name": "getAgentLearningState",
      "outputs": [
        {
          "components": [
            {
              "internalType": "uint256",
              "name": "reputation",
              "type": "uint256"
            },
            {
              "internalType": "string[]",
              "name": "capabilityTags",
              "type": "string[]"
            },
            {
              "internalType": "uint256[]",
              "name": "capabilityWeights",
              "type": "uint256[]"
            },
            {
              "internalType": "uint256",
              "name": "workload",
              "type": "uint256"
            },
            {
              "internalType": "bytes32[]",
              "name": "recentTaskIds",
              "type": "bytes32[]"
            },
            {
              "internalType": "uint256[]",
              "name": "recentScores",
              "type": "uint256[]"
            }
          ],
          "internalType": "struct AgentRegistry.AgentLearningState",
          "name": "",
          "type": "tuple"
        }
      ],
      "stateMutability": "view",
      "type": "function"
    },
    {
      "inputs": [
        {
          "internalType": "address",
          "name": "agentAddress",
          "type": "address"
        }
      ],
      "name": "getAgentRecentTasks",
      "outputs": [
        {
          "internalType": "bytes32[]",
          "name": "taskIds",
          "type": "bytes32[]"
        },
        {
          "internalType": "uint256[]",
          "name": "scores",
          "type": "uint256[]"
        }
      ],
      "stateMutability": "view",
      "type": "function"
    },
    {
      "inputs": [
        {
          "internalType": "address",
          "name": "agentAddress",
          "type": "address"
        }
      ],
      "name": "getAgentReputation",
      "outputs": [
        {
          "internalType": "uint256",
          "name": "",
          "type": "uint256"
        }
      ],
      "stateMutability": "view",
      "type": "function"
    },
    {
      "inputs": [],
      "name": "getAllAgents",
      "outputs": [
        {
          "internalType": "address[]",
          "name": "",
          "type": "address[]"
        }
      ],
      "stateMutability": "view",
      "type": "function"
    },
    {
      "inputs": [
        {
          "internalType": "address",
          "name": "agentAddress",
          "type": "address"
        }
      ],
      "name": "getCapabilities",
      "outputs": [
        {
          "internalType": "string[]",
          "name": "tags",
          "type": "string[]"
        },
        {
          "internalType": "uint256[]",
          "name": "weights",
          "type": "uint256[]"
        }
      ],
      "stateMutability": "view",
      "type": "function"
    },
    {
      "inputs": [
        {
          "internalType": "address",
          "name": "agentAddress",
          "type": "address"
        }
      ],
      "name": "getCapabilityEvolutionHistory",
      "outputs": [
        {
          "components": [
            {
              "internalType": "string",
              "name": "tag",
              "type": "string"
            },
            {
              "internalType": "uint256",
              "name": "oldWeight",
              "type": "uint256"
            },
            {
              "internalType": "uint256",
              "name": "newWeight",
              "type": "uint256"
            },
            {
              "internalType": "uint256",
              "name": "timestamp",
              "type": "uint256"
            },
            {
              "internalType": "bytes32",
              "name": "taskId",
              "type": "bytes32"
            }
          ],
          "internalType": "struct AgentRegistry.CapabilityEvolution[]",
          "name": "",
          "type": "tuple[]"
        }
      ],
      "stateMutability": "view",
      "type": "function"
    },
    {
      "inputs": [
        {
          "internalType": "address",
          "name": "agentAddress",
          "type": "address"
        }
      ],
      "name": "getLearningCurve",
      "outputs": [
        {
          "internalType": "uint256[]",
          "name": "",
          "type": "uint256[]"
        }
      ],
      "stateMutability": "view",
      "type": "function"
    },
    {
      "inputs": [
        {
          "internalType": "address",
          "name": "agentAddress",
          "type": "address"
        }
      ],
      "name": "getReputation",
      "outputs": [
        {
          "internalType": "uint256",
          "name": "",
          "type": "uint256"
        }
      ],
      "stateMutability": "view",
      "type": "function"
    },
    {
      "inputs": [
        {
          "internalType": "address",
          "name": "agentAddress",
          "type": "address"
        }
      ],
      "name": "incrementWorkload",
      "outputs": [],
      "stateMutability": "nonpayable",
      "type": "function"
    },
    {
      "inputs": [
        {
          "internalType": "address",
          "name": "agentAddress",
          "type": "address"
        }
      ],
      "name": "isActiveAgent",
      "outputs": [
        {
          "internalType": "bool",
          "name": "",
          "type": "bool"
        }
      ],
      "stateMutability": "view",
      "type": "function"
    },
    {
      "inputs": [],
      "name": "owner",
      "outputs": [
        {
          "internalType": "address",
          "name": "",
          "type": "address"
        }
      ],
      "stateMutability": "view",
      "type": "function"
    },
    {
      "inputs": [
        {
          "internalType": "address",
          "name": "agentAddress",
          "type": "address"
        },
        {
          "internalType": "string",
          "name": "tag",
          "type": "string"
        },
        {
          "internalType": "uint256",
          "name": "oldWeight",
          "type": "uint256"
        },
        {
          "internalType": "uint256",
          "name": "newWeight",
          "type": "uint256"
        },
        {
          "internalType": "bytes32",
          "name": "taskId",
          "type": "bytes32"
        }
      ],
      "name": "recordCapabilityEvolution",
      "outputs": [],
      "stateMutability": "nonpayable",
      "type": "function"
    },
    {
      "inputs": [
        {
          "internalType": "address",
          "name": "agentAddress",
          "type": "address"
        },
        {
          "internalType": "bytes32",
          "name": "taskId",
          "type": "bytes32"
        },
        {
          "internalType": "uint256",
          "name": "score",
          "type": "uint256"
        }
      ],
      "name": "recordTaskScore",
      "outputs": [],
      "stateMutability": "nonpayable",
      "type": "function"
    },
    {
      "inputs": [
        {
          "internalType": "string",
          "name": "name",
          "type": "string"
        },
        {
          "internalType": "string[]",
          "name": "capabilities",
          "type": "string[]"
        },
        {
          "internalType": "enum AgentRegistry.AgentType",
          "name": "agentType",
          "type": "uint8"
        },
        {
          "internalType": "uint256",
          "name": "reputation",
          "type": "uint256"
        },
        {
          "internalType": "uint256",
          "name": "confidenceFactor",
          "type": "uint256"
        },
        {
          "internalType": "uint256[]",
          "name": "weights",
          "type": "uint256[]"
        }
      ],
      "name": "registerAgent",
      "outputs": [],
      "stateMutability": "nonpayable",
      "type": "function"
    },
    {
      "inputs": [],
      "name": "renounceOwnership",
      "outputs": [],
      "stateMutability": "nonpayable",
      "type": "function"
    },
    {
      "inputs": [
        {
          "internalType": "address",
          "name": "agentAddress",
          "type": "address"
        }
      ],
      "name": "resetWorkload",
      "outputs": [],
      "stateMutability": "nonpayable",
      "type": "function"
    },
    {
      "inputs": [
        {
          "internalType": "address",
          "name": "agentAddress",
          "type": "address"
        },
        {
          "internalType": "string[]",
          "name": "tags",
          "type": "string[]"
        },
        {
          "internalType": "uint256[]",
          "name": "weights",
          "type": "uint256[]"
        }
      ],
      "name": "setCapabilities",
      "outputs": [],
      "stateMutability": "nonpayable",
      "type": "function"
    },
    {
      "inputs": [
        {
          "internalType": "address",
          "name": "agentAddress",
          "type": "address"
        },
        {
          "internalType": "uint256",
          "name": "reputation",
          "type": "uint256"
        }
      ],
      "name": "setReputation",
      "outputs": [],
      "stateMutability": "nonpayable",
      "type": "function"
    },
    {
      "inputs": [
        {
          "internalType": "address",
          "name": "newOwner",
          "type": "address"
        }
      ],
      "name": "transferOwnership",
      "outputs": [],
      "stateMutability": "nonpayable",
      "type": "function"
    },
    {
      "inputs": [
        {
          "internalType": "string",
          "name": "name",
          "type": "string"
        },
        {
          "internalType": "string[]",
          "name": "capabilities",
          "type": "string[]"
        }
      ],
      "name": "updateAgent",
      "outputs": [],
      "stateMutability": "nonpayable",
      "type": "function"
    },
    {
      "inputs": [
        {
          "internalType": "address",
          "name": "agentAddress",
          "type": "address"
        },
        {
          "internalType": "uint256",
          "name": "confidenceFactor",
          "type": "uint256"
        },
        {
          "internalType": "uint256",
          "name": "riskTolerance",
          "type": "uint256"
        }
      ],
      "name": "updateBiddingStrategy",
      "outputs": [],
      "stateMutability": "nonpayable",
      "type": "function"
    }
  ],
  "bytecode": "0x60806040523480156200001157600080fd5b5033806200003957604051631e4fbdf760e01b81526000600482015260240160405180910390fd5b62000044816200004b565b506200009b565b600080546001600160a01b038381166001600160a01b0319831681178455604051919092169283917f8be0079c531659141344cd1fd0a4f28419497f9722a3daafe3b4186f6b6457e09190a35050565b6139ea80620000ab6000396000f3fe608060405234801561001057600080fd5b50600436106102115760003560e01c8063984b429e11610125578063d2badd54116100ad578063f21e7f261161007c578063f21e7f26146104fe578063f2fde38b14610511578063f63540fb14610524578063fb3551ff1461052c578063fd66091e1461054c57600080fd5b8063d2badd541461049c578063d4b5cbd0146104cb578063ebeae5871461040a578063ecd5e358146104eb57600080fd5b8063a6f3d0f9116100f4578063a6f3d0f914610430578063a7676a6314610443578063b0a0a92714610456578063b120c16a14610469578063b696ae5b1461047c57600080fd5b8063984b429e146103e1578063991ef171146103e95780639c89a0e21461040a5780639eacd7ef1461041d57600080fd5b806365e1e466116101a8578063860e4ac611610177578063860e4ac61461035e578063877dd2e3146103735780638da5cb5b146103a15780639092cbf4146103c657806391cab63e146103d957600080fd5b806365e1e466146102d7578063715018a6146102fa57806378375af6146103025780637b24da551461033e57600080fd5b80633224b395116101e45780633224b3951461027a5780634e81ba8e146102905780636033f508146102a3578063611a2d65146102c457600080fd5b80630f85a257146102165780632538b1531461023f57806327893d8e146102545780632a88437114610267575b600080fd5b610229610224366004612b84565b610571565b6040516102369190612c86565b60405180910390f35b61025261024d366004612b84565b6107f8565b005b610252610262366004612b84565b610852565b610252610275366004612e02565b6108be565b610282606481565b604051908152602001610236565b61025261029e366004612b84565b610912565b6102b66102b1366004612b84565b610a6a565b604051610236929190612e6a565b6102526102d2366004612f6e565b610bd8565b6102ea6102e5366004612b84565b610c91565b6040519015158152602001610236565b610252610cdc565b610282610310366004612fd1565b6004602090815260009283526040909220815180830184018051928152908401929093019190912091525481565b61035161034c366004612b84565b610cf0565b6040516102369190613014565b610366610e55565b60405161023691906130a9565b610386610381366004612b84565b610eb7565b60408051938452602084019290925290820152606001610236565b6000546001600160a01b03165b6040516001600160a01b039091168152602001610236565b6102526103d43660046130f6565b610f3a565b600254610282565b610282603281565b6103fc6103f7366004612b84565b61117f565b604051610236929190613171565b610282610418366004612b84565b6113e5565b61025261042b3660046131fa565b61143c565b61025261043e3660046130f6565b6118a8565b6103ae6104513660046132ac565b6119f1565b610252610464366004612b84565b611a1b565b6102526104773660046132c5565b611b6a565b61028261048a366004612b84565b60066020526000908152604090205481565b6103866104aa366004612b84565b600a6020526000908152604090208054600182015460029092015490919083565b6104de6104d9366004612b84565b611c1a565b60405161023691906132ef565b6102526104f9366004613302565b611cbf565b61025261050c366004612b84565b61213e565b61025261051f366004612b84565b6121c3565b610282600a81565b61053f61053a366004612b84565b6121fe565b60405161023691906133ad565b61055f61055a366004612b84565b612439565b60405161023696959493929190613436565b6105aa6040518060c001604052806000815260200160608152602001606081526020016000815260200160608152602001606081525090565b6001600160a01b0382166000908152600160205260409020600501546105eb5760405162461bcd60e51b81526004016105e290613488565b60405180910390fd5b60405163991ef17160e01b81526001600160a01b03831660048201526000908190309063991ef17190602401600060405180830381865afa158015610634573d6000803e3d6000fd5b505050506040513d6000823e601f3d908101601f1916820160405261065c9190810190613511565b91509150600060076000866001600160a01b03166001600160a01b031681526020019081526020016000208054806020026020016040519081016040528092919081815260200182805480156106d157602002820191906000526020600020905b8154815260200190600101908083116106bd575b50505050509050600081516001600160401b038111156106f3576106f3612d3f565b60405190808252806020026020018201604052801561071c578160200160208202803683370190505b50905060005b82518110156107a0576001600160a01b0387166000908152600860205260408120845190919085908490811061075a5761075a613618565b602002602001015181526020019081526020016000205482828151811061078357610783613618565b60209081029190910101528061079881613644565b915050610722565b506040805160c0810182526001600160a01b03909716600081815260016020908152838220600301548a52808a0197909752888301959095528452600690945292909120546060850152608084015260a08301525090565b610800612506565b6001600160a01b0381166000908152600160205260409020600501546108385760405162461bcd60e51b81526004016105e290613488565b6001600160a01b0316600090815260066020526040812055565b61085a612506565b6001600160a01b0381166000908152600160205260409020600501546108925760405162461bcd60e51b81526004016105e290613488565b6001600160a01b03811660009081526006602052604081208054916108b683613644565b919050555050565b6108c6612506565b6001600160a01b0385166000908152600160205260409020600501546108fe5760405162461bcd60e51b81526004016105e290613488565b61090b8585858585612533565b5050505050565b6001600160a01b03811660009081526001602052604090206005015461094a5760405162461bcd60e51b81526004016105e290613488565b336001600160a01b038216148061096b57506000546001600160a01b031633145b6109a85760405162461bcd60e51b815260206004820152600e60248201526d139bdd08185d5d1a1bdc9a5e995960921b60448201526064016105e2565b6001600160a01b03811660009081526001602052604090206004015460ff1615610a0b5760405162461bcd60e51b81526020600482015260146024820152734167656e7420616c72656164792061637469766560601b60448201526064016105e2565b6001600160a01b038116600081815260016020818152604092839020600401805460ff191690921790915590514281527f63eb46668dbc3c8cf26c8a83c05409754547e6dd58b2e9634b4028bd98c999cf91015b60405180910390a250565b6001600160a01b0381166000908152600160205260409020600501546060908190610aa75760405162461bcd60e51b81526004016105e290613488565b6001600160a01b03831660009081526007602090815260409182902080548351818402810184019094528084529091830182828015610b0557602002820191906000526020600020905b815481526020019060010190808311610af1575b5050505050915081516001600160401b03811115610b2557610b25612d3f565b604051908082528060200260200182016040528015610b4e578160200160208202803683370190505b50905060005b8251811015610bd2576001600160a01b03841660009081526008602052604081208451909190859084908110610b8c57610b8c613618565b6020026020010151815260200190815260200160002054828281518110610bb557610bb5613618565b602090810291909101015280610bca81613644565b915050610b54565b50915091565b33600090815260016020526040902060050154610c075760405162461bcd60e51b81526004016105e290613488565b336000908152600160205260409020610c2083826136e6565b503360009081526001602081815260409092208351610c4793919092019190840190612a30565b50336001600160a01b03167f28478acfc3fb3fa93d3a86696b1f4cd1a9371d298eadb1e686a289f98d09044e838342604051610c85939291906137a5565b60405180910390a25050565b6001600160a01b03811660009081526001602052604081206005015415801590610cd657506001600160a01b03821660009081526001602052604090206004015460ff165b92915050565b610ce4612506565b610cee6000612798565b565b6001600160a01b038116600090815260016020526040902060050154606090610d2b5760405162461bcd60e51b81526004016105e290613488565b6001600160a01b038216600090815260096020908152604080832080548251818502810185019093528083529193909284015b82821015610e4a57838290600052602060002090600502016040518060a0016040529081600082018054610d919061365d565b80601f0160208091040260200160405190810160405280929190818152602001828054610dbd9061365d565b8015610e0a5780601f10610ddf57610100808354040283529160200191610e0a565b820191906000526020600020905b815481529060010190602001808311610ded57829003601f168201915b5050505050815260200160018201548152602001600282015481526020016003820154815260200160048201548152505081526020019060010190610d5e565b505050509050919050565b60606002805480602002602001604051908101604052809291908181526020018280548015610ead57602002820191906000526020600020905b81546001600160a01b03168152600190910190602001808311610e8f575b5050505050905090565b6001600160a01b03811660009081526001602052604081206005015481908190610ef35760405162461bcd60e51b81526004016105e290613488565b5050506001600160a01b03166000908152600a6020908152604091829020825160608101845281548082526001830154938201849052600290920154930183905292909190565b610f42612506565b6001600160a01b038316600090815260016020526040902060050154610f7a5760405162461bcd60e51b81526004016105e290613488565b6064811115610fcb5760405162461bcd60e51b815260206004820152601b60248201527f53636f7265206d757374206265206265747765656e20302d313030000000000060448201526064016105e2565b6001600160a01b03831660008181526008602090815260408083208684528252808320859055928252600790522054600a116111015760005b6001600160a01b038416600090815260076020526040902054611029906001906137db565b8110156110c2576001600160a01b03841660009081526007602052604090206110538260016137ee565b8154811061106357611063613618565b906000526020600020015460076000866001600160a01b03166001600160a01b0316815260200190815260200160002082815481106110a4576110a4613618565b600091825260209091200155806110ba81613644565b915050611004565b506001600160a01b03831660009081526007602052604090208054806110ea576110ea613801565b600190038181906000526020600020016000905590555b6001600160a01b03831660009081526007602090815260408220805460018101825590835291200182905561113683826127e8565b81836001600160a01b03167f0975e9039ae3e10164cc9ae09649ef940b60019242082baac3d093113788c1848360405161117291815260200190565b60405180910390a3505050565b606080600060056000856001600160a01b03166001600160a01b03168152602001908152602001600020805480602002602001604051908101604052809291908181526020016000905b828210156112755783829060005260206000200180546111e89061365d565b80601f01602080910402602001604051908101604052809291908181526020018280546112149061365d565b80156112615780601f1061123657610100808354040283529160200191611261565b820191906000526020600020905b81548152906001019060200180831161124457829003601f168201915b5050505050815260200190600101906111c9565b50508251929350829150506001600160401b0381111561129757611297612d3f565b6040519080825280602002602001820160405280156112ca57816020015b60608152602001906001900390816112b55790505b509350806001600160401b038111156112e5576112e5612d3f565b60405190808252806020026020018201604052801561130e578160200160208202803683370190505b50925060005b818110156113dd5782818151811061132e5761132e613618565b602002602001015185828151811061134857611348613618565b602002602001018190525060046000876001600160a01b03166001600160a01b0316815260200190815260200160002085828151811061138a5761138a613618565b602002602001015160405161139f9190613817565b9081526020016040518091039020548482815181106113c0576113c0613618565b6020908102919091010152806113d581613644565b915050611314565b505050915091565b6001600160a01b03811660009081526001602052604081206005015461141d5760405162461bcd60e51b81526004016105e290613488565b506001600160a01b031660009081526001602052604090206003015490565b336000908152600160205260409020600501541561149c5760405162461bcd60e51b815260206004820152601860248201527f4167656e7420616c72656164792072656769737465726564000000000000000060448201526064016105e2565b60648311156114ed5760405162461bcd60e51b815260206004820181905260248201527f52657075746174696f6e206d757374206265206265747765656e20302d31303060448201526064016105e2565b606482111561150e5760405162461bcd60e51b81526004016105e290613833565b805185511461157d5760405162461bcd60e51b815260206004820152603560248201527f4361706162696c697469657320616e64207765696768747320617272617973206044820152740daeae6e840d0c2ecca40e6c2daca40d8cadccee8d605b1b60648201526084016105e2565b6040518060e00160405280878152602001868152602001336001600160a01b031681526020018481526020016001151581526020014281526020018560038111156115ca576115ca613375565b9052336000908152600160205260409020815181906115e990826136e6565b5060208281015180516116029260018501920190612a30565b5060408201516002820180546001600160a01b039092166001600160a01b03199092169190911790556060820151600380830191909155608083015160048301805491151560ff1992831617905560a0840151600584015560c0840151600684018054919390929190911690600190849081111561168257611682613375565b02179055505060028054600181019091557f405787fa12a823e0f2b7631cc41b3ba8828b3321ca811111fa75cd3aa3bb5ace0180546001600160a01b03191633908117909155600090815260056020908152604090912087516116ea93509091880190612a30565b5060005b855181101561182057600182828151811061170b5761170b613618565b60200260200101511015801561173b5750606482828151811061173057611730613618565b602002602001015111155b6117985760405162461bcd60e51b815260206004820152602860248201527f4361706162696c6974792077656967687473206d7573742062652062657477656044820152670656e20312d3130360c41b60648201526084016105e2565b8181815181106117aa576117aa613618565b602002602001015160046000336001600160a01b03166001600160a01b031681526020019081526020016000208783815181106117e9576117e9613618565b60200260200101516040516117fe9190613817565b908152604051908190036020019020558061181881613644565b9150506116ee565b50604080516060810182528381526032602080830191825242838501818152336000818152600a9094529286902094518555925160018501559151600290930192909255915190917fd983b353843079ea72b0607ed788e429e4b01c5c7f6156f061b2989604f319ea91611898918a918a91906137a5565b60405180910390a2505050505050565b6118b0612506565b6001600160a01b0383166000908152600160205260409020600501546118e85760405162461bcd60e51b81526004016105e290613488565b60648211156119095760405162461bcd60e51b81526004016105e290613833565b60648111156119665760405162461bcd60e51b8152602060048201526024808201527f5269736b20746f6c6572616e6365206d757374206265206265747765656e203060448201526302d3130360e41b60648201526084016105e2565b60408051606080820183528482526020808301858152428486018181526001600160a01b038a166000818152600a86528890209651875592516001870155516002909501949094558451878152918201869052938101929092527ff6c4e2517904fe3edfaeb784a3a2ae2993dda8996bb34e74a7c588256c66b2bc91015b60405180910390a2505050565b60028181548110611a0157600080fd5b6000918252602090912001546001600160a01b0316905081565b6001600160a01b038116600090815260016020526040902060050154611a535760405162461bcd60e51b81526004016105e290613488565b336001600160a01b0382161480611a7457506000546001600160a01b031633145b611ab15760405162461bcd60e51b815260206004820152600e60248201526d139bdd08185d5d1a1bdc9a5e995960921b60448201526064016105e2565b6001600160a01b03811660009081526001602052604090206004015460ff16611b155760405162461bcd60e51b81526020600482015260166024820152754167656e7420616c726561647920696e61637469766560501b60448201526064016105e2565b6001600160a01b03811660008181526001602052604090819020600401805460ff19169055517f0908d0024a3278cb165ed9b5e370dfd4b2c566122efebb355afb5b56e224915890610a5f9042815260200190565b611b72612506565b6001600160a01b038216600090815260016020526040902060050154611baa5760405162461bcd60e51b81526004016105e290613488565b6064811115611bfb5760405162461bcd60e51b815260206004820181905260248201527f52657075746174696f6e206d757374206265206265747765656e20302d31303060448201526064016105e2565b6001600160a01b03909116600090815260016020526040902060030155565b6001600160a01b038116600090815260016020526040902060050154606090611c555760405162461bcd60e51b81526004016105e290613488565b6001600160a01b0382166000908152600b602090815260409182902080548351818402810184019094528084529091830182828015611cb357602002820191906000526020600020905b815481526020019060010190808311611c9f575b50505050509050919050565b611cc7612506565b6001600160a01b038316600090815260016020526040902060050154611cff5760405162461bcd60e51b81526004016105e290613488565b8051825114611d5f5760405162461bcd60e51b815260206004820152602660248201527f5461677320616e642077656967687473206d75737420686176652073616d65206044820152650d8cadccee8d60d31b60648201526084016105e2565b60005b6001600160a01b038416600090815260056020526040902054811015611e99576001600160a01b0384166000908152600560205260408120805483908110611dac57611dac613618565b906000526020600020018054611dc19061365d565b80601f0160208091040260200160405190810160405280929190818152602001828054611ded9061365d565b8015611e3a5780601f10611e0f57610100808354040283529160200191611e3a565b820191906000526020600020905b815481529060010190602001808311611e1d57829003601f168201915b50505050509050600060046000876001600160a01b03166001600160a01b0316815260200190815260200160002082604051611e769190613817565b908152604051908190036020019020555080611e9181613644565b915050611d62565b506001600160a01b0383166000908152600560205260408120611ebb91612a86565b60005b8251811015612102576064828281518110611edb57611edb613618565b60200260200101511115611f315760405162461bcd60e51b815260206004820152601c60248201527f576569676874206d757374206265206265747765656e20302d3130300000000060448201526064016105e2565b6000828281518110611f4557611f45613618565b602002602001015111156120f0576001600160a01b03841660009081526004602052604081208451859084908110611f7f57611f7f613618565b6020026020010151604051611f949190613817565b9081526020016040518091039020549050600081118015611fce5750828281518110611fc257611fc2613618565b60200260200101518114155b156120155761201585858481518110611fe957611fe9613618565b60200260200101518386868151811061200457612004613618565b60200260200101516000801b612533565b82828151811061202757612027613618565b602002602001015160046000876001600160a01b03166001600160a01b0316815260200190815260200160002085848151811061206657612066613618565b602002602001015160405161207b9190613817565b90815260200160405180910390208190555060056000866001600160a01b03166001600160a01b031681526020019081526020016000208483815181106120c4576120c4613618565b602090810291909101810151825460018101845560009384529190922001906120ed90826136e6565b50505b806120fa81613644565b915050611ebe565b50826001600160a01b03167fa5af54087545ac61744732e3fc6f918b48351a21e188009cd82eb5772c37be6183836040516119e4929190613171565b612146612506565b6001600160a01b03811660009081526001602052604090206005015461217e5760405162461bcd60e51b81526004016105e290613488565b6001600160a01b038116600090815260066020526040902054156121c0576001600160a01b03811660009081526006602052604081208054916108b68361387a565b50565b6121cb612506565b6001600160a01b0381166121f557604051631e4fbdf760e01b8152600060048201526024016105e2565b6121c081612798565b612206612aa4565b6001600160a01b03821660009081526001602052604090206005015461223e5760405162461bcd60e51b81526004016105e290613488565b6001600160a01b03821660009081526001602052604090819020815160e081019092528054829082906122709061365d565b80601f016020809104026020016040519081016040528092919081815260200182805461229c9061365d565b80156122e95780601f106122be576101008083540402835291602001916122e9565b820191906000526020600020905b8154815290600101906020018083116122cc57829003601f168201915b5050505050815260200160018201805480602002602001604051908101604052809291908181526020016000905b828210156123c35783829060005260206000200180546123369061365d565b80601f01602080910402602001604051908101604052809291908181526020018280546123629061365d565b80156123af5780601f10612384576101008083540402835291602001916123af565b820191906000526020600020905b81548152906001019060200180831161239257829003601f168201915b505050505081526020019060010190612317565b5050509082525060028201546001600160a01b031660208201526003808301546040830152600483015460ff9081161515606084015260058401546080840152600684015460a090930192169081111561241f5761241f613375565b600381111561243057612430613375565b90525092915050565b6001602052600090815260409020805481906124549061365d565b80601f01602080910402602001604051908101604052809291908181526020018280546124809061365d565b80156124cd5780601f106124a2576101008083540402835291602001916124cd565b820191906000526020600020905b8154815290600101906020018083116124b057829003601f168201915b505050600284015460038501546004860154600587015460069097015495966001600160a01b039093169591945060ff90811693501686565b6000546001600160a01b03163314610cee5760405163118cdaa760e01b81523360048201526024016105e2565b6040805160a0810182528581526020808201869052818301859052426060830152608082018490526001600160a01b0388166000908152600990915291909120546032116126df5760005b6001600160a01b0387166000908152600960205260409020546125a3906001906137db565b811015612676576001600160a01b03871660009081526009602052604090206125cd8260016137ee565b815481106125dd576125dd613618565b906000526020600020906005020160096000896001600160a01b03166001600160a01b03168152602001908152602001600020828154811061262157612621613618565b600091825260209091206005909102018061263c8382613891565b506001828101549082015560028083015490820155600380830154908201556004918201549101558061266e81613644565b91505061257e565b506001600160a01b038616600090815260096020526040902080548061269e5761269e613801565b600082815260208120600019909201916005830201906126be8282612afc565b50600060018201819055600282018190556003820181905560049091015590555b6001600160a01b03861660009081526009602090815260408220805460018101825590835291208251839260050290910190819061271d90826136e6565b5060208201518160010155604082015181600201556060820151816003015560808201518160040155505081866001600160a01b03167f564fc318f430d4dcc3f2e39f2e3ba74973abe44920decada6d8f36dccc12ca88878787426040516127889493929190613963565b60405180910390a3505050505050565b600080546001600160a01b038381166001600160a01b0319831681178455604051919092169283917f8be0079c531659141344cd1fd0a4f28419497f9722a3daafe3b4186f6b6457e09190a35050565b6001600160a01b0382166000908152600b60205260409020546064116129085760005b6001600160a01b0383166000908152600b6020526040902054612830906001906137db565b8110156128c9576001600160a01b0383166000908152600b6020526040902061285a8260016137ee565b8154811061286a5761286a613618565b9060005260206000200154600b6000856001600160a01b03166001600160a01b0316815260200190815260200160002082815481106128ab576128ab613618565b600091825260209091200155806128c181613644565b91505061280b565b506001600160a01b0382166000908152600b602052604090208054806128f1576128f1613801565b600190038181906000526020600020016000905590555b6001600160a01b0382166000908152600b602090815260408220805460018101825590835290822001829055805b6001600160a01b0384166000908152600b60205260409020548110156129aa576001600160a01b0384166000908152600b6020526040902080548290811061298057612980613618565b90600052602060002001548261299691906137ee565b9150806129a281613644565b915050612936565b506001600160a01b0383166000908152600b60205260408120546129ce9083613992565b6001600160a01b0385166000818152600b6020908152604091829020548251858152918201524281830152905192935090917f229ade9366a177b70e58b25d10f66969d5c7e18ebe6eef4c6b4955b2bd2bf54a9181900360600190a250505050565b828054828255906000526020600020908101928215612a76579160200282015b82811115612a765782518290612a6690826136e6565b5091602001919060010190612a50565b50612a82929150612b36565b5090565b50805460008255906000526020600020908101906121c09190612b36565b6040518060e00160405280606081526020016060815260200160006001600160a01b03168152602001600081526020016000151581526020016000815260200160006003811115612af757612af7613375565b905290565b508054612b089061365d565b6000825580601f10612b18575050565b601f0160209004906000526020600020908101906121c09190612b53565b80821115612a82576000612b4a8282612afc565b50600101612b36565b5b80821115612a825760008155600101612b54565b80356001600160a01b0381168114612b7f57600080fd5b919050565b600060208284031215612b9657600080fd5b612b9f82612b68565b9392505050565b60005b83811015612bc1578181015183820152602001612ba9565b50506000910152565b60008151808452612be2816020860160208601612ba6565b601f01601f19169290920160200192915050565b600081518084526020808501808196508360051b8101915082860160005b85811015612c3e578284038952612c2c848351612bca565b98850198935090840190600101612c14565b5091979650505050505050565b600081518084526020808501945080840160005b83811015612c7b57815187529582019590820190600101612c5f565b509495945050505050565b600060208083528351818401528084015160c06040850152612cab60e0850182612bf6565b90506040850151601f1980868403016060870152612cc98383612c4b565b6060880151608088810191909152880151878203830160a08901528051808352908601945060009350908501905b80841015612d175784518252938501936001939093019290850190612cf7565b5060a08801519450818782030160c0880152612d338186612c4b565b98975050505050505050565b634e487b7160e01b600052604160045260246000fd5b604051601f8201601f191681016001600160401b0381118282101715612d7d57612d7d612d3f565b604052919050565b60006001600160401b03821115612d9e57612d9e612d3f565b50601f01601f191660200190565b600082601f830112612dbd57600080fd5b8135612dd0612dcb82612d85565b612d55565b818152846020838601011115612de557600080fd5b816020850160208301376000918101602001919091529392505050565b600080600080600060a08688031215612e1a57600080fd5b612e2386612b68565b945060208601356001600160401b03811115612e3e57600080fd5b612e4a88828901612dac565b959895975050505060408401359360608101359360809091013592509050565b604080825283519082018190526000906020906060840190828701845b82811015612ea357815184529284019290840190600101612e87565b50505083810382850152612eb78186612c4b565b9695505050505050565b60006001600160401b03821115612eda57612eda612d3f565b5060051b60200190565b600082601f830112612ef557600080fd5b81356020612f05612dcb83612ec1565b82815260059290921b84018101918181019086841115612f2457600080fd5b8286015b84811015612f635780356001600160401b03811115612f475760008081fd5b612f558986838b0101612dac565b845250918301918301612f28565b509695505050505050565b60008060408385031215612f8157600080fd5b82356001600160401b0380821115612f9857600080fd5b612fa486838701612dac565b93506020850135915080821115612fba57600080fd5b50612fc785828601612ee4565b9150509250929050565b60008060408385031215612fe457600080fd5b612fed83612b68565b915060208301356001600160401b0381111561300857600080fd5b612fc785828601612dac565b60006020808301818452808551808352604092508286019150828160051b87010184880160005b8381101561309b57603f19898403018552815160a0815181865261306182870182612bca565b838b0151878c0152898401518a8801526060808501519088015260809384015193909601929092525050938601939086019060010161303b565b509098975050505050505050565b6020808252825182820181905260009190848201906040850190845b818110156130ea5783516001600160a01b0316835292840192918401916001016130c5565b50909695505050505050565b60008060006060848603121561310b57600080fd5b61311484612b68565b95602085013595506040909401359392505050565b600081518084526020808501808196508360051b8101915082860160005b85811015612c3e57828403895261315f848351612bca565b98850198935090840190600101613147565b6040815260006131846040830185613129565b82810360208401526131968185612c4b565b95945050505050565b600082601f8301126131b057600080fd5b813560206131c0612dcb83612ec1565b82815260059290921b840181019181810190868411156131df57600080fd5b8286015b84811015612f6357803583529183019183016131e3565b60008060008060008060c0878903121561321357600080fd5b86356001600160401b038082111561322a57600080fd5b6132368a838b01612dac565b9750602089013591508082111561324c57600080fd5b6132588a838b01612ee4565b9650604089013591506004821061326e57600080fd5b909450606088013593506080880135925060a0880135908082111561329257600080fd5b5061329f89828a0161319f565b9150509295509295509295565b6000602082840312156132be57600080fd5b5035919050565b600080604083850312156132d857600080fd5b6132e183612b68565b946020939093013593505050565b602081526000612b9f6020830184612c4b565b60008060006060848603121561331757600080fd5b61332084612b68565b925060208401356001600160401b038082111561333c57600080fd5b61334887838801612ee4565b9350604086013591508082111561335e57600080fd5b5061336b8682870161319f565b9150509250925092565b634e487b7160e01b600052602160045260246000fd5b600481106133a957634e487b7160e01b600052602160045260246000fd5b9052565b602081526000825160e060208401526133ca610100840182612bca565b90506020840151601f198483030160408501526133e78282612bf6565b91505060018060a01b036040850151166060840152606084015160808401526080840151151560a084015260a084015160c084015260c084015161342e60e085018261338b565b509392505050565b60c08152600061344960c0830189612bca565b6001600160a01b038816602084015260408301879052851515606084015260808301859052905061347d60a083018461338b565b979650505050505050565b6020808252601490820152731059d95b9d081b9bdd081c9959da5cdd195c995960621b604082015260600190565b600082601f8301126134c757600080fd5b815160206134d7612dcb83612ec1565b82815260059290921b840181019181810190868411156134f657600080fd5b8286015b84811015612f6357805183529183019183016134fa565b600080604080848603121561352557600080fd5b83516001600160401b038082111561353c57600080fd5b818601915086601f83011261355057600080fd5b81516020613560612dcb83612ec1565b82815260059290921b8401810191818101908a84111561357f57600080fd5b8286015b848110156135f05780518681111561359b5760008081fd5b8701603f81018d136135ad5760008081fd5b848101516135bd612dcb82612d85565b8181528e8b8385010111156135d25760008081fd5b6135e1828883018d8601612ba6565b85525050918301918301613583565b509189015191975090945050508083111561360a57600080fd5b5050612fc7858286016134b6565b634e487b7160e01b600052603260045260246000fd5b634e487b7160e01b600052601160045260246000fd5b6000600182016136565761365661362e565b5060010190565b600181811c9082168061367157607f821691505b60208210810361369157634e487b7160e01b600052602260045260246000fd5b50919050565b601f8211156136e157600081815260208120601f850160051c810160208610156136be5750805b601f850160051c820191505b818110156136dd578281556001016136ca565b5050505b505050565b81516001600160401b038111156136ff576136ff612d3f565b6137138161370d845461365d565b84613697565b602080601f83116001811461374857600084156137305750858301515b600019600386901b1c1916600185901b1785556136dd565b600085815260208120601f198616915b8281101561377757888601518255948401946001909101908401613758565b50858210156137955787850151600019600388901b60f8161c191681555b5050505050600190811b01905550565b6060815260006137b86060830186612bca565b82810360208401526137ca8186613129565b915050826040830152949350505050565b81810381811115610cd657610cd661362e565b80820180821115610cd657610cd661362e565b634e487b7160e01b600052603160045260246000fd5b60008251613829818460208701612ba6565b9190910192915050565b60208082526027908201527f436f6e666964656e636520666163746f72206d7573742062652062657477656560408201526606e20302d3130360cc1b606082015260800190565b6000816138895761388961362e565b506000190190565b81810361389c575050565b6138a6825461365d565b6001600160401b038111156138bd576138bd612d3f565b6138cb8161370d845461365d565b6000601f8211600181146138ff57600083156138e75750848201545b600019600385901b1c1916600184901b17845561090b565b600085815260209020601f19841690600086815260209020845b838110156139395782860154825560019586019590910190602001613919565b50858310156137955793015460001960f8600387901b161c19169092555050600190811b01905550565b6080815260006139766080830187612bca565b6020830195909552506040810192909252606090910152919050565b6000826139af57634e487b7160e01b600052601260045260246000fd5b50049056fea2646970667358221220aa6064143999ce7b819cc51bcab6ffdef23e2cab98e4729fbe8e52559d0f42b164736f6c63430008140033",
  "linkReferences": {},
  "deployedLinkReferences": {}
}